S01D00004652444D4B4C34365F44656D6F5F66726565646F6D2E73726563B8
S1130000F85F002011040000BB7F0000AD7F0000FA
S1130010AD7F0000AD7F0000AD7F0000AD7F00002C
S1130020AD7F0000AD7F0000AD7F0000AD7F00001C
S1130030AD7F0000AD7F0000AD7F0000AD7F00000C
S1130040AD7F0000AD7F0000AD7F0000AD7F0000FC
S1130050AD7F0000AD7F0000AD7F0000AD7F0000EC
S1130060AD7F0000AD7F0000AD7F0000AD7F0000DC
S1130070AD7F0000AD7F0000AD7F0000AD7F0000CC
S1130080AD7F0000AD7F0000AD7F0000AD7F0000BC
S1130090AD7F0000AD7F0000876D0000AD7F0000E4
S11300A0B56B0000AD7F00000D710000AD7F000056
S11300B0AD7F0000AD7F0000D77F0000AD7F000062
S11300C0FFFFFFFFFFFFFFFFFFFFFFFFFFFFFFFF3C
S11300D0FFFFFFFFFFFFFFFFFFFFFFFFFFFFFFFF2C
S11300E0FFFFFFFFFFFFFFFFFFFFFFFFFFFFFFFF1C
S11300F0FFFFFFFFFFFFFFFFFFFFFFFFFFFFFFFF0C
S1130400FFFFFFFFFFFFFFFFFFFFFFFFFEFFFFFFF9
S113041000200021002200230024002500260027BC
S113042062B607F023F8FEE780B502F0C9FA2B495B
S1130430088002F0EDFA2A49088002F011FB2949EC
S1130440088002F0CAFB2849088002F0FCFB274917
S1130450088002F031FCBB49088000F001F801BDBE
S113046080B521480021405E02F068FCB64902F0E4
S11304707EFC1F4908601D480021405E02F05EFCBE
S1130480B14902F074FCAE490860AE480021405EF8
S113049002F054FCAC4902F06AFCAC4908600F4815
S11304A00021405E02F04AFCAB4902F060FCA8491E
S11304B008600B480021405E02F040FCA64902F0AF
S11304C056FCA449086007480021405E02F036FC4F
S11304D0A14902F04CFCA849086001BDAA0C002007
S11304E0AC0C0020AE0C0020A40C0020A60C0020B4
S11304F0D0E7FF1FF0B583B09148006802F0A6FC76
S11305004900490802000B0014001D0093480068CC
S113051002F09CFC22002B0002F0B2FC90A20CCA58
S113052002F01AFD0022904B02F0D8FD00228F4BFE
S113053002F012FD8EA20CCA02F00EFD02F0A8FE1B
S113054005008248006802F081FC02000B005B0099
S11305505B0816001F007A48006802F077FC32003E
S11305603B0002F08DFC7EA20CCA02F0F5FC0022D6
S11305707D4B02F0B3FD00227C4B02F0EDFC7CA22B
S11305800CCA02F0E9FC02F083FE04007348006820
S113059002F05CFC4900490802000B0016001F0031
S11305A06A48006802F052FC32003B0002F068FC2A
S11305B06BA20CCA02F0D0FC00226B4B02F08EFD41
S11305C000226A4B02F0C8FC69A20CCA02F0C4FC07
S11305D002F05EFE052D00DB0425052C00DB04245F
S11305E0052800DB04200C2141433C22624396236E
S11305F05B006B43AB4EF3189A1851188A680C21B0
S113060041433C236343962676006E43A54FBE19AF
S1130610F318A54E36885E520C2343433C216143B4
S1130620962676006E439F4FBE197118C9189F4BCA
S11306301B884B800C2343433C2161439626760060
S11306406E43984FBE197118C918994B1B888B803B
S11306500C2148433C214C43962149004D43914988
S11306604919091908189349096881600020C04391
S1130670824264D190480068602805DA8E48006898
S1130680401C8D4908605AE08A48016800220192A2
S11306901300002500E06D1C052D41DA00243BE029
S11306A00C27474300973C276743BC4696277F00A7
S11306B06F437C4EF6196746F619009FF619B66823
S11306C00027FF43BE4223D00C27474300973C2713
S11306D06743BC4696277F006F43724EF619674600
S11306E0F619009FF619B6688E4211DA2B000194B0
S11306F002000C275743019E3C214E43B4469626E4
S113070076005E436749891966468919C91989685B
S1130710401C0528C4DB641C052CBCDA0020F8E767
S11307200C20424301983C214843962149004B4305
S11307305C49C918081880180021C9438160F7BDB5
S1130740D4E7FF1FA80C0020FEFF7F39D8E7FF1F66
S1130750ACE7FF1FB0E7FF1FCDCCCC3DD0E7FF1FB8
S113076000000020DCA54C400080564000001440EE
S1130770000000206CC1763FB4E7FF1F70B54F48FE
S11307800068002818D04E4800684E49096802F0F5
S1130790DEFD4D4908604D4800684D49096802F086
S11307A0D6FD4C4908604C4800684C49096802F081
S11307B0CEFD4B4908600BE043484149096801609C
S11307C04448424909680160454843490968016051
S11307D044480068002864D04348006801683A48E7
S11307E0006802F0C4FA01000C003F480068416848
S11307F03848006802F0BBFA210002F070FD0100E5
S11308000C003948006881683548006802F0AFFA86
S1130810210002F064FD05003348406801682A485D
S1130820006802F0A4FA01000C002F4840684168F7
S11308302848006802F09BFA210002F050FD0100F4
S11308400C002948406881682548006802F08FFA46
S1130850210002F044FD06002348806801681A481C
S1130860006802F084FA01000C001F4880684168A7
S11308701848006802F07BFA210002F030FD010004
S11308800C001948806881681548006802F06FFA06
S1130890210002F024FD0C490D600E490E60104940
S11308A0086070BD14E8FF1FAA0C0020AC0C0020E7
S11308B0AE0C00200CE8FF1F10E8FF1F20E4FF1F10
S11308C0ACE7FF1FF0EDFF1FB8E7FF1FB0E7FF1F06
S11308D0F4EDFF1FBCE7FF1FB4E7FF1FF8EDFF1F98
S11308E0C0E7FF1F24E4FF1F20EEFF1FFBB584B009
S11308F014000C9E0D9D0699069802F038FA01002A
S11309000F003000310002F032FA390002F0E7FC47
S113091001000F002800290002F029FA390002F032
S1130920DEFC02F093FA02F06AFD02F0C7FD01005A
S1130930FE20800502F0F3FD01900499049802F072
S113094016FA01000F000599059802F010FA390013
S113095002F0C5FC01000F002000210002F007FA9C
S1130960390002F0BCFC02F071FA02F048FD02F01A
S1130970A5FD0100FE20800502F0D1FD07000699C7
S1130980049802F0F4F9010000910598310002F096
S1130990EEF9009902F0A3FC010000912800210067
S11309A002F0E5F9009902F09AFC0100019802F0C6
S11309B0DEF9390002F0DBF902F048FA02F004FE35
S11309C002F07CFDC84902F0D2F9C8490860280049
S11309D002F03CFA02000B0000920193300002F096
S11309E035FA009A019B02F04BFA02F067FDBE490A
S11309F002F0BDF9BE490860BD480168BD4802F077
S1130A00B6F902F023FA02F063FE02F057FD0390F8
S1130A10B7480168B74802F0AAF902F017FA02F0E1
S1130A205CFE02F04BFD02900599029802F09FF9DA
S1130A3007000398210002F09AF90100380002F03F
S1130A4086FCAD4908600599039802F090F901000D
S1130A500F000298210002F08AF9390002F03FFCED
S1130A6004000398310002F082F901000E0002989C
S1130A70290002F07CF9310002F031FC0500280065
S1130A80002102F02FFE0CD10698002102F03AFE5C
S1130A9003D89A489A49016015E098489949016039
S1130AA011E00698802109064840290002F037FD2C
S1130AB002F0CCF902F03AFE02F000FD8A4902F09D
S1130AC056F98E4908608D4801688A4802F04FF94A
S1130AD002F0BCF902F0FCFD02F0F0FC06008748CD
S1130AE00168844802F043F902F0B0F902F0F5FD20
S1130AF002F0E4FC05000498290002F038F9010032
S1130B000F002000310002F032F9390002F0E7FB57
S1130B107D4908600498802109064840310002F0AC
S1130B2026F901000F002000290002F020F9390005
S1130B3002F0D5FB754908607548006800281AD092
S1130B407148006802F082F902000B0000920193E0
S1130B506948006880210906484002F077F9009A44
S1130B60019B02F08DF902F0A9FC5F4902F0FFF845
S1130B709D49086017E0049802F068F902000B0030
S1130B8000920193059880210906484002F05EF91D
S1130B90009A019B02F074F902F090FC524902F0B1
S1130BA0E6F89149086090480168524802F0DFF87D
S1130BB002F04CF902F08CFD02F080FC04008A483B
S1130BC001684C4802F0D3F802F040F902F085FDC8
S1130BD002F074FC070084480068002102F0FAFD6A
S1130BE006D281480168814802F079FB7E49086099
S1130BF07F487D49096801602800390002F0B7F890
S1130C007C49096808602800210002F0B0F879499D
S1130C100968486077480068310080221206514014
S1130C2081603800310002F0A2F80100039802F05C
S1130C309EF800900298210002F099F801000098B3
S1130C4002F085FB6B49496808600298390002F09C
S1130C508EF8010000910398310002F088F8210019
S1130C6002F085F8009902F03AFB6249496848604D
S1130C700398290002F07BF85E494968886002986D
S1130C80390002F074F8310002F071F801000091AB
S1130C900398210002F06BF8009902F020FB5549FB
S1130CA0896808600298310002F061F8210002F0BE
S1130CB05EF804000398390002F059F8010020009E
S1130CC002F045FB4B49896848600298290002F00C
S1130CD04EF84849896888604749464801F036FB20
S1130CE000F0D8FE07B0F0BDE12E6542FCE7FF1F1F
S1130CF0DCE7FF1F35FA8E3CC8E7FF1FE4E7FF1F60
S1130D000000B4C20000B442C4E7FF1FCCE7FF1FD9
S1130D1028E4FF1F80B539480068002862D0C14824
S1130D200068182857DB3648006800280BD0344880
S1130D300068002854D0BC480068FA21490002F039
S1130D4072FD00294CD100F083F82E4800682E492A
S1130D50096802F0D7FC29D82C4800682C4902F015
S1130D60D1FC23D8294800682A4902F033FD1DD25A
S1130D70294802F0FFFF23482349096801602748F6
S1130D802249096801602648264909680160264805
S1130D902649096801602648264909680160032339
S1130DA003222549254800F017FB02E0244802F0FD
S1130DB0E1FF14480168234801F0D9FF224901F0FA
S1130DC0D6FF9A4901F0D3FF0E49096802F087FA69
S1130DD00C49086004E0934801681C4802F0CAFF0B
S1130DE001F0F4FC01BD0000ECE7FF1F0000B44378
S1130DF0F4E7FF1F00EFFF1F400900201CE4FF1F62
S1130E0008E8FF1F30EEFF1FD4EEFF1FD0EEFF1FD8
S1130E100000A0400100C842788300002CEEFF1FB0
S1130E20F0EDFF1F94EEFF1FF4EDFF1F98EEFF1F80
S1130E30F8EDFF1F9CEEFF1FC4EEFF1F20EEFF1F07
S1130E40A08300007E735A3B0000FA43FC84000038
S1130E50F0B587B0764802F08DFF72480268724898
S1130E600168744802F086FF002003900490059006
S1130E7000240020009002E00098401C009000989C
S1130E80052800DBB6E000200290ACE001980C21BC
S1130E90484302993C225143009A96235B005A43EB
S1130EA0654B9A185118081880680021C943884274
S1130EB000D18EE001980C21484302993C22514311
S1130EC0009A96235B005A435B4B9A185118085EAC
S1130ED001F034FF594901F04AFF0500022001994D
S1130EE00C225143029A3C235A43009B96267600D7
S1130EF07343514EF3189A185118085E01F01EFFFF
S1130F004E4901F034FF0600042001990C2251439C
S1130F10029A3C235A43009B96277F007B43464F0B
S1130F20FB189A185118085E01F008FF434901F0B4
S1130F301EFF0700002C02D1059504960397280094
S1130F40059902F004FA394901F011FF0500300057
S1130F50049902F0FCF9354901F009FF0600380054
S1130F60039902F0F4F9314901F001FF0700280068
S1130F70290001F0FCFE04216143314A5158086004
S1130F803000310001F0F3FE042161432C4A515832
S1130F9048603800390001F0EAFE04216143284A20
S1130FA0515888600420604325490858C5600420CE
S1130FB060432349085806610420604320490858C7
S1130FC04761042060431E490858FE218905816158
S1130FD0641C0198401C01900198052800DA55E72B
S1130FE00298401C02900298052800DB44E7002088
S1130FF00190F1E707200190072000900948036859
S11310000F4A0F49E04800F001FAF14BEF4A07217B
S1131010DD4800F03CFA00200090EC4800680168CC
S113102001241FE010E8FF1F0CE8FF1F0AD7A33CB0
S1131030C88500000480000014E8FF1FCDCCCC3D1F
S1131040ECF9FF1F04206043E04A1058006802F0E6
S1131050C1FB06D20094009804214843DB49085898
S11310600168641C072CEDDB009804214843D8492F
S113107009680858D349096808600098042148435E
S1131080D34949680858CF49496848600098042101
S11310904843CF4989680858CA498968886000204C
S11310A0C84989684860C74989680860C54949686A
S11310B08860C44949680860C24909688860C149B0
S11310C009684860009804214843C149C96809581F
S11310D0BF20000601F04BFEBA490968096802F016
S11310E01EFAAE490860009804214843B8490969CA
S11310F00958BF20000601F03AFEB2494968496820
S113110002F00DFAA6490860009804214843B0494A
S113111049690958BF20000601F029FEA9498968D8
S1131120896802F0FCF99F490860A64800680168D4
S1131130A4484068406801F01AFEA2498968896899
S113114001F015FE9D4908609C480068002102F0EA
S113115041FB1BD2032303228C499A4800F01CFC58
S11311600098042148439A498969009A04235A4300
S1131170974B9B699A5880231B065A400A508F4804
S11311808E49096880221206514001608D4800682A
S113119001688248006801F0EAFD8049096801F0AD
S11311A0E6FD01000C008748406841687C480068FF
S11311B001F0DDFD7A49096801F0D9FD210002F052
S11311C08EF801000C007F488068816875480068CB
S11311D001F0CDFD7349096801F0C9FD210002F059
S11311E07EF8009904225143794A9269515802F0D9
S11311F0AEF801F02BFE4900490802F000F902F0B4
S11312005DF96F4908600098042148436F49085804
S1131210006801F01BFE04000D006D006D085C48C1
S1131220006802F0CDFD02000B002000290002F04E
S1131230DFFD02F0E4F802F041F9564901F097FDB0
S113124004005F4801688020C00501F090FD5C49FE
S1131250096801F08CFD0100200002F060F94E499C
S113126008604E480168504801F081FD059902F07C
S113127036F84A4908604A4801684B4801F077FD4E
S1131280049902F02CF8464908604648016846482B
S113129001F06DFD039902F022F8424908604848C4
S11312A00168414801F063FD454908603FA20CCA4A
S11312B014001D004148006801F0C8FD22002B0005
S11312C003F05AF80323032215001C0002F0F6F879
S11312D0010023002A003B4800F05EFB35A20CCA43
S11312E014001D003548006801F0B0FD22002B00F9
S11312F003F042F802F0E2F83149096801F037FDE1
S11313002F4908602F480068006801F09FFD4900DC
S1131310490802F074F802F0D1F82B490968086012
S113132028484068406801F091FD4900490802F0EE
S113133066F802F0C3F82449496848602148806887
S1131340806801F083FD4900490802F058F802F072
S1131350B5F81D498968886000201B498968486080
S113136019498968086018494968886016494968B4
S11313700860154909688860134909684860154878
S11313800121016007B0F0BD10FDFF1F000080BF08
S113139010E8FF1F0000C842D4EEFF1F94EEFF1FA9
S11313A098EEFF1F9CEEFF1F000048420000006003
S11313B05555D5BF000000605555C5BFD8EEFF1F79
S11313C0D0EEFF1F58EEFF1FC4EEFF1F48FDFF1FA6
S11313D030FCFF1F08E8FF1FF5B5002210E00420D1
S11313E0604304255543009E76590425654304272C
S11313F05743CF597D593550641C9C42EFDB521C36
S11314000198824201DA0024F7E7F3BDFEB582B009
S11314100400002500E06D1C0A98854235DA002698
S113142027E004227243042068432058009201906C
S113143004226A43042179430298405881580423C2
S1131440734304227A4303988058C05801F08FFCF8
S113145004227243042169436158895801F03FFF13
S113146001000198009A81507F1C04988742D8DBC0
S1131470761C0B988642CEDA04207043042169431B
S1131480615800220A500027EFE705B0F0BDFFB510
S113149087B0002521E004206043042169430A9AAF
S11314A0515800220A50641C08988442F3DB04203B
S11314B06843042169430A9A5158FE2292050A504E
S11314C00420684304216943079A515808580421A9
S11314D06943099A515808606D1C0898854201DADD
S11314E00024E1E7002005900020049000251BE083
S11314F0049801F0ABFC06000F00042060430421B3
S11315006943079A5158085801F0A0FC490049085A
S113151032003B0001F0E2FD01F0D0FF0490641CB6
S113152008988442E4DB6D1C0898401E854202DA68
S11315302C00641CF4E70498002102F0E3F800D3C3
S113154000E2002500E06D1C0898401E854200DB87
S1131550F8E12C00641C51E0042070430421694329
S1131560079A51580F58042272430420684307997C
S11315700858009201900398390001F0F8FB042305
S113158073430422624307998958C95801F0A7FE9E
S1131590029901F0ECFB0100380001F0D8FE0100D3
S11315A00198009A81500421714304206043079AF2
S11315B01058009101900399042373430422624359
S11315C007988058C05801F0D2FB0100380001F0A0
S11315D0BEFE029901F0CBFB042373430422624351
S11315E007998958C95801F07AFE020001980099B8
S11315F04250761C08988642AEDB641C08988442EC
S1131600A1DA0420604304216943079A5158085819
S113161001F01CFC490049080022002303F0C4F82F
S1131620EBD20420604309990858006804216943F7
S1131630099A5158096801F08AFEFC21890501F0D4
S113164096FB0421614304226A43079B9A5851582C
S113165001F065FF0700380001F0F8FB4900490874
S11316606A4603C2083A3800390001F080FBFE21C3
S1131670890501F034FE01F0E9FB01F0C0FE02002F
S11316800B00684603C801F029FD01F017FF0100B3
S1131690FE20800501F043FF06003800002102F01F
S11316A099F802D28020000646403000310001F053
S11316B05EFBFE21890501F012FE01F0C7FB01F07B
S11316C09EFE01F0FBFE0100FE20800501F027FFD5
S11316D007003000390001F04AFB0290FE2080052B
S11316E0390001F0FCFD0100029801F018FF03909D
S11316F00420604304216943079A51580858310073
S113170001F035FB07000420684309990858006874
S1131710390001F01CFE04216943099A51580860FC
S113172004206043099908580068390001F0D7FD86
S113173004216143099A515808600420604304213C
S11317406943079A515800220A5000264DE00420AC
S11317506843042171430A9A51580F5804226A437A
S1131760042070430A9908580092019003983900A4
S113177001F0FDFA04236343042272430A99895851
S1131780C95801F0ACFD029901F0F1FA01003800EA
S113179001F0DDFD01000198009A815004216143AC
S11317A0042070430A9A105800910190039904236D
S11317B06343042272430A988058C05801F0D7FA50
S11317C00100380001F0C3FD029901F0D0FA0423AE
S11317D06343042272430A998958C95801F07FFD72
S11317E00200019800994250761C08988642AEDBAC
S11317F000264DE00420684304217143079A5158A0
S11318000F5804226A430420704307990858009231
S113181001900398390001F0AAFA042363430422D7
S1131820724307998958C95801F059FD029901F08A
S11318309EFA0100380001F08AFD01000198009A27
S113184081500421614304207043079A1058009189
S11318500190039904236343042272430798805838
S1131860C05801F084FA0100380001F070FD0299BB
S113187001F07DFA042363430422724307998958D3
S1131880C95801F02CFD0200019800994250761CC1
S1131890681EB042AEDA2E00761C4DE00420704380
S11318A004216943079A51580F58042272430420B3
S11318B0684307990858009201900398390001F091
S11318C056FA042363430422724307998958C9587A
S11318D001F005FD029901F04AFA0100380001F017
S11318E036FD01000198009A8150042161430420CF
S11318F07043079A1058009101900399042363439D
S11319000422724307988058C05801F030FA01004D
S1131910380001F01CFD029901F029FA0423634305
S11319200422724307998958C95801F0D8FC02006F
S1131930019800994250761C601EB042AEDA26002F
S1131940761C57E60498002101F0DCFE06D20599C6
S11319500800401C05900F2900DAC5E5002512E0B7
S11319600420604304216943079A515804226A43BE
S113197004236343079EF3589A580A50641C08983A
S11319808442EDDB6D1C0898401E854202DA2C006F
S1131990641CF4E70BB0F0BDFEB582B00400002572
S11319A015E0042171430420684327580091042062
S11319B070430421694361580958029801F0D7F92A
S11319C000997850761C04988642EADB6D1C0398D3
S11319D0854201DA0026F6E705B0F0BDFEB582B017
S11319E00400002500E06D1C0498854235DA0026C9
S11319F027E0042272430420684320580092019097
S1131A0004227A43042169430298405881580423EC
S1131A10734304227A4303988058C05801F0A7F90D
S1131A2004227243042169436158895801F057FC28
S1131A3001000198009A81507F1C0A988742D8DBE4
S1131A40761C0B988642CEDA042070430421694345
S1131A50615800220A500027EFE705B0F0BD70B5C9
S1131A60002212E004245C43042555434559002612
S1131A702E515B1C8B42F5DB042353430424544353
S1131A800459FE25AD05E550521C8A4201DA0023B3
S1131A90F0E770BDE0B53D480068002809D1032394
S1131AA003223B493B48FFF797FC3B483B49096805
S1131AB001600323032237493948FFF78DFC0320D3
S1131AC00190032000900323324A3149354800F045
S1131AD079F80020029002AA3349324800F0B3F8A2
S1131AE00298F621890501F042F902002E492D4899
S1131AF000F0D2F903200190032000900323254A2B
S1131B0028492A48FFF76AFF03230322274921486B
S1131B10FFF762FC26480068002810D12548009091
S1131B20254B264A26491B4800F0EAFA2248036856
S1131B302248026822480168164800F047FB17480B
S1131B4000681549096801F002FC02900298CA492C
S1131B5001F0D8FD04D80298C84901F0C0FB0290F6
S1131B600298C74901F036FE04D20298C54901F033
S1131B70B6FB02900298F621890501F0F8F80649AF
S1131B80096801F0ACFB0449086007BD0CE8FF1FBD
S1131B9000EFFF1F30EFFF1F00E8FF1FFCE7FF1FF0
S1131BA060EFFF1FE808002030090020180900201A
S1131BB03C090020F8E7FF1FF0E7FF1FE8E7FF1FDD
S1131BC0E0E7FF1FFEB582B00400002500E06D1CB5
S1131BD00498854235DA002627E004227243042063
S1131BE0684320580092019004227A4304216943F7
S1131BF002984058815804237B430422724303987B
S1131C008058C05801F0B3F8042272430421694398
S1131C106158895801F063FB01000198009A8150D2
S1131C207F1C0A988742D8DB761C0B988642CEDA52
S1131C300420704304216943615800220A5000279C
S1131C40EFE705B0F0BDF8B506000D0014003068EC
S1131C5001687068406801F042FBB168896801F06E
S1131C603EFB009070688068B168496801F06FFBC2
S1131C7029680860B06800683168896801F067FB0A
S1131C8069680860306840687168096801F05FFB42
S1131C90A9680860286801682868006801F067F886
S1131CA001000F00686801686868006801F05FF867
S1131CB0390001F014FB01000F00A8680168A8684E
S1131CC0006801F054F8390001F009FB01F0BEF896
S1131CD001F095FB01F0F2FB07003800002101F050
S1131CE001FD3DD0FE208005390001F018FC0700FD
S1131CF028680068390001F03AF8296808606868C3
S1131D000068390001F033F869680860A868006861
S1131D10390001F02CF8A968086000985A4901F0CC
S1131D20F1FC02D80020206019E00098574901F026
S1131D3051FD02D25648206011E00099554801F047
S1131D40CEFAFC21890501F012F801F07FF802F0C7
S1131D5045FD01F0B3FBE94901F009F820608AE090
S1131D600098002101F0CEFC0BD22868FE218905E1
S1131D7001600020A968086069680860002020608C
S1131D8079E030680168FE20800501F0A8FAFC21A2
S1131D90890500F0ECFF01F059F84900490801F009
S1131DA02EFB01F08BFB2968086030684068002135
S1131DB001F0A8FC14D870684168FE20800501F089
S1131DC08EFAFC21890500F0D2FF01F03FF84900AA
S1131DD0490801F014FB01F071FB6968086016E022
S1131DE070684168FE20800501F079FAFC218905BC
S1131DF000F0BDFF01F02AF84900490801F0FFFA9C
S1131E0080221206514001F059FB6968086030686D
S1131E108068002101F076FC14D8B0688168FE2047
S1131E20800501F05CFAFC21890500F0A0FF01F0B7
S1131E300DF84900490801F0E2FA01F03FFBA968F6
S1131E40086016E0B0688168FE20800501F047FA5A
S1131E50FC21890500F08BFF00F0F8FF49004908D8
S1131E6001F0CDFA80221206514001F027FBA96847
S1131E70086007482060F1BD010034430000B4C38A
S1131E80000034C30000B44300004040FEFF7FBFA5
S1131E9000003443000080BFF0B583B005000C009F
S1131EA0160020680068002101F01CFC21D1606844
S1131EB00068002101F016FC1BD1A0680068002115
S1131EC001F010FC15D1FE208005A96888606968BE
S1131ED04860296808600020A9684860A96808600B
S1131EE0696888606968086029688860296848604A
S1131EF003E1B548310000F03AFF00F0A7FF01F01C
S1131F00E7FB01F0DBFA0700AF48310000F02FFFD8
S1131F1000F09CFF01F0E1FB01F0D0FA0190FE20FB
S1131F208005019901F013FA060020680168206811
S1131F30006800F01CFF010000916068016860689F
S1131F40006800F014FF009901F0C9F90100009144
S1131F50A0680168A068006800F009FF009901F01A
S1131F60BEF900F073FF01F04AFA01F0A7FA01008C
S1131F70FE20800501F0D3FA0090206801680098E3
S1131F8000F0F5FE2168086060680168009800F0C0
S1131F90EEFE61680860A0680168009800F0E7FE42
S1131FA0A1680860206801682068006800F0DFFE0E
S1131FB0310000F0DCFE0100019801F090F929687D
S1131FC00860606801686068006800F0D0FE310055
S1131FD000F0CDFE0100019801F081F969684860C4
S1131FE0A0680168A068006800F0C1FE310000F03C
S1131FF0BEFE0100019801F072F9A96888602068AA
S113200001686068006800F0B2FE310000F0AFFEC5
S113201001000091A0680068390000F0A8FE009952
S113202001F05DF92968486020680168606800680B
S113203000F09DFE310000F09AFE0090A068006858
S1132040390000F094FE0100009801F080F96968FD
S1132050086020680168A068006800F088FE31000C
S113206000F085FE009060680068390000F07FFE93
S11320700100009801F06BF9296888602068016804
S1132080A068006800F073FE310000F070FE0100EB
S1132090009160680068390000F069FE009901F061
S11320A01EF9A968086060680168A068006800F00B
S11320B05EFE310000F05BFE0100009120680068C4
S11320C0390000F054FE009901F009F9696888604C
S11320D060680168A068006800F049FE310000F003
S11320E046FE060020680068390000F040FE01004A
S11320F0300001F02CF9A9684860F7BDE12E654273
S1132100F0B583B005000F0014001E002868806835
S1132110FE21890501F0F6FA02D88848206018E00B
S113212028688068864901F055FB02D28548206002
S11321300FE02868806880210906484000F086FE88
S113214001F042FA01F0BAF901007F4800F00FFEF5
S11321502060A868806800F079FE02000B000092FD
S113216001936868806800F071FE009A019B00F09A
S113217087FE01F0A3F9744900F0F9FD386028687E
S1132180006800F063FE02000B00009201932868CF
S1132190406800F05BFE009A019B00F071FE01F0C4
S11321A08DF9694900F0E3FD30603068002101F0E9
S11321B011FB04D23168D84801F091F830600898D6
S11321C031680160F7BD000035FA8E3CF9B583B083
S11321D00C001700D148210000F0C9FD00F036FEC4
S11321E001F076FA01F06AF90290CC48390000F067
S11321F0BEFD00F02BFE01F06BFA01F05FF9050063
S11322000499C64800F0B3FD00F020FE01F060FA26
S113221001F054F90190C148210000F0A8FD00F03C
S113222015FE01F05AFA01F049F90600BB483900DD
S113223000F09DFD00F00AFE01F04FFA01F03EF9B6
S113224004000499B54800F092FD00F0FFFD01F090
S113225044FA01F033F907002000390000F087FD4B
S11322600399096808600198210000F080FD039932
S113227009684860039800682900802212065140CA
S113228081603800290000F072FD0100029800F01E
S11322906EFD00900198310000F069FD0100009886
S11322A001F055F80399496808603000390000F0DE
S11322B05EFD010000910298290000F058FD01998B
S11322C000F055FD009901F00AF803994968486047
S11322D00298210000F04BFD0399496888603000A2
S11322E0390000F044FD290000F041FD0100009197
S11322F00299019800F03BFD009900F0F0FF03996A
S1132300896808603000290000F031FD019900F06F
S11323102EFD05000298390000F029FD0100280077
S113232001F015F80399896848602000310000F035
S11323301EFD03998968886005B0F0BD0000B4C231
S1132340FEFF7FBF0000B442E12E6542F8B50400F1
S11323500D0020680168FE20800500F0C0FF616860
S1132360496800F0BCFFA168896800F0B8FF00214B
S113237001F0C8F944D200F069FD01F040F801F021
S11323809DF8FC21890500F0F2FC2860FE20800500
S1132390296801F0C4F80700FA208005390000F02C
S11323A0E6FC01000E0060688068A168496800F0DE
S11323B0CEFF310000F0DBFC6860FA2080053900B4
S11323C000F0D5FC01000E00A0680068216889684F
S11323D000F0BDFF310000F0CAFCA860FA208005BF
S11323E0390000F0C4FC01000E00206840686168F8
S11323F0096800F0ACFF310000F0B9FCE86050E07F
S11324000020286020680168FC20800500F0AFFCF3
S1132410FC21890500F063FF00F018FD490049081C
S113242000F0EDFF01F04AF8686060684168FC2044
S1132430800500F09CFCFC21890500F050FF00F0B1
S113244005FD4900490800F0DAFF01F037F8A860FB
S1132450A0688168FC20800500F089FCFC218905C6
S113246000F03DFF00F0F2FC4900490800F0C7FF0E
S113247001F024F8E86020684068002101F0AAF91E
S113248004D2A868802109064840A86020688068B2
S1132490002101F09FF904D2E86880210906484030
S11324A0E860F1BD70B503214548FFF7D8FA002074
S11324B0444908604449086044490860444800218C
S11324C00160444844490160444800210160444893
S11324D000210160434800210160002000E0401C0D
S11324E0052817DA002111E00C2353433C244C4304
S11324F096256D004543B44E75192C19E318002434
S1132500E4439C60521C052AEEDB491C0529E6DAEB
S11325100022F8E770BD00000000B44335FA8E3C99
S113252000B583B0FDF780FFFDF7E4FFFEF726F961
S11325302D48006801902D48006800902C480368DD
S11325402C4802682C4801682C480068FEF7CEF934
S113255000F026F921480068002829D02849294894
S1132560006802F0B9F92849086028492848006839
S113257002F0B2F92749086027498448006802F04C
S1132580ABF983490860FF20683081490968401A23
S11325907F4908607E4802687E497F4801F0FCFB61
S11325A07D4802F062FA7D4879490968016001E0DA
S11325B0FEF7B0FB0A480068401C0949086007BDE3
S11325C020EEFF1FF8EDFF1FF4EDFF1FF0EDFF1FDE
S11325D02CEEFF1F30EEFF1F00007A4408E8FF1FB7
S11325E00CE8FF1F10E8FF1FD8E7FF1FD4E7FF1F09
S11325F0D0E7FF1FC0E7FF1FBCE7FF1FB8E7FF1FBF
S1132600C4E6FF1F500900205C090020E8E6FF1F14
S113261054090020600900200CE7FF1F10B50020BA
S113262050E004214143734A0C234343724CE318A2
S1132630535004214143714A0C234343704CE31823
S11326405350042141436F4A0C2343436E4CE31817
S11326505350042141436D4A0C2343436C4CE3180B
S11326605350042141436B4A0C2343436A4CE318FF
S1132670535004214143694A0C234343684CE318F3
S1132680535004214143674A04234343664CE318EF
S1132690535004214143654A0C234343644CE318DB
S11326A0535004214143634A0C234343624CE318CF
S11326B0535004214143614A0C234343604CE318C3
S11326C05350401C0328ACDB002020E0042141438C
S11326D05C4A042343435C4CE318535004214143B4
S11326E05A4A042343435A4CE318535004214143A8
S11326F0584A10234343584CE31853500421414390
S1132700564A10234343564CE3185350401C0428A4
S1132710DCDB002018E004214143524A1C234343DC
S1132720514CE318535004214143504A1C23434362
S11327304F4CE3185350042141434E4A042343436E
S11327404D4CE3185350401C0728E4DB002018E0EC
S113275004214143494A1C234343494CE318535041
S113276004214143474A10234343474CE318535041
S113277004214143454A04234343454CE318535041
S1132780401C6028E4DBFFF78DFE10BD58090020D3
S113279064090020BC8900006809002004E8FF1FC8
S11327A080B53C48006802F0DFF93B4908603B48CB
S11327B0006802F0D9F93A4908603A48006802F022
S11327C0D3F93949086001BD14E8FF1F10B584B07E
S11327D000243648006864214843182101F023F896
S11327E0040022003249684601F0D6FA684602F035
S11327F03CF91FBD20EEFF1FFCEDFF1FC4EEFF1FC1
S1132800A0EEFF1F58EEFF1F34EEFF1F88EEFF1FE0
S113281064EEFF1FE8080020C40800201809002007
S1132820F4080020300900202409002000EFFF1FD5
S1132830DCEEFF1F30EFFF1F0CEFFF1F60EFFF1FE9
S11328403CEFFF1F6408002054080020F407002018
S1132850E40700204408002004080020B4080020F5
S11328607408002030FCFF1F6CFBFF1F10FDFF1FCE
S11328704CFCFF1F48FDFF1F2CFDFF1FECF9FF1F41
S11328806CEFFF1F6403002064FDFF1F640600203B
S1132890E4040020DCE7FF1F50090020E4E7FF1FE9
S11328A054090020ECE7FF1F5809002010E8FF1F1F
S11328B0C48900007047000000B5002001E000BF9B
S11328C0401C2828FBDB00BD10B50400784802F04A
S11328D08BF91C21764802F083F9754802F096F9C9
S11328E0734802F09CF92100C9B2714802F078F9EA
S11328F06F4802F08BF96E4802F091F96C4802F0CF
S11329006AF91D216A4802F06BF9694802F07EF900
S1132910674802F084F9664802F049F9644802F015
S113292055F9634802F05EF90400614802F06EF95B
S11329305F4802F062F95E4802F054F90400FFF7C0
S1132940BBFF2000C0B210BD38B504000D005848CC
S113295002F04AF91C21564802F042F9544802F0A8
S113296055F9534802F05BF92100C9B2504802F00E
S113297037F94F4802F04AF94D4802F050F929005E
S1132980C9B24B4802F02CF9494802F03FF94848D3
S113299002F045F9464802F030F9FFF78DFF31BDEA
S11329A080B5FFF787FF00211020FFF7CDFF8021BE
S11329B01120FFF7C9FF01211020FFF7C5FF01BD5A
S11329C080B50020FFF780FF00071DD00120FFF72E
S11329D07BFF0002374908800220FFF775FF354965
S11329E00988C0B20143334801800120FFF76CFF1E
S11329F00002334908800220FFF766FF3049098846
S1132A00C0B201432E4801802D480021405E02BD22
S1132A1080B50020FFF758FF00071DD00320FFF703
S1132A2053FF0002244908800420FFF74DFF224988
S1132A300988C0B20143204801800320FFF744FF06
S1132A400002204908800420FFF73EFF1D49098841
S1132A50C0B201431B4801801A480021405E02BDF8
S1132A6080B50020FFF730FF00071DD00520FFF7D9
S1132A702BFF0002114908800620FFF725FF0F49AC
S1132A800988C0B201430D4801800520FFF71CFFEF
S1132A9000020D4908800620FFF716FF0A4909883D
S1132AA0C0B201430848018007480021405E02BDCE
S1132AB0006006408C0C00208E0C0020900C00203E
S1132AC0920C0020940C0020960C002080B57948CC
S1132AD002F0ADF801BD000000B5002001E000BF28
S1132AE0401C2828FBDB00BD10B50400714802F02F
S1132AF07BF83A216F4802F073F86E4802F086F8CA
S1132B006C4802F08CF82100C9B26A4802F068F8F7
S1132B10684802F07BF8674802F081F8654802F0E3
S1132B205AF83B21634802F05BF8624802F06EF801
S1132B30604802F074F85F4802F039F85D4802F02A
S1132B4045F85C4802F04EF804005A4802F05EF87A
S1132B50584802F052F8574802F044F80400FFF7CE
S1132B60BBFF2000C0B210BD38B504000D005148B1
S1132B7002F03AF83A214F4802F032F84D4802F098
S1132B8045F84C4802F04BF82100C9B2494802F01C
S1132B9027F8484802F03AF8464802F040F829007D
S1132BA0C9B2444802F01CF8424802F02FF84148E8
S1132BB002F035F83F4802F020F8FFF78DFF31BDF1
S1132BC080B5FFF783FF2A20FFF78EFF0121014321
S1132BD0C9B22A20FFF7C8FF01BD80B50020FFF766
S1132BE083FF00072BD00120FFF77EFF00024D4931
S1132BF008800220FFF778FF4A490988C0B20143E0
S1132C004848018047480021405E00B28010454991
S1132C1008800120FFF768FF000245490880022070
S1132C20FFF762FF42490988C0B20143404801806E
S1132C303F480021405E00B200123D4908803C48F4
S1132C400021405E02BD80B50020FFF74DFF000764
S1132C502BD00320FFF748FF0002334908800420EB
S1132C60FFF742FF30490988C0B201432E48018072
S1132C702D480021405E00B280102B4908800320BB
S1132C80FFF732FF00022B4908800420FFF72CFFD6
S1132C9028490988C0B201432648018025480021FB
S1132CA0405E00B200122349088022480021405EA1
S1132CB002BD00000060064080B50020FFF714FF4D
S1132CC000072BD00520FFF70FFF000217490880EB
S1132CD00620FFF709FF15490988C0B201431348CC
S1132CE0018012480021405E00B280100F49088024
S1132CF00520FFF7F9FE00020F4908800620FFF7C0
S1132D00F3FE0D490988C0B201430B4801800A480B
S1132D100021405E00B200120749088006480021E5
S1132D20405E02BD980C00209A0C00209C0C0020F0
S1132D309E0C0020A00C0020A20C00209D2102006B
S1132D4008D5F446524200F005F80122D207104398
S1132D50604700000AD002D4491E9218FCD5C90568
S1132D60100A1206524100D3012A4841704730B478
S1132D7005004D400122D20715404B180418240EBB
S1132D8030D01B0E34D0FF2C36D0FF2B3CD0E418AF
S1132D900002090210431143000A090A9446C2B210
S1132DA04A43000AC3B24B43000A4843110A5B1862
S1132DB0190A12061B0C1A43120A091801D44918DD
S1132DC0641E080A7F3C23DBFE2C08DAE4050906AE
S1132DD01143634699416041284330BC7047FF204A
S1132DE0C005F9E728001B0EFF2BF6D1D043F4E70A
S1132DF02800FF2CF1D1F9E74002F7D1FF2B01D1D4
S1132E004902F3D1E005E7E7D8054902E4D0EDE74C
S1132E1043020020641CDFD15B129B1CDCD9D80563
S1132E20DAE738B4012100220368001D002B0BD01F
S1132E300468001D0C4202D04D466D1E64192260C8
S1132E40241D1B1FF0D0FAE732BC70470122120682
S1132E500118CA420AD28A420DD838221206090938
S1132E608918C20FD20711434007704700D04908A0
S1132E700909014301E0C10FC907002070470000A0
S1132E8038B50FB402A803C801F0F4FE0400684684
S1132E9003C801F0EFFE0200012C35DA012A33DA0F
S1132EA00198002808D56A46684603C880231B0693
S1132EB0594003C2082500E000250398002809D5DD
S1132EC002AA02A803C880231B06594003C2280093
S1132ED00625454002A803C86A460CCA01F0E4FE70
S1132EE006D202A803C86A460CCA00F081FF29E092
S1132EF0002C06D5684603C802AA0CCA00F078FF65
S1132F0023E00020002120E0022A01D1684602E0EB
S1132F10022C02D102A803C81AE0944202D1002074
S1132F200C4901E000200021019B002B01D508255C
S1132F3000E00025039B002B02D52B0006255D40F5
S1132F40012A02D12A00022555402A0001F0E8FE98
S1132F5005B030BD0000F03FF0B50E005E40012525
S1132F60ED072E40B446AE0ADF184C18F44208D2DE
S1132F70F7420ED2640D01D07F0D12D100206146BC
S1132F80F0BD05D1F74201D87F0D05D10020C14322
S1132F90F0BDFBD1640DF9D00020C14349054908B7
S1132FA08FE0E419C902DB0229432B43DB0A460DF7
S1132FB0C00231438E4630B487B295B27D432E0CA5
S1132FC0ADB2140C7C43A419260C240425439CB2F2
S1132FD07C43A419190C7943270CC919A4B20F0412
S1132FE03C43090C000C97B247432E0CBE193543E1
S1132FF0ADB2170C4743360CBF19A6B2BF193E0435
S11330003543240C3E0C36199FB24743BF19BCB25A
S11330103E0C89191F0C47437F183E043443390C76
S1133020704680B297B247432E0CBE193543ADB2F9
S1133030170C4743360CBF19A6B2BF193E043543DB
S1133040240C3E0C36199FB24743BF19BCB23E0C48
S113305089191F0C47437F183E043443390C7746C3
S11330603F0C90B278432E0C80190604ADB22E4367
S1133070050CA0B22D18120C7A435019020C80B220
S1133080240CA4189AB27A43121914042043120C83
S113309089181B0C7B43C91830BCEF0A394203D191
S11330A0B61940414941641E6F12BF0DE41B0BDB8E
S11330B0FF19BC4211DA240500274208AE417841C9
S11330C0614166463143F0BD641C05D1401C614139
S11330D0CF0201D34908F4E750E75DE7F0B40125D6
S11330E0ED070F005F404FD48B4200D1824205D9D7
S11330F08446100062468C4619006346DF184C185B
S1133100640D7F0D3AD0661C760537D0E61B352E4C
S113311034DCDB022B43DB0A0C0DC9022943C91240
S1133120202E0DDB1700203E06D01F00F741F34090
S11331305F400026012A7741C01871410DD217E083
S11331401700F741F2405740F3415A40B340F3406F
S11331505A400026801859410AD3A21C52050FD0A8
S1133160C207012F724117004008CB0718434908D2
S1133170641C24054208AF4170416141F0BC7047B2
S1133180641C21050020F9E76B4010E06B40ABE7BD
S1133190F742F3D1E943F1E72442EFD100200021C3
S11331A0ECE7F0B40125ED070F005F40EED40C000E
S11331B0871A9C4105D2C01BA141D21963416940C1
S11331C06B40AE0ADF184C18F442E1D2640D7F0D57
S11331D0E2D0E61B362ED1DCDB022B43DB0AA4460D
S11331E00C0DC9022943C90A012E28DC04D1D607D3
S11331F05208DF073A435B08EF0A7642904199414F
S113320014D039423BD1B61940414941761C394268
S113321004D1761C001849413942FAD0B9436746B3
S1133220B74208D9A41B24052143A7E70042EAD1E9
S11332303642E8D1A2E7E40AE10700209EE7202E07
S11332400BDD203E1F00F340F7415F40012A0022BE
S113325057417E42984191410BE01700F741F240FB
S11332605740F3415A40B340F3405A407E429041A4
S113327099410A0303D2641EB6194041494100270B
S1133280641E24054208AE4178416141F0BC704798
S1133290F4464A1805D200F00DF801D5801740080D
S11332A0604700F007F80121C907884200D90800E7
S11332B040426047400DC90208430121C907084341
S11332C0520D40210901521A521C06D452421F3297
S11332D001D4D0407047C0177047002070470122C6
S11332E0D20703004B402ED4431A01D2C01AC91886
S11332F030B44B180418240E1B0E22D0FF2C20D0FF
S1133300E31A182B1DDC09021143C40D641E0002CC
S1133310104394461925ED1A0A00AA40D9404518CD
S113332001D36D08A41CE405D209280A2D062A43FA
S11333306546AA41604103181B0EFF2B01D3C00D43
S1133340C00530BC7047514006E05140CCE7012233
S1133350D20703004B40F8D4431A03D2C01AC91849
S11333605040514030B44B18090211430418240E44
S11333701B0E40D0FF2C3AD025009D410BD31ED804
S1133380C50D4002401A0BD3ED050100400AC905E2
S113339091416841D5E7C50D40024918401AD0D083
S11333A001214008491C0018FCD58C4204D36D1A35
S11333B0000AED054019C4E7E8051040C1E7182DDF
S11333C0BFDCAC1C0D00E140E5414D40012D4941FD
S11333D0C40D00021043451A01D46D199543641EAF
S11333E0E405280A2D069541604130BC7047FF2B47
S11333F0A7D1D843A5E72442A3D10020A1E7012205
S113340052054B1850D2D3424DD25B0D4BD030B441
S11334101C05A14355082943D40AE41E1B195B0863
S113342001D3001849411B059C466C19091B00185F
S1133430494100184941641900239202491B07D4E9
S11334406D081DD2091B641900184941491BF7D5A1
S11334506D080AD20919641B00184941491BEFD5AC
S11334606D08F7D301E0520817D0C01861419B1AC8
S1133470AC4100184941801AA941F4D452080AD039
S1133480C01AA1419B186C4100184941801AA941F6
S1133490E9D45208F4D15B1C6C415808E20710438C
S11334A06108614430BC70470020590DFBD0C9430A
S11334B0D342F8D802B501F023FD02BD0122520522
S11334C04B18DA4201D9581570475B0D0722D20117
S11334D09B1A10D9FF2B1DD2DB050122D2070A400B
S11334E013430903020D1143490AC200524100D992
S11334F0491CC81870470AD1800A0A0302435212B1
S1133500921C04D9D3070B40D00518437047C80F49
S1133510C0077047C80F0002FF30C005704730B4C1
S113352005004D400122D20715404B180418240E03
S113353028D01B0E2FD0FF2C34D0FF2B37D0E41A09
S1133540000209021043114343084808D10D1B1A15
S113355002D2641EDB181B18DB18834200D31B1A2B
S11335604941F9D37F3426DDFE2C08DAE405480806
S1133570C907194391416041284330BC7047FF207B
S1133580C005F9E728001B0E03D0FF2BF5D1490233
S1133590F3D0D043F1E7FF2C01D14002F9D1FF2051
S11335A0C005E9E74002F4D1FF2BF8D1F1E7280088
S11335B04902E2D0EDE70B0200202442DCD15B1289
S11335C09B1CD9D9D805D7E7F0B583B004000D000A
S11335D04A00520D3B4B9A4213D0002A03D10903EF
S11335E0090B084311D0200029000022002301F018
S11335F05BFB0DD28020000645406846082181808F
S113360008E00903090B0843EDD02000290055E028
S113361068468280200029002BA20CCA01F044FBDA
S11336201FD20020264922002B00FFF7BAFD060016
S11336300F000020224922002B00FFF74FFD32002B
S11336403B00FFF789FCFFF7DAFE06000B00684633
S11336508288009220002900320000F0C9FB009A01
S113366022E00122164B01F01FFB20D20020194654
S113367022002B00FFF795FD06000F0000201049E3
S113368022002B00FFF72AFD32003B00FFF764FC09
S1133690FFF7B5FE6A46938802225A4016002200BC
S11336A02B0000F0A5FB320001F03AFB06E001F02C
S11336B02DFC212101600020C043410803B0F0BD6E
S11336C00000F03FFF070000CE3B7F669EA0E63F70
S11336D080B5002201F022FC04BD80B5012201F076
S11336E01DFC04BD944602000A43921808D0884287
S11336F006D1012212060018D042084600D88042A2
S1133700624670470CB4012212060318DA4207D845
S11337104B18DA4204D802000A43921802D28142BA
S11337200CBC7047FCD088420CBC704713B568468B
S113373003C84A00520D224B9A4208D0002A13D1E2
S11337400903090B08430FD1684603C81CBD0903CC
S1133750090B0843F8D10198002802D519A003C821
S11337601CBD1AA003C81CBD684603C80022002360
S113377001F09AFA08D26A46684603C880231B06F9
S1133780594003C2082400E00024684603C801220B
S11337900A4B01F009F80AD8002019466A460CCAF7
S11337A000F026FB6A4603C22000022444402200A3
S11337B0684603C801F0B4FA1CBD00BF0000F03F26
S11337C0FF070000182D4454FB21F9BF182D445461
S11337D0FB21F93F0CB4012212060318DA4207D880
S11337E04B18DA4204D802000A43921802D28842E3
S11337F00CBC7047FCD08142FAE7F446002804D49C
S1133800494200F013F8404260474042002905D481
S11338105FD000F00BF8404249426047494200F053
S113382005F84942604703460B43E6D40022030AE5
S11338308B420BD203098B4219D243088B422ED2FE
S1133840411A00D20146524110467047FF22090234
S11338503FD012068B4205D3121209028B4201D3C8
S11338601212090203098B4219D300E0090AC309A1
S11338708B4201D3CB01C01A524183098B4201D33D
S11338808B01C01A524143098B4201D34B01C01A28
S1133890524103098B4201D30B01C01A5241C308A0
S11338A08B4201D3CB00C01A524183088B4201D30F
S11338B08B00C01A524143088B4201D34B00C01AFB
S11338C05241884200D3401A5241CFD20146104699
S11338D0704708B501F048FD08BD000010B50C00A4
S11338E01168012902D0022904D009E0C0B251684C
S11338F0884705E0916808709068401C9060FFE775
S11339002068401C206010BDF0B51C000026050096
S1133910002028706D1C002A1CD00F68002F09D1CC
S113392030202870761C3000F0BD30320F002A7031
S11339306D1C761C002FF6D038002100FFF773FFB2
S11339400100080060433A1A002AEED5D043020071
S11339503132EBE70F68002F08D130202870761C35
S1133960E1E73731070029706D1C761C002FDAD08F
S113397038002100FFF75AFF01006143791A0A2930
S1133980EFD23031EEE7F8B50F0015001E00040049
S113399005E0320029003020FFF7A0FF641CBC4280
S11339A0F7DBF1BDF8B50F0015001E00040005E0BB
S11339B0320029002020FFF791FF641CBC42F7DB92
S11339C0F1BDF1B590B01700002000900E0005E0A5
S11339D0109A69461800FFF781FF761C3378002B94
S11339E000D1C4E1252B12D00A2B05D0109A6946C8
S11339F01800FFF773FF09E0109A69460D20FFF7DE
S1133A006DFF109A69460A20FFF768FFE5E7002575
S1133A10002102E028000125054300291FD1761C5E
S1133A20307820280CD0232812D02B2804D02D281D
S1133A30F0D0302808D00FE0280002250543ECE739
S1133A40280004250543E8E7280008250543E4E7A2
S1133A50280010250543E0E7761E0121DDE700205C
S1133A600290002105E002980A225043C018303821
S1133A700290002908D1761C3378180030380928C0
S1133A80F1D9761E0121F4E7761C30782E280BD16B
S1133A900021FFE7002908D1761C30783038092846
S1133AA0F8D9761E0121F5E7761E761C30784C286D
S1133AB006D0682802D06C2801D002E002E001E0C0
S1133AC000E0761E761C33781800582871D06228DE
S1133AD000D1CAE0632800D113E1642813D0692817
S1133AE011D06E2800D13DE16F2800D1B2E07028DA
S1133AF000D1C5E0732800D10BE1752800D1CAE0DC
S1133B00782856D064E7386806903F1D0A230122BE
S1133B1006A907A8FFF7F8FE040007A800190590F6
S1133B200698002803D52D200190641C0DE0A807F9
S1133B3003D52B200190641C07E0680703D52020DF
S1133B400190641C01E000200190002004902807EB
S1133B5011D50198002804D0109A69460198FFF7FE
S1133B60BDFE01200490109B6A4602992000FFF7D5
S1133B700AFF029C11E0E8070FD4109B6A460299E1
S1133B802000FFF70FFF0198002804D0109A69461F
S1133B900198FFF7A3FE012004900498002807D1A0
S1133BA00198002804D0109A69460198FFF796FE00
S1133BB09AE0386803903F1D1023002203A907A848
S1133BC0FFF7A2FE040007A8001905900020049046
S1133BD0280715D5E8060BD5109A69463020FFF75B
S1133BE07DFE109A69467820FFF778FE0120049044
S1133BF0109B6A4602992000FFF7C5FE029C18E05C
S1133C00E80716D4E80600D5A41C109B6A4602995E
S1133C102000FFF7C7FEE8060BD5109A694630204E
S1133C20FFF75CFE109A69467820FFF757FE0120E3
S1133C300490E8060DD5049800280AD1109A694624
S1133C403020FFF74BFE109A69467820FFF746FEB6
S1133C50A41C49E0386803903F1D0823002203A9EF
S1133C6007A8FFF751FE04001FE0386803903F1DCA
S1133C700223002203A907A8FFF746FE040014E06C
S1133C80386803903F1D1023002203A907A8FFF7FB
S1133C903BFE040009E0386803903F1D0A2300221C
S1133CA003A907A8FFF730FE040007A80019059030
S1133CB0280707D5109B6A4602992000FFF763FE88
S1133CC0029C11E0E8070FD4109B6A460299200079
S1133CD0FFF768FE08E0109A694605980078FFF738
S1133CE0FDFD0598401E0590059800780028F2D146
S1133CF0E80705D5109B6A4602992000FFF752FE9B
S1133D006BE63868C0B23F1D109A6946FFF7E6FDBE
S1133D1063E6386801903F1D0198002821D001987E
S1133D2001F023FB0400E8070FD4109B6A460299B4
S1133D302000FFF737FE08E0109A694601980078E2
S1133D40FFF7CCFD0198401C0190019800780028F1
S1133D50F2D1E80705D5109B6A4602992000FFF7C7
S1133D6021FE3AE638683F1D0099016035E6009867
S1133D7011B0F0BD0EB400B584B001210091054925
S1133D80019105AA01006846FFF71BFE049908B0DB
S1133D9008470000377200000CB4E0B502000020B0
S1133DA0002A09D002200090029204AA6846FFF774
S1133DB008FE029900220A70039906B00847000021
S1133DC0010007D5F446404200F004F80122D2076E
S1133DD01143604742221201D21E004207D002D48E
S1133DE0521E0018FCD5C10A4005120589187047F7
S1133DF0F0B40E005E400125ED072E40B446AE0A35
S1133E00DF184C18F4423BD2F74241D2640D43D040
S1133E107F0D38D0E41BC902DB0229432B43CF0AB0
S1133E20DB0A0600B61A9F4104D2641EB6197F410C
S1133E30B6185F416812800D24180018844222DAF3
S1133E40E80C0021B6197F41B61A9F4102D2B61878
S1133E505F413F1C40414941F4D3241C21DD24052A
S1133E60B6197F41B61A9F4105D33743C607374376
S1133E700026012F7041614166463143F0BC704712
S1133E80FCD1F74205D20020C14349054908F3E7B4
S1133E9004D00020C143F1E77F0DFAD00020614631
S1133EA0ECE72442FAD1401C61410F03F6D3002011
S1133EB0E2E700000B0E0006070C050E0C060D0AC7
S1133EC00F0A000E0F0E0D0E00000000000005008A
S1133ED0000000080F0E0E0E0F020B08070E0F084D
S1133EE00E080F0A0E060002030600000B000A0665
S1133EF0060207020E0E0D0E0E0C0D0A0F000B0625
S1133F0000000A0600000000010801080108010879
S1133F100108010801080000F8B50FB48CB004AA28
S1133F200EA803C803C20D984000400D784988428A
S1133F300CD16846002101800D98000304D10C982F
S1133F40002801D1012618E0022616E0012808DA2B
S1133F500CA801F019FA012803DB00266846068044
S1133F600BE00D99BD4A0A40BD4911430D916946C4
S1133F70BC4A801A08800026F643002104A801F0F8
S1133F8025FA04001698002801D000210180002C95
S1133F9006D10EA80CC80020002101F05DFA15D04E
S1133FA0002E16D5009D2DB2012D16D10CA803C8E4
S1133FB00022AB4B01F050FA08D0012C0DD10CA813
S1133FC00CC80020A84901F047FA2ED10020A749C7
S1133FD0B7E1022E03D10CA804E0012C5CDB022C17
S1133FE002D10EA803C8ACE1012E1CD10D98002803
S1133FF00F9802D400284CD535E0002809D4002CB1
S113400047D10021C94304A801F0E0F9002840D5B4
S11340103CE0002C27D10021C94304A801F0D6F9C3
S1134020002820D51BE0012C0AD1009D2DB20F9849
S1134030002802D4012D2CDA15E0012D13DA28E032
S11340400F98002812D4002C0DD10021C94304A8D4
S113405001F0BCF9002806D50D98002803D50020EE
S1134060802109066DE1002000216AE100F04EFF85
S113407022210160002C0CD10021C94304A801F0C5
S1134080A5F9002805D50D98002802D50020AE49D1
S113409057E10020B74954E10D98002809D5002CB8
S11340A007D500F033FF212101600020C0434108FF
S11340B047E10CA803C80022002300F075FB02D2DC
S11340C0684682800DE00CAA0CA803C880231B0656
S11340D0594003C20021C94304A801F077F9694695
S11340E08880012D16D10CA803C898A20CCA00F030
S11340F0DBFD0FD2002408AA00205C4903C20CA8EF
S11341000CC800208021C905FEF726FF0CAA1BE07D
S1134110FF0700000CA80CC800208E49FEF71CFF06
S113412000224F4BFEF7DAFFFFF7B2F80400203C01
S11341302000FFF745FE0022874BFEF70DFF00220B
S1134140474BFEF7CBFF08AA03C260018EA10818F3
S113415006900CA803C808AA0CCAFFF722F80600A8
S11341600F000CA80CC808A803C8FEF7B7FF02008C
S11341700B0030003900FFF73BFE0AAA03C20AA86D
S11341800CC80AA803C8FEF7E7FE04000D000CA83B
S1134190C0C0200001F072F922002B00FEF7DCFE03
S11341A00CAA0CCAFEF7FDFF04000D0000202F49E5
S11341B008AA0CCAFEF7F5FF00228023DB05FEF7F0
S11341C0CBFE22002B00FEF789FF0AAA0CCAFEF7D9
S11341D0C3FE02000B000CA803C8FEF77FFF08AA69
S11341E003C208A803C860A20CCAFFF701FE04AA10
S11341F003C2009800B2FFF7E3FD06000F00069823
S113420003C832003B00FEF769FF04AA0CCAFEF79C
S113421065FF04AA03C20EA80CC804A803C8FEF7CD
S11342209BFE02AA03C202A803C800224B4B00F063
S11342303BFD71D302A803C80122494B00F0B4FA34
S11342406ED902A803C80022002300F02DFD02A8A5
S11342500CC80DD2002004490CE000BFFFFF0F8002
S11342600000E03FFE0300000000E0BF0000F03F5C
S113427000203C49FEF732FFFFF70AF8040008A8C3
S113428003C80EAA0CCAFEF767FE02AA03C2069868
S1134290083003C8069A10320CCAFEF71FFF0EAA94
S11342A00CCAFEF759FE30A20CCAFEF755FE02AA4C
S11342B00CCAFEF713FF02AA03C2069803C8320011
S11342C03B00FEF70BFF0EAA0CCAFEF745FE0600E4
S11342D00F002000FFF774FD02000B0030003900CE
S11342E0FEF75FFF20A20CCAFEF736FE02AA0CCA34
S11342F0FEF7F4FE02AA03C21698002801D0048037
S11343000024009400221A4B02A801F009F90028A5
S113431002D0012804D00BE002AA0020002102E010
S113432002AA0020134903C200F0F0FD222101601B
S1134330019800B2002802A803C802D08022120605
S1134340514011B0F0BD00000000F0FFCD3B7F668E
S11343509EA0E63F000050400000903F0000E0C0F7
S11343600000E0400000E03FEF39FAFE422EE63F55
S11343700000F03F0000F07F10B582B000240094EC
S1134380FFF7CAFD1CBD0000000000000000F0BFE4
S11343900000000000000080000000000000008019
S11343A00000000000000000000000C05294EEBFB6
S11343B000000048204E51BE000000F86467BCBCF9
S11343C00000000000000000000000208133EDBF69
S11343D000000080B3DB14BE000000506706A3BCDD
S11343E00000000000000000000000D0E9DCEBBF8A
S11343F000000008C39259BE00000080B0D3B8BCCE
S1134400000000000000000000000070F98FEABF07
S1134410000000C0A51028BE000000E8BFC0B0BC6A
S1134420000000000000000000000070284CE9BFFC
S113443000000060134B42BE000000C03D20B8BC29
S1134440000000000000000000000050FA10E8BF67
S1134450000000C05FF62BBE000000905C71A7BC9A
S1134460000000000000000000000020FCDDE6BFAA
S1134470000000C0F8F154BE00000018E9F6B9BC11
S11344800000000000000000000000D0C3B2E5BF3F
S113449000000070E43254BE00000050DB06B4BCDF
S11344A0000000000000000000000010EF8EE4BFD8
S11344B000000020F36252BE000000C02A879ABCAC
S11344C00000000000000000000000B02272E3BF02
S11344D0000000F0E8E056BE00000028352DBDBC09
S11344E00000000000000000000000000A5CE2BFC1
S11344F0000000B0FA8E41BE00000040AE6FBDBCAB
S1134500000000000000000000000000564CE1BF65
S1134510000000F015CD5FBE00000000141C90BC2C
S1134520000000000000000000000040BD42E0BFA9
S113453000000030F93457BE000000E06C1E93BC4C
S11345400000000000000000000000E0F57DDEBF78
S1134550000000B08A535EBE00000080DA77AABC77
S11345600000000000000000000000C09D81DCBFCE
S113457000000000FFA226BE0000006057E2B0BCAD
S1134580000000000000000000000060F98FDABFA6
S1134590000000580A8151BE000000F05F60B8BC02
S11345A000000000000000000000000098A8D8BF30
S11345B0000000607A7F45BE000000D05433A3BCE5
S11345C00000000000000000000000600FCBD6BF18
S11345D0000000D091CB40BE000000406D1BA0BC89
S11345E00000000000000000000000A0FBF6D4BFA3
S11345F000000098C5CE52BE000000003A397EBCCF
S11346000000000000000000000000E0FE2BD3BF0B
S11346100000004073872BBE00000000926879BC44
S1134620000000000000000000000040C069D1BF8D
S113463000000058F16353BE00000080438D7CBC31
S1134640000000000000000000000080D85FCFBF21
S1134650000000181F8354BE000000B03F42A2BCFB
S113466000000000000000000000008067FCCBBFD9
S113467000000060FAFF53BE00000050E00DB8BC1B
S113468000000000000000000000000098A8C8BF5F
S1134690000000607A7F35BE000000C0543393BC34
S11346A0000000000000000000000000DC63C5BF43
S11346B000000058D6FF54BE00000000396490BCCE
S11346C00000000000000000000000C0AD2DC2BFCB
S11346D000000080A45915BE000000E0484BABBCAC
S11346E00000000000000000000000801A0BBEBFA4
S11346F000000050BF3C5ABE000000A0B364B6BC2A
S113470000000000000000000000008004D6B7BFD5
S113471000000040BBCF36BE0000008076CEA8BCAF
S113472000000000000000000000008032BBB1BFA8
S1134730000000402A0043BE00000028C60CBDBC97
S11347400000000000000000000000009473A7BFF8
S1134750000000182B3B59BE000000C0E55DA5BC5D
S1134760000000000000000000000000EE4397BFBE
S1134770000000A0E6C340BE00000020958DB5BC3B
S113478000000000000000000000000000000080A5
S11347900000000000000080000000000000008015
S11347A0000000000000000030B4012464054D0046
S11347B0EC420BD85D00EC4208D80C001C436400AA
S11347C00443144304D28B4200D1824230BC70476C
S11347D0FCD09942FAD19042F8E70000F0B583B0DA
S11347E004000D004A00520D384B9A4206D10903C9
S11347F0090B084302D02000290063E020002900AF
S11348000022002300F050FA05D280200006454023
S11348106846042101E068460221818020002900C5
S11348202BA20CCA00F040FA1FD200202649220015
S11348302B00FEF7B6FC06000F00002022492200E0
S11348402B00FEF74BFC32003B00FEF785FBFEF726
S1134850D6FD06000B0068468288009220002900DD
S11348603200FFF7C5FA009A22E00122164B00F04D
S11348701BFA20D20020194622002B00FEF791FCDF
S113488006000F000020104922002B00FEF726FC32
S113489032003B00FEF760FBFEF7B1FD6A469388E9
S11348A002225A40160022002B00FFF7A1FA320020
S11348B000F036FA06E000F029FB21210160002017
S11348C0C043410803B0F0BD0000F03FFF07000003
S11348D0CE3B7F669EA0E63F10B588B00A78521C96
S11348E00A700A785207520F0A700A7804235A434E
S11348F08A185060002208E00420504308184068D9
S1134900042353436C46E050521C082AF4DB002075
S113491000221EE0042151436B46591849680423C0
S113492053436C46E358994212DA042050436946D3
S11349300858042151436B465918496804235343CA
S11349406C46E150042151436B46591848600120DC
S1134950521C072ADEDB0028D9D1039808B010BD09
S113496080B552480068524901435048016051489B
S1134970002101605048002101605048002101607D
S11349804F48002101604F48032101704E480078D0
S1134990FE2101404C48017000F0E4F86448002115
S11349A00160664800210160614862490160624813
S11349B00021017000F00AF85D480068802101437D
S11349C05B4801605D480321016001BD70B55C482E
S11349D0002101605B48002101605B480021016007
S11349E05A4800210160564C00253AE0EDB258487F
S11349F0405D2021FEF717FF0600EDB25448405DEC
S1134A002021FEF710FFF6B2042070432058C9B2EB
S1134A1004224A434F4B9A580243F6B2042070438F
S1134A202250EDB2082D1BDBF6B20420704320188F
S1134A308068C9B204225143464A51580143F6B230
S1134A4004204643A0198160EDB204206843414923
S1134A50081820380068EDB23D49495D3E4A50547B
S1134A606D1CEDB20C2DC1DB70BD38B50500002402
S1134A703A480021017004E0287800F027F86D1C02
S1134A80641CE4B2042C02DA28780028F4D1E4B2DD
S1134A90042C09DA02E03E2000F018F8200004009B
S1134AA0641CC0B20428F6DB31BD00003880044029
S1134AB0003C080050B0044054B0044058B00440D6
S1134AC05CB00440004006400140064030B5224935
S1134AD0C0B20200613A1A2A00D22038C0B20200E1
S1134AE0303A2B2A00D33E203038C0B2022242434F
S1134AF000200FE0194B1B7802246343C0B21C183A
S1134B0092B2C0B21318164DEB5CE4B2104D2C5D9A
S1134B100B55401CC0B2022803DA104B1B78042B3F
S1134B20E8DB0E480078401C0C49087030BD0000DA
S1134B30003005404B00B288BA0C00200430054018
S1134B401030054014300540183005401C30054035
S1134B50248900002C7F000020300540B90C00207F
S1134B60B43E0000704700000122D2070118090E6C
S1134B707F3910D449421F310FD4001805D2C00127
S1134B801043C84000D5D0437047C0011043C8400B
S1134B9005D440427047002070470042F3D510000E
S1134BA070470000817810220A4382707047817830
S1134BB0EF220A40827070478178DF220A408270B7
S1134BC07047817820220A438270704781780822D6
S1134BD00A4382707047817804220A4382707047C6
S1134BE0017170470079704710B504002000FFF789
S1134BF0E8FF2000FFF7D6FF10BD10B50400200029
S1134C00FFF7DAFF2000FFF7D2FF10BD00B5C1782F
S1134C108907FCD5C17802220A43C27000BD00B5E1
S1134C20C078C00701D4012000E0002000BD0D4978
S1134C30096840220A430B490A600B490968A0220B
S1134C4092010A4308490A600849A022D2000A6076
S1134C500749A022D2000A6014214170802181708A
S1134C6070470000348004403880044060D0044021
S1134C7064D004404A00520D0A4B9A420AD0002ADA
S1134C8001D0002004E00903090B084309D00120E6
S1134C90C04370470903090B084301D00220704741
S1134CA001207047FF07000030B4012464054D0063
S1134CB0EC420BD85D00EC4208D80C001C436400A5
S1134CC00443144304D2994200D1904230BC70474B
S1134CD0FCD08B42FAD18242F8E70000090243007B
S1134CE0020100C03209040000010202010105248E
S1134CF0001001052401000104240200052406001B
S1134D00010705810320000209040100020A0000D2
S1134D1001070582022000000705030220000000AD
S1134D20F7B504000D0051A20CCAFFF73DFD1DD8D4
S1134D3051A003C822002B00FEF70EF900224D4BB0
S1134D40FEF7CCF906000F004BA003C822002B008D
S1134D50FEF7C4F902000B0030003900FFF748F8F1
S1134D6004000D0002980121014302912000290052
S1134D700022434BFFF798FF05D30122F9239B053B
S1134D80FFF712FD53D822002B00FEF7E5F80600CA
S1134D900F0032003B0020002900FEF7DDF80090F0
S1134DA0019138A003C832003B00FEF7D5F837A2C2
S1134DB00CCAFEF793F932003B00FEF7CDF835A29A
S1134DC00CCAFEF78BF9009A019BFEF7C5F8220086
S1134DD02B00FEF783F904000D0030A003C8320055
S1134DE03B00FEF7B9F82FA20CCAFEF777F93200A0
S1134DF03B00FEF7B1F82DA20CCAFEF76FF93200A2
S1134E003B00FEF7A9F82BA20CCAFEF767F93200A3
S1134E103B00FEF7A1F80022284BFEF75FF90200E1
S1134E200B0020002900FEF7E3FF04000D000298A8
S1134E30800702D5802000064540029840070AD02A
S1134E40800E00BF1EA1081803C822002B00FEF725
S1134E5045F904000D000298000702D580200006E1
S1134E6045402000290003B0F0BD000057CD9E5EF0
S1134E701426D13F0000F0BFAA4C58E87AB6FB3F95
S1134E80000040BE845D57134B57B03FB2934C199A
S1134E90ED5EE43FBEDE02B90240F83FDE39028F28
S1134EA0C7C0743F8AAB1283000CC83F24D7E508FF
S1134EB0B6D8F03F0F34580E5895FD3F0000F03F30
S1134EC0000000000000000066732D3852C1E03F6E
S1134ED0182D4454FB21F93F66732D3852C1F03F1D
S1134EE0182D4454FB21F93F66732D3852C10040FC
S1134EF0182D4454FB2109403FD038C6A6F1044084
S1134F001FB500F003F8212101601FBD80B50248E0
S1134F1000F064FC02BD0000CC0C0020F7B50400D6
S1134F200D00C9A003C822002B00FEF715F80600E7
S1134F300F0049004908C6A20CCAFFF7B5FE00D30A
S1134F40F2E0390000220023FFF72EFC104601D8BE
S1134F50BC4900E0B34932003B00FEF7BFF8FEF75E
S1134F6097F90090009800284DD0FEF729FF002201
S1134F70AD4BFDF7F1FF06000F00ACA003C83200F3
S1134F803B00FDF7E9FF02000B0020002900FEF7BB
S1134F9008F904000D00A7A003C832003B00FDF788
S1134FA0DBFF02000B0020002900FEF7FAF80400E2
S1134FB00D00A2A003C832003B00FDF7CDFF0200A4
S1134FC00B0020002900FEF7ECF804000D0000207F
S1134FD0E44932003B00FDF7BFFF02000B00200054
S1134FE02900FEF7DEF804000D00D2A003C8320049
S1134FF03B00FDF7B1FF02000B0020002900FEF783
S1135000D0F804000D00029800998907890F401810
S1135010029020002900B8A20CCAFFF7C5FB0CD8E7
S11350200022F9239B05FFF73FFE06D20298C00732
S113503000D44DE10024BE4D4AE122002B00FDF7CF
S11350408BFF06000F000298C00730D5ACA003C840
S113505032003B00FDF780FFABA20CCAFEF73EF81E
S113506032003B00FDF778FFA9A20CCAFEF736F820
S113507032003B00FDF770FFA7A20CCAFEF72EF822
S113508032003B00FDF768FFA5A20CCAFEF726F824
S113509032003B00FDF760FFA3A20CCAFEF71EF826
S11350A032003B00FDF758FF0022A14B37E03200ED
S11350B03B0020002900FDF74FFF009001919FA0C5
S11350C003C832003B00FDF747FF9EA20CCAFEF75F
S11350D005F832003B00FDF73FFF9CA20CCAFDF728
S11350E0FDFF32003B00FDF737FF9AA20CCAFDF723
S11350F0F5FF32003B00FDF72FFF98A20CCAFDF725
S1135100EDFF32003B00FDF727FF78A20CCAFDF744
S1135110E5FF009A019BFDF71FFF22002B00FDF71E
S1135120DDFF04000D00D3E020006A00520D714B36
S11351309A4212D0002A1DD12903090B084319D120
S11351400298C00701D50024794D0298800700D445
S1135150C7E0802000064540C3E02903090B08434B
S113516000D0BEE0FFF7D2FE212101600020C04341
S11351704108B8E0684630C0029C684600F030FB45
S113518020180290684630C8200029005AA20CCA90
S1135190FFF70AFB0CD80022F9239B05FFF784FDD7
S11351A006D20298C00700D492E00024604D8FE03C
S11351B022002B00FDF7D0FE06000F000298C00766
S11351C04AD54FA003C832003B00FDF7C5FE4EA2EE
S11351D00CCAFDF783FF32003B00FDF7BDFE4CA275
S11351E00CCAFDF77BFF32003B00FDF7B5FE4AA277
S11351F00CCAFDF773FF32003B00FDF7ADFE48A279
S11352000CCAFDF76BFF32003B00FDF7A5FE46A27A
S11352100CCAFDF763FF32003B00FDF79DFE002240
S1135220434B51E00000E0BF0000303E000000505E
S1135230FB21B94100000060B410114000000020BF
S113524026A6513E0000E03F83C8C96D305FE43FAD
S11352500000A0FFFFFFDF4132003B0020002900D7
S1135260FDF77AFE0090019134A003C832003B00A0
S1135270FDF772FE33A20CCAFDF730FF32003B008B
S1135280FDF76AFE31A20CCAFDF728FF32003B008D
S1135290FDF762FE2FA20CCAFDF720FF32003B008F
S11352A0FDF75AFE2DA20CCAFDF718FF32003B0091
S11352B0FDF752FE0DA20CCAFDF710FF009A019BE8
S11352C0FDF74AFE22002B00FDF708FF04000D0045
S11352D00298800705D5802000064540200029005B
S11352E001E02000290003B0F0BD00BF4255555530
S11352F05555C5BFFF070000FEFFFFFFFFFF3FBE80
S113530009260A1039BA213E3BA861C6F97D92BE2E
S113531063AC30909F01FA3EF6FB51166CC156BF48
S1135320B10255555555A53FAEFFFFFFFFFFDFBF47
S11353300000F03F000000209A833B3BB08F2FC356
S113534010D8E53D8F0C73A1E1E55ABE4DADE44F95
S1135350E31DC73E3EE3B519A0012ABFFAF01011C0
S11353601111813F5C14D33C704700B5010000204B
S1135370002902D1002006E0401C0A001100491C4B
S11353801278002AF8D100BD38B401004B6880229D
S113539012061A4001201B031B0B4B600BD10B6838
S11353A0002B08D10DE00B686400DD0F25434D6030
S11353B05B000B60401E4C68E302F4D523031B0B17
S11353C04B604B681A434A6032BC704742685200D3
S11353D0520D1F4B9A4209D14168090304D1006858
S11353E0002801D1012070470220704743685B0008
S11353F002D10368002B28D0164B9A1A521A012A9C
S113540023DB352A07DB4168802212061140416004
S11354100021016016E00121D306DB0E9940491EEC
S1135420920608D542680A404168514041600368C9
S11354301343002103E003680B40016859400160F5
S1135440002B02D00020C04370470020704700BFEB
S1135450FF0700003304000090420ED1A4460C0064
S11354601C430128644107D0994205D14C006415BE
S1135470641C644000D30C036446704738B50400D0
S11354800D0019A003C822002B00FDF765FD18A22A
S11354900CCAFDF723FE22002B00FDF75DFD16A2CA
S11354A00CCAFDF71BFE22002B00FDF755FD14A2CC
S11354B00CCAFDF713FE22002B00FDF74DFD12A2CE
S11354C00CCAFDF70BFE22002B00FDF745FD10A2D0
S11354D00CCAFDF703FE22002B00FDF73DFD0EA2D2
S11354E00CCAFDF7FBFD34BDF7DE29BFD8F8C23F77
S11354F0F4B3FECC1A99C33F62CB68D96F46C73F59
S1135500C6C912DAC471CC3F4AE98A942449D23F0D
S1135510F75F97999999D93FBC5555555555E53F2E
S1135520F0B589B0060014001D0003CE083EFFF755
S1135530A1FB070020002900FFF79CFB390005D5DB
S1135540002846D4022804D130C615E1022FF9D12F
S11355501EE0002809D103CE083E00228B4BFFF742
S11355607BFF0DD030C6002006E1012812D103CE06
S1135570083E0022824BFFF76FFF01D030C64DE09A
S1135580FFF7C4FC212101600020C043410803C689
S11355900220F1E0002F0FD130C6083E0E993000F2
S11355A000F0D8F9040002D0012C00D0E3E0FFF7AA
S11355B0ADFC22210160DEE003CE083E0022734BE5
S11355C0FFF74AFF10D120002900FDF7C5FC03C6F0
S11355D024E002AA03CE083E03C202A803C80022A4
S11355E0684BFFF761FB07D2002320002900FDF779
S11355F0B3FC03C60020BFE002A803C80122624B2B
S1135600FFF7D2F80CD80022604B20002900FDF7E8
S1135610A3FC03C6FFF77AFC222101600120ABE062
S113562002A803C85AA20CCAFDF796FC0022002364
S1135630FFF73AFB01D2584B00E0674BFDF74EFDF4
S1135640FDF726FE0700FEF7BBFB04AA03C204A86D
S113565003C852A20CCAFDF77FFC02000B0002A88B
S113566003C8FDF79EFD0090019104A803C84DA254
S11356700CCAFDF771FC02000B0000980199FDF7BC
S113568090FD6A4603C2684603C848A20CCAFFF7E5
S11356908BF809D8684603C80022464BFFF704FB81
S11356A002D22000290057E068460CC8684603C8A7
S11356B0FDF752FC02AA03C202A803C83EA20CCA08
S11356C0FDF74AFC3EA20CCAFDF708FD02000B00E0
S11356D002A803C8FDF740FC06AA03C202A803C837
S11356E039A20CCAFDF738FC39A20CCAFDF7F6FC46
S11356F002000B0002A803C8FDF72EFC0022364B63
S1135700FDF7ECFC02000B00684603C8FDF724FC1F
S113571004AA03C206A80CC804A803C8FDF7DEFC4B
S11357200022164BFDF7DAFC0090019106A803C88D
S113573004AA0CCAFDF735FD0022104BFDF7CEFC80
S113574002000B0000980199FEF752FB02000B00C7
S113575020002900FDF700FC03C6083E0E98391806
S1135760300000F0F7F8040001D0012C03D1FFF75A
S1135770CDFB22210160200009B0F0BD0000F03F04
S11357800000F0FF00C89CC000C89C400000F07FEF
S1135790FE822B654715F73F0000E0BF000000F8CC
S11357A0422EE63FF2E4D5BCE7E84B3EFEFFFFFFA6
S11357B0FFFF8FBC0000903C112E5781A03F503F4B
S11357C05843128C8F71BC3F4BE8A541B752013F3F
S11357D00BBDF3DAE8708C3F0000E03F7047000037
S11357E0F1B582B030C849A003C822002B00FDF7F0
S11357F0B3FB6A4603C2684603C800220023FEF7CF
S1135800D3FF68460CC802D80020424901E00020BA
S11358104149FDF763FC6A4603C200216846FFF76D
S1135820D5FD68460CC800200021FFF715FE4AD0BC
S11358303A49FDF791FB06000F0039A003C8320076
S11358403B00FDF789FB02000B0020002900FDF757
S1135850A8FC04000D0034A003C832003B00FDF78F
S11358607BFB02000B0020002900FDF79AFC0400DA
S11358700D002FA003C832003B00FDF76DFB0200B2
S11358800B0020002900FDF78CFC04000D00002013
S1135890294932003B00FDF75FFB02000B002000AA
S11358A02900FDF77EFC04000D0024A003C832008B
S11358B03B00FDF751FB02000B0020002900FDF71F
S11358C070FC04000D00029830C0684603C81DA295
S11358D00CCAFFF7E9F906D3684603C81B4A1C4BF8
S11358E0FEF762FF07D80022074B684603C800F0A2
S11358F0BFF86A4603C2684603C8FDF7C9FC8007BF
S1135900800F03B0F0BD00BF0000E04183C8C96D43
S1135910305FE43F0000E03F0000E0BF0000303EA5
S113592000000050FB21B94100000060B410114098
S11359300000002026A6513E5C14D33C0000002049
S11359409A833B3B0000C0FFFFFFDFC10100C0FFA3
S1135950FFFFDF4170B504000D0060684000400D9A
S11359603F4EB04207D16068000302D1206800288E
S113597016D0022070BD002804D12000FFF704FDDA
S113598001286BDA012D0DDB311A8D420AD36068D0
S1135990002802D50020334901E00020310503C46A
S11359A0012070BD4142A942616806DA2E4A0A40CC
S11359B0281800051043606047E080221206114059
S11359C062681203120B80235B0313436360401E5F
S11359D02D1800202A003532352A02D36160206058
S11359E070BD00221E23DB439D4204DA2035226869
S11359F0636823606060684211D0521E9241D243B2
S1135A00D20F20231B1A25689D402A432568C540D0
S1135A1066689E402E4326606368C3406360606886
S1135A20084360601148824206D280200006824208
S1135A300ED12078C0070BD52068401C2060206858
S1135A40002805D16068401C60600020C04370BD20
S1135A5060688842F9D120680028F6D1002070BD22
S1135A60FF0700000000F0FFFFFF0F80010000802F
S1135A70F0B401277F05DB184C18FB4259D85D0DA3
S1135A8050D0FC424DD2BF02A34200D1824239D24F
S1135A90640D0E003E409B023B43DB0AC9023943BE
S1135AA0C90A641B641C801A994104D2641E00183C
S1135AB049418018594101D100420AD0641E08D0DE
S1135AC000184941801A9941F5D280185941641E41
S1135AD0F6D18902820D8002114303D101001DD049
S1135AE0203D002003D46D1E00184941FBD5C00A97
S1135AF04C05C90A204331432D4207D42D054919C9
S1135B00F0BC7047FCD139400020F9E76D1C05D189
S1135B10FF0AB943401C69410F03F1D23100002050
S1135B20EEE7EDD10021C9437446FFF7E9F9A64633
S1135B30E6E71900E4E7000080B58F48006880219B
S1135B40090101438C4801608C48A021C90001600F
S1135B508B480068E02188438949086088480068C8
S1135B60402101438648016096489749016097485F
S1135B700078402101439548017095480078FD2143
S1135B8001409348017093480078FB2101409148FB
S1135B90017090480078802101438E4801708B4841
S1135BA00078BF210140894801708B480078BF21EB
S1135BB001408948017085480078E021014083480C
S1135BC0017085480078E0210140834801707F48D6
S1135BD00078182101437D4801707F480078032133
S1135BE001437D4801707C480078402101437A4894
S1135BF001707A4800784006FBD57448007840214B
S1135C00014372480170734800788006800E714920
S1135C100870E12252027249AC4800F075FB01BDE4
S1135C2000B57048008800285FD16E486E49096845
S1135C3001806E480078401C6C490870C0B201288D
S1135C4007D04CD3032820D011D3052839D02AD328
S1135C5045E06748006820210143654801606548C4
S1135C600068802189050143624801603DE0624883
S1135C70006820210143604801605E48006880217B
S1135C80890501435B4801602FE0594800682021E1
S1135C900143574801605948006880218905014340
S1135CA05648016021E052480068202101435048D1
S1135CB00160524800688021890501434F48016012
S1135CC013E04B48006820210143494801604948DA
S1135CD000688021890501434648016005E07C484D
S1135CE0012101607B48B349016000BD80B57A4859
S1135CF000688021490401437748016077480068BF
S1135D008021090601437548016000F0B5FBAA48EB
S1135D10007810210143A848017001BD10B57048F6
S1135D200078000714D5032000F0E0FC04006D485F
S1135D30202101806C488021017069480078F72196
S1135D4001406748017001226849022000F047FCC5
S1135D506748008800280ED16548962149000180D3
S1135D606448027864499548FEF716F80F2293496F
S1135D70022000F034FC10BD388004400CB0044014
S1135D80048004405D4800688021490401435B4865
S1135D9001608B4800688B490143894801608A4847
S1135DA0FA21890001608948282101608848FA2184
S1135DB049000160B548006808210143B348016007
S1135DC07047000044800440000001100540064074
S1135DD0014006400040064004400640064006409C
S1135DE080BB0000820C002010E4FF1FB70C0020D1
S1135DF0C4F00F4004F10F40C8F00F4008F10F4009
S1135E0080B574480088002848D17248C8210180B0
S1135E10714800780100491C6F4A1170C0B20A2809
S1135E2002DB6D48002101706B48007800280ED019
S1135E30022814D00FD3042819D014D306281ED056
S1135E4019D3082823D01ED3092824D026E0634878
S1135E50FEF70BFE22E06248FEF707FE1EE06148F3
S1135E60FEF703FE1AE06048FEF7FFFD16E08848DF
S1135E70FEF7FBFD12E08748FEF7F7FD0EE08648CB
S1135E80FEF7F3FD0AE08548FEF7EFFD06E08448DF
S1135E90FEF7EBFD02E08348FEF7E7FD8249834805
S1135EA00068082210400200D20801205040C0B20D
S1135EB000F03AFF002808D0054801210160054898
S1135EC07B4901609248FDF755FF01BD00A00640E3
S1135ED08C090020880900200470044000700440EC
S1135EE0C00C002062E6FF1F60E6FF1F700B00205D
S1135EF0880C0020BE0C0020608800003C80044018
S1135F0080B584480078002803D083488149097803
S1135F100160814800680221484332307F490860AB
S1135F207D4802687EA12548FDF736FF7D48802123
S1135F30C9000160784800680A2148432449086080
S1135F401E48FEF792FD734801787748FDF712FF6B
S1135F5020480088002810D11E4870490968018033
S1135F60724800682021014370480160704800684D
S1135F708021890501436E4801604B494B48006804
S1135F80082210400200D20801205040C0B200F0A4
S1135F90CBFE00280CD0634880214900016065488D
S1135FA001210160644865490160B848FDF7E2FEDB
S1135FB001BD0000015E00000821074058E7FF1FF3
S1135FC00480044000000101088003403480034041
S1135FD038800340820C0020B80C00206C8900003B
