S01E00006C6F775F706F7765725F64656D6F5F66726565646F6D2E73726563E3
S1130000F82F002011040000B1430000497D0000D6
S1130010497D0000497D0000497D0000497D0000C4
S1130020497D0000497D0000497D0000497D0000B4
S1130030497D0000497D0000497D0000D11B00007E
S1130040497D0000497D0000497D0000497D000094
S1130050497D0000497D0000497D000045390000CC
S1130060497D0000497D0000497D0000497D000074
S1130070497D0000497D0000497D0000497D000064
S1130080497D0000497D0000497D0000497D000054
S1130090497D0000497D0000497D0000497D000044
S11300A0497D0000497D0000497D0000497D000034
S11300B0A1140000497D000009150000497D0000DD
S11300C0FFFFFFFFFFFFFFFFFFFFFFFFFFFFFFFF3C
S11300D0FFFFFFFFFFFFFFFFFFFFFFFFFFFFFFFF2C
S11300E0FFFFFFFFFFFFFFFFFFFFFFFFFFFFFFFF1C
S11300F0FFFFFFFFFFFFFFFFFFFFFFFFFFFFFFFF0C
S1130400FFFFFFFFFFFFFFFFFFFFFFFFFEFFFFFFF9
S113041000200021002200230024002500260027BC
S113042062B605F067F8FEE780B5154801F0A6FC52
S113043002BD80B50100C9B2114801F0A5FC01BD9F
S1130440104820210160104880218905016070470F
S11304500E48202101600E48802189050160704703
S113046080B50C482A21017000F0C8FF012000F07B
S1130470F3FF00F0D0FF62B600F00EF8002002BDDA
S113048000A00640C8F00F4008F10F40C4F00F4030
S113049004F10F4000E0074070B5FF24BC4801F0B0
S11304A0C5FEBC4801F0C2FEBB4ABC49BC4801F0D1
S11304B0BDFEBC4801F0BAFE0BE0BB4801F0B6FE3D
S11304C0BA48E021C9000160B948E021C9000160CF
S11304D0FF24B6E0B7480078C0B24006400E0128B9
S11304E002D1B54801F0A2FE02F03CFF0500EDB2D6
S11304F0012D04D1B1480168B14801F097FEEDB275
S1130500022D04D1AD480168AE4801F08FFEEDB272
S1130510032D04D1A9480168CA4801F087FEEDB251
S1130520042D04D1A5480168C74801F07FFEEDB24F
S1130530052D04D1A1480168C44801F077FEEDB24D
S1130540062D04D19D480168C14801F06FFEEDB24B
S1130550072D04D199480168BE4801F067FEEDB249
S1130560082D04D195480168C24801F05FFEC248D5
S113057001F05CFEC14801F059FEC14801F056FE8D
S1130580C04801F053FEC04801F050FEBF4801F0DE
S11305904DFEBF4801F04AFEBE4801F047FEBE488A
S11305A001F044FEBD4801F041FEBD4801F03EFEAD
S11305B0BC4801F03BFEBC4801F038FEBB4801F0EA
S11305C035FEBB4801F032FEBA4801F02FFEBA48AE
S11305D001F02CFEB94801F029FEB94801F026FECD
S11305E0D24801F023FED24801F020FED14801F0A8
S11305F01DFED14801F01AFED04801F017FEFFF7A6
S113060013FF05002800C0B2FFF713FFCCA001F0D0
S11306100DFEEDB2280030380A2802D2EDB22C00CB
S1130620303CEDB2280041380C2802D2EDB22C0047
S1130630373CEDB2280061380C2802D22C00E4B219
S1130640573C172C01DB012000E00020002C01D5D1
S1130650012100E00021C0B2C9B2014300290DD03C
S1130660FFF7EEFE53480078C0B24006400E04285F
S113067000D02FE7B34801F0D9FD35E7FFF7E8FED6
S1130680B14801F0D3FD002C38D0022C5AD047D306
S1130690042C00D1E0E066D3062C00D156E100D250
S11306A010E1082C00D1D3E100D291E10A2C00D151
S11306B054E200D208E20C2C00D1D1E200D27DE257
S11306C00E2C00D162E300D21AE3102C01D100F009
S11306D0DBFC01D200F026FC122C01D100F0F6FC68
S11306E001D200F0DCFC142C01D100F09BFD01D2FE
S11306F000F050FD152C00D1DFE6E9E6CC4801F00E
S113070095FDFFF791FEDC4801F090FD002000F01C
S1130710A3FF002000F022FF012002F0BCFFD7E677
S1130720D64801F083FDFFF77FFED54801F07EFD3A
S1130730002000F091FF002000F010FF002002F0E4
S1130740AAFFC5E6CF4801F071FDFFF76DFECE4864
S113075001F06CFD002000F07FFF002000F0FEFEA1
S113076002F07FFFB4E6C94801F060FDFFF75CFECC
S113077001220221002002F0DDFF0121FA20800085
S113078000F002FED64801F051FD002451E000BF04
S113079010640000546400008C800000808000001D
S11307A0646D0000986400006465000000900440DB
S11307B00C90044003E00740CC7D000094F4FF1F3C
S11307C0F07900000C7A0000C64801F02FFD0020EB
S11307D000F042FF002000F0C1FE02F011FF0120F2
S11307E000F0BCFE012000F037FF02F0BBFD050065
S11307F0EDB2072D15D1BC4801F0CEFEBB4908600F
S1130800BA480068022103F05BF9FA21890003F079
S113081057F9B74908608021C904B548006800F059
S1130820E3FE2100B34801F001FDB34801F0FEFCF2
S1130830641C0A2CC8DBD548006801218843D349CD
S1130840086045E6287A0000447A0000607A0000D7
S1130850887700007C7A0000CD4801F0E7FCFFF7C0
S1130860E3FDCC4801F0E2FC002000F0F5FE02F0CC
S1130870DEFE2DE6987A0000147500004C5E000040
S11308809C5E00001C6C0000EC5E0000546C0000D8
S113089038710000906F0000E0610000C06F00003C
S11308A0F06F00008C6C0000B06600003C5F00003C
S11308B0FC5C000070600000BC600000A85D0000EB
S11308C0C4720000B44801F0B1FCFFF7ADFDB348B9
S11308D001F0ACFC002000F0BFFE002000F03EFE62
S11308E002F08EFE012000F039FE02F03BFD05000F
S11308F0EDB2072D15D17C4801F04EFE7B4908600E
S11309007A480068022103F0DBF8FA21890003F039
S1130910D7F8774908608021C9047548006800F059
S113092063FE754801F082FCD2E500BFF06600006A
S113093030670000DC640000A877000040810000FC
S11309400A0D0000B87D000028620000BD4801F0D7
S11309506DFCFFF769FDBC4801F068FC002000F065
S11309607BFE02F036FEB9480078C0B24006400E65
S1130970042803D1B64801F059FC28E0B3480078B4
S1130980C0B24006400E012821D102F0EBFC050064
S1130990EDB2072D18D1544801F0FEFD534908600B
S11309A052480068022103F08BF8FA21890003F011
S11309B087F84F4908608021C9044D48006800F059
S11309C013FEA44801F032FC012000F045FE7FE54F
S11309D09E480078C0B24006400E042801D102F0BF
S11309E0DBFD9D4801F022FCFFF71EFD9B4801F052
S11309F01DFC02F0B7FC0500EDB2082D03D1062062
S1130A0000F072FE05E0EDB2032D02D1012000F0EA
S1130A106BFE002000F020FE02F084FD8B4800787D
S1130A20C0B24006400E042804D100BF0FE000BF4E
S1130A30986D000085480078C0B24006400E012839
S1130A4005D1844801F0F2FB012000F005FE3FE5EA
S1130A50CD4801F0EBFBFFF7E7FC02F09DFD02F04F
S1130A6081FC0500EDB2062D12D1082000F03CFEF9
S1130A70012000F0F1FD11E038750000CC6D00009C
S1130A80EC720000C87700005C750000706700001D
S1130A90EDB2012D02D1032000F026FE6B48007850
S1130AA0C0B24006400E042803D1694801F0BEFBE1
S1130AB009E066480078C0B24006400E012802D121
S1130AC0644801F0B3FB03E560480078C0B2400617
S1130AD0400E012812D1B44801F0A8FB3DE000BF4C
S1130AE080750000E07D000000127A0094F4FF1F7E
S1130AF0A4F4FF1FF47D0000707C000053480078CC
S1130B00C0B24006400E042827D1A84801F08EFB4D
S1130B10FFF78AFCA64801F089FBA64801F086FB92
S1130B20002000F099FD02F0D9FC48480078C0B2DA
S1130B304006400E042803D1454801F077FB0CE041
S1130B4042480078C0B24006400E012805D1414811
S1130B5001F06CFB012000F07FFDB9E4964801F040
S1130B6065FBFFF761FC954801F060FB002000F095
S1130B7073FD02F0B3FC35480078C0B24006400E65
S1130B8004280DD1324801F051FB16E00000044066
S1130B90E8770000A475000008780000C87500001C
S1130BA02A480078C0B24006400E012805D12948E1
S1130BB001F03CFB012000F04FFD89E4CD4801F039
S1130BC035FBFFF731FCCC4801F030FB002000F08E
S1130BD043FD002002F086FC02F0C4FB0500EDB2E8
S1130BE0072D15D1C54801F0D7FCC5490860C44894
S1130BF00068022102F064FFFA21890002F060FF1C
S1130C00C04908608021C904BE48006800F0ECFCBB
S1130C100E480078C0B24006400E042803D10C48A8
S1130C2001F004FB0CE009480078C0B24006400E15
S1130C30012805D1074801F0F9FA012000F00CFD64
S1130C4046E400BF28780000EC75000003E007408C
S1130C50087E00001C7E00004878000070620000DE
S1130C60A94801F0E3FAFFF7DFFBA84801F0DEFA38
S1130C70002000F0F1FCA648007820210143A4489C
S1130C800170402002F02EFCA1480078DF210140D1
S1130C909F48017002F066FB0500EDB2072D15D1E7
S1130CA0964801F079FC964908609548006802214D
S1130CB002F006FFFA21890002F002FF9149086060
S1130CC08021C9048F48006800F08EFCCF4800786A
S1130CD0C0B24006400E042803D18E4801F0A6FAA3
S1130CE00CE0CA480078C0B24006400E012805D185
S1130CF0894801F09BFA012000F0AEFCFFF7E8FB05
S1130D00864801F093FAFFF78FFB854801F08EFACD
S1130D10002000F0A1FC802002F0E4FB02F022FBA2
S1130D200500EDB2072D15D1744801F035FC744966
S1130D30086073480068022102F0C2FEFA218900AB
S1130D4002F0BEFE6F4908608021C9046D48006846
S1130D5000F04AFCAD480078C0B24006400E0428BA
S1130D6003D16C4801F062FA0CE0A8480078C0B2E4
S1130D704006400E012805D1674801F057FA0120CA
S1130D8000F06AFCFFF7A4FB6878000002F004FCA2
S1130D909E480078C0B24006400E042810D1C848CE
S1130DA001F044FA16E000BF006E000088780000ED
S1130DB01076000034760000A87800005876000011
S1130DC092480078C0B24006400E012802D1BD48C6
S1130DD001F02CFA02F0C6FA0500EDB2012D04D19F
S1130DE047480168B84801F021FAEDB2022D04D158
S1130DF043480168D14801F019FAEDB2032D04D13A
S1130E003F480168CE4801F011FAEDB2042D04D137
S1130E103B480168CB4801F009FAEDB2052D04D135
S1130E2037480168C84801F001FAEDB2062D04D133
S1130E3033480168CD4801F0F9F9EDB2072D04D12A
S1130E402F480168CA4801F0F1F9EDB2082D04D128
S1130E502B480168C74801F0E9F9C74801F0E6F9F1
S1130E60C64801F0E3F92A480078202101432848C4
S1130E700170002413E0C248006801218843C0497E
S1130E800860BF4800688007FBD4BE4801F0CEF973
S1130E9002F080FE2100BC4801F0C8F9641C022C59
S1130EA020DABA4801F0C2F92020FFF7C2FAB848A4
S1130EB000780006FBD500F095FEB14800680121DA
S1130EC00143AF480160AE4800688007FBD503F0DA
S1130ED03BFA02F05FFEAA4800688007CBD4D048F2
S1130EE001F0A4F90A480078DF21014008480170A4
S1130EF0FFF7EEFA147300006471000000127A0028
S1130F0094F4FF1FA4F4FF1F3C73000090710000D1
S1130F1004400640087E00001C7E0000647300004C
S1130F20BC71000039480078C0B24006400E012868
S1130F3012D1C24801F07AF9C14801F077F9FFF7FC
S1130F4073FAC04801F072F9062000F0CDFB0020CE
S1130F5000F082FB02F0E6FA2C480078C0B24006AA
S1130F60400E042803D1B84801F060F90CE027488A
S1130F700078C0B24006400E012805D1B34801F004
S1130F8055F9012000F068FB02F0ECF90500EDB220
S1130F90012D04D1AE4801684B4801F047F9EDB288
S1130FA0022D04D1AA480168644801F03FF9EDB26A
S1130FB0032D04D1A6480168614801F037F9EDB268
S1130FC0042D04D1A24801685E4801F02FF9EDB266
S1130FD0052D04D19E4801685B4801F027F9EDB264
S1130FE0062D04D19A480168604801F01FF9EDB25A
S1130FF0072D04D1964801685D4801F017F9EDB258
S1131000082D07D1924801685A4801E003E00740DF
S113101001F00CF9D04801F009F9002416E0584811
S113102000680121884356490860554800688007D4
S1131030FBD4CA4801F0FAF8C94801F0F7F802F005
S1131040A9FD2100504801F0F1F8641C022C19DAC2
S1131050C44801F0EBF800F0C5FD494800680121DF
S1131060014347480160464800688007FBD503F008
S11310706BF902F08FFD424800688007CFD46848BE
S113108001F0D4F8FFF724FA01220221002002F033
S113109051FB0121B44800F077F9FFF719FAD4485D
S11310A0006801210143D2480160B0480068012171
S11310B08843AE490860AE4801F0B8F8FFF708FA73
S11310C0B87D0000CC7D0000C8780000A94801F07C
S11310D0ADF8FFF7A9F95B4801F0A8F802F05CFA53
S11310E0012000F001FBA448C02189020160012114
S11310F0A2480078C0B240084007400F8140A04891
S11311000068C9B202F0DCFC51490860504800682C
S113111099490968090F491C02F0E6FC4C4908602A
S113112002F000FA97480078C0B24006400E042846
S11311300CD1454801F07AF815E000BF0C7A0000A4
S1131140287A0000447A0000607A00008D48007814
S1131150C0B24006400E012805D13C4801F066F8B3
S1131160012000F079FAFFF7B3F900BF8877000097
S11311707C7A0000987A0000B06700007C7600005A
S1131180403000F0686E00008C730000346E000084
S113119004A006402A4801F049F8FFF745F99548AC
S11311A001F044F802F0F8F9012000F09DFA7248C9
S11311B091490160012171480078C0B2400840079C
S11311C0400F81406E480068C9B202F079FC2049A2
S11311D008601F48006868490968090F491C02F043
S11311E083FC1B49086002F09DF966480078C0B290
S11311F04006400E042803D1134801F017F80CE010
S113120060480078C0B24006400E012805D10F485E
S113121001F00CF8012000F01FFAFFF759F900BFA4
S1131220E868000057480078C0B24006400E042821
S113123010D1874800F0FAFF864E1CE0E8780000E1
S11312404878000070620000087E00001C7E0000E8
S113125094F4FF1F4B480078C0B24006400E0128AA
S113126009D18B4800F0E2FF8A4E8B480078202198
S113127001438948017002F075F80500EDB2012DB3
S113128004D19B480168854800F0D0FFEDB2022DDF
S113129004D197480168974800F0C8FFEDB2032DC8
S11312A004D193480168944800F0C0FFEDB2042DC6
S11312B004D18F480168914800F0B8FFEDB2052DC4
S11312C004D18B4801688E4800F0B0FFEDB2062DC2
S11312D004D1874801688B4800F0A8FFEDB2072DC0
S11312E004D183480168994800F0A0FFEDB2082DAD
S11312F004D17F480168964800F098FF3100954872
S113130000F094FF00F06EFC934800680121014353
S113131091480160904800688007FBD503F014F8F9
S1131320002400E0641CB44203DA8B4800688007A0
S1131330F8D489480068800709D5874800680121E6
S1131340884385490860844800688007FBD4C04806
S113135000F06CFFFFF7BCF8A0760000887C00006A
S1131360F0670000206500008813000000000440BE
S1131370A07C000020700000448004400840064027
S113138080F4FF1F03E0074038B505000C0018483F
S1131390006801210143164801601C2002F0DFFFB0
S11313A0A007800F042101438C480160002C02D166
S11313B08B4800F03BFF012C02D1984800F036FF27
S11313C0022C02D1964800F031FF032C02D195483B
S11313D000F02CFFA8B29D490860A848C021016014
S11313E0A648006801210143A448016031BD000002
S11313F038800440B86200000000011080B5072066
S113140002F0ADFF1C2002F0AAFF0122012180207E
S113141002F090F901BD73480068E021090101431D
S1131420704801608B48802149000160944800683D
S113143020210143924801609248802149000160C3
S1131440914800688021890501438F4801607047F5
S1131450B87D0000002D310180B5002803D08B48F1
S11314608B49016001E002F0BEFF0A2002F0CAFFCE
S1131470884800680821084000900098082803D193
S1131480854800F0D3FE02E0844800F0CFFE01BDA1
S1131490CC7D000000C2EB0B04400640F079000054
S11314A080B52D48006880070CD52B4800680121C1
S11314B0884329490860284800688007FBD4784895
S11314C000F0B4FE4748006801210143454801602B
S11314D0744800F0ABFE6948006880210143674806
S11314E001606648C121016064480068009001BD44
S11314F094F4FF1F0C7A0000287A0000447A00005C
S1131500607A00008877000080B51348006880077F
S11315100CD511480068012188430F4908600E4822
S113152000688007FBD4604800F080FE5F480068D4
S1131530102806D1554800688021490401435348C6
S113154001605B4800F072FE01BD00007C7A00007F
S1131550987A000050700000403000F000B5C0B22E
S1131560002825D0534800688021C9000143514810
S113157001605148C021890001605048C0218900A0
S113158001604F4800688021C90401434C48016050
S11315904C48E021C90001604B48E021C9000160CA
S11315A03A483B4901604948FF211431016013E086
S11315B0404800683F4900220A603F4900220A600F
S11315C03E4900220A60314900220A603D49002256
S11315D00A603D4900220A6000BD00000400044086
S11315E0E87100003880044080B5354A1268384BF1
S11315F01340334A1360324A1268354B1340304A61
S113160013602F4A126811432D4A11609622D201A9
S11316100100304800F00AFB01BD0000B473000073
S1131620DC7300001472000010B52B4A2B480168CB
S1131630012001F00FFD0400294800F063FF0400BD
S1131640274801F03DF80400200010BD08000440C4
S1131650C46C000014C0044000B5C0B2002806D019
S113166020480078202101431E48017005E01D48F0
S11316700078DF2101401B48017000BD00000440D8
S1131680D4F00F4074D0044014F10F401090044083
S113169013010A0090F00F40A8650000EC650000FB
S11316A024690000B47A000030680000A09004406F
S11316B0C476000034800440389004403C900440D8
S11316C004800440009004400C9004400CB004409A
S11316D0FFFFFFF300A00640006CDC0280F4FF1F54
S11316E000127A000540064070B5050001F03AFE8C
S11316F00600CB480078C0B24006400E042804D14E
S1131700C84800F093FD01F047FFC5480078C0B217
S11317104006400E012802D1C34800F087FD012E87
S113172012D000D238E2032E48D043D3052E00D184
S1131730F1E000D297E0072E00D157E100D2EEE0AD
S1131740082E00D17EE127E2B84800F06FFDEDB22B
S1131750032D2ED10021B648006801F09EFAB54948
S11317600860B348006801F071FBB2490860B248F0
S11317700078A0210143B0480170AE48AF49016030
S1131780AF48802149020160AA480068022102F0A2
S113179097F9FA21890002F093F904008021C90421
S11317A02000FFF721FFD1480068D1490140CF480C
S11317B00160F1E1CF4800F039FDEDE1CE4800F0E1
S11317C035FDEDB2062D14D101220121CB4801F0E3
S11317D069F898490860C94801F03AF895490860E1
S11317E0C748007880210143C5480170FA24640188
S11317F030E0EDB2012D2DD1C2480078F121014035
S1131800C04801700121E548006801F085FB894961
S113181008600121E148006801F012FA8549086076
S11318208748C0218902016082480068022102F0D1
S113183047F9FA21890002F043F90400D8480078F6
S113184002210143D6480170D648007801210143A2
S1131850D4480170C02109052000FFF7C5FED24815
S113186000F0E4FC98E1D14800F0E0FCEDB2012D79
S113187033D1CC480078FE210140CA480170C848E1
S1131880007802210143C64801709E480078F12186
S113189001409C4801700121C048006801F030FA01
S11318A0644908600121BD48006801F0C9F9614933
S11318B0086063488021C90201605E480068FA211B
S11318C0890002F0FDF80400C02109052000FFF79B
S11318D08BFEB74800F0AAFC1CE0EDB2062D19D12E
S11318E0864801F0A7F853490860844800F0B0FF27
S11318F05049086082480078802101438048017083
S1131900FA246401C02109052000FFF76DFEA948EF
S113191000F08CFC40E1A84800F088FC3CE1A748BA
S113192000F084FCEDB2012D38D19E480078FE21F0
S113193001409C4801709A4800780221014398486C
S1131940017070480078F12101406E4801706B48C5
S113195000F04CFF3749086001219048006801F00D
S1131960B5F83449086001218C48006801F068F931
S11319703049086032488021C90201602D4800685E
S1131980FA21890002F09CF80400C0210905200016
S1131990FFF72AFE8A4800F049FC26E0EDB2082D44
S11319A023D1274880214902016018220421534889
S11319B000F0A6FE1F490860504800F0EDFD1D49E7
S11319C008601C480068022102F07AF8FA218900B4
S11319D002F076F87B4908608021C90479480068E0
S11319E0FFF702FE784800F021FCD5E0774800F0CC
S11319F01DFCEDB2082D0ED1114880214902016071
S1131A003E4800F0C9FD0B4908608021C90409481B
S1131A100068FFF7E9FD6C4800F008FCBCE000BF7B
S1131A2003E0074060690000847F0000E87600005E
S1131A3084F4FF1F94F4FF1F03400640006CDC0293
S1131A4044800440EDB2012D5ED16C4802685348D5
S1131A500168012001F0FEFAC0B2002802D06848F3
S1131A6000F0E4FB012000F04DFD64490860012012
S1131A7000F0F0FD6149086022480078F12101403E
S1131A802048017001214548006801F01FF85B49B6
S1131A90086001214148006801F0D2F85749086004
S1131AA056480068022102F00BF8FA21890002F07E
S1131AB007F804005348C0218902016038480078BF
S1131AC00221014336480170364800780121014360
S1131AD0344801700020FFF7BFFDC0210905200034
S1131AE0FFF782FD484800F0A1FB55E00480044064
S1131AF0FFFFFEFFB87C0000947F000000127A0014
S1131B000050064008400640404800F08FFB3B4828
S1131B10026822480168012001F09CFAC0B2002842
S1131B2002D0374800F082FBFFF77EFD334908609E
S1131B303748007880210143354801701748006810
S1131B40FA21890001F0BCFF04002E4831490160EC
S1131B502A4800682B490968090F491C01F0C4FF91
S1131B60264908600E480078022101430C480170A0
S1131B700C480078012101430A4801702648007886
S1131B80F121014024480170C02109052000FFF71C
S1131B902BFD224800F04AFB70BD00BF80F4FF1FFC
S1131BA00040064001400640D07A0000307E00002C
S1131BB0D07C0000E87C0000447E0000587E0000D9
S1131BC0EC7A0000A4F4FF1F087B00006C7E000088
S1131BD0134800680721884311490860114800210F
S1131BE0016070470F488021890101600E4800217F
S1131BF001600B48072101607047000094F4FF1F47
S1131C00807E0000448004400C7700009C6E00003D
S1131C1000500640000003100840064030770000E2
S1131C2010E000E014E000E018E000E0F6B5002069
S1131C300026002700220023474C25688024E40066
S1131C402C43454D2C60454C2578F3242C40434DC2
S1131C502C700C00203C424DAC4208D3002141487A
S1131C6002681000404A02403E480260FEE7019CC0
S1131C70FA20800041430091042500982100EDB230
S1131C80694301F031FF01000098EDB2694301F0AE
S1131C902BFF844201D2061B00E0261AEDB22F006E
S1131CA0052506E0231A9E4202D31E00EDB22F0042
S1131CB06D1CEDB2212D0FDA00982100EDB26943BD
S1131CC001F012FF01000098EDB2694301F00CFF2E
S1131CD08442E7D2031BE6E72000642101F004FFFD
S1131CE003214843864235D23800001F052805D217
S1131CF01E480078022101431C4801701C480278E8
S1131D00D2B21F2082431100781EC0B2C206D20E86
S1131D100A43174811000170D206D20E521C0098D3
S1131D205443210001F0E0FE010012480278D2B2CF
S1131D301F2082430800000AC006C00E10430D4A4B
S1131D4010700D480170054800780C2101430348C8
S1131D500170F3BDFEE700003480044003A0064098
S1131D6031C3000004800440FFFFFFF30BA00640D2
S1131D700AA0064000A0064001A0064000B5017973
S1131D808906FCD5C07900BD00B502791206FCD5E0
S1131D90C17100BD10B50C001168012902D00229DF
S1131DA004D009E0C0B25168884705E09168087022
S1131DB09068401C9060FFE72068401C206010BDC4
S1131DC0F0B51C0000260500002028706D1C002AB8
S1131DD01CD00F68002F09D130202870761C3000E9
S1131DE0F0BD30320F002A706D1C761C002FF6D027
S1131DF03800210001F064FE0100080060433A1A33
S1131E00002AEED5D04302003132EBE70F68002FF1
S1131E1008D130202870761CE1E73731070029709B
S1131E206D1C761C002FDAD03800210001F05CFE16
S1131E3001006143791A0A29EFD23031EEE7F8B58F
S1131E400F0015001E00040005E0320029003020B8
S1131E50FFF7A0FF641CBC42F7DBF1BDF8B50F002F
S1131E6015001E00040005E0320029002020FFF7C1
S1131E7091FF641CBC42F7DBF1BDF1B590B01700D3
S1131E80002000900E0005E0109A69461800FFF744
S1131E9081FF761C3378002B00D1C4E1252B12D0AE
S1131EA00A2B05D0109A69461800FFF773FF09E062
S1131EB0109A69460D20FFF76DFF109A69460A20B3
S1131EC0FFF768FFE5E70025002102E0280001256F
S1131ED0054300291FD1761C307820280CD02328F4
S1131EE012D02B2804D02D28F0D0302808D00FE0B1
S1131EF0280002250543ECE7280004250543E8E70C
S1131F00280008250543E4E7280010250543E0E7F9
S1131F10761E0121DDE700200290002105E00298F1
S1131F200A225043C01830380290002908D1761C88
S1131F303378180030380928F1D9761E0121F4E7E6
S1131F40761C30782E280BD10021FFE7002908D118
S1131F50761C307830380928F8D9761E0121F5E747
S1131F60761E761C30784C2806D0682802D06C285F
S1131F7001D002E002E001E000E0761E761C337836
S1131F801800582871D0622800D1CAE0632800D113
S1131F9013E1642813D0692811D06E2800D13DE1E3
S1131FA06F2800D1B2E0702800D1C5E0732800D1B9
S1131FB00BE1752800D1CAE0782856D064E7386868
S1131FC006903F1D0A23012206A907A8FFF7F8FE81
S1131FD0040007A8001905900698002803D52D20B1
S1131FE00190641C0DE0A80703D52B200190641C0C
S1131FF007E0680703D520200190641C01E000205D
S1132000019000200490280711D50198002804D0DD
S1132010109A69460198FFF7BDFE01200490109BB9
S11320206A4602992000FFF70AFF029C11E0E807C4
S11320300FD4109B6A4602992000FFF70FFF019806
S1132040002804D0109A69460198FFF7A3FE0120E6
S113205004900498002807D10198002804D0109A0D
S113206069460198FFF796FE9AE0386803903F1D91
S11320701023002203A907A8FFF7A2FE040007A863
S11320800019059000200490280715D5E8060BD503
S1132090109A69463020FFF77DFE109A6946782031
S11320A0FFF778FE01200490109B6A4602992000F5
S11320B0FFF7C5FE029C18E0E80716D4E80600D531
S11320C0A41C109B6A4602992000FFF7C7FEE8068D
S11320D00BD5109A69463020FFF75CFE109A6946CA
S11320E07820FFF757FE01200490E8060DD50498E8
S11320F000280AD1109A69463020FFF74BFE109A47
S113210069467820FFF746FEA41C49E0386803902E
S11321103F1D0823002203A907A8FFF751FE04006E
S11321201FE0386803903F1D0223002203A907A87B
S1132130FFF746FE040014E0386803903F1D1023A7
S1132140002203A907A8FFF73BFE040009E0386852
S113215003903F1D0A23002203A907A8FFF730FEBE
S1132160040007A800190590280707D5109B6A46A4
S113217002992000FFF763FE029C11E0E8070FD4E8
S1132180109B6A4602992000FFF768FE08E0109A47
S1132190694605980078FFF7FDFD0598401E0590F7
S11321A0059800780028F2D1E80705D5109B6A4607
S11321B002992000FFF752FE6BE63868C0B23F1D5B
S11321C0109A6946FFF7E6FD63E6386801903F1D03
S11321D00198002821D0019802F03CF90400E80796
S11321E00FD4109B6A4602992000FFF737FE08E0DF
S11321F0109A694601980078FFF7CCFD0198401CBD
S11322000190019800780028F2D1E80705D5109BC9
S11322106A4602992000FFF721FE3AE638683F1D1E
S11322200099016035E6009811B0F0BD0EB400B518
S113223084B0012100910549019105AA0100684675
S1132240FFF71BFE049908B008470000717F0000E7
S1132250F4B504000D001E00A6480078C0B2800842
S11322608007800F002807D1A2480078C00603D554
S1132270A0480078800601D5012039E19E488442B7
S113228001DB212034E168460078002806D09B4811
S1132290201A9B49884201D3222029E1EDB2002D66
S11322A000D0012576B23000401E192801D3412008
S11322B01EE1694618200F567FB2380018381B28D3
S11322C001D3422014E1200076B2310001F0F8FB82
S11322D0A649401AA649884201D3432008E12000B8
S11322E076B2310001F0ECFB7FB27843A149401A89
S11322F0A149884201D34520FAE0A04800780100B2
S1132300C32008409E498C420ADA0100EDB2E8007D
S11323106A4612789200024310201043084309E0F1
S11323200100EDB2E8006A461278920002432020D0
S113233010430843914908709248844201DA00210D
S113234014E09148844201DA01210FE08F4884426D
S113235001DA02210AE08E48844201DA032105E011
S11323608C48844201DA042100E00521B748007852
S11323708007800F0200C8003821014080200843F4
S11323801043B249087068460078002810D0002035
S113239000E0401C00B2AE49884203DA554909788E
S11323A08907F6D553480078800701D423209FE09D
S11323B0002000E0401C00B2FA21C900884203DA80
S11323C04C490978C906F5D44A480078C00601D5B5
S11323D011208DE0002000E0401C00B2FA21C90069
S11323E0884207DA43490978C9B289088907890FFD
S11323F00229F1D13F480078C0B280088007800FDD
S1132400022801D01A2073E0AA4800782021014351
S1132410A8480170A84800780100E02008400100A5
S1132420701EC006C00E0843A3490870A148007876
S11324300100E02008400200183FF906C90E4020C0
S1132440084310439B490870002000E0401C00B280
S1132450FA21C900884203DA264909788906F5D5A4
S113246024480078800601D4162041E0002000E0D2
S1132470401C00B2FA210901884203DA1D49097897
S11324804906F5D51B480078400601D444202FE0C6
S113249089480078C106C90E491C86480078C506DB
S11324A0ED0E1835694800788006800E674A107072
S11324B0002000E0401C00B2FA22D200904207DA69
S11324C00C4A1278D2B292089207920F032AF1D1E1
S11324D008480078C0B280088007800F032801D024
S11324E01B2005E02000C9B201F0EAFAEDB268430E
S11324F0F2BD00000640064081F0FA02C0C62D007D
S11325004181BA0100B56D490978C9B289088907C2
S1132510890F032907D169490978C90603D4674992
S11325200978890601D408201FE0484909788022E7
S11325300A4346490A70002100E0491C09B2FA2204
S1132540D200914207DA5D4A1278D2B29208920719
S1132550920F022AF1D159490978C9B28908890729
S1132560890F022901D01A20FFE700BD80841E00D4
S113257081841E00006CDC020175190301400640D1
S113258001127A00D1121300A1252600414B4C0000
S113259081969800012D310110B548490978C9B2D6
S11325A089088907890F02290BD144490978C9068A
S11325B007D442490978890603D55049097889071F
S11325C001D5072040E0002200E0521C12B2FA219B
S11325D0C9008A4203DA394909784906F5D53749E9
S11325E00978490601D444202EE033490978C90604
S11325F0C90E491C2F4A1278D406E40E1834134A23
S113260012789206920E114B1A70002200E0521CAE
S113261012B2FA23DB009A4207DA284B1B78DBB2AA
S11326209B089B079B0F032BF1D1244A1278D2B24B
S113263092089207920F032A01D01B2004E0C9B22A
S113264001F03EFAE4B2604310BD000000400640D1
S1132650204E000000B519490978C9B289088907D4
S1132660890F02290BD115490978C90607D41349E2
S11326700978890603D521490978890701D50720F6
S113268017E00C490978BF220A400A490A70002160
S113269000E0491C09B2FA22D200914203DA074A47
S11326A012789206F5D405490978890601D51520D2
S11326B0FFE700BD054006400440064006400640D2
S11326C000B572490978C9B289088907890F0229B6
S11326D00BD16E490978C90607D46C490978890673
S11326E003D56F490978890701D5072005E06C49AE
S11326F0097802220A436A490A7000BD0140064073
S113270070B504000D00160060480078C0B280085F
S11327108007800F022807D15C480078C00603D4E4
S11327205F480078800701D406205EE06DB228007F
S1132730401E192801D3412057E076B230001838E2
S11327401B2801D3422050E020006DB2290001F083
S1132750B7F94F49401A4F49884201D3432044E016
S11327604D4800780100E02008400100681EC006C2
S1132770C00E084348490870484800780100E0202A
S113278008400200183EF106C90E402008431043D9
S11327904249087042480078FD21014040480170D8
S11327A0002000E0401C00B2FA21C900884203DA8C
S11327B0364909788906F5D534480078800601D46D
S11327C0162012E0002000E0401C00B2FA21C900EB
S11327D0884203DA2D4909784906F5D52B48007853
S11327E0400601D4442000E0200070BD00B5274914
S11327F00978C9B289088907890F022907D12349B1
S11328000978C90603D426490978890701D4062022
S11328101DE022490978BF220A4020490A70204954
S11328200978FD220A401E490A70002100E0491C73
S113283009B2FA22D200914203DA144A12789206BB
S1132840F5D412490978890601D51520FFE700BDA2
S113285000B50E490978C9B289088907890F022988
S11328600BD10A490978C90607D4084909788906A9
S113287003D40B490978890701D5042005E00849E8
S1132880097802220A4306490A7000BD0640064040
S113289080841E0081841E000440064005400640DA
S11328A00140064030B5604B1B78DBB29B089B07A8
S11328B09B0F002B07D15C4B1B78DB0603D55A4BCF
S11328C01B789B0601D50120ADE0594B984201DBF2
S11328D02120A8E0D2B2002A0CD0704B984207DB2A
S11328E06F4BC31A6F4CA34202D36F4B984201DB68
S11328F0222098E0C9B2002900D001216B4B1B783B
S11329001C00C3232340664CA04207DA1C00C9B252
S1132910C900D2B293000B43234315E0644CA04298
S113292009DA1D00C9B2C900D2B294000C431023C5
S113293023432B4308E01D00C9B2C900D2B294005E
S11329400C43202323432B4358490B705949884295
S113295001DA002114E05849884201DA01210FE02C
S11329605649884201DA02210AE05549884201DACF
S1132970032105E05349884201DA042100E00521DE
S11329802A4B1B789B079B0F1D00C90038240C4061
S1132990802323432B4325490B70D2B2002A10D045
S11329A0002100E0491C09B2474A914203DA1E4A59
S11329B012789207F6D51C490978890701D4232097
S11329C031E0002100E0491C09B2FA22D200914210
S11329D003DA154A1278D206F5D413490978C906E0
S11329E001D511201FE0002100E0491C09B2FA22A0
S11329F0D200914207DA0C4A1278D2B292089207B6
S1132A00920F022AF1D108490978C9B289088907C5
S1132A10890F022901D01A2005E081490978202272
S1132A200A437F490A7030BD064006400040064014
S1132A3081F0FA0200B57B490978C9B2890889078F
S1132A40890F002907D177490978C90603D4754944
S1132A500978890601D502201FE07349097880228C
S1132A600A4371490A70002100E0491C09B2FA22A4
S1132A70D200914207DA6B4A1278D2B292089207D6
S1132A80920F022AF1D167490978C9B289088907E6
S1132A90890F022901D01A20FFE700BD307500001C
S1132AA0419C00007F2A2D000148E80101400640B6
S1132AB001127A00D1121300A1252600414B4C00CB
S1132AC081969800012D31011027000000B5554A68
S1132AD01278D2B292089207920F022A0BD1514A6D
S1132AE01278D20607D44F4A1278920603D44F4A7A
S1132AF01278920701D5042091E0C9B2002906D1C9
S1132B004B4A821A4B4B9A4208D3312087E04A4AF7
S1132B10821A4A4B9A4201D3322080E0C9B200297A
S1132B2006D0424A127801231343404A137005E049
S1132B303E4A1278FE2313403C4A1370384A1278F6
S1132B40DF231340364A1370374A12789206920EE6
S1132B50130044221A43344B1A70C9B2002911D10C
S1132B60002200E0521C12B2FA23DB009A4203DA7C
S1132B702C4B1B78DB07F5D42A4A1278D20713D5DD
S1132B8013204CE0002200E0521C12B2FA23DB00B6
S1132B909A4203DA234B1B78DB07F5D5214A1278D6
S1132BA0D20701D414203AE0002200E0521C12B2F1
S1132BB0FA23DB009A4207DA1A4B1B78DBB29B0834
S1132BC09B079B0F012BF1D1164A1278D2B29208BF
S1132BD09207920F012A01D0192020E0002200E080
S1132BE0521C12B2FA23DB009A4203DA0D4B1B7813
S1132BF0DB06F5D50B4A1278D20601D412200EE07A
S1132C00C9B200290BD001213A4A1278D2B2520833
S1132C105207520F9140C9B200F052FFFFE700BDC6
S1132C20054006400640064000400640014006407C
S1132C30127A0000861E0000C0C62D0081841E008A
S1132C4000B52D4A1278D2B292089207920F012A47
S1132C500BD1294A1278D20607D5274A1278920650
S1132C6003D4264A1278920701D5032014E0234A9C
S1132C70127802231343214A1370C9B200290BD0DE
S1132C8001211C4A1278D2B252085207520F9140C5
S1132C90C9B200F015FFFFE700BD00B5164A12786F
S1132CA0D2B292089207920F012A0BD1124A1278DB
S1132CB0D20607D5104A1278920603D40F4A127826
S1132CC0920701D4052014E00C4A1278FD23134026
S1132CD00A4A1370C9B200290BD00121054A12789F
S1132CE0D2B252085207520F9140C9B200F0E8FE26
S1132CF0FFE700BD0840064006400640014006408C
S1132D0000B57F4A1278D2B292089207920F002A35
S1132D1007D17B4A1278D20603D4794A12789206F4
S1132D2001D502208EE0C9B2002906D1754A821A63
S1132D30754B9A4208D3312084E0744A821A744B4A
S1132D409A4201D332207DE0C9B2002906D0714AEB
S1132D501278012313436F4A137005E06D4A127809
S1132D60FE2313406B4A1370644A1278DF23134026
S1132D70624A1370344A127844231343324A13705C
S1132D80C9B2002911D1002200E0521C12B2FA2368
S1132D90DB009A4203DA5A4B1B78DB07F5D4584A16
S1132DA01278D20713D513204CE0002200E0521C05
S1132DB012B2FA23DB009A4203DA514B1B78DB0789
S1132DC0F5D54F4A1278D20701D414203AE00022F4
S1132DD000E0521C12B2FA23DB009A4207DA484B95
S1132DE01B78DBB29B089B079B0F012BF1D1444A54
S1132DF01278D2B292089207920F012A01D01920B8
S1132E0020E0002200E0521C12B2FA23DB009A42B6
S1132E1003DA3B4B1B78DB06F5D5394A1278D20628
S1132E2001D412200EE0C9B200290BD00121814A3D
S1132E301278D2B252085207520F9140C9B200F030
S1132E403FFEFFE700BD00000040064080B57A4920
S1132E500978C9B289088907890F01290BD17649F4
S1132E600978C90607D574490978890603D429491C
S1132E700978890701D503203FE02249411A224AF3
S1132E80914201D3312038E000F0BAF93C2834DB18
S1132E906A4909788906890E0A0004211143674AA0
S1132EA01170002100E0491C09B2FA22D2009142BB
S1132EB003DA614A1278D206F5D55F490978C90662
S1132EC001D4122019E0002100E0491C09B2FA22C1
S1132ED0D200914207DA584A1278D2B29208920785
S1132EE0920F002AF1D154490978C9B28908890797
S1132EF0890F002901D01820FFE702BD05400640D4
S1132F0006400640127A0000861E0000C0C62D004E
S1132F1081841E000140064000B5474A1278D2B2AF
S1132F2092089207920F002A07D1434A1278D206D8
S1132F3003D5414A1278920601D5012079E0C9B23D
S1132F40002906D13E4A821A3E4B9A4208D33120C8
S1132F506FE03D4A821A3D4B9A4201D3322068E029
S1132F60C9B2002906D03A4A127801231343384AD9
S1132F70137005E0364A1278FE231340344A137066
S1132F802E4A12789206920E130040221A432B4BBB
S1132F901A70C9B2002911D1002200E0521C12B2E9
S1132FA0FA23DB009A4203DA234B1B78DB07F5D4C0
S1132FB0214A1278D20713D513203AE0002200E008
S1132FC0521C12B2FA23DB009A4203DA1A4B1B7822
S1132FD0DB07F5D5184A1278D20701D4142028E06B
S1132FE0002200E0521C12B2FA23DB009A4207DAF4
S1132FF0114B1B78DBB29B089B079B0F012BF1D174
S11330000D4A1278D2B292089207920F012A01D087
S113301019200EE0C9B200290BD00121054A12780B
S1133020D2B252085207520F9140C9B200F048FD83
S1133030FFE700BD08400640064006400040064049
S1133040127A0000861E0000C0C62D0081841E0076
S113305001400640F8B504000D001600E4B2002C4F
S113306000D0012400F07EF9C0B2082807D0C0B215
S1133070072804D0C0B2052801D00120B1E05A4885
S113308007683000594900F01BFD574909680A00D8
S1133090574911400A000004E021C90201401143CC
S11330A051480160300050490968090C491C00F07E
S11330B01BFD5049411A504A914203D34A480760C4
S11330C003208EE0E4B2002C0DD146498D4203DA90
S11330D045480760042084E048498D4211DB42489A
S11330E0076005207DE097498D4203DA3E4807607A
S11330F0062076E094498D4203DB3B4807600720B5
S11331006FE0E4B2002C13D001F0B4F906002800FB
S113311001F0B0F90100300001F0C5F98B4901F06C
S113312017FA8621C90501F013FA01F06BFA0EE0D3
S113313001F0A0F90600280001F09CF9010030001C
S113314001F0B1F9814901F003FA01F05BFA804919
S113315002000A7080B2000A7E4908707E48007836
S1133160C006C00E7C490870E4B2A001802101436E
S11331707948007801437848017077480078000660
S1133180FBD475480078800603D5174807600820EB
S113319027E0E4B2002C0DD170480078C0B2FF28BB
S11331A004D06E480078C0B2002817D10E480760DA
S11331B0092016E06A480078C0B240080007000FF2
S11331C00F2807D066480078C0B240080007000FF7
S11331D0002803D1044807600A2002E0024807607F
S11331E00020F2BD127A0000448004400024F40060
S11331F0FFFFF8FF00127A0001127A00979800008E
S113320000B50100564A1278D2B252099207920FC1
S1133210022A01D33B2094E0514A1278120647D582
S11332204F4A1278D2B252099207920F002A05D05F
S1133230022A21D011D3032A2CD082E0B7208000A7
S1133240414308009949884201DA332079E09849DA
S1133250884201DB342074E073E0B720C0004143AE
S113326008009449884201DA35206AE0924988428C
S113327001DB362065E064E0904841430800904952
S1133280884201DA37205CE08E49884201DB38202D
S113329057E056E08C48414308008C49884201DAE3
S11332A039204EE08A49884201DB3A2049E048E06F
S11332B02B4A1278D2B252099207920F002A05D0F3
S11332C0022A21D011D3032A2DD03AE0A020800075
S11332D0414308007549884201DA332031E07449DA
S11332E0884201DB34202CE02BE0A020C0004143C5
S11332F008007049884201DA352022E06E4988428C
S113330001DB36201DE01CE0F020C0004143080032
S11333106B49884201DA372013E06A49884201DBAD
S113332038200EE00DE0A020000141430800674969
S1133330884201DA392004E06549884201DB3A20F9
S1133340FFE700BDC0C62D00414B4C000000A84162
S11333500B4006400A400640084006400240064032
S11333600340064000B55B480078C0B2800880077F
S1133370800F002809D157480078C00605D5554864
S11333800078800601D403208EE052480078C0B251
S113339080088007800F032809D14E480078C006B2
S11333A005D44C480078800601D508207CE04948C3
S11333B00078C0B280088007800F02280DD14548EC
S11333C00078C00609D443480078800605D54248F1
S11333D00078800701D4072066E03E480078C0B238
S11333E080088007800F02280DD13A480078C00673
S11333F009D438480078800605D437480078800717
S113340001D4052050E033480078C0B2800880071A
S1133410800F022809D12F480078C00605D42E4811
S11334200078800701D506203EE02A480078C0B223
S113343080088007800F01280DD126480078C00637
S113344009D524480078800605D4234800788007ED
S113345001D5012028E01F480078C0B28008800709
S1133460800F01280DD11B480078C00609D51948E2
S11334700078800605D418480078800701D402201B
S113348012E014480078C0B280088007800F00283A
S113349009D110480078C00605D40E48007880068B
S11334A001D4042000E0002000BD0000002D310103
S11334B041787D01005A620281F0FA029508000009
S11334C000879303C1687804710B000000B4C4043E
S11334D001E1F505064006400140064080B500F0D4
S11334E033FF01BD80B58D4900220A708D490978EA
S11334F0F8220A408B490A708A498A4A12780A706B
S1133500874909788906890E854A117084490978A2
S113351008438349087083480078C0B2009000F0E3
S11335200BFF01BD00B580490978C9B24906490EAF
S1133530042900D11420794920220A707949097894
S11335409F220A4077490A7077490978C9B2490627
S1133550490E0129F8D17349097840220A43714977
S11335600A70002100E0491C704A914204DA704A52
S11335701278D2B25207F6D46D490978490700D5BA
S1133580242069490978C9B24906490E042902D19F
S113359065480078C0B200BD00B563480078C0B289
S11335A04006400E042813D15E4800789F21014054
S11335B05C480170002009E05B490978C9B24906FA
S11335C0490E012901D15A490978401CFF28F3DB2F
S11335D000BD80B551482021017052480078F8217F
S11335E00140504801704F480078022101434D4882
S11335F001704C480078C0B2009000F09DFE01BDFF
S113360080B546480821017046480078F8210140F9
S11336104448017043480078032101434148017044
S113362040480078C0B2009000F086FE01BD80B52D
S11336303A48022101703B480078F821014039489A
S11336400170384800780421014336480170344839
S11336500321017032480078C0B2009000F06CFE83
S113366001BD80B52D48022101702E480078F82153
S113367001402C4801702B4800780421014329485B
S1133680017027480121017025480078C0B20090DC
S113369000F052FE01BD80B5204902220A70224981
S11336A00978C9B24906490E042911D11D4909787E
S11336B09F220A401B490A70002100E0491CFF298F
S11336C006DA194A1278D2B25206520E012AF5D1FC
S11336D014490978F8220A4012490A7011490978F4
S11336E004220A430F490A700D490978F8220A4056
S11336F00B490A700A490978DF220A4008490A700E
S113370007490978C0B240010843054908700448D4
S11337100078C0B2009000F00FFE01BD00E0074049
S113372002E0074001E0074003E0074010270000E3
S113373002D00740F8B504000D0017007148067860
S1133740E00702D57048FEF771FDA00702D56F4867
S1133750FEF76CFD600702D56D48FEF767FD200794
S113376002D56C48FEF762FD664806706A48067822
S1133770E00602D56948FEF759FDA0060DD53100D3
S1133780A8000C2606400E436548FEF74FFD654829
S11337900078202101436348017060060DD5310093
S11337A02801302606400E435F48FEF73FFD5D4882
S11337B00078402101435B48017020060BD530009E
S11337C0AE0106435948FEF731FD56480078802182
S11337D00143544801705048067055480678E00586
S11337E00CD53000AE07B60F06435248FEF71EFD57
S11337F051480078012101434F480170A0050DD5BF
S11338003100A8000C2606400E434C48FEF70EFD7E
S113381049480078022101434748017060050DD5ED
S113382031002801302606400E434548FEF7FEFCD1
S113383041480078042101433F48017020050BD51D
S11338403000AE0106438E48FEF7F0FC3A4800789B
S113385008210143384801703548067089480678C4
S1133860E0040CD53000AE07B60F06438648FEF7D9
S1133870DDFC31480078102101432F480170A00479
S11338800DD53100A8000C2606400E437F48FEF7F4
S1133890CDFC2948007820210143274801706004A9
S11338A00DD531002801302606400E437848FEF736
S11338B0BDFC21480078402101431F4801702004C9
S11338C00BD53000AE0106437248FEF7AFFC1A4830
S11338D0007880210143184801706A480670FFB2DD
S11338E0002F03D16C48002101700AE06A48007877
S11338F007436948077068480178C9B26748FEF70A
S113390095FCF1BD00C0074070660000746B0000B8
S1133910AC6B0000E46B000001C00740706800005D
S1133920545D000005C0074008610000006300000A
S113393002C007405061000006C0074098610000C3
S11339404463000000B558480078800605D5564801
S11339500078202101435448017053480078400600
S113396005D551480078402101434F4801704E4825
S11339700078000605D54C480078802101434A4868
S113398001704A480078C00705D5484800780121ED
S113399001434648017045480078800705D54348EF
S11339A000780221014341480170404800784007F3
S11339B005D53E480078042101433C4801703B484A
S11339C00078000705D539480078082101433748B5
S11339D0017036480078C00605D5344800781021B7
S11339E001433248017031480078800605D52F48DC
S11339F00078202101432D4801702C4800784006AE
S1133A0005D52A48007840210143284801702748F9
S1133A100078000605D52548007880210143234815
S1133A20017023480078C0070ED5224800680121A0
S1133A3001432048016020480068802101431E485A
S1133A4001601D48C121016015480078000605D5B4
S1133A50134800788021014311480170114800780F
S1133A60000605D50F480078802101430D480170F8
S1133A7012480068802101431048016000BD000025
S1133A808863000003C00740D85F0000CC630000D7
S1133A9024600000FC5D000004C00740AC68000026
S1133AA008C0074009C0074005C0074006C00740DA
S1133AB007C00740388004400000044080E200E072
S1133AC0CA0F00D0494203105A400DD004B500D3A8
S1133AD0404200F009F8009AD20701D34942124249
S1133AE000D5404204BD0000094210D088420BD3E7
S1133AF00122002300185B418B4200D35B1A524120
S1133B00F8D319001000704701000020704708B571
S1133B1000F096FD08BD38B4012100220368001DA1
S1133B20002B0BD00468001D0C4202D04D466D1EC4
S1133B3064192260241D1B1FF0D0FAE732BC7047C1
S1133B4070B50400E669002020870020608700200B
S1133B50A0870020E087002517E00121200000F065
S1133B60FCFD218F80B201F021F820870021C94398
S1133B70200000F0F2FD218F80B201F017F82087B9
S1133B80002D01D1208F60876D1CB542E5D3002044
S1133B9070BD0000F0B5304CA54400201390684679
S1133BA0002141806846002101800027FF43002551
S1133BB0002614AA13A902A8423001F047F80120F4
S1133BC000F0AAFF69460881022000F0A5FF02A9BF
S1133BD04880032000F0A0FF02A98880042000F0A0
S1133BE09BFF0990052000F097FF0A900A9800288F
S1133BF001D107200A90029800B2002812D10220B5
S1133C0002A9085E00280DD1042002A9085E00283C
S1133C1008D168460021018102A80021418002A840
S1133C2066218180029800B2012812D1022002A9E3
S1133C30085E00280DD1042002A9085E002808D1DE
S1133C406846BC49018102A8BA49418002A866219C
S1133C50818000243DE000BFCCF7FFFFA4B24420E4
S1133C60604302A90818A4B2FA21C900614318AA42
S1133C7051188160A4B24420604302A90818FA21B3
S1133C80C9008161A4B24420604302A9029A12B21D
S1133C900A52A4B24420604302A9081802A9498820
S1133CA04180A4B24420604302A9081802A989886B
S1133CB08180A4B24420604302A908184030002146
S1133CC00180A4B24420604302A908180A99016241
S1133CD0641CA4B2002CC1D0002409E00A98E0407E
S1133CE0C00704D5684669460988491C0180641CDC
S1133CF0A4B2032CF2DB002410E0A4B244206043FD
S1133D0002A90818806969460988FFF7EDFEA4B284
S1133D104421614302AA51188861641CA4B2002C96
S1133D20EBD000241DE0A4B20421614344224243A9
S1133D3002AB9A185318089A694649884A4394462C
S1133D404422424302A98918896862468918D960C5
S1133D50401C0028E7D0684669464988491C4180D0
S1133D60641CA4B2032C05DA0A98E040C007F7D516
S1133D700020EEE700245DE0A4B24420604302A9E1
S1133D80081820300078C00713D5A4B2442060433B
S1133D9002A90A5EA4B24420604302A90818C168BB
S1133DA0089800F085FDA4B24421614302AA511889
S1133DB04862A4B24420604302A908182030007865
S1133DC080071FD5A4B24420604302A90B182833EE
S1133DD0A4B24420604302A90A5E02218C46A4B224
S1133DE04421614302A840186146405E0004104328
S1133DF00200A4B24420604302A90818016908988B
S1133E0000F0B8FFA4B24420604302A9081820308F
S1133E10007840070DD5A4B24420604302A90818D5
S1133E204269A4B24420604302A9095E089801F0E3
S1133E3077F9641CA4B2002C9ED00998002825D1DF
S1133E4000200021012209920EE009980A2148432A
S1133E50099000F0EFFE02A8FFF772FE00F0EBFEFF
S1133E6000F0EAFE00F0EAFE0022C04B01F087FAFF
S1133E70EBD301F09DFA0100002900D10121099C36
S1133E800A20FFF731FE401C4443099400F0D2FE9F
S1133E9002A8FFF755FE00F0CEFE00F0CDFE009024
S1133EA0310089B2029800B200F0A5FE060031008C
S1133EB089B2022002AA105E00F09DFE06003100C5
S1133EC089B2042002AA105E00F095FE06003100BB
S1133ED089B2089800B200F08EFE0600B6B2300037
S1133EE0C549884220D0C549884213D0C449884274
S1133EF00BD0C449884203D0C34988420FD01BE089
S1133F000027C24800F0B2FE18E00127C04800F0C4
S1133F10ADFE13E00227BF4800F0A8FE0EE0032721
S1133F20BD4800F0A3FE09E00427BC4800F09EFE53
S1133F3004E000BF153400000025ED433FB2002F1C
S1133F4000D5B7E00024AFE0A4B24420604302A946
S1133F500818403000210180A4B24420604302A923
S1133F60081820300078C0072BD5A4B24420604341
S1133F7002A90818408F3FB202217943CE4A515A10
S1133F8088421ED03FB202207843CB490B5AA4B2D8
S1133F904420604302A90818428FA4B22100C748F4
S1133FA000F064FEA4B24420604302A90818403023
S1133FB00088401CA4B24421614302AA5118403134
S1133FC00880A4B24420604302A908182030007875
S1133FD080072BD5A4B24420604302A90818808F1F
S1133FE03FB202217943B64A515A88421ED03FB2A9
S1133FF002207843B2490B5AA4B24420604302A978
S11340000818828FA4B22100AE4800F02FFEA4B29B
S11340104420604302A9081840300088401CA4B220
S11340204421614302AA511840310880A4B24420BB
S1134030604302A908182030007840072BD5A4B2A9
S11340404420604302A90818C08F3FB2022179437B
S11340509D4A515A88421ED03FB2022078439A4961
S11340600B5AA4B24420604302A90818C28FA4B218
S11340702100964800F0FAFDA4B24420604302A94E
S1134080081840300088401CA4B24421614302AAAD
S1134090511840310880A4B24420604302A9081892
S11340A0403000882D18641CA4B2894800688442FA
S11340B000D249E700F0A5FD2D180899854800F0C5
S11340C0D5FD0099844800F0D1FD009800F0B6FDBC
S11340D002000B00814800F0C9FD009800F0AEFD1D
S11340E00022002301F07BF914D2009800F0A6FD11
S11340F016AA03C2083A764800680999484301F0B1
S113410087F916AA0CCA01F093F902000B0074484F
S113411000F0ACFD009800F091FD0022714B01F01D
S11341202EF903D2704800F0A1FD6D1C68480168A7
S1134130099841436D4800F099FD6D496D4800F0C0
S113414095FD6D496D4800F091FD6D496D4800F095
S11341508DFDB6B231006C4800F088FD02A8203015
S11341600078C00715D500240EE000BF0000F03F22
S1134170A4B24420604302A90818428FA4B22100CB
S1134180624800F073FD641CA4B251480068844284
S1134190EED302A820300078800712D500240BE06B
S11341A0A4B24420604302A90818828FA4B221005B
S11341B0574800F05BFD641CA4B245480068844283
S11341C0EED302A820300078400712D500240BE07B
S11341D0A4B24420604302A90818C28FA4B22100EB
S11341E04C4800F043FD641CA4B239480068844282
S11341F0EED3002420E000BFF2180000AF4E000010
S1134200057B0000028A0000F5E90000D06E000082
S1134210E0700000FC6C0000006F00000C710000F6
S1134220A4B24420604302A90818028FA4B221005A
S1134230394800F01BFD641CA4B225480068844280
S1134240EED32DB2002D24D1344800F00FFD3FB23F
S1134250032F1ED1009800F0F1FC06000F00264841
S11342600190234800901A4800680999484301F0D6
S1134270CFF832003B0001F0DBF802000B002848C5
S113428000F0F4FC1E49274800F0F0FC26A000F0E2
S1134290EDFC2DB2012D02DB244800F0E7FC2DB229
S11342A0002D02D5224800F0E1FC02A8423000F0C3
S11342B0D0FC20488544F0BD10F4FF1F306F00008F
S11342C01CF4FF1F306D000028F4FF1F606F000016
S11342D03CF4FF1FB07B0000C87B0000E07B0000C3
S11342E0F87B00000000244030660000107C0000D1
S11342F0E47F0000287C0000CC740000407C0000B7
S113430010810000587C00004879000064790000A6
S1134310807900009C790000B87900008C5F00006F
S1134320D4790000188100000A000000A47D000078
S1134330985C000034080000184800680421014318
S11343401648016030BF7047144800680421884350
S11343501249086030BF704711490860704770B552
S11343600400212C03DB0F48FDF760FF15E00E4825
S11343700568012620002021FFF7A2FB8E402E4372
S11343800948066009480568012620002021FFF736
S113439097FB8E402E430548066070BD10ED00E08B
S11343A008ED00E0046B000080E200E000E100E0C2
S11343B000B50F48006880070AD50D480068012140
S11343C088430B4908600A4800688007FBD409E069
S11343D0002000E0401C0749884203DA06490968C6
S11343E0C906F7D500BD05480549016070470000BE
S11343F0403000F0FFFF010010F00FF8109004406F
S11344001307000000B50F49096801220A430D494A
S11344100A600D4900220A600C4908600C48052115
S1134420016009480068012101430748016006480A
S113443000680006FBD5044800680121884302494E
S1134440086000BD388004400000044008000440B7
S11344500400044000B501000020002902D100201E
S113446006E0401C0A001100491C1278002AF8D109
S113447000BD00009D21020008D5F446524200F020
S113448005F80122D2071043604700000AD002D485
S1134490491E9218FCD5C905100A1206524100D3D0
S11344A0012A4841704730B405004D400122D2072B
S11344B015404B180418240E28D01B0E2FD0FF2CA7
S11344C034D0FF2B37D0E41A000209021043114301
S11344D043084808D10D1B1A02D2641EDB181B18AE
S11344E0DB18834200D31B1A4941F9D37F3426DDFC
S11344F0FE2C08DAE4054808C907194391416041D4
S1134500284330BC7047FF20C005F9E728001B0E84
S113451003D0FF2BF5D14902F3D0D043F1E7FF2CB0
S113452001D14002F9D1FF20C005E9E74002F4D1EE
S1134530FF2BF8D1F1E728004902E2D0EDE70B02A6
S113454000202442DCD15B129B1CD9D9D805D7E7C3
S113455030B405004D400122D20715404B18041811
S1134560240E30D01B0E34D0FF2C36D0FF2B3CD081
S1134570E4180002090210431143000A090A944690
S1134580C2B24A43000AC3B24B43000A4843110A69
S11345905B18190A12061B0C1A43120A091801D4D3
S11345A04918641E080A7F3C23DBFE2C08DAE40564
S11345B009061143634699416041284330BC704762
S11345C0FF20C005F9E728001B0EFF2BF6D1D043CE
S11345D0F4E72800FF2CF1D1F9E74002F7D1FF2BD3
S11345E001D14902F3D1E005E7E7D8054902E4D057
S11345F0EDE743020020641CDFD15B129B1CDCD975
S1134600D805DAE70122D2070118090E7F3910D440
S113461049421F310FD4001805D2C0011043C840CD
S113462000D5D0437047C0011043C84005D4404270
S11346307047002070470042F3D510007047000017
S113464070470000F0B583B007000E0000203C5E08
S113465024B22100C9110800C007C00FC0B200284D
S113466003D06006400E00B243E06007400F210013
S113467009B2C9100907090F0A010A43110000B25F
S1134680002802D0012816D021E009B2222900DA3C
S11346902221308F019009B200910220335E002064
S11346A0325E7169B06900F0BBFC0500F08F002830
S11346B000D1F5870CE0328F09B23000283000F0C9
S11346C0D9FA0500B08F002800D1B58700E0250095
S11346D0318F280080B200F069FA30876D066D0EC4
S11346E0FF20C04320402843802101433980280013
S11346F000B2FEBD70B50C0016003100FFF7A2FF3A
S1134700050031002000FFF79DFF2DB200B2281AEA
S113471070BD00B5002A15D10288FF23DB43134086
S11347200022825E12B21212D2B21A4302800A88A6
S1134730FF23DB43134000228A5E12B21212D2B26C
S11347401A430A800222805E0222895E401A00BD5A
S11347500A880280498841807047F3B583B00024F9
S11347606846002101816846002141800398456A1A
S1134770684603998A88428101A8049909B2418054
S113478068460021018028E0684669460989491C79
S1134790018170680078C00707D570680021405E09
S11347A040120100C907C90F64183068002805D0F9
S11347B0376838683060286838602F60022001A9A3
S11347C0085E002804D401A84088401C01A9488040
S11347D06846009909B2491C0180009800B2029908
S11347E0091488421EDA009800B2C0B26946888073
S11347F001A9280000F012F90600280000F029F9A8
S11348000500002EC0D1684669464988491C41808C
S1134810286840680021405E00120100C907C90FE2
S11348206418CBE768460089042148432018694688
S11348304988441A049800B2012805DB039A5949AF
S1134840280000F011F90500286800F0D3F80600EC
S113485001A9280000F0E2F80700002F0AD12F6810
S113486008E0210089B268680022805E00F0C3F984
S113487004003F68002FF4D12968300000F0C6F826
S1134880060000224849280000F0EEF805002F68D1
S113489008E0210089B268680022805E00F0ABF96C
S11348A004003F68002FF4D1200080B205B0F0BDB1
S11348B0F6B585B01421FFF717F90600B61E0820D7
S11348C0704305990F180297042070430299081841
S11348D00490059D002028600298686068680021A3
S11348E04180686831490180059808300590029834
S11348F0001D029003A82E49418068460021C94347
S1134900818104980190009702AB05AA03A92800AD
S113491000F050F8002419E0069800B2210041404C
S11349200807000F80B2C10020004007400F084371
S1134930010208436946888104980190009702ABFC
S113494005AA03A9280000F035F8641CB442E3D397
S11349502F6801240EE02100069800B24840641C30
S113496021004907490F090208438004800C796833
S113497048803F68386800280AD030000521FFF7D6
S1134980B3F88442E7D2786821004180641CF0E7E0
S113499000220549280000F067F80500280007B048
S11349A0F0BD0000F5460000134700008080FFFFC3
S11349B0FF7F000070B5049C059D16680836A6426A
S11349C001D3002015E01C68241DAC4201D3002053
S11349D00FE01468156808351560026822600460E9
S11349E0186860601868001D18606068FFF7B0FE02
S11349F0200070BD010008684A6843684B6042604B
S1134A000A6812680A6000210160704742684B68B6
S1134A1043604A600A6802600860704700B5022279
S1134A208A5E002A0CD400E00068002806D0022226
S1134A3043689A5E0223CB5E9A42F5D108E000688F
S1134A40002805D042681278D2B20B889A42F6D177
S1134A5000BD00B50100002003E00A6808600800FA
S1134A6011000029F9D100BDF7B584B001200090F0
S1134A7003E00098022148430090049F0020049022
S1134A80002001900020029000E03700002F3AD06F
S1134A900298401C02903E000024002000E0401CCC
S1134AA00099884203DA641C3668002EF7D1009D11
S1134AB001E004900190012C03DA012DE5DB002EC6
S1134AC0E3D0002C03D1300036686D1E15E0002DB4
S1134AD001D0002E03D138003F68641E0DE0069A11
S1134AE071687868059B9847012803DA38003F68A5
S1134AF0641E02E0300036686D1E01990029D8D08A
S1134B0001990860D6E70198002101600298022803
S1134B10AFDA049807B0F0BD00B5012807D015D36B
S1134B2003280AD006D305280DD009D30EE03A484D
S1134B3000680CE03948006809E03948006806E07C
S1134B403848006803E03848006800E0002000BDF1
S1134B5030B50200080000210023002400252900AC
S1134B6002E04004400C491CC9B208291CDA1400B4
S1134B70E407E40F05002B00DB07DB0F6340D2B230
S1134B805208DBB2012B04D1030028485840012409
S1134B9000E0002480B24008E4B2002CE1D003001D
S1134BA0802000021843DEE780B230BD10B5040057
S1134BB00800010089B22000C0B2FFF7C9FF01005C
S1134BC089B2200080B2000AC0B2FFF7C1FF80B2F0
S1134BD010BD10B504000800010089B2200000B225
S1134BE000F009F8010089B22000000C00B200F0C6
S1134BF002F880B210BD80B589B280B2FFF7D6FF4B
S1134C0002BD10B50024E4B2002C02D0084800F024
S1134C102DF82000C0B210BD88F4FF1F8CF4FF1FD4
S1134C2034F4FF1F38F4FF1F90F4FF1F024000000C
S1134C303C6B0000704770470020704700B500F0DF
S1134C40E7FB0022074B00F0F3FB00BD01210170DC
S1134C50704710B50400044800F008F800202070E4
S1134C6010BD00000000F03FF07400000EB40020FE
S1134C7003B0704738B503000D0014001868D968F4
S1134C805A689B682DB2009500F009F8210089B29A
S1134C9000B2FFF7B0FF0400200080B232BDF8B5C7
S1134CA082B005000E0017000024684608990184AC
S1134CB06846089909B22E4A0A430280089A12B239
S1134CC03900280000F0F7F8089B1BB23A003100C5
S1134CD0280000F0D4F8009A12B23100280000F045
S1134CE0A6F8210089B200B2FFF785FF0400029BF9
S1134CF03A003100280000F0F7F8009A12B23100AF
S1134D00280000F094F8210089B200B2FFF773FF85
S1134D100400029B3A003100280000F008F9009AD0
S1134D2012B23100280000F082F8210089B200B2EA
S1134D30FFF761FF0400029B3A003100280000F0F5
S1134D402FF9009A12B23100280000F070F8210007
S1134D5089B200B2FFF74FFF0400089800B2424244
S1134D6012B23900280000F0A6F8200000B2FEBDFF
S1134D7000F0FFFFF9B582B01000002401250026E1
S1134D800027002806D1012004E0761C3700774371
S1134D9008225743029A9742F7D33400641E491EEF
S1134DA003229143091D01912100614302225143D1
S1134DB0019A5118009100261EE06843802149029F
S1134DC0FEF77EFE080001002A00891832006243C3
S1134DD0D21902235A43009B99522A008918C9B256
S1134DE032006243D21902235A43019B99526D1C2B
S1134DF07F1CA742E1D3761CA64201D20027F8E724
S1134E0003980199416003980099816020006043F0
S1134E100221484300990818401E03218843001DBD
S1134E200399C86003980460200004B0F0BDF6B58F
S1134E3001000022002500260020002300E05B1C66
S1134E408B421AD2002403E0002540193500641C6B
S1134E508C42F4D21E004E43361904277E43009F31
S1134E60BE599219019F3FB2974202DA0A300022DA
S1134E70ECE7B542E8DA0125E7E700B2F6BDF0B5A4
S1134E80002413E026004643771904267743BC46E2
S1134E9026004643771902267743D65F1BB25E434A
S1134EA06746CE516D1C8542ECD3641C844201D20A
S1134EB00025F8E7F0BDF0B5002410E025004543D7
S1134EC0ED180226754326004643F61802277E4352
S1134ED08E5BB6184E535B1C8342EFD3641C844232
S1134EE001D20023F8E7F0BDF4B50200002415E078
S1134EF004206043085826005643761902277E434F
S1134F00009FBE5F02276F43DF5F7E438019042644
S1134F10664388516D1C9542EAD3641C944205D2C1
S1134F200420604300250D500025F4E7F1BDFEB5D3
S1134F300200002300E05B1C934230D2002423E0F3
S1134F401800504300190426704300901800504381
S1134F500019042670430858844618005043401929
S1134F6002267043019E365E280050430019022732
S1134F707843029F385E46436046861900980E5077
S1134F806D1C9542DCD3641C9442D4D21800504367
S1134F9000190425684300250D500025F1E7F7BDED
S1134FA0FCB50200002300E05B1C934236D20024CF
S1134FB029E018005043401902267043009E365ED3
S1134FC028005043001902277843019F385E464366
S1134FD018005043001904277843844618005043AE
S1134FE0071904204743CF59300080100007000FF1
S1134FF076117606760E70433E1860460E506D1C90
S11350009542D6D3641C9442CED218005043001962
S11350100425684300250D500025F1E7F3BD000089
S1135020F4B592B006000C001F000094002509E0BE
S113503000200421694301AA50500421694309AAAC
S113504050506D1C082DF3D30098007800280FD021
S113505001A9684600F0E1F8C0B20421414309AA5D
S11350605158491CC0B20422504309AA1150EBE71D
S11350700094189D0EE0009800782C2806D0009823
S11350800078129909B24140009801702DB200983D
S1135090401900900098A1198842ECD300940EE0C6
S11350A001A9684600F0B9F8C0B20421414309AA35
S11350B05158491CC0B20422504309AA1150009807
S11350C000780028ECD100940DE0009800782C289A
S11350D005D00098007839004140009801702DB245
S11350E00098401900900098A1198842EDD300253A
S11350F0199810E0010089B20420684309AA1058E5
S1135100FFF767FD010089B20420684301AA105823
S1135110FFF75FFD6D1C082DECD380B213B0F0BD1A
S1135120F4B50200002300250024521E00200500CF
S113513009E009B20800C0108007800F042460430E
S11351402A4C245804255819401C904244D2002D5E
S11351500FD0002004E0009EF618275C3754401C52
S1135160A842F8D3009EF7182C263E542800401C71
S11351701B18491C09B24807400FC0B20028022876
S1135180D7D9C01E012805D9801E01280DD9801E3B
S113519016D020E009B20800C0108007800F042454
S11351A06043134C24580825CDE709B20800C01009
S11351B08007800F042460430E4C24580825C2E75E
S11351C009B20800C0108007800F042460430A4C11
S11351D024580825B7E7B6E7521C03E000980021DD
S11351E0C1545B1C9342F9D3F1BD000040F4FF1F8E
S11351F050F4FF1F60F4FF1F70F4FF1F00B5C0B22E
S1135200302807DB0121C0B23A2803DA0800C007BE
S1135210C00F00E00020C0B200BDF1B50C00009842
S11352200768002500E07F1C3878002807D0EDB21D
S1135230012D04D03E78F6B22C2E05D17F1C0098A7
S113524007602800C0B2F2BDEDB2280000280DD0DE
S1135250022828D0032867D004283CD005284DD044
S1135260062871D0072800D17EE0DCE73000C0B208
S1135270FFF7C4FF002801D0042510E0F6B22B2E5E
S113528002D0F6B22D2E01D1022508E0F6B22E2E60
S113529001D1052503E001256068401C6060206899
S11352A0401C2060BFE73000C0B2FFF7A7FF002812
S11352B004D00425A068401CA0600BE0F6B22E2E9A
S11352C004D10525A068401CA06003E00125A06866
S11352D0401CA060A7E7F6B22E2E04D10525206954
S11352E0401C206109E03000C0B2FFF787FF0028AE
S11352F003D101252069401C206194E7F6B2452EB4
S113530002D0F6B2652E04D103256069401C6061A9
S113531009E03000C0B2FFF771FF002803D1012576
S11353206069401C60617EE7F6B22B2E02D0F6B2B3
S11353302D2E04D10625E068401CE06003E0012521
S1135340E068401CE0606EE73000C0B2FFF756FF33
S1135350002804D00725A069401CA06103E00125B2
S1135360A069401CA0615EE73000C0B2FFF746FFB1
S1135370002803D101256068401C606053E730B405
S1135380012464054D00EC420BD85D00EC4208D8C2
S11353900C001C4364000443144304D2994200D11A
S11353A0904230BC7047FCD08B42FAD18242F8E77D
S11353B04A1812D2400DC90208430121C907084303
S11353C0520D40210901521A521C06D452421F3276
S11353D001D4D0407047C01770470020704730B4E4
S11353E0012464054D00EC420BD85D00EC4208D862
S11353F00C001C4364000443144304D28B4200D1C8
S1135400824230BC7047FCD09942FAD19042F8E70E
S1135410010000BF42221201D21E004207D002D472
S1135420521E0018FCD5C10A4005120589187047A0
S1135430F0B40E005E400125ED072E40B446AE0ADE
S1135440DF184C18F4423BD2F74241D2640D43D0EA
S11354507F0D38D0E41BC902DB0229432B43CF0A5A
S1135460DB0A0600B61A9F4104D2641EB6197F41B6
S1135470B6185F416812800D24180018844222DA9D
S1135480E80C0021B6197F41B61A9F4102D2B61822
S11354905F413F1C40414941F4D3241C21DD2405D4
S11354A0B6197F41B61A9F4105D33743C607374320
S11354B00026012F7041614166463143F0BC7047BC
S11354C0FCD1F74205D20020C14349054908F3E75E
S11354D004D00020C143F1E77F0DFAD000206146DB
S11354E0ECE72442FAD1401C61410F03F6D30020BB
S11354F0E2E7000080B57D480021016000F0C4F9B6
S113550000F014FA7A48FCF791FE00F0ADFA00F0CE
S113551003F8FAF7A5FFFEE780B576480068000FA8
S11355204007400F002806D002280CD007D30428D7
S113553011D00CD313E07048FCF778FE12E06F48EA
S1135540FCF774FE0EE06E48FCF770FE0AE06D484E
S1135550FCF76CFE06E06C48FCF768FE02E06B4862
S1135560FCF764FE63480068000E4007400F0428FF
S113557002D0052804D007E065A0FCF757FE06E03A
S113558064A0FCF753FE02E06348FCF74FFE594861
S113559000680007000F00280CD001280ED0022854
S11355A010D0042812D0052814D0062815D00828B5
S11355B016D019E05948FCF739FE18E05848FCF7B2
S11355C035FE14E08648FCF731FE10E08548FCF710
S11355D02DFE0CE08448FCF729FE8448FCF726FEE7
S11355E08348FCF723FE02E08248FCF71FFE414893
S11355F00068000D4007400F012803D17E48FCF7E6
S113560015FE02E07D48FCF711FE3A480068000CE4
S11356104007400F00280BD0022811D00CD30428D7
S113562016D011D306281BD016D307281CD01FE090
S11356307348FCF7FBFD1EE07248FCF7F7FD1AE027
S11356407148FCF7F3FD16E07048FCF7EFFD12E03B
S11356506F48FCF7EBFD0EE06E48FCF7E7FD0AE04F
S11356606D48FCF7E3FD06E06C48FCF7DFFD02E063
S11356706B48FCF7DBFD0F2189B26A48FCF7D6FDC5
S113568000F050F868480068000E0007000F00287A
S11356900CD001280ED0032810D0052812D00728DA
S11356A014D0092816D00F2818D01BE05F48FCF747
S11356B0BDFD1AE05E48FCF7B9FD16E05D48FCF755
S11356C0B5FD12E05C48FCF7B1FD0EE05B48FCF769
S11356D0ADFD0AE05A48FCF7A9FD06E05748FCF77F
S11356E0A5FD02E05748FCF7A1FD01BD008104407F
S11356F0488100002480044050810000588100004B
S11357006081000068810000708100005474000012
S1135710340000003500000040720000B47F000037
S1135720C47F000080B54848032101704748002128
S11357300170474800210170464800210170464825
S11357400121017045488021017044480078000619
S1135750FBD543480178C9B24248FCF767FD42488B
S11357600178C9B24148FCF761FD41480178C9B2EA
S11357703E48FCF75BFD3F480178C9B23E48FCF760
S113578055FD314803210170304800210170304833
S1135790002101702F48042101702F48012101705C
S11357A02E48802101702D4800780006FBD52C4836
S11357B00178C9B23148FCF739FD2B480178C9B2E8
S11357C02FA0FCF733FD2A480178C9B22748FCF71B
S11357D02DFD28480178C9B22A48FCF727FD01BDF0
S11357E0D4800000E0800000EC800000F88000001D
S11357F0D47F00006C7200007C740000987200007A
S1135800BC7E0000D07E0000E47E0000F87E000034
S11358100C7F0000207F0000347F0000487F0000E0
S1135820787B00005C7F00004C8004409C69000091
S1135830D8690000146A0000506A00008C6A0000F5
S1135840C86A0000287900000700024006000240F0
S113585005000240040002400F0002400000024024
S11358600B000240947B00000A0002407881000093
S1135870090002400800024080810000307D0000E1
S1135880202564008881000010B51E481E49884206
S11358900ED0002008E0042141431A4A0423434364
S11358A0194CE3585350401C822149008842F2D3DA
S11358B01448FEF751FD1549154A1648801A03E0AD
S11358C013780B70521C491C0300581E002BF7D18F
S11358D011491248401A02E000220A70491C0200D1
S11358E0501E002AF8D10E490E4A0F48801A03E0D0
S11358F013780B70521C491C0300581E002BF7D15F
S113590010BD00BF00F0FF1F0000000010F4FF1FD7
S1135910205C0000985C000088F4FF1FA8F4FF1FBF
S1135920A8F4FF1F100400001004000000B583B0A9
S11359303F480068F821890101433D4801603D4822
S11359400078000705D53B48007808210143394811
S1135950017039488021490201600120019018201A
S113596000900423012200213448FCF771FC3449DF
S1135970086033480068FF2800DCFEE7314800680F
S11359808021490201432F4801602D48006802210B
S1135990FEF796F8FA218900FEF792F82A49086082
S11359A027480068FA218900FEF78AF82749086029
S11359B02648006820490968090F491CFEF794F835
S11359C023490860224800681B490968090C4907F3
S11359D0490F491CFEF788F81E49086000F017F8C3
S11359E01D488021890001601C48802189000160D4
S11359F0144800688021C9040143124801609622BA
S1135A00D201114801681648FCF710F907BD80B5AA
S1135A101448FF21091D0160124800689021090300
S1135A200143104801601E20FEF799FC01BD0000EF
S1135A303880044002D007404480044000127A00B9
S1135A4094F4FF1F04800440A4F4FF1F98F4FF1F84
S1135A509CF4FF1FA0F4FF1F04900440089004402E
S1135A6000A006401090044080B557480078800696
S1135A7002D55648FCF7DAFB53480078000702D5F4
S1135A805348FCF7D3FB50480078400702D55148EF
S1135A90FCF7CCFB4C480078800702D54E48FCF755
S1135AA0C5FB4E480078000602D54D48FCF7BEFB06
S1135AB04A480078400602D54A48FCF7B7FB4748F5
S1135AC00078800602D54848FCF7B0FB43480078CC
S1135AD0400702D54548FCF7A9FB40480078000779
S1135AE002D54348FCF7A2FB3C480078800702D566
S1135AF04048FCF79BFB39480078C0074DD53E4829
S1135B00FCF794FB3D480078C0B24007400F0328DF
S1135B1002D13B48FCF78AFB38480078C0B2400702
S1135B20400F042806D137480078400702D1364890
S1135B30FCF77CFB31480078C0B24007400F0428D2
S1135B4009D130480078C0B24007400F012802D183
S1135B502E48FCF76BFB29480078C0B24007400F81
S1135B60042809D127480078C0B24007400F022812
S1135B7002D12748FCF75AFB20480078C0B24007FE
S1135B80400F042809D11F480078C0B24007400FD5
S1135B90032802D11F48FCF749FB10480078C0B223
S1135BA0002810D108480078C0B200280BD10B4857
S1135BB00178C9B21848FCF739FB03480178C9B227
S1135BC01648FCF733FB01BD01F007405477000091
S1135BD0A47F0000947E0000247B000000F00740B6
S1135BE0A87E0000007D0000187D000008790000F8
S1135BF0407B00005C7B00008070000001E00740F7
S1135C009880000002E00740A4800000B0800000FB
S1135C10BC800000C8800000047400002C740000E4
S1135C20B0D44033796A14E7C1E3000052BE99113D
S1135C300856D71F47070000475EBF39A4E53A8ED0
S1135C40848D000066000000900100000100000047
S1135C50208100002881000030810000388100008C
S1135C60F07F0000FC7F000008800000148000002A
S1135C70208000002C800000388000004480000058
S1135C80508000005C800000688000007480000088
S1135C9000093D000080000043616E6E6F74207641
S1135CA0616C6964617465206F7065726174696F99
S1135CB06E20666F72207468657365207365656411
S1135CC02076616C7565732C20706C65617365203A
S1135CD0636F6D7061726520776974682072657393
S1135CE0756C7473206F6E2061206B6E6F776E20FD
S1135CF0706C6174666F726D2E0A00004420666FCA
S1135D007220434153452031333A20456E74657205
S1135D10205041525449414C2053544F502032207A
S1135D20776974682073797374656D20636C6F632D
S1135D306B2064697361626C656420616E642062C7
S1135D40757320636C6F636B20656E61626C656450
S1135D500A0D00000A204C4C575520636F6E66698B
S1135D6067757265642070696E7320505442302FD9
S1135D70493243305F53434C2F46544D315F4348BF
S1135D80302F46544D315F51445F50484120697370
S1135D90204C4C57552077616B65757020736F7577
S1135DA072636520000000004720666F7220434143
S1135DB053452031363A20456E61626C65204C5063
S1135DC0544D5220746F2077616B65757020657631
S1135DD06572792035207365636F6E647320667213
S1135DE06F6D20616E79206D6F64652065786365E1
S1135DF0707420564C4C53300A0D00000A204C4C51
S1135E00575520636F6E66696775726564207069A3
S1135E106E7320505444362F534349305F52582FE9
S1135E2046544D305F4348362F46544D305F464C00
S1135E305430206973204C4C57552077616B65753D
S1135E407020736F75726365200000003020666FE8
S1135E5072204341534520303A20456E74657220C8
S1135E60564C4C5330207769746820504F5220644C
S1135E70697361626C6564202856657279204C6F81
S1135E8077204C65616B6167652053544F50203017
S1135E9029204E4F20504F520A0D00003120666FCA
S1135EA072204341534520313A20456E7465722077
S1135EB0564C4C5330207769746820504F522065FB
S1135EC06E61626C6564202856657279204C6F7728
S1135ED0204C65616B6167652053544F5020302915
S1135EE0207769746820504F520A0D003320666F82
S1135EF072204341534520333A20456E7465722025
S1135F004C4C532077697468204C50544D522031C6
S1135F10207365636F6E642077616B657570206CA8
S1135F206F6F7020284C6F77204C65616B616765DB
S1135F302053746F70290A0D000000004320666F1F
S1135F407220434153452031323A20456E746572C4
S1135F50205041525449414C2053544F5020312039
S1135F607769746820626F74682073797374656DDF
S1135F7020616E642062757320636C6F636B7320A1
S1135F8064697361626C65640A0D0000436F727228
S1135F90656374206F7065726174696F6E207661D9
S1135FA06C6964617465642E205365652072656153
S1135FB0646D652E74787420666F722072756E201D
S1135FC0616E64207265706F7274696E6720727599
S1135FD06C65732E0A0000000A204C4C5755206350
