S021000066726565646F6D5F677265656E5F6C65645F66726565646F6D2E73726563DC
S1130000F85F002011040000F7160000E916000054
S1130010E9160000E9160000E9160000E9160000E0
S1130020E9160000E9160000E9160000E9160000D0
S1130030E9160000E9160000E9160000E9160000C0
S1130040E9160000E9160000E9160000E9160000B0
S1130050E9160000E9160000E9160000E9160000A0
S1130060E9160000E9160000E9160000E916000090
S1130070E9160000E9160000E9160000E916000080
S1130080E9160000E9160000E9160000E916000070
S1130090E9160000E9160000E9160000E916000060
S11300A0E9160000E9160000E9160000E916000050
S11300B0E9160000E916000013170000E916000015
S11300C0FFFFFFFFFFFFFFFFFFFFFFFFFFFFFFFF3C
S11300D0FFFFFFFFFFFFFFFFFFFFFFFFFFFFFFFF2C
S11300E0FFFFFFFFFFFFFFFFFFFFFFFFFFFFFFFF1C
S11300F0FFFFFFFFFFFFFFFFFFFFFFFFFFFFFFFF0C
S1130400FFFFFFFFFFFFFFFFFFFFFFFFFEFFFFFFF9
S113041000200021002200230024002500260027BC
S113042062B600F0F5FAFEE710B50C001168012978
S113043002D0022904D009E0C0B25168884705E01F
S1130440916808709068401C9060FFE72068401C29
S1130450206010BDF0B51C000026050000202870A7
S11304606D1C002A1CD00F68002F09D13020287081
S1130470761C3000F0BD30320F002A706D1C761CE3
S1130480002FF6D03800210000F042FA01000800E5
S113049060433A1A002AEED5D04302003132EBE72A
S11304A00F68002F08D130202870761CE1E737311F
S11304B0070029706D1C761C002FDAD0380021004B
S11304C000F029FA01006143791A0A29EFD2303188
S11304D0EEE7F8B50F0015001E00040005E0320039
S11304E029003020FFF7A0FF641CBC42F7DBF1BDFC
S11304F0F8B50F0015001E00040005E032002900C5
S11305002020FFF791FF641CBC42F7DBF1BDF1B57D
S113051090B01700002000900E0005E0109A694684
S11305201800FFF781FF761C3378002B00D1C4E15B
S1130530252B12D00A2B05D0109A69461800FFF714
S113054073FF09E0109A69460D20FFF76DFF109ABA
S113055069460A20FFF768FFE5E70025002102E06D
S113056028000125054300291FD1761C3078202856
S11305700CD0232812D02B2804D02D28F0D03028DA
S113058008D00FE0280002250543ECE728000425E5
S11305900543E8E7280008250543E4E7280010257B
S11305A00543E0E7761E0121DDE7002002900021EB
S11305B005E002980A225043C018303802900029FE
S11305C008D1761C3378180030380928F1D9761E02
S11305D00121F4E7761C30782E280BD10021FFE7A7
S11305E0002908D1761C307830380928F8D9761ECD
S11305F00121F5E7761E761C30784C2806D0682851
S113060002D06C2801D002E002E001E000E0761E96
S1130610761C33781800582871D0622800D1CAE0BB
S1130620632800D113E1642813D0692811D06E28FF
S113063000D13DE16F2800D1B2E0702800D1C5E0BF
S1130640732800D10BE1752800D1CAE0782856D070
S113065064E7386806903F1D0A23012206A907A80B
S1130660FFF7F8FE040007A8001905900698002873
S113067003D52D200190641C0DE0A80703D52B2081
S11306800190641C07E0680703D520200190641CD6
S113069001E00020019000200490280711D5019862
S11306A0002804D0109A69460198FFF7BDFE012086
S11306B00490109B6A4602992000FFF70AFF029CEF
S11306C011E0E8070FD4109B6A4602992000FFF757
S11306D00FFF0198002804D0109A69460198FFF78B
S11306E0A3FE012004900498002807D10198002853
S11306F004D0109A69460198FFF796FE9AE038688C
S113070003903F1D1023002203A907A8FFF7A2FEB0
S1130710040007A80019059000200490280715D5A7
S1130720E8060BD5109A69463020FFF77DFE109A33
S113073069467820FFF778FE01200490109B6A46F2
S113074002992000FFF7C5FE029C18E0E80716D4C2
S1130750E80600D5A41C109B6A4602992000FFF706
S1130760C7FEE8060BD5109A69463020FFF75CFEF9
S1130770109A69467820FFF757FE01200490E80696
S11307800DD5049800280AD1109A69463020FFF745
S11307904BFE109A69467820FFF746FEA41C49E0F8
S11307A0386803903F1D0823002203A907A8FFF718
S11307B051FE04001FE0386803903F1D022300220D
S11307C003A907A8FFF746FE040014E03868039065
S11307D03F1D1023002203A907A8FFF73BFE0400D6
S11307E009E0386803903F1D0A23002203A907A8E3
S11307F0FFF730FE040007A800190590280707D565
S1130800109B6A4602992000FFF763FE029C11E0E8
S1130810E8070FD4109B6A4602992000FFF768FE90
S113082008E0109A694605980078FFF7FDFD0598E1
S1130830401E0590059800780028F2D1E80705D5F8
S1130840109B6A4602992000FFF752FE6BE6386857
S1130850C0B23F1D109A6946FFF7E6FD63E63868AB
S113086001903F1D0198002821D0019800F0AAF8BA
S11308700400E8070FD4109B6A4602992000FFF792
S113088037FE08E0109A694601980078FFF7CCFD1E
S11308900198401C0190019800780028F2D1E807E3
S11308A005D5109B6A4602992000FFF721FE3AE61F
S11308B038683F1D0099016035E6009811B0F0BD1D
S11308C00EB400B584B0012100910549019105AA37
S11308D001006846FFF71BFE049908B008470000B2
S11308E0491D0000F446002804D4494200F013F8DE
S11308F0404260474042002905D45FD000F00BF825
S1130900404249426047494200F005F84942604785
S113091003460B43E6D40022030A8B420BD203099D
S11309208B4219D243088B422ED2411A00D201467F
S1130930524110467047FF2209023FD012068B42F3
S113094005D3121209028B4201D3121209020309C0
S11309508B4219D300E0090AC3098B4201D3CB01AE
S1130960C01A524183098B4201D38B01C01A5241F0
S113097043098B4201D34B01C01A524103098B42F4
S113098001D30B01C01A5241C3088B4201D3CB00DF
S1130990C01A524183088B4201D38B00C01A5241C2
S11309A043088B4201D34B00C01A5241884200D302
S11309B0401A5241CFD201461046704708B500F0A4
S11309C025F808BD00B501000020002902D100204F
S11309D006E0401C0A001100491C1278002AF8D1D4
S11309E000BD38B4012100220368001D002B0BD088
S11309F00468001D0C4202D04D466D1E641922602D
S1130A00241D1B1FF0D0FAE732BC7047704700006A
S1130A1080B57D480021016000F0C4F900F014FAAB
S1130A207A48FFF74DFF00F0ADFA00F003F800F04C
S1130A3085FBFEE780B576480068000F4007400F4D
S1130A40002806D002280CD007D3042811D00CD3D8
S1130A5013E07048FFF734FF12E06F48FFF730FFF0
S1130A600EE06E48FFF72CFF0AE06D48FFF728FF01
S1130A7006E06C48FFF724FF02E06B48FFF720FF15
S1130A8063480068000E4007400F042802D0052880
S1130A9004D007E065A0FFF713FF06E064A0FFF7AA
S1130AA00FFF02E06348FFF70BFF59480068000797
S1130AB0000F00280CD001280ED0022810D00428E2
S1130AC012D0052814D0062815D0082816D019E00D
S1130AD05948FFF7F5FE18E05848FFF7F1FE14E017
S1130AE08648FFF7EDFE10E08548FFF7E9FE0CE0CD
S1130AF08448FFF7E5FE8448FFF7E2FE8348FFF7EA
S1130B00DFFE02E08248FFF7DBFE41480068000D8B
S1130B104007400F012803D17E48FFF7D1FE02E0D1
S1130B207D48FFF7CDFE3A480068000C4007400FAF
S1130B3000280BD0022811D00CD3042816D011D3CE
S1130B4006281BD016D307281CD01FE07348FFF7D4
S1130B50B7FE1EE07248FFF7B3FE1AE07148FFF7D4
S1130B60AFFE16E07048FFF7ABFE12E06F48FFF7E8
S1130B70A7FE0EE06E48FFF7A3FE0AE06D48FFF7FC
S1130B809FFE06E06C48FFF79BFE02E06B48FFF710
S1130B9097FE0F2189B26A48FFF792FE00F050F8E1
S1130BA068480068000E0007000F00280CD00128D8
S1130BB00ED0032810D0052812D0072814D00928F5
S1130BC016D00F2818D01BE05F48FFF779FE1AE013
S1130BD05E48FFF775FE16E05D48FFF771FE12E010
S1130BE05C48FFF76DFE0EE05B48FFF769FE0AE024
S1130BF05A48FFF765FE06E05748FFF761FE02E03A
S1130C005748FFF75DFE01BD00810440141E00003B
S1130C10248004401C1E0000241E00002C1E000022
S1130C20341E00003C1E0000401A00003400000086
S1130C30350000006C1900006C1D00007C1D0000D4
S1130C4080B5484803210170474800210170474896
S1130C5000210170464800210170464801210170BD
S1130C60454880210170444800780006FBD543487C
S1130C700178C9B24248FFF723FE42480178C9B25D
S1130C804148FFF71DFE41480178C9B23E48FFF7CD
S1130C9017FE3F480178C9B23E48FFF711FE3148BC
S1130CA00321017030480021017030480021017097
S1130CB02F48042101702F48012101702E48802102
S1130CC001702D4800780006FBD52C480178C9B284
S1130CD03148FFF7F5FD2B480178C9B22FA0FFF783
S1130CE0EFFD2A480178C9B22748FFF7E9FD2848F3
S1130CF00178C9B22A48FFF7E3FD01BDD81D000001
S1130D00E41D0000F01D0000FC1D00008C1D00000F
S1130D1098190000681A0000C4190000941C00000F
S1130D20A81C0000BC1C0000D01C0000E41C000037
S1130D30F81C00000C1D0000201D0000A41B000076
S1130D40341D00004C800440401700007C17000054
S1130D50B8170000F4170000301800006C180000E9
S1130D60301B00000700024006000240050002405C
S1130D70040002400F000240000002400B00024049
S1130D80C01B00000A000240441E0000090002408B
S1130D90080002404C1E0000541C00002025640082
S1130DA0541E000010B51E481E4988420ED0002073
S1130DB008E0042141431A4A04234343194CE358ED
S1130DC05350401C822149008842F2D3144800F059
S1130DD0EFF91549154A1648801A03E013780B7089
S1130DE0521C491C0300581E002BF7D1114912480C
S1130DF0401A02E000220A70491C0200501E002A18
S1130E00F8D10E490E4A0F48801A03E013780B708C
S1130E10521C491C0300581E002BF7D110BD00BF03
S1130E2000E0FF1F000000000000000000000000C0
S1130E300000000010E4FF1F24E4FF1F24E4FF1F50
S1130E40100400001004000000B583B03F4800689F
S1130E50F821890101433D4801603D4800780007BD
S1130E6005D53B48007808210143394801703948C9
S1130E708021490201600120019018200090042380
S1130E8001220021344800F0BDF934490860334898
S1130E900068FF2800DCFEE7314800688021490231
S1130EA001432F4801602D4800680221FFF730FDFF
S1130EB0FA218900FFF72CFD2A49086027480068B9
S1130EC0FA218900FFF724FD2749086026480068B5
S1130ED020490968090F491CFFF71DFD23490860D3
S1130EE0224800681B490968090C4907490F491C35
S1130EF0FFF711FD1E49086000F017F81D48802116
S1130F00890001601C488021890001601448006840
S1130F108021C904014312480160E12252021148B0
S1130F200168164800F0E6FA07BD80B51448FF21B1
S1130F30091D01601248006890210903014310480B
S1130F4001601E2000F037F901BD00003880044024
S1130F5002D007404480044000127A0010E4FF1FCE
S1130F600480044020E4FF1F14E4FF1F18E4FF1F63
S1130F701CE4FF1F049004400890044000A00640B5
S1130F801090044080B557480078800602D5564832
S1130F90FFF796FC53480078000702D55348FFF743
S1130FA08FFC50480078400702D55148FFF788FC71
S1130FB04C480078800702D54E48FFF781FC4E4824
S1130FC00078000602D54D48FFF77AFC4A480078BD
S1130FD0400602D54A48FFF773FC4748007880066C
S1130FE002D54848FFF76CFC43480078400702D517
S1130FF04548FFF765FC40480078000702D54348A0
S1131000FFF75EFC3C480078800702D54048FFF7B4
S113101057FC39480078C0074DD53E48FFF750FCCF
S11310203D480078C0B24007400F032802D13B4836
S1131030FFF746FC38480078C0B24007400F042848
S113104006D137480078400702D13648FFF738FC0C
S113105031480078C0B24007400F042809D1304815
S11310600078C0B24007400F012802D12E48FFF794
S113107027FC29480078C0B24007400F042809D152
S113108027480078C0B24007400F022802D1274801
S1131090FFF716FC20480078C0B24007400F042830
S11310A009D11F480078C0B24007400F032802D17D
S11310B01F48FFF705FC10480078C0B2002810D183
S11310C008480078C0B200280BD10B480178C9B297
S11310D01848FFF7F5FB03480178C9B21648FFF733
S11310E0EFFB01BD01F00740B81A00005C1D0000D1
S11310F06C1C0000501B000000F00740801C000026
S1131100241C00003C1C0000101B00006C1B000091
S1131110881B0000E018000001E007409C1D00004F
S113112002E00740A81D0000B41D0000C01D00001F
S1131130CC1D0000F0190000181A000080B500F062
S113114087FA1448006820210143124801601248BC
S11311500068202101431048016010480068802184
S1131160890501430D4801600D4800688021890507
S113117001430B4801600B48FFF7A2FB0A480068D3
S11311802021014308480160002008498842F5DA1B
S1131190401CFAE7C8F00F40C4F00F4008F10F40BC
S11311A004F10F4040190000CCF00F4040420F0002
S11311B010490860704770B50400212C03DB0E4809
S11311C0FFF77EFB15E00D4805680126200020216D
S11311D0FFF79EFB8E402E430848066008480568CA
S11311E0012620002021FFF793FB8E402E43044864
S11311F0066070BD08ED00E0A818000080E200E081
S113120000E100E0F4B504000D001E00A6480078DB
S1131210C0B280088007800F002807D1A248007858
S1131220C00603D5A0480078800601D5012039E125
S11312309E48844201DB212034E16846007800287E
S113124006D09B48201A9B49884201D3222029E1D9
S1131250EDB2002D00D0012576B23000401E1928D1
S113126001D341201EE1694618200F567FB2380091
S113127018381B2801D3422014E1200076B2310033
S1131280FFF746FB8C49401A8C49884201D343201E
S113129008E1200076B23100FFF73AFB7FB27843D1
S11312A08749401A8749884201D34520FAE0864895
S11312B000780100C320084084498C420ADA010006
S11312C0EDB2E8006A4612789200024310201043FF
S11312D0084309E00100EDB2E8006A461278920082
S11312E00243202010430843774908707848844219
S11312F001DA002114E07748844201DA01210FE089
S11313007548844201DA02210AE07448844201DA11
S1131310032105E07248844201DA042100E005213A
S1131320704800788007800F0200C800382101400F
S11313308020084310436B490870684600780028F1
S113134010D0002000E0401C00B26749884203DA54
S1131350554909788907F6D553480078800701D4A0
S113136023209FE0002000E0401C00B2FA21C900C5
S1131370884203DA4C490978C906F5D44A4800780A
S1131380C00601D511208DE0002000E0401C00B211
S1131390FA21C900884207DA43490978C9B28908A1
S11313A08907890F0229F1D13F480078C0B280082B
S11313B08007800F022801D01A2073E04B48007880
S11313C02021014349480170494800780100E02088
S11313D008400100701EC006C00E0843444908704E
S11313E0424800780100E02008400200183FF90656
S11313F0C90E4020084310433C490870002000E017
S1131400401C00B2FA21C900884203DA264909784F
S11314108906F5D524480078800601D4162041E0D9
S1131420002000E0401C00B2FA210901884203DADE
S11314301D4909784906F5D51B480078400601D4B2
S113144044202FE02A480078C106C90E491C2748C9
S11314500078C506ED0E1835224800788006800E07
S1131460204A1070002000E0401C00B2FA22D20092
S1131470904207DA0C4A1278D2B292089207920F7D
S1131480032AF1D108480078C0B280088007800F91
S1131490032801D01B2005E02000C9B2FFF738FA69
S11314A0EDB26843F2BD00000640064081F0FA0246
S11314B0C0C62D004181BA0180841E0081841E00B3
S11314C0006CDC02017519030140064001127A0028
S11314D0D1121300A1252600414B4C00819698009F
S11314E0012D310100400640204E00000540064019
S11314F004400640F6B50020002600270022002301
S1131500474C25688024E4002C43454D2C60454C11
S11315102578F3242C40434D2C700C00203C424D84
S1131520AC4208D30021414802681000404A0240FE
S11315303E480260FEE7019CFA208000414300918E
S1131540042500982100EDB26943FFF7E4F9010096
S11315500098EDB26943FFF7DEF9844201D2061B1D
S113156000E0261AEDB22F00052506E0231A9E425C
S113157002D31E00EDB22F006D1CEDB2212D0FDA47
S113158000982100EDB26943FFF7C5F90100009806
S1131590EDB26943FFF7BFF98442E7D2031BE6E7E4
S11315A020006421FFF7B7F903214843864235D26E
S11315B03800001F052805D21E4800780221014387
S11315C01C4801701C480278D2B21F2082431100CB
S11315D0781EC0B2C206D20E0A4317481100017029
S11315E0D206D20E521C009854432100FFF793F9FF
S11315F0010012480278D2B21F2082430800000A78
S1131600C006C00E10430D4A10700D480170054805
S113161000780C21014303480170F3BDFEE700008C
S11316203480044003A0064031C300000480044019
S1131630FFFFFFF30BA006400AA0064000A00640EF
S113164001A0064000B502791206FCD5C17100BDA7
S11316501B48A021490001601A4800682021014369
S113166018480160184800682021014316480160A9
S11316701648A021490001601548006880218905A9
S11316800143134801601348006880218905014320
S1131690104801601048FF21091D01600F480068CF
S11316A0082188430D4908600D48FF21091D016088
S11316B00A4800680B49014008480160704700006F
S11316C014C00440C4F00F40D4F00F4074D0044060
S11316D004F10F4014F10F400CB0044094F00F409B
S11316E030B00440FFEFFFFF80B510480168104898
S11316F0FFF7E6F801BD0D4800680E490968F822B5
S113170092010A430B490A600B49FF22121D0A6029
S1131710704780B5084800688021490401430648A1
S113172001600648FFF7CCF801BD000004ED00E0BD
S1131730101900003880044010900440DC1A0000A6
S1131740466C6173682073697A653A202038204BAF
S1131750422070726F6772616D20666C6173682CD1
S113176020302E3235204B422070726F74656374C2
S1131770696F6E20726567696F6E0000466C6173F5
S1131780682073697A653A20203136204B422070F4
S1131790726F6772616D20666C6173682C20302EE5
S11317A035204B422070726F74656374696F6E20CC
S11317B0726567696F6E0900466C617368207369AE
S11317C07A653A20203332204B422070726F677260
S11317D0616D20666C6173682C2031204B4220704F
S11317E0726F74656374696F6E20726567696F6E7A
S11317F009000000466C6173682073697A653A20B9
S1131800203634204B422070726F6772616D2066FF
S11318106C6173682C2032204B422070726F7465A7
S11318206374696F6E20726567696F6E09000000EA
S1131830466C6173682073697A653A2020313238C6
S1131840204B422070726F6772616D20666C617309
S1131850682C2034204B422070726F746563746965
S11318606F6E20726567696F6E090000466C617364
S1131870682073697A653A2020323536204B42203D
S113188070726F6772616D20666C6173682C2034AE
S1131890204B422070726F74656374696F6E20729E
S11318A06567696F6E0900000A4552522120496E2E
S11318B076616C6964204952512076616C756520AB
S11318C070617373656420746F20656E61626C650A
S11318D0206972712066756E6374696F6E210A00E7
S11318E00A0D5B6F75745352535D57616B65757068
S11318F020626974207365742066726F6D206C6F4A
S11319007720706F776572206D6F6465200000002A
S11319100A2A2A2A2A64656661756C745F6973727F
S113192020656E7465726564206F6E2076656374DD
S11319306F722025642A2A2A2A2A0D0A0A00000026
S11319400A0D52756E6E696E672074686520667242
S11319506565646F6D5F677265656E5F6C65642055
S113196070726F6A6563742E0A0D00000A0D556E5D
S11319707265636F676E697A6564204B696E65741E
S11319806973207375622D66616D696C7920646575
S1131990766963652E0A0D000A0D556E7265636FD4
S11319A0676E697A6564204B696E6574697320702B
S11319B061636B61676520636F64652E202020205E
S11319C0202000000A0D556E7265636F676E697A98
S11319D06564204B696E657469732066616D696C1A
S11319E079206174747269627574652E0A0D000041
S11319F05B6F75745352535D52434D5F5352533072
S1131A00206973205A45524F2020203D2025233041
S1131A103258200D0A0D00005B6F75745352535DEC
S1131A2052434D5F53525331206973205A45524FEC
S1131A302020203D202523303258200D0A0D00009F
S1131A400A0D556E7265636F676E697A6564204B23
S1131A50696E657469732066616D696C792064656B
S1131A60766963652E0A0D000A0D4C6F7720506F5E
S1131A70776572204C696E65207769746820436FBE
S1131A8072746578204D302B0A0D0A0D0000000099
S1131A9010B5074979441831064C7C44163404E0E7
S1131AA0081D0A68891888470100A142F8D110BDB1
S1131AB0500000005C0000000A0D53746F70204D4C
S1131AC06F64652041636B6E6F776C656467652036
S1131AD04572726F72205265736574000A2A2A2A4D
S1131AE02A41626F727420627574746F6E20696E1D
S1131AF0746572727570742A2A2A2A0A0A00000010
S1131B00E3EEFFFF1400000010E4FF1F00000000DC
S1131B100A0D4C6F7373206F662045787465726E7E
S1131B20616C20436C6F636B2052657365740000B5
S1131B30455252212120556E646566696E656420A4
S1131B40666C6173682073697A650A0D0000000091
S1131B500A0D436F7265204C6F636B757020457678
S1131B60656E742052657365740000000A0D4C6F35
S1131B707373206F66204C6F636B20696E20504C2A
S1131B804C205265736574000A0D4C6F772D766F87
S1131B906C74616765204465746563742052657371
S1131BA0657400000A0D556E7265636F676E697A1D
S1131BB06564205352414D2053697A652E0A0D0005
S1131BC0466C61736820706172616D657465722022
S1131BD076657273696F6E202564200000F00BF83F
S1131BE0002801D0FFF754FF0020C046C046FFF78D
S1131BF0A5FA00F002F80120704780B500F002F861
S1131C0001BD00000746384600F002F8FBE700007B
S1131C1080B5C046C046024A11001820ABBEFBE79F
S1131C20260002000A0D45787465726E616C2050BE
S1131C30696E205265736574000000000A0D5761D7
S1131C40746368646F6728434F5029205265736535
S1131C5074000000466C6173682076657273696F66
S1131C606E20494420256420000000000A0D536FB3
S1131C7066747761726520526573657400000000B4
S1131C800A0D506F7765722D6F6E205265736574FF
S1131C90000000005352414D2053697A653A2030C8
S1131CA02E35204B420A0D005352414D2053697A80
S1131CB0653A202031204B420A0D00005352414D19
S1131CC02053697A653A202032204B420A0D0000E5
S1131CD05352414D2053697A653A202034204B42B7
S1131CE00A0D00005352414D2053697A653A202071
S1131CF038204B420A0D00005352414D2053697A5B
S1131D00653A20203136204B420A0D005352414D92
S1131D102053697A653A20203332204B420A0D0061
S1131D205352414D2053697A653A20203634204B72
S1131D30420A0D0053696C69636F6E2072657620E8
S1131D4025640A0D2000000080B50100C9B20248D4
S1131D50FFF778FC01BD000000A006400A0D4D44C9
S1131D604D2D415020526573657400003136706901
S1131D706E202020202020200000000032347069D2
S1131D806E20202020202020000000003130307000
S1131D90696E202020202020000000004C4C53209D
S1131DA06578697420000000564C4C5330206578E7
S1131DB069742000564C4C533120657869742000B6
S1131DC0564C4C533220657869740000564C4C5381
S1131DD03320657869742000333270696E202020C6
S1131DE020202000343870696E202020202020001C
S1131DF0363470696E20202020202000383070692D
S1131E006E20202020202000C046C046C046C04688
S1131E10FFF7E4FE0A0D0A0D000000000A0D4B4C0A
S1131E20300000000A0D4B4C310000000A0D4B4CF1
S1131E30320000000A0D4B4C330000000A0D4B4CDD
S1131E403400000020256420000000002025640ADE
S10F1E500D00000025640A0D00000000D5
S9031E09D5
