S01E00006C63645F7274635F6C6F77706F7765725F746F7765722E73726563BD
S1130000F85F002011040000B7230000A9230000BA
S1130010A9230000A9230000A9230000A9230000AC
S1130020A9230000A9230000A9230000A92300009C
S1130030A9230000A9230000A9230000A92300008C
S1130040A9230000A9230000A9230000A92300007C
S1130050A9230000A9230000A923000061200000B7
S1130060A9230000A9230000A9230000A92300005C
S1130070A9230000A9230000A9230000A92300004C
S1130080A9230000A9230000A9230000A92300003C
S11300902D1B0000891B0000A9230000A9230000D8
S11300A0A9230000A9230000A9230000A92300001C
S11300B0A9230000A9230000D3230000A9230000E2
S11300C0FFFFFFFFFFFFFFFFFFFFFFFFFFFFFFFF3C
S11300D0FFFFFFFFFFFFFFFFFFFFFFFFFFFFFFFF2C
S11300E0FFFFFFFFFFFFFFFFFFFFFFFFFFFFFFFF1C
S11300F0FFFFFFFFFFFFFFFFFFFFFFFFFFFFFFFF0C
S1130400FFFFFFFFFFFFFFFFFFFFFFFFFEFFFFFFF9
S113041000200021002200230024002500260027BC
S113042062B600F041FDFEE7F4B504000D001E00C5
S1130430A6480078C0B280088007800F002807D142
S1130440A2480078C00603D5A0480078800601D5EC
S1130450012039E19E48844201DB212034E16846D1
S11304600078002806D09B48201A9B49884201D373
S1130470222029E1EDB2002D00D0012576B2300012
S1130480401E192801D341201EE1694618200F5649
S11304907FB2380018381B2801D3422014E1200011
S11304A076B2310000F03EFA8C49401A8C498842F9
S11304B001D3432008E1200076B2310000F032FA83
S11304C07FB278438749401A8749884201D345203F
S11304D0FAE0864800780100C320084084498C4231
S11304E00ADA0100EDB2E8006A461278920002438B
S11304F010201043084309E00100EDB2E8006A4609
S11305001278920002432020104308437749087070
S11305107848844201DA002114E07748844201DA01
S113052001210FE07548844201DA02210AE074488F
S1130530844201DA032105E07248844201DA04218D
S113054000E005219D4800788007800F0200C80064
S113055038210140802008431043984908706846B8
S11305600078002810D0002000E0401C00B294491C
S1130570884203DA554909788907F6D55348007843
S1130580800701D423209FE0002000E0401C00B23B
S1130590FA21C900884203DA4C490978C906F5D41E
S11305A04A480078C00601D511208DE0002000E003
S11305B0401C00B2FA21C900884207DA434909788D
S11305C0C9B289088907890F0229F1D13F48007807
S11305D0C0B280088007800F022801D01A2073E07F
S11305E078480078202101437648017076480078E5
S11305F00100E02008400100701EC006C00E084340
S1130600714908706F4800780100E020084002003A
S1130610183FF906C90E4020084310436949087081
S1130620002000E0401C00B2FA21C900884203DA2D
S1130630264909788906F5D524480078800601D42E
S1130640162041E0002000E0401C00B2FA2109011C
S1130650884203DA1D4909784906F5D51B48007814
S1130660400601D444202FE057480078C106C90E43
S1130670491C54480078C506ED0E18354F480078DB
S11306808006800E4D4A1070002000E0401C00B22D
S1130690FA22D200904207DA0C4A1278D2B29208B7
S11306A09207920F032AF1D108480078C0B280085B
S11306B08007800F032801D01B2005E02000C9B269
S11306C000F030F9EDB26843F2BD00000640064088
S11306D081F0FA02C0C62D004181BA0180841E0057
S11306E081841E00006CDC02017519030140064080
S11306F001127A00D1121300A1252600414B4C00AF
S113070081969800012D310110B530490978C9B29C
S113071089088907890F02290BD12C490978C90650
S113072007D42A490978890603D52949097889070C
S113073001D5072040E0002200E0521C12B2FA2149
S1130740C9008A4203DA214909784906F5D51F49C7
S11307500978490601D444202EE01B490978C906CA
S1130760C90E491C174A1278D406E40E1834134AE9
S113077012789206920E114B1A70002200E0521C5D
S113078012B2FA23DB009A4207DA104B1B78DBB271
S11307909B089B079B0F032BF1D10C4A1278D2B212
S11307A092089207920F032A01D01B2004E0C9B2D9
S11307B000F0B8F8E4B2604310BD00000040064009
S11307C0204E000005400640044006400640064016
S11307D00140064000B551480078C0B28008800747
S11307E0800F002809D14D480078C00605D54B4834
S11307F00078800601D403208EE048480078C0B217
S113080080088007800F032809D144480078C00677
S113081005D442480078800601D508207CE03F4892
S11308200078C0B280088007800F02280DD13B48B1
S11308300078C00609D439480078800605D53848C0
S11308400078800701D4072066E034480078C0B2FD
S113085080088007800F02280DD130480078C00638
S113086009D42E480078800605D42D4800788007E6
S113087001D4052050E029480078C0B280088007E0
S1130880800F022809D125480078C00605D42448E1
S11308900078800701D506203EE020480078C0B2E9
S11308A080088007800F01280DD11C480078C006FD
S11308B009D51A480078800605D4194800788007BD
S11308C001D5012028E015480078C0B280088007CF
S11308D0800F01280DD111480078C00609D50F48B2
S11308E00078800605D40E480078800701D40220E1
S11308F012E00A480078C0B280088007800F002800
S113090009D106480078C00605D40448007880065A
S113091001D4042000E0002000BD00000640064091
S113092001400640CA0F00D0494203105A400DD07E
S113093004B500D3404200F009F8009AD20701D36D
S11309404942124200D5404204BD0000094210D081
S113095088420BD30122002300185B418B4200D351
S11309605B1A5241F8D319001000704701000020AF
S1130970704708B500F016F808BD38B4012100220C
S11309800368001D002B0BD00468001D0C4202D02C
S11309904D466D1E64192260241D1B1FF0D0FAE71A
S11309A032BC70477047000010B50C001168012973
S11309B002D0022904D009E0C0B25168884705E09A
S11309C0916808709068401C9060FFE72068401CA4
S11309D0206010BDF0B51C00002605000020287022
S11309E06D1C002A1CD00F68002F09D130202870FC
S11309F0761C3000F0BD30320F002A706D1C761C5E
S1130A00002FF6D038002100FFF78CFF010008000A
S1130A1060433A1A002AEED5D04302003132EBE7A4
S1130A200F68002F08D130202870761CE1E7373199
S1130A30070029706D1C761C002FDAD038002100C5
S1130A40FFF784FF01006143791A0A29EFD230319C
S1130A50EEE7F8B50F0015001E00040005E03200B3
S1130A6029003020FFF7A0FF641CBC42F7DBF1BD76
S1130A70F8B50F0015001E00040005E0320029003F
S1130A802020FFF791FF641CBC42F7DBF1BDF1B5F8
S1130A9090B01700002000900E0005E0109A6946FF
S1130AA01800FFF781FF761C3378002B00D1C4E1D6
S1130AB0252B12D00A2B05D0109A69461800FFF78F
S1130AC073FF09E0109A69460D20FFF76DFF109A35
S1130AD069460A20FFF768FFE5E70025002102E0E8
S1130AE028000125054300291FD1761C30782028D1
S1130AF00CD0232812D02B2804D02D28F0D0302855
S1130B0008D00FE0280002250543ECE7280004255F
S1130B100543E8E7280008250543E4E728001025F5
S1130B200543E0E7761E0121DDE700200290002165
S1130B3005E002980A225043C01830380290002978
S1130B4008D1761C3378180030380928F1D9761E7C
S1130B500121F4E7761C30782E280BD10021FFE721
S1130B60002908D1761C307830380928F8D9761E47
S1130B700121F5E7761E761C30784C2806D06828CB
S1130B8002D06C2801D002E002E001E000E0761E11
S1130B90761C33781800582871D0622800D1CAE036
S1130BA0632800D113E1642813D0692811D06E287A
S1130BB000D13DE16F2800D1B2E0702800D1C5E03A
S1130BC0732800D10BE1752800D1CAE0782856D0EB
S1130BD064E7386806903F1D0A23012206A907A886
S1130BE0FFF7F8FE040007A80019059006980028EE
S1130BF003D52D200190641C0DE0A80703D52B20FC
S1130C000190641C07E0680703D520200190641C50
S1130C1001E00020019000200490280711D50198DC
S1130C20002804D0109A69460198FFF7BDFE012000
S1130C300490109B6A4602992000FFF70AFF029C69
S1130C4011E0E8070FD4109B6A4602992000FFF7D1
S1130C500FFF0198002804D0109A69460198FFF705
S1130C60A3FE012004900498002807D101980028CD
S1130C7004D0109A69460198FFF796FE9AE0386806
S1130C8003903F1D1023002203A907A8FFF7A2FE2B
S1130C90040007A80019059000200490280715D522
S1130CA0E8060BD5109A69463020FFF77DFE109AAE
S1130CB069467820FFF778FE01200490109B6A466D
S1130CC002992000FFF7C5FE029C18E0E80716D43D
S1130CD0E80600D5A41C109B6A4602992000FFF781
S1130CE0C7FEE8060BD5109A69463020FFF75CFE74
S1130CF0109A69467820FFF757FE01200490E80611
S1130D000DD5049800280AD1109A69463020FFF7BF
S1130D104BFE109A69467820FFF746FEA41C49E072
S1130D20386803903F1D0823002203A907A8FFF792
S1130D3051FE04001FE0386803903F1D0223002287
S1130D4003A907A8FFF746FE040014E038680390DF
S1130D503F1D1023002203A907A8FFF73BFE040050
S1130D6009E0386803903F1D0A23002203A907A85D
S1130D70FFF730FE040007A800190590280707D5DF
S1130D80109B6A4602992000FFF763FE029C11E063
S1130D90E8070FD4109B6A4602992000FFF768FE0B
S1130DA008E0109A694605980078FFF7FDFD05985C
S1130DB0401E0590059800780028F2D1E80705D573
S1130DC0109B6A4602992000FFF752FE6BE63868D2
S1130DD0C0B23F1D109A6946FFF7E6FD63E6386826
S1130DE001903F1D0198002821D0019800F04DF892
S1130DF00400E8070FD4109B6A4602992000FFF70D
S1130E0037FE08E0109A694601980078FFF7CCFD98
S1130E100198401C0190019800780028F2D1E8075D
S1130E2005D5109B6A4602992000FFF721FE3AE699
S1130E3038683F1D0099016035E6009811B0F0BD97
S1130E400EB400B584B0012100910549019105AAB1
S1130E5001006846FFF71BFE049908B0084700002C
S1130E60412F00000CB4E0B502000020002A09D094
S1130E7002200090029204AA6846FFF708FE029935
S1130E8000220A70039906B0084700B5010000204B
S1130E90002902D1002006E0401C0A001100491C70
S1130EA01278002AF8D100BD80B57D480021016088
S1130EB000F0C4F900F014FA7A48FFF7C1FF00F01B
S1130EC0ADFA00F003F800F0A9FBFEE780B5764820
S1130ED00068000F4007400F002806D002280CD0FD
S1130EE007D3042811D00CD313E07048FFF7A8FFF0
S1130EF012E06F48FFF7A4FF0EE06E48FFF7A0FF73
S1130F000AE06D48FFF79CFF06E06C48FFF798FF86
S1130F1002E06B48FFF794FF63480068000E400747
S1130F20400F042802D0052804D007E065A0FFF78D
S1130F3087FF06E064A0FFF783FF02E06348FFF742
S1130F407FFF594800680007000F00280CD00128D3
S1130F500ED0022810D0042812D0052814D0062858
S1130F6015D0082816D019E05948FFF769FF18E092
S1130F705848FFF765FF14E08648FFF761FF10E06B
S1130F808548FFF75DFF0CE08448FFF759FF84486C
S1130F90FFF756FF8348FFF753FF02E08248FFF74D
S1130FA04FFF41480068000D4007400F012803D15E
S1130FB07E48FFF745FF02E07D48FFF741FF3A48CE
S1130FC00068000C4007400F00280BD0022811D005
S1130FD00CD3042816D011D306281BD016D3072807
S1130FE01CD01FE07348FFF72BFF1EE07248FFF789
S1130FF027FF1AE07148FFF723FF16E07048FFF758
S11310001FFF12E06F48FFF71BFF0EE06E48FFF76B
S113101017FF0AE06D48FFF713FF06E06C48FFF77F
S11310200FFF02E06B48FFF70BFF0F2189B26A48FC
S1131030FFF706FF00F050F868480068000E00074C
S1131040000F00280CD001280ED0032810D005284A
S113105012D0072814D0092816D00F2818D01BE066
S11310605F48FFF7EDFE1AE05E48FFF7E9FE16E081
S11310705D48FFF7E5FE12E05C48FFF7E1FE0EE095
S11310805B48FFF7DDFE0AE05A48FFF7D9FE06E0A9
S11310905748FFF7D5FE02E05748FFF7D1FE01BDE0
S11310A000810440383000002480044040300000B7
S11310B0483000005030000058300000603000001C
S11310C0B42B00003400000035000000E02A0000CA
S11310D0742F0000842F000080B54848032101705C
S11310E0474800210170474800210170464800210B
S11310F0017046480121017045488021017044482F
S113110000780006FBD543480178C9B24248FFF78E
S113111097FE42480178C9B24148FFF791FE414821
S11311200178C9B23E48FFF78BFE3F480178C9B247
S11311303E48FFF785FE3148032101703048002105
S113114001703048002101702F48042101702F489C
S1131150012101702E48802101702D48007800067D
S1131160FBD52C480178C9B23148FFF769FE2B48FA
S11311700178C9B22FA0FFF763FE2A480178C9B2EB
S11311802748FFF75DFE28480178C9B22A48FFF7CF
S113119057FE01BDEC2F0000F82F000004300000C2
S11311A010300000942F00000C2B0000DC2B0000FA
S11311B0382B00008C2E0000A02E0000B42E00005E
S11311C0C82E0000DC2E0000F02E0000042F0000CA
S11311D0182F0000342D00002C2F00004C800440F8
S11311E0DC27000018280000542800009028000084
S11311F0CC28000008290000A42C000007000240AD
S11312000600024005000240040002400F000240B4
S1131210000002400B000240502D00000A00024072
S113122068300000090002400800024070300000ED
S1131230CC2D0000202564007830000010B51E4835
S11312401E4988420ED0002008E0042141431A4A76
S113125004234343194CE3585350401C8221490052
S11312608842F2D3144800F0DFFA1549154A1648AB
S1131270801A03E013780B70521C491C0300581E9B
S1131280002BF7D111491248401A02E000220A70DB
S1131290491C0200501E002AF8D10E490E4A0F487C
S11312A0801A03E013780B70521C491C0300581E6B
S11312B0002BF7D110BD00BF00E0FF1F00000000AD
S11312C000000000000000000000000010E4FF1F08
S11312D03FE4FF1F41E4FF1F10040000100400005E
S11312E000B583B03F480068F821890101433D48B7
S11312F001603D480078000705D53B480078082187
S113130001433948017039488021490201600120B4
S11313100190182000900423012200213448FFF793
S113132083F83449086033480068FF2800DCFEE78E
S1131330314800688021490201432F4801602D484B
S113134000680221FFF7EEFAFA218900FFF7EAFAB2
S11313502A49086027480068FA218900FFF7E2FA61
S1131360274908602648006820490968090F491C74
S1131370FFF7ECFA23490860224800681B49096812
S1131380090C4907490F491CFFF7E0FA1E49086098
S113139000F017F81D48C021890001601C48C021D5
S11313A089000160144800688021C904014312487F
S11313B00160E122520211480168164800F060FA07
S11313C007BD80B51448FF21091D0160124800685B
S11313D0902109030143104801601E2000F027FA00
S11313E001BD00003880044002D00740448004401E
S11313F000127A0028E4FF1F0480044038E4FF1F31
S11314002CE4FF1F30E4FF1F34E4FF1F3890044036
S11314103C90044000A006401090044080B557481A
S11314200078800602D55648FFF70AFD5348007835
S1131430000702D55348FFF703FD504800784007E2
S113144002D55148FFF7FCFC4C480078800702D5D0
S11314504E48FFF7F5FC4E480078000602D54D488B
S1131460FFF7EEFC4A480078400602D54A48FFF7E9
S1131470E7FC47480078800602D54848FFF7E0FCBF
S113148043480078400702D54548FFF7D9FC404857
S11314900078000702D54348FFF7D2FC3C480078A7
S11314A0800702D54048FFF7CBFC39480078C007D5
S11314B04DD53E48FFF7C4FC3D480078C0B2400714
S11314C0400F032802D13B48FFF7BAFC38480078A4
S11314D0C0B24007400F042806D1374800784007BF
S11314E002D13648FFF7ACFC31480078C0B240075F
S11314F0400F042809D130480078C0B24007400F9B
S1131500012802D12E48FFF79BFC29480078C0B27D
S11315104007400F042809D127480078C0B240078B
S1131520400F022802D12748FFF78AFC20480078A0
S1131530C0B24007400F042809D11F480078C0B248
S11315404007400F032802D11F48FFF779FC1048D9
S11315500078C0B2002810D108480078C0B2002832
S11315600BD10B480178C9B21848FFF769FC03484E
S11315700178C9B21648FFF763FC01BD01F00740CA
S11315802C2C0000642F0000642E0000E02C0000CE
S113159000F00740782E00009C2D0000B42D0000C0
S11315A0842C0000FC2C0000182D0000542A00009C
S11315B001E00740B02F000002E00740BC2F00000C
S11315C0C82F0000D42F0000E02F0000642B00007F
S11315D08C2B000080B569480078C0B20090684840
S11315E00378DBB267480278D2B267480178C9B29F
S11315F06648FFF725FC66480178C9B26548FFF7DD
S11316001FFC65480378DBB264480278D2B26448B0
S11316100178C9B26348FFF713FC01BD10B5052476
S113162061482A210170FFF7D5FF00F0D7F900F0D7
S113163047FA00F0C7FA5D4800F043FB5C48FF211D
S1131640091D0160072000F0F2F820220221802009
S113165000F0FEFB57480078C0B20821FFF776F986
S113166000291ED054480078C00707D553480068A5
S11316708021890201435148016006E05048006816
S11316808021890201434E4801604A4800780821BC
S113169001434848017048480078012141404648C8
S11316A001704848FFF7CCFB474800680328FBD388
S11316B04648006880214900014344480160444889
S11316C00268D2B243A14448FFF7CCFB424800F081
S11316D0F8FA42480278424801684248FFF7B0FBF2
S11316E04148FFF7ADFBE4B22000002808D00128F0
S11316F00CD0022811D003282ED0052835D0D7E7E6
S113170000F06CFD3948FFF79BFBD1E7002000F0A7
S113171069FD3748FFF794FBCAE736480078DF21B4
S113172001403448017000F07DFDFFF753F8324961
S113173008703148007807280AD13048FEF7E4FFE2
S11317402F4908602B480078202101432948017063
S11317502C48FFF775FBABE726480078DF210140F2
S11317602448017000F075FDA2E722480078DF21CB
S113177001402048017000F086FD99E703C007404E
S113178002C0074001C0074000C00740C42C00004D
S113179004C00740542F000007C0074006C007409C
S11317A005C007406C2D000000E007403030000009
S11317B00CB0044002D007403FE4FF1F08F00F4084
S11317C004F00F40B42A000020E4FF1F4CF00F4047
S11317D000D003402534690010E4FF1F40E4FF1FDC
S11317E01CE4FF1F242A0000842D0000282E000082
S11317F03C2E0000054006403EE4FF1F00127A0024
S113180028E4FF1F502E00001848006804210143FB
S11318101648016030BF70471448006804218843AB
S11318201249086030BF704711490860704770B5AD
S11318300400212C03DB0F48FFF702FB15E00E48E0
S11318400568012620002021FFF76CF88E402E4306
S11318500948066009480568012620002021FFF791
S113186061F88E402E430548066070BD10ED00E01F
S113187008ED00E04429000080E200E000E100E01F
S1131880F6B500200026002700220023474C2568D7
S11318908024E4002C43454D2C60454C2578F324EA
S11318A02C40434D2C700C00203C424DAC4208D3DC
S11318B00021414802681000404A02403E4802604C
S11318C0FEE7019CFA208000414300910425009822
S11318D02100EDB26943FFF739F801000098EDB239
S11318E06943FFF733F8844201D2061B00E0261A4D
S11318F0EDB22F00052506E0231A9E4202D31E00F6
S1131900EDB22F006D1CEDB2212D0FDA00982100ED
S1131910EDB26943FFF71AF801000098EDB269438C
S1131920FFF714F88442E7D2031BE6E720006421A2
S1131930FFF70CF803214843864235D23800001FD4
S1131940052805D21E480078022101431C48017075
S11319501C480278D2B21F2082431100781EC0B204
S1131960C206D20E0A43174811000170D206D20EE5
S1131970521C009854432100FEF7E8FF010012486E
S11319800278D2B21F2082430800000AC006C00EAB
S113199010430D4A10700D480170054800780C2161
S11319A0014303480170F3BDFEE7000034800440A6
S11319B003A0064031C3000004800440FFFFFFF38E
S11319C00BA006400AA0064000A0064001A0064065
S11319D000B502791206FCD5C17100BD2D48A021C5
S11319E0490001602C4800688021890201432A488B
S11319F001602A4800688021890201432748016068
S1131A002748A02149000160264800688021490038
S1131A1001432448016024480068802149000143AF
S1131A20214801602148A021490001601A4800684A
S1131A30202101431848016018480068202101430F
S1131A40164801601A48A021490001601248006844
S1131A508021490201431048016010480068802138
S1131A60490201430D4801601248FF21091D01602C
S1131A700A48006810218843084908600E48FF217D
S1131A80091D01600D480068082188430B4908605E
S1131A90704700004490044004F00F4014F00F40DD
S1131AA020A0044044F00F4054F00F401490044030
S1131AB040900440109004400CB0044094F00F4057
S1131AC080B53548006880218905014332480160AA
S1131AD03248006832490140304801602F48802173
S1131AE0490001602F4800688021090301432D4803
S1131AF001601420FFF79BFE1520FFF798FE2A488B
S1131B000068142101432848016028480068C00681
S1131B100BD4274800210160264805210160234891
S1131B200068102101432148016001BD00B51F4830
S1131B30006841070ED51F490968491D1D4A1160F7
S1131B401D490968491C1C4A11601C490978491C33
S1131B501A4A1170810705D51449096802220A43FB
S1131B6012490A60C0070ED5104800681021884346
S1131B700E4908600E48002101600C4800681021DD
S1131B8001430A48016000BD0D480068401C0C492F
S1131B9008607047000000003C80044004B004402A
S1131BA0FFF8FFFF007004401CD0034014D0034032
S1131BB000D0034008D0034024E4FF1F40E4FF1F8B
S1131BC020E4FF1F80B54F48022101704E48006891
S1131BD04E4901434C4801604A48007803210143BF
S1131BE0484801704A484A490978017049480068E0
S1131BF080210903014347480160474800210160EF
S1131C004648002101604448454901604548002197
S1131C10017000F00DF840480068802101433E48FF
S1131C2001603E4803210160454800F04AF801BDC7
S1131C3070B53D48002101603C48002101603C48EA
S1131C40002101603B4800210160374C002534E04D
S1131C50EDB23948405D2021FEF764FE0600EDB286
S1131C603548405D2021FEF75DFEF6B20420704346
S1131C70205801228A400243F6B2042070432250C5
S1131C80EDB2072D18DBF6B20420704320188068EB
S1131C9001228A400243F6B204204643A01982601E
S1131CA0EDB204206843254908181C380068EDB2D9
S1131CB02149495D234A50546D1CEDB20B2DC7DBFD
S1131CC070BD38B5050000241F480021017004E0F0
S1131CD0287800F03BF86D1C641CE4B2042C02DA92
S1131CE028780028F4D1E4B2042C09DA02E02E208A
S1131CF000F02CF820000400641CC0B20428F6DBB9
S1131D0031BD00000040064038800440003C08001B
S1131D100140064000700440003005400430054096
S1131D202300B0083DE4FF1F103005401430054087
S1131D30183005401C300540A42F0000C8220000C4
S1131D4028300000203005403CE4FF1F30B53D49F9
S1131D500978002918D1C0B2312802D0C0B26C2849
S1131D600BD13548007808210143334801703548C8
S1131D700078401C3349087030BD2F480078F721A3
S1131D8001402D480170F2E7C0B2010061391A29FF
S1131D9000D22038C0B201002B39302900D32E20C4
S1131DA02B38C0B202214143002023E0D2B2234B9E
S1131DB09B5C234CE35C0724234D2D78AC40A34368
S1131DC0D2B21E4CA45C1E4D2B5589B2C0B20B1866
S1131DD01E4CE35CD2B2194CA45C194D2C5DDBB2F1
S1131DE0194D2D78AB402343D2B2144CA25C144C51
S1131DF0A354401CC0B20228B9DA124A1278042A49
S1131E00B5DA104A1278521E02235A43C0B212188D
S1131E10C0B20028CAD1D2B2084B9B5C084CE35C28
S1131E200F24094D2D78AC40A343D2B2034CA45CDB
S1131E30034D2B55C9E7000021300540A42F0000B5
S1131E40203005403CE4FF1F3DE4FF1F4823000011
S1131E50F8B504000D00170071480678E00702D5B4
S1131E607048FEF7EDFFA00702D56F48FEF7E8FFC4
S1131E70600702D56D48FEF7E3FF200702D56C48E2
S1131E80FEF7DEFF664806706A480678E00602D56B
S1131E906948FEF7D5FFA0060DD53100A8000C2631
S1131EA006400E436548FEF7CBFF654800782021C5
S1131EB001436348017060060DD5310028013026C6
S1131EC006400E435F48FEF7BBFF5D4800784021A3
S1131ED001435B48017020060BD53000AE01064378
S1131EE05948FEF7ADFF5648007880210143544815
S1131EF001705048067055480678E0050CD530004E
S1131F00AE07B60F06435248FEF79AFF51480078D1
S1131F10012101434F480170A0050DD53100A800EF
S1131F200C2606400E434C48FEF78AFF49480078C9
S1131F30022101434748017060050DD53100280195
S1131F40302606400E434548FEF77AFF41480078A4
S1131F50042101433F48017020050BD53000AE0138
S1131F6006438E48FEF76CFF3A4800780821014387
S1131F70384801703548067089480678E0040CD565
S1131F803000AE07B60F06438648FEF759FF3148C6
S1131F900078102101432F480170A0040DD53100B1
S1131FA0A8000C2606400E437F48FEF749FF294847
S1131FB00078202101432748017060040DD53100C9
S1131FC02801302606400E437848FEF739FF2148A1
S1131FD00078402101431F48017020040BD53000D4
S1131FE0AE0106437248FEF72BFF1A4800788021A1
S1131FF00143184801706A480670FFB2002F03D1EC
S11320006C48002101700AE06A4800780743694877
S1132010077068480178C9B26748FEF711FFF1BD3F
S113202000C00740242700007C290000B4290000D8
S1132030EC29000001C007406427000000240000D0
S113204005C007403C2500001426000002C00740DC
S11320508425000006C00740CC2500005826000057
S113206000B558480078800605D5564800782021E8
S113207001435448017053480078400605D551483F
S11320800078402101434F4801704E480078000613
S113209005D54C480078802101434A4801704A48DC
S11320A00078C00705D54848007801210143464817
S11320B0017045480078800705D54348007802211F
S11320C001434148017040480078400705D53E4827
S11320D00078042101433C4801703B480078000724
S11320E005D539480078082101433748017036483E
S11320F00078C00605D534480078102101433248E1
S1132100017031480078800605D52F4800782021D9
S113211001432D4801702C480078400605D52A4813
S113212000784021014328480170274800780006C0
S113213005D52548007880210143234801702348B0
S11321400078C0070ED522480068012101432048C9
S1132150016020480068802101431E4801601D4839
S1132160C121016015480078000605D513480078A0
S1132170802101431148017011480078000605D5FB
S11321800F480078802101430D480170124800680F
S1132190802101431048016000BD00009C2600001E
S11321A003C00740A4240000E0260000F02400003F
S11321B05424000004C00740A027000008C00740C2
S11321C009C0074005C0074006C0074007C00740D4
S11321D0388004400000044080E200E080B5FFF74E
S11321E01BFB01BD80B5354900220A7035490978C9
S11321F0F8220A4033490A703249324A12780A7086
S11322002F4909788906890E2D4A11702C490978BD
S113221008432B4908702B480078C0B20090FFF7A0
S1132220F3FA01BD80B525480821017025480078DE
S1132230F82101402348017022480078032101431A
S1132240204801701F480078C0B20090FFF7DCFA04
S113225001BD80B51948022101701A480078F8219F
S113226001401848017017480078042101431548BB
S1132270017013480321017011480078C0B2009026
S1132280FFF7C2FA01BD80B50C48022101700D4868
S11322900078F82101400B4801700A4800780421B5
S11322A00143084801700648012101700448007880
S11322B0C0B20090FFF7A8FA01BD000000E007409B
S11322C002E0074001E007400100000002000000B6
S11322D004000000080000001000000020000000BE
S11322E04000000080000000000100000002000027
S11322F0000400000008000000100000002000009E
S11323000040000000800000000001000000020006
S1132310000004000000080000001000000020007D
S113232000004000000080000000000100000002E6
S1132330000000040000000800000010000000205D
S113234000000040000000800000040000020000C3
S113235000000F0506000B060F0206030D030D0710
S113236007000F070F03000000000000000000003A
S11323700000000007070C0709050E0609070107FE
S11323800D07060706000E000007080500000406F6
S11323900C060307070300060D0308070C040C04CE
S11323A000000E070E030B0680B5104801681048A4
S11323B0FEF746FD01BD0D4800680E490968F82284
S11323C092010A430B490A600B49FF22121D0A605D
S11323D0704780B5084800688021490401430648D5
S11323E001600648FEF72CFD01BD000004ED00E08D
S11323F0842A00003880044010900440502C0000CF
S11324000A204C4C575520636F6E66696775726578
S1132410642070696E7320505442302F4932433027
S11324205F53434C2F46544D315F4348302F46543D
S11324304D315F51445F504841206973204C4C57E3
S1132440552077616B65757020736F7572636520B5
S1132450000000000A204C4C575520636F6E6669DB
S113246067757265642070696E7320505444362F0A
S1132470534349305F52582F46544D305F434836DA
S11324802F46544D305F464C5430206973204C4CD9
S113249057552077616B65757020736F757263652E
S11324A0200000000A204C4C575520636F6E66696B
S11324B067757265642070696E7320505444302FC0
S11324C0535049305F504353302F534349325F5286
S11324D0545320746F20626520616E204C4C575514
S11324E02077616B65757020736F7572636520006A
S11324F00A204C4C575520636F6E66696775726588
S1132500642070696E7320505444342F534349300F
S11325105F5254532F46544D305F4348342F455730
S11325204D5F494E206973204C4C57552077616BA1
S113253065757020736F7572636520000A204C4CBA
S1132540575520636F6E666967757265642070699C
S11325506E7320505443312F534349315F525453C7
S11325602F46544D305F434830206973204C4C57FC
S1132570552077616B65757020736F757263652084
S1132580000000000A204C4C575520636F6E6669AA
S113259067757265642070696E7320505443342FDC
S11325A0535049305F504353302F46544D305F43AE
S11325B04833206973204C4C57552077616B6575FF
S11325C07020736F75726365200000000A204C4C04
S11325D0575520636F6E666967757265642070690C
S11325E06E7320505443352F535049305F53434B3F
S11325F02F493253305F52584430206973204C4C79
S113260057552077616B65757020736F75726365BC
S1132610200000000A204C4C575520636F6E6669F9
S113262067757265642070696E7320505443332F4C
S1132630534349315F52582F46544D305F4348321B
S1132640206973204C4C57552077616B6575702059
S1132650736F7572636520000A204C4C57552063D4
S11326606F6E666967757265642070696E73205059
S11326705443362F504442305F45585452472074D7
S11326806F20626520616E204C4C57552077616B3A
S113269065757020736F7572636520000A204C4C59
S11326A0575520636F6E666967757265642070693B
S11326B06E732050544331312F493253305F525896
S11326C0443120746F20626520616E204C4C575554
S11326D02077616B65757020736F75726365200078
S11326E00A204C4C575520636F6E66696775726596
S11326F0642070696E7320505444322F534349321E
S11327005F525820746F20626520616E204C4C57D4
S1132710552077616B65757020736F7572636520E2
S1132720000000000A20496E76616C6964204C4CFC
S1132730575520636F6E66696775726564207069AA
S11327406E20505445312F534349315F52582F491D
S11327503243315F53434C202F535049315F534927
S11327604E0000000A20496E76616C6964204C4C6E
S1132770575520636F6E666967757265642070696A
S11327806E2050544131332F46544D315F4348310C
S1132790202F46544D315F51445F504842000000A1
S11327A00A204C4C575520636F6E666967757265D5
S11327B064206D6F64756C6573206173204C4C5795
S11327C0552077616B65757020736F7572636573DF
S11327D0203D203078253032582C0000466C61733F
S11327E0682073697A653A202038204B4220707241
S11327F06F6772616D20666C6173682C20302E32B5
S113280035204B422070726F74656374696F6E205B
S1132810726567696F6E0000466C61736820736946
S11328207A653A20203136204B422070726F6772ED
S1132830616D20666C6173682C20302E35204B420C
S11328402070726F74656374696F6E207265676956
S11328506F6E0900466C6173682073697A653A206B
S1132860203332204B422070726F6772616D206694
S11328706C6173682C2031204B422070726F746538
S11328806374696F6E20726567696F6E090000007A
S1132890466C6173682073697A653A202036342067
S11328A04B422070726F6772616D20666C61736851
S11328B02C2032204B422070726F74656374696FF0
S11328C06E20726567696F6E09000000466C617363
S11328D0682073697A653A2020313238204B4220CF
S11328E070726F6772616D20666C6173682C20343E
S11328F0204B422070726F74656374696F6E20722E
S11329006567696F6E090000466C617368207369BE
S11329107A653A2020323536204B422070726F6738
S113292072616D20666C6173682C2034204B4220E8
S113293070726F74656374696F6E20726567696F16
S11329406E0900000A4552522120496E76616C6975
S113295064204952512076616C75652070617373EF
S1132960656420746F20656E61626C6520697271A4
S11329702066756E6374696F6E210A000A20496EC1
S113298076616C6964204C4C575520636F6E6669A0
S113299067757265642070696E20505445322F53F8
S11329A05049315F53434B2F53444843305F4443B2
S11329B04C4B00000A20496E76616C6964204C4CD3
S11329C0575520636F6E6669677572656420706918
S11329D06E20505445342F535049315F5043533087
S11329E02F53444843305F44330000000A20496EAB
S11329F076616C6964204C4C575520636F6E666930
S1132A0067757265642070696E20505441342F4696
S1132A10544D305F4348312F4E4D492F455A505F36
S1132A20435300000A0D206C6C77755F69737276EE
S1132A305F636F756E746572203D2025692C20726A
S1132A4074635F697372765F636F756E7465723DEC
S1132A50256920000A0D5B6F75745352535D5761ED
S1132A606B65757020626974207365742066726F7B
S1132A706D206C6F7720706F776572206D6F646561
S1132A80200000000A2A2A2A2A64656661756C748B
S1132A905F69737220656E7465726564206F6E2061
S1132AA0766563746F722025642A2A2A2A2A0D0AFD
S1132AB00A0000000A0D52756E6E696E6720746814
S1132AC065206C63645F7274635F6C6F77706F779B
S1132AD065722070726F6A6563742E0A0D000000BF
S1132AE00A0D556E7265636F676E697A6564204B73
S1132AF0696E65746973207375622D66616D696CA6
S1132B0079206465766963652E0A0D000A0D556E99
S1132B107265636F676E697A6564204B696E65746C
S1132B206973207061636B61676520636F64652EF0
S1132B3020202020202000000A0D556E7265636F4E
S1132B40676E697A6564204B696E65746973206683
S1132B50616D696C79206174747269627574652E33
S1132B600A0D00005B6F75745352535D52434D5F01
S1132B7053525330206973205A45524F2020203D30
S1132B80202523303258200D0A0D00005B6F757428
S1132B905352535D52434D5F535253312069732056
S1132BA05A45524F2020203D202523303258200DF5
S1132BB00A0D00000A0D556E7265636F676E697ABF
S1132BC06564204B696E657469732066616D696C18
S1132BD079206465766963652E0A0D000A0D4C6FD1
S1132BE07720506F776572204C696E652077697421
S1132BF06820436F72746578204D302B0A0D0A0DDE
S1132C000000000010B5074979441831064C7C4493
S1132C10163404E0081D0A68891888470100A14297
S1132C20F8D110BD500000005C0000000A0D537480
S1132C306F70204D6F64652041636B6E6F776C65B8
S1132C40646765204572726F722052657365740003
S1132C500A2A2A2A2A41626F727420627574746F78
S1132C606E20696E746572727570742A2A2A2A0A33
S1132C700A00000007DDFFFF3000000010E4FF1F22
S1132C80000000000A0D4C6F7373206F66204578B6
S1132C907465726E616C20436C6F636B2052657354
S1132CA065740000455252212120556E64656669A1
S1132CB06E656420666C6173682073697A650A0DB9
S1132CC0000000000A0D204C4C57555F50457820F9
S1132CD025782C2025782C2025782C202578000098
S1132CE00A0D436F7265204C6F636B7570204576D7
S1132CF0656E742052657365740000000A0D4C6F94
S1132D007373206F66204C6F636B20696E20504C88
S1132D104C205265736574000A0D4C6F772D766FE5
S1132D206C746167652044657465637420526573CF
S1132D30657400000A0D556E7265636F676E697A7B
S1132D406564205352414D2053697A652E0A0D0063
S1132D50466C61736820706172616D657465722080
S1132D6076657273696F6E20256420000A0D204C0D
S1132D704C57555F46782025782C2025782C202523
S1132D80782C2000202020202020202020202020FB
S1132D902020202020202020202020000A0D4578FB
S1132DA07465726E616C2050696E2052657365742F
S1132DB0000000000A0D5761746368646F6728435C
S1132DC04F5029205265736574000000466C61738E
S1132DD0682076657273696F6E20494420256420EB
S1132DE00000000000F009F8002801D0FFF70AFFF6
S1132DF00020FEF713FC00F002F80120704780B5B4
S1132E0000F002F801BD00000746384600F002F861
S1132E10FBE7000080B5C046C046024A11001820F6
S1132E20ABBEFBE7260002000A0D2065786974201A
S1132E3066726F6D20574149540000000A0D2065E9
S1132E407869742066726F6D2053544F50000000EF
S1132E500A0D20657869742066726F6D204C4C539E
S1132E60000000000A0D536F66747761726520528A
S1132E7065736574000000000A0D506F7765722D4C
S1132E806F6E205265736574000000005352414D0B
S1132E902053697A653A20302E35204B420A0D00C2
S1132EA05352414D2053697A653A202031204B42D8
S1132EB00A0D00005352414D2053697A653A20208F
S1132EC032204B420A0D00005352414D2053697A7F
S1132ED0653A202034204B420A0D00005352414DE4
S1132EE02053697A653A202038204B420A0D0000AD
S1132EF05352414D2053697A653A20203136204B94
S1132F00420A0D005352414D2053697A653A2020FC
S1132F103332204B420A0D005352414D2053697AFB
S1132F20653A20203634204B420A0D0053696C69FF
S1132F30636F6E207265762025640A0D2000000000
S1132F4080B50100C9B20248FEF742FD01BD000090
S1132F5000A006400A0D204C4C57555F4D452025D6
S1132F60782C00000A0D4D444D2D415020526573BC
S1132F7065740000313670696E20202020202020E6
S1132F8000000000323470696E20202020202020B0
S1132F900000000031303070696E20202020202095
S1132FA000000000161803141701000C0D0E0F008A
S1132FB04C4C53206578697420000000564C4C53E7
S1132FC03020657869742000564C4C533120657864
S1132FD069742000564C4C533220657869740000A3
S1132FE0564C4C5333206578697420003332706931
S1132FF06E20202020202000343870696E2020208C
S113300020202000363470696E20202020202000EB
S1133010383070696E20202020202000C046C04631
S1133020C046C046FFF7DEFE3132333500000000F3
S113303031323334000000000A0D0A0D0000000094
S11330400A0D4B4C300000000A0D4B4C31000000BF
S11330500A0D4B4C320000000A0D4B4C33000000AB
S11330600A0D4B4C340000002025642000000000B1
S11330702025640A0D00000025640A0D00000000EC
S903301DAF
