S01C00006C6F775F706F7765725F64656D6F5F746F7765722E7372656396
S1130000F82F00201104000025460000698100003B
S11300106981000069810000698100006981000034
S11300206981000069810000698100006981000024
S11300306981000069810000698100003D1C0000A5
S11300406981000069810000698100006981000004
S1130050698100006981000069810000113B000092
S113006069810000698100006981000069810000E4
S113007069810000698100006981000069810000D4
S113008069810000698100006981000069810000C4
S113009069810000698100006981000069810000B4
S11300A069810000698100006981000069810000A4
S11300B0E9140000698100004D1500006981000009
S11300C0FFFFFFFFFFFFFFFFFFFFFFFFFFFFFFFF3C
S11300D0FFFFFFFFFFFFFFFFFFFFFFFFFFFFFFFF2C
S11300E0FFFFFFFFFFFFFFFFFFFFFFFFFFFFFFFF1C
S11300F0FFFFFFFFFFFFFFFFFFFFFFFFFFFFFFFF0C
S1130400FFFFFFFFFFFFFFFFFFFFFFFFFEFFFFFFF9
S113041000200021002200230024002500260027BC
S113042062B605F04FFAFEE780B5174801F06DFC9F
S113043002BD10B504002100C9B2134801F06BFCE1
S113044010BD1248802149020160104880218902B0
S1130450016070470E488021490201600C488021E8
S1130460890201607047000080B50A482A210170A2
S113047000F0D3FF012001F005F800F0DBFF62B6C5
S113048000F00AF8002002BD00C0064008F00F404A
S113049004F00F4000E00740F0B583B0FF27B148F7
S11304A001F0C6FEB04801F0C3FEB04AB049B148FD
S11304B001F0BEFEB04801F0BBFE172F01DB0120A6
S11304C000E00020002F01D5012100E00021C0B28E
S11304D0C9B20143002900D1CCE0FFF7B2FFA7481D
S11304E00078C0B24006400E042803D1CE4801F083
S11304F09FFE09E0A1480078C0B24006400E0128E2
S113050002D1CA4801F094FE03F004F80500EDB2EC
S1130510012D04D1C6480168C64801F089FEEDB238
S1130520022D04D1C2480168C34801F081FEEDB236
S1130530032D04D1BE480168C84801F079FEEDB22C
S1130540042D04D1BA480168C54801F071FEEDB22A
S1130550052D04D1B6480168C24801F069FEEDB228
S1130560062D04D1B2480168BF4801F061FEEDB226
S1130570072D04D1AE480168BC4801F059FEEDB224
S1130580082D04D1AA480168B94801F051FEB948C0
S113059001F04EFEB84801F04BFEB84801F048FEA9
S11305A0B74801F045FEB74801F042FEB64801F0F5
S11305B03FFED04801F03CFECF4801F039FECF4861
S11305C001F036FECE4801F033FECE4801F030FE95
S11305D0CD4801F02DFECD4801F02AFECC4801F0B3
S11305E027FECC4801F024FECB4801F021FECB4885
S11305F001F01EFECA4801F01BFECA4801F018FEB5
S1130600C94801F015FEC94801F012FEC84801F0BE
S11306100FFEC84801F00CFEC74801F009FEFFF7C1
S113062003FF06003000C0B2FFF703FFC3A001F0D0
S1130630FFFDF6B2302E06DBF6B23A2E03DAF6B23E
S1130640300030380700F6B2412E06DBF6B24D2EEC
S113065003DAF6B2300037380700F6B2612E00DA5A
S11306602BE7F6B26D2E00DB27E7F6B230005738E1
S1130670070022E7FFF7EEFE002F3AD0022F5ED0EC
S11306804AD3042F00D1D9E07AD3062F00D157E101
S113069000D2FBE0082F00D1D3E100D293E10A2F6E
S11306A000D158E200D20AE20C2F00D1D6E200D2E7
S11306B082E20E2F00D165E300D21EE3102F01D198
S11306C000F0DEFC01D200F029FC122F01D100F071
S11306D0F9FC01D200F0DEFC142F01D100F09EFDE4
S11306E001D200F04DFD152F01D100F039FE00F0CC
S11306F042FEDE4801F09CFDFFF796FEDC4801F067
S113070097FD002000F0D8FF002000F047FF0120F3
S113071003F0A0F800F02FFED64801F089FDFFF7A2
S113072083FED54801F084FD002000F0C5FF0020C1
S113073000F034FF002003F08DF800F01CFECF48D9
S113074001F076FDFFF770FECD4801F071FD002049
S113075000F0B2FF002000F021FF03F061F800F088
S11307600AFE00BFA4670000E86700006884000078
S11307705C8400003C7100002C68000003E007402A
S1130780D44801F055FDFFF74FFE0122022100205D
S113079003F0B2F80121FA20800000F00BFECE48ED
S11307A001F046FD002004000A2C35DACB4801F0A4
S11307B03FFD002000F080FF002000F0EFFE02F07B
S11307C0FEFF012000F0EAFE012000F075FF02F0B8
S11307D0A1FE0500EDB2072D15D1C14801F024FF9B
S11307E01349086012480068022103F065FAFA21EF
S11307F0890003F061FABB4908608021C904B94843
S1130800006800F00FFF2100B74801F011FDB74860
S113081001F00EFD641CC7E7B54800680121884358
S1130820B349086000F0A7FD94810000A88100008E
S113083094F4FF1FC87D0000E47D0000D24801F05D
S1130840F7FCFFF7F1FDD14801F0F2FC002000F0C5
S113085033FF02F0CBFF00F08EFD00BF007E0000EE
S11308601C7E0000387E0000607B0000547E000087
S1130870707E0000EC7800002862000078620000BE
S1130880F46F0000C86200002C700000C04801F042
S1130890CFFCFFF7C9FDBF4801F0CAFC002000F0FF
S11308A00BFF002000F07AFE02F089FF012000F027
S11308B075FE02F02FFE0500EDB2072D15D1884814
S11308C001F0B2FEB4490860B3480068022103F0A5
S11308D0F3F9FA21890003F0EFF9824908608021D5
S11308E0C9048048006800F09DFE804801F0A0FC27
S11308F000F041FD1075000068730000BC65000045
S113090098730000C873000064700000886A0000D7
S113091018630000D86000004C6400009864000074
S1130920846100009C760000C86A0000086B000027
S113093070680000807B00001C8500000A0D000028
S1130940BF4801F075FCFFF76FFDBE4801F070FC75
S1130950002000F0B1FE02F01BFFBB480078C0B2DB
S11309604006400E042803D1B84801F061FC28E099
S1130970B5480078C0B24006400E012821D102F0EB
S1130980C9FD0500EDB2072D18D1554801F04CFE04
S11309908149086080480068022103F08DF9FA213A
S11309A0890003F089F94F4908608021C9044D4842
S11309B0006800F037FEA64801F03AFC012000F080
S11309C07BFE00F0D8FCA0480078C0B24006400E80
S11309D0042801D102F0BEFE9E4801F029FCFFF775
S11309E023FD9D4801F024FC02F094FD0500EDB2C6
S11309F0082D03D1062000F0A7FE05E0EDB2032D7B
S1130A0002D1012000F0A0FE002000F055FE02F00B
S1130A1063FE8D480078C0B24006400E042801D120
S1130A2000BF0CE088480078C0B24006400E0128A0
S1130A3005D1874801F0FCFB012000F03DFE00F0E9
S1130A409AFCCF4801F0F4FBFFF7EEFC02F082FEC3
S1130A5002F060FD0500EDB2062D13D1082000F070
S1130A6073FE012000F028FE12E000BF7071000048
S1130A7010790000A4710000C4760000A07B00007F
S1130A8034790000EDB2012D02D1032000F05CFEA8
S1130A906D480078C0B24006400E042803D16B486C
S1130AA001F0C6FB09E068480078C0B24006400E79
S1130AB0012802D1664801F0BBFB00F05CFC6248EF
S1130AC00078C0B24006400E012813D1B44801F0AA
S1130AD0AFFB3EE0486B000058790000BC81000089
S1130AE000127A00A4F4FF1FD0810000908000005F
S1130AF00000044054480078C0B24006400E042868
S1130B0027D1A84801F094FBFFF78EFCA64801F01A
S1130B108FFBA64801F08CFB002000F0CDFD02F015
S1130B20B5FD49480078C0B24006400E042803D100
S1130B30464801F07DFB0CE043480078C0B2400613
S1130B40400E012805D1424801F072FB012000F05B
S1130B50B3FD00F010FC964801F06AFBFFF764FC5B
S1130B60944801F065FB002000F0A6FD02F08EFD24
S1130B7035480078C0B24006400E04280ED13348F0
S1130B8001F056FB17E000BFC07B00007C79000039
S1130B90E07B0000A079000094F4FF1F2A4800784D
S1130BA0C0B24006400E012805D1294801F040FB9F
S1130BB0012000F081FDDEE3CC4801F039FBFFF7B2
S1130BC033FCCB4801F034FB002000F075FD00201D
S1130BD002F060FD02F09EFC0500EDB2072D15D178
S1130BE0C44801F021FDC4490860C34800680221DB
S1130BF003F062F8FA21890003F05EF8BF49086047
S1130C008021C904BD48006800F00CFD0E4800783E
S1130C10C0B24006400E042803D10C4801F008FB82
S1130C200CE009480078C0B24006400E012805D106
S1130C30074801F0FDFA012000F03EFD9BE300BFF0
S1130C40007C0000C479000003E00740E481000058
S1130C50F8810000207C000004660000A84801F030
S1130C60E7FAFFF7E1FBA74801F0E2FA002000F001
S1130C7023FDA548007820210143A34801704020AA
S1130C8002F008FDA0480078DF2101409E48017071
S1130C9002F040FC0500EDB2072D15D1954801F096
S1130CA0C3FC9549086094480068022103F004F8E5
S1130CB0FA21890003F000F8904908608021C904F2
S1130CC08E48006800F0AEFCCA480078C0B2400606
S1130CD0400E042803D18D4801F0AAFA0CE0C5485F
S1130CE00078C0B24006400E012805D1884801F0C2
S1130CF09FFA012000F0E0FC3DE3864801F098FAF9
S1130D00FFF792FB844801F093FA002000F0D4FC32
S1130D10802002F0BFFC02F0FDFB0500EDB2072DC0
S1130D2015D1744801F080FC73490860724800686A
S1130D30022102F0C1FFFA21890002F0BDFF6F49D0
S1130D4008608021C9046D48006800F06BFCA94864
S1130D500078C0B24006400E042803D16B4801F06D
S1130D6067FA0CE0A3480078C0B24006400E0128A0
S1130D7005D1674801F05CFA012000F09DFCFAE21D
S1130D80407C000002F0E6FC9A480078C0B24006BD
S1130D90400E042810D1C74801F04AFA16E000BFFB
S1130DA0D8710000607C0000E87900000C7A000033
S1130DB0807C0000307A00008E480078C0B2400683
S1130DC0400E012802D1BC4801F032FA02F0A2FB25
S1130DD00500EDB2012D04D147480168B74801F080
S1130DE027FAEDB2022D04D143480168B44801F05A
S1130DF01FFAEDB2032D04D13F480168CE4801F03B
S1130E0017FAEDB2042D04D13B480168CB4801F038
S1130E100FFAEDB2052D04D137480168C84801F036
S1130E2007FAEDB2062D04D133480168CC4801F02D
S1130E30FFF9EDB2072D04D12F480168C94801F02C
S1130E40F7F9EDB2082D04D12B480168C64801F02A
S1130E50EFF9C64801F0ECF9C54801F0E9F92A4870
S1130E600078202101432848017000200400022C4E
S1130E7035DAC04801F0DCF92020FFF7DAFABE4881
S1130E8000780006FBD500F0E3FEBC4800680121B1
S1130E900143BA480160B94800688007FBD502F0F5
S1130EA06DFF02F0CDFFB5480068800714D5B34844
S1130EB0006801218843B1490860B0480068800790
S1130EC0FBD4D34801F0B4F902F0BAFF2100D148B1
S1130ED001F0AEF9641CCAE7CF4801F0A9F90A4849
S1130EE00078DF2101400848017044E2EC760000FC
S1130EF03C75000000127A0094F4FF1FA4F4FF1F55
S1130F00147700006875000004400640E481000086
S1130F10F88100003C7700009475000035480078A3
S1130F20C0B24006400E012812D1C34801F080F936
S1130F30C24801F07DF9FFF777FAC14801F078F96A
S1130F40062000F001FC002000F0B6FB02F0C4FB18
S1130F5028480078C0B24006400E042803D1B9489E
S1130F6001F066F90CE023480078C0B24006400E58
S1130F70012805D1B44801F05BF9012000F09CFB85
S1130F8002F0C8FA0500EDB2012D04D1AF480168A2
S1130F904A4801F04DF9EDB2022D04D1AB48016885
S1130FA0474801F045F9EDB2032D04D1A748016883
S1130FB0614801F03DF9EDB2042D04D1A348016864
S1130FC05E4801F035F9EDB2052D04D19F48016862
S1130FD05B4801F02DF9EDB2062D04D19B48016860
S1130FE05F4801F025F9EDB2072D07D19748016854
S1130FF05C4801E003E0074001F01AF9EDB2082D66
S113100004D192480168584801F012F9904801F05F
S11310100FF900200400022C31DA8E4801F008F99F
S113102000F016FE55480068012101435348016051
S1131030524800688007FBD502F0A0FE02F000FFD2
S11310404E480068800717D54C4800680121884342
S11310504A490860494800688007FBD4C84801F041
S1131060E7F8C84801F0E4F802F0EAFE2100694814
S113107001F0DEF8641CCEE7674801F0D9F87AE1A4
S113108001220221002002F037FC0121BE4800F0B9
S113109091F970E1BD48006801210143BB4801603A
S11310A0BB48006801218843B9490860B94801F088
S11310B0BFF860E194810000A8810000A07C0000DA
S11310C0E47D0000B44801F0B3F8FFF7ADF95C48E3
S11310D001F0AEF802F03EFB012000F035FBAF4812
S11310E0C0218902016068460121AD4A1278D2B25A
S11310F052085207520F91400171AA48006869468C
S1131100097902F0D9FD5149086050480068A349A3
S11311100968090F491C02F0D2FD4C49086002F02D
S1131120DBFAA1480078C0B24006400E042809D179
S1131130444801F07DF812E0007E00001C7E0000AF
S1131140387E000098480078C0B24006400E01285E
S113115005D13D4801F06CF8012000F0ADFA0AE138
S1131160607B0000547E0000707E0000886B0000ED
S1131170547A00000C72000004A00640403000F0D5
S11311802E4801F055F8FFF74FF9884801F050F860
S113119002F0E0FA012000F0D7FA804884490160A7
S11311A0684601217E4A1278D2B252085207520F81
S11311B0914001717B4800686946097902F07CFD21
S11311C0224908602148006874490968090F491CCC
S11311D002F075FD1D49086002F07EFA724800783D
S11311E0C0B24006400E042803D1164801F020F88E
S11311F00CE06D480078C0B24006400E012805D1CD
S1131200114801F015F8012000F056FAB3E000BFD0
S11312104072000064770000C06C000062480078EF
S1131220C0B24006400E042816D1914801F000F8DF
S11312309048009022E000BFC07C0000207C0000A9
S113124004660000E4810000F881000094F4FF1FAC
S1131250787A0000B468000053480078C0B24006B1
S1131260400E01280AD1844800F0E2FF8348009030
S113127083480078202101438148017002F04AF933
S11312800500EDB2012D04D191480168914800F0A8
S1131290CFFFEDB2022D04D18D4801688E4800F0D5
S11312A0C7FFEDB2032D04D1894801688B4800F0D3
S11312B0BFFFEDB2042D04D185480168884800F0D1
S11312C0B7FFEDB2052D04D181480168854800F0CF
S11312D0AFFFEDB2062D04D17D480168964800F0B9
S11312E0A7FFEDB2072D04D179480168934800F0B7
S11312F09FFFEDB2082D04D175480168904800F0B5
S113130097FF00998F4800F093FF00F0A1FC8E48EE
S11313100068012101438C4801608B480068800704
S1131320FBD502F02BFD002004000098844205DA6E
S113133085480068800701D5641CF6E78248006888
S1131340800709D580480068012188437E490860E8
S11313507D4800688007FBD48D4800F069FF0AE0EF
S11313608C4800F065FF8C48E021C9000160D0483A
S1131370E021C9000160FF200700FFF79EF800008C
S1131380A8800000C86B0000881300003880044067
S113139000000440C0800000F87300004480044052
S11313A00840064080F4FF1F03E007404C6600003D
S11313B00000011038B505000C00944800680121B4
S11313C00143924801601C2002F0E3FCA007800F57
S11313D0042101438E480160002C02D18D4800F0A5
S11313E027FF012C02D18C4800F022FF022C02D1ED
S11313F08A4800F01DFF032C02D1894800F018FF31
S1131400A8B2A0490860B548C0210160B34800688B
S113141001210143B148016031BD80B5072002F0CC
S1131420B8FC1C2002F0B5FC01220121802002F04E
S113143063FA01BD75480068C021C90001437348BF
S113144001609A48802149000160A5480068802114
S113145049020143A2480160964880214900016085
S11314609F4800688021890201439D4801607047BC
S113147094810000002D3101A881000000C2EB0B13
S11314800440064010B582B00400002C03D09548F7
S11314909549016001E003F0E1F89448FF2114311B
S11314A001600A2003F0E8F8914800680821084028
S11314B000900098082806D18E4800F0B9FE8E48A6
S11314C000F0B6FE02E08D4800F0B2FE13BD00004D
S11314D094F4FF1FC87D0000E47D0000007E00003E
S11314E01C7E0000387E000080B517480068800725
S11314F00CD5154800680121884313490860124837
S113150000688007FBD47E4800F092FE3F480068E4
S1131510012101433D4801607A4800F089FE6F488B
S11315200068802101436D4801606C48C12101605D
S11315306A480068009001BD607B0000547E000092
S1131540707E000028740000403000F080B56E48C2
S1131550006880070CD56C480068012188436A49FB
S11315600860694800688007FBD4684800F060FEA2
S113157067480068102806D15A4800688021490449
S1131580014358480160634800F052FE01BD000069
S11315909C700000F86800000090044000B5C0B2E0
S11315A000281ED05C490968802252010A435A4926
S11315B00A605A49C02292000A605949C022920026
S11315C00A605849E022D2000A603949E022D20078
S11315D00A604449444A0A604449FF2214320A60BA
S11315E013E04D4909684C4A002313604B4A002319
S11315F013604B4A002313603A4A00231360494A9C
S1131600002313602A4A0023136000BD388004407D
S113161004000440C07500008C770000B47700001B
S1131620EC750000F8B505000C003F4800683F4920
S113163001403D4801603C4800683C4901403A484B
S113164001603948006820433749086000950098D4
S113165037490968090F491C02F031FB07003800BB
S113166033490968090C4907490F491C02F027FB53
S1131670060096225201022171432E4800F00CFB11
S1131680F1BD00000800044010B52B4A2B48016846
S1131690012001F097FD0400294800F07DFF0400BB
S11316A0274801F05BF80400200010BD409004407E
S11316B00C9004404490044000B5C0B2002806D009
S11316C02049097820220A431E490A7005E01D4971
S11316D00978DF220A401B490A7000BD000004405B
S11316E014F00F401090044013010A000CB00440A1
S11316F090F00F403C69000080690000C46900005C
S1131700FC6C00008C7E0000403000F0086C00008F
S1131710A09004409C7A00003480044040D00440EF
S113172044D004400090044004800440FFFFFFF3D1
S11317304480044000C00640006CDC0280F4FF1FBB
S113174000127A0005400640F8B5050001F0E2FEFB
S11317500700CC480078C0B24006400E042804D1EB
S1131760C94800F065FD01F0F5FFC6480078C0B235
S11317704006400E012802D1C44800F059FD012F53
S113178012D000D241E2032F48D043D3052F00D119
S1131790F3E000D298E0072F00D159E100D2F0E045
S11317A0082F00D180E130E2B94800F041FDEDB2EC
S11317B0032D2ED10021B748006801F001FBB64982
S11317C00860B448006801F0E3FBB3490860B3481B
S11317D00078A0210143B1480170AF48B0490160CD
S11317E0B048802149020160AB480068022102F040
S11317F063FAFA21890002F05FFA04008021C90427
S11318002000FFF70FFFD3480068D3490140D148B7
S11318100160FAE1D14800F00BFDF6E1D04800F098
S113182007FDEDB2062D15D101220121CD4801F0AD
S1131830A3F899490860CB4801F076F89649086006
S1131840C948007880210143C7480170FA2040014B
S1131850040030E0EDB2012D2DD1C4480078F1210F
S11318600140C24801700121DF48006801F000FC1A
S1131870894908600121DC48006801F06DFA864955
S113188008608848C02189020160834800680221F9
S113189002F012FAFA21890002F00EFA0400DB4881
S11318A0007802210143D9480170D9480078012108
S11318B00143D7480170C02109052000FFF7B2FE9B
S11318C0D44800F0B5FCA0E1D34800F0B1FCEDB27F
S11318D0012D33D1CE480078FE210140CC4801705F
S11318E0CA48007802210143C84801709F48007823
S11318F0F12101409D4801700121BB48006801F0BD
S113190097FA654908600121B748006801F024FA94
S11319106149086063488021C90201605E4800682B
S1131920FA21890002F0C8F90400C0210905200049
S1131930FFF778FEB94800F07BFC1DE0EDB2062D00
S11319401AD1884801F0F6F853490860854800F038
S1131950EBFF5149086084480078802101438248A4
S11319600170FA2040010400C02109052000FFF79E
S113197059FEAB4800F05CFC47E1AA4800F058FC73
S113198043E1A94800F054FCEDB2012D38D1A04840
S11319900078FE2101409E4801709C480078022195
S11319A001439A48017071480078F12101406F4861
S11319B001706C4800F07EFF3749086001218A48B5
S11319C0006801F003F93449086001218648006881
S11319D001F0C2F93049086032488021C90201602F
S11319E02D480068FA21890002F066F90400C0213C
S11319F009052000FFF716FE8C4800F019FC26E0CC
S1131A00EDB2082D23D12748802149020160182214
S1131A100421544800F0CAFE1F490860514800F0F0
S1131A2003FE1D4908601C480068022102F044F9C5
S1131A30FA21890002F040F97D4908608021C90437
S1131A407B480068FFF7EEFD7A4800F0F1FBDCE02C
S1131A50794800F0EDFBEDB2082D0ED1114880213C
S1131A60490201603F4800F0DFFD0B490860802116
S1131A70C90409480068FFF7D5FD6E4800F0D8FB9B
S1131A80C3E000BF03E00740386D0000608300003E
S1131A90C07A000084F4FF1F94F4FF1F0340064043
S1131AA0006CDC0244800440EDB2012D60D16E482C
S1131AB002684D480168012001F084FB0600F6B27B
S1131AC0002E02D0694800F0B3FB012000F064FD51
S1131AD065490860012000F009FE63490860234855
S1131AE00078F12101402148017001213E4800683D
S1131AF001F06CF85C49086001213B48006801F082
S1131B002BF95949086058480068022102F0D4F8BA
S1131B10FA21890002F0D0F804005548C021890256
S1131B2001603A480078022101433848017038487E
S1131B30007801210143364801700020FFF7BCFD05
S1131B40C02109052000FFF76DFD4A4800F070FB35
S1131B505BE000BF04800440FFFFFEFFD88000006C
S1131B607083000000127A000050064008400640CE
S1131B70414800F05DFB3C4802681B4801680120B5
S1131B8001F020FB0600F6B2002E02D0374800F028
S1131B904FFBFFF779FD344908603848007880210D
S1131BA001433648017010480068FA21890002F0A8
S1131BB083F804002E48324901602B4800682C4900
S1131BC00968090F491C02F07AF8274908600F4890
S1131BD00078022101430D4801700D48007801216D
S1131BE001430B4802E000BF80F4FF1F0170254849
S1131BF00078F121014023480170C021090520002B
S1131C00FFF710FD204800F013FBF1BD0040064033
S1131C1001400640A87E00000C820000F080000015
S1131C20088100002082000034820000C47E00008D
S1131C30A4F4FF1FE07E00004882000013480068FF
S1131C400721884311490860114800210160704749
S1131C500F488021890101600E48002101600B4872
S1131C60072101607047000094F4FF1F5C820000AC
S1131C7044800440E47A000074720000005006407E
S1131C800000031008400640087B000010E000E05C
S1131C9014E000E018E000E0F8B504000D001600C0
S1131CA02048844207D1204800688021090101436B
S1131CB01D48016006E01C48006880214901014379
S1131CC019480160E078F3210140E1700020A07020
S1131CD0FA20800068431021714301F0EDFF0700F2
S1131CE068462178E0220A4002706846007839008C
S1131CF089B2090AC906C90E01432170380060700F
S1131D00E0780C210143E170F1BD00B50179890649
S1131D10FCD5C07900BD00B502791206FCD5C171AD
S1131D2000BD000000B006403480044070B50400DB
S1131D300D0016003068012802D0022805D00BE0FF
S1131D402000C0B27168884706E0B06821000170C5
S1131D50B068401CB060FFE72868401C286070BD74
S1131D60FFB584B000200600049805000020287008
S1131D706D1C0698002825D00598006801900198EC
S1131D80002803D130202870761C3FE001980028F9
S1131D903CD00198079901F08FFF039001980399B3
S1131DA0079A5143401A0700002F03D5F843070050
S1131DB0313700E0303703980190380028706D1CEB
S1131DC0761CE3E70598006800900098002803D18A
S1131DD030202870761C19E00098002816D000984E
S1131DE0079901F06CFF029000980299079A5143F9
S1131DF0401A04000A2C01D2303400E0373402982F
S1131E000090200028706D1C761CE5E7300008B0B7
S1131E10F0BDF1B50F0015001E0000980400BC428F
S1131E2006DA320029003020FFF780FF641CF6E751
S1131E30F1BDF1B50F0015001E0000980400BC426E
S1131E4006DA320029002020FFF770FF641CF6E751
S1131E50F1BDF3B595B0170000200090169804006A
S1131E6020780690002800D1DFE10698252813D0B9
S1131E7006980A2805D0159A69460698FFF756FF72
S1131E8009E0159A69460D20FFF750FF159A694637
S1131E900A20FFF74BFFC6E1002006000020049053
S1131EA00498002824D1641C2078202810D02328EA
S1131EB016D02B2808D02D2802D030280CD013E0BF
S1131EC0300001260643EBE7300002260643E7E72D
S1131ED0300004260643E3E7300008260643DFE724
S1131EE0300010260643DBE7641E01200490D7E788
S1131EF000200190002004900498002811D1641C53
S1131F00207806903038092807D801980A214843D8
S1131F100699401830380190EEE7641E01200490C1
S1131F20EAE7641C20782E280ED10020049004983F
S1131F3000280AD1641C20783038092800D8F6E734
S1131F40641E01200490F2E7641E641C20784C286F
S1131F5006D0682802D06C2801D002E002E001E03B
S1131F6000E0641E641C20780690582872D0622811
S1131F7000D1CCE0632800D116E1642813D069288D
S1131F8011D06E2800D142E16F2800D1B4E070284E
S1131F9000D1C7E0732800D110E1752800D1CCE04E
S1131FA0782857D03AE1386809903F1D0A23012266
S1131FB009A90CA8FFF7D4FE05000CA84019089045
S1131FC00998002803D52D2003906D1C0DE0B0075F
S1131FD003D52B2003906D1C07E0700703D5202048
S1131FE003906D1C01E00020039000200590300751
S1131FF012D50398002804D0159A69460398FFF770
S113200095FE01200590159B6A4601992800FFF76B
S113201000FF0198050011E0F0070FD4159B6A46F4
S113202001992800FFF705FF0398002804D0159AAA
S113203069460398FFF77AFE012005900598002869
S113204007D10398002804D0159A69460398FFF72E
S11320506DFE92E0386802903F1D1023002202A911
S11320600CA8FFF77DFE05000CA84019089000207D
S11320700590300716D5F0060BD5159A6946302021
S1132080FFF754FE159A69467820FFF74FFE0120AA
S11320900590159B6A4601992800FFF7BAFE01983E
S11320A0050018E0F00716D4F00600D5AD1C159B0A
S11320B06A4601992800FFF7BCFEF0060BD5159A75
S11320C069463020FFF732FE159A69467820FFF7FB
S11320D02DFE01200590F0060DD5059800280AD1A3
S11320E0159A69463020FFF721FE159A6946782033
S11320F0FFF71CFEAD1C40E0386802903F1D08232A
S1132100002202A90CA8FFF72BFE05001FE0386887
S113211002903F1D0223002202A90CA8FFF720FE13
S1132120050014E0386802903F1D1023002202A924
S11321300CA8FFF715FE050009E0386802903F1D62
S11321400A23002202A90CA8FFF70AFE05000CA826
S113215040190890300708D5159B6A460199280054
S1132160FFF757FE0198050007E0F00705D4159B1B
S11321706A4601992800FFF75CFE08980078002859
S113218009D0159A694608980078FFF7CFFD08989A
S1132190401E0890F1E7F00705D5159B6A460199A2
S11321A02800FFF746FE3EE03868C0B20A903F1DA3
S11321B0159A69460A98FFF7B9FD34E03868079024
S11321C03F1D0798002821D0079802F07DFA0500EA
S11321D0F00705D4159B6A4601992800FFF729FEEC
S11321E007980078002809D0159A6946079800785E
S11321F0FFF79CFD0798401C0790F1E7F00705D511
S1132200159B6A4601992800FFF713FE0BE0386816
S11322100B903F1D0B980099016004E0159A6946E4
S11322200698FFF783FD641C1AE6009817B0F0BD0A
S11322300EB47EB50500012000900848019007A85F
S11322400600320029006846FFF703FE0400200060
S113225003B0039970BC04B0084700004D8300002C
S1132260FEB583B0040069462C200D567E480078E4
S1132270C0B280088007800F002807D17A48007810
S1132280C00603D578480078800601D5012070E1A6
S1132290B948844201DB21206BE16846007C0028B8
S11322A007D0B648844202DBB548844201DB2220D1
S11322B05FE16846007B002802D068460121017373
S11322C0694614200856012804DB69461420085680
S11322D01A2801DB41204CE16DB2182D02DB6DB2EE
S11322E0332D01DB422044E120006A46142151567B
S11322F001F0E2FC02900298A249884203DB0298B2
S1132300A149884201DB432033E120006A461421BD
S1132310515601F0D1FC6DB26843019001989B497C
S1132320884203DB01989A49884201DB452020E179
S11323309848007807003800C3270740B248844211
S11323400BDA6846007BC0006946097C89000143BA
S113235010200843384307000AE06846007BC000A9
S11323606946097C8900014320200843384307005B
S113237088480770A548844203DA68460021017042
S11323801EE0A348844203DA68460121017017E085
S1132390A048844203DA68460221017010E09E4896
S11323A0844203DA68460321017009E09B488442B1
S11323B003DA68460421017002E0684605210170D1
S11323C0974800780700BF07BF0F68460078C00031
S11323D038210140802008433843070090480770A3
S11323E06846007C002811D00020060036B28D48D3
S11323F0864205DA1C480078800701D4761CF5E78C
S113240019480078800701D42320B2E00020060098
S113241036B2FA20C000864205DA13480078C006B6
S113242001D5761CF4E710480078C00601D51120C8
S11324309FE00020060036B2FA20C000864209DA86
S113244009480078C0B280088007800F022801D0B4
S1132450761CF0E704480078C0B280088007800F3B
S1132460022803D01A2084E0064006409E480078E3
S1132470202101439C480170B648007807003800C9
S1132480E0270740694614200856401EC006C00EC7
S113249038430700AF4807709348007807003800B6
S11324A0E027074028001838C106C90E4020084319
S11324B0384307008C4807700020060036B2FA2023
S11324C0C000864205DAA4480078800601D4761C50
S11324D0F4E7A1480078800601D4162049E00020E2
S11324E0060036B2FA200001864205DA9A480078DE
S11324F0400601D4761CF4E797480078400601D4DE
S1132500442036E0684693490978C906C90E491C37
S11325108170684674490978C906C90E183141703A
S11325203F4800788006800E3D4908700020060070
S113253036B2FA20C000864209DA87480078C0B271
S113254080088007800F032801D0761CF0E78248BA
S11325500078C0B280088007800F032801D01B20B8
S113256007E020006946897801F0A6FB69464978AE
S1132570484306B0F0BD00BF81F0FA02C0C62D008A
S11325800148E80180841E0001093D00006CDC0262
S113259001E1F5050140064000B501006E480078F0
S11325A0C0B280088007800F032807D16A480078EA
S11325B0C00603D468480078800601D4082021E0CE
S11325C01748007880230343154803700020020055
S11325D012B2FA20C000824209DA5F480078C0B221
S11325E080088007800F022801D0521CF0E75A4867
S11325F00078C0B280088007800F022801D01A201A
S113260000E0080000BD000001127A00D11213009E
S1132610A1252600414B4C0081969800012D3101E3
S113262000400640204E000030B502004A480078C1
S1132630C0B280088007800F02280BD1464800787A
S1132640C00607D444480078800603D5544800786F
S1132650800701D5072045E0002005002DB2FA20AF
S1132660C000854205DA3C480078400601D46D1C60
S1132670F4E739480078400601D4442032E0354874
S11326800078C006C00E401C010017480078C00640
S1132690C00E18300400434800788006800E414B79
S11326A01870002005002DB2FA20C000854209DA16
S11326B029480078C0B280088007800F032801D021
S11326C06D1CF0E724480078C0B280088007800FB2
S11326D0032801D01B2005E01000C9B201F0ECFA78
S11326E0E4B2604330BD00000540064000B501007F
S11326F019480078C0B280088007800F02280BD1E7
S113270015480078C00607D413480078800603D51E
S113271023480078800701D5072019E02248007873
S1132720BF230340204803700020020012B2FA20A5
S1132730C000824205DA08480078800601D5521CA0
S1132740F4E705480078800601D5152000E008006C
S113275000BD0000044006400640064000B50100EC
S113276053480078C0B280088007800F02280BD13C
S11327704F480078C00607D44D480078800603D53A
S11327807B480078800701D5072006E07848007868
S11327900222024376480270080000BD00000000D7
S11327A0014006400040064005400640F1B50C00DB
S11327B015006E480078C0B280088007800F022898
S11327C007D16A480078C00603D4694800788007B6
S11327D001D406206BE064B2012C02DB64B21A2C33
S11327E001DB412063E06DB2182D02DB6DB2332DA5
S11327F001DB42205BE0009864B2210001F05CFA46
S11328004749884207DB009864B2210001F054FA7A
S11328104449884201DB432049E0534800780700DB
S11328203800E02707403900601EC706FF0E0F433B
S11328304D4807704F48007807003800E0270740EC
S113284028001838C106C90E402008433843070041
S11328504848077046480078FD210140444801700B
S11328600020060036B2FA20C000864205DA3F484E
S11328700078800601D4761CF4E73C480078800692
S113288001D4162013E00020060036B2FA20C0005E
S1132890864205DA35480078400601D4761CF4E710
S11328A032480078400601D4442000E00098F2BD8C
S11328B00640064000B501002C480078C0B28008EC
S11328C08007800F022807D128480078C00603D467
S11328D027480078800701D406201FE025480078A7
S11328E0BF2303402348037021480078FD2303409D
S11328F01F4803700020020012B2FA20C000824276
S113290005DA1A480078800601D5521CF4E7174806
S11329100078800601D5152000E0080000BD000005
S113292080841E0001093D0000B501000F480078B5
S1132930C0B280088007800F02280BD10B480078B2
S1132940C00607D409480078800603D408480078F4
S1132950800701D5042006E00548007802220243DE
S113296003480270080000BD0440064006400640CB
S11329700140064005400640F0B504000B006748DE
S11329800078C0B280088007800F002807D1634810
S11329900078C00603D561480078800601D501207F
S11329A0BBE06048844201DB2120B6E0D2B2002AB9
S11329B00DD05D48844208DB5C48844202DB5C48FD
S11329C0844202DB7748844201DB2220A5E0DBB2AB
S11329D0002B01D001200300734800780100080097
S11329E0C32101405148844207DA0F00DBB2D8000A
S11329F0D2B291000143394315E06C48844209DAAC
S1132A00DBB2D800D2B29700074310203843084302
S1132A10010008E0DBB2D800D2B2970007432020BF
S1132A20384308430100604801706148844202DA77
S1132A300020050019E05F48844202DA0120050005
S1132A4013E05D48844202DA022005000DE05B4891
S1132A50844202DA0320050007E05948844202DA7E
S1132A600420050001E0052005002D480078010040
S1132A708907890FE8003827074080203843084336
S1132A80010027480170D2B2002A11D000200600AC
S1132A9036B24C48864205DA20480078800701D4D3
S1132AA0761CF5E71D480078800701D4232034E024
S1132AB00020060036B2FA20C000864205DA174824
S1132AC00078C00601D5761CF4E714480078C006E7
S1132AD001D5112021E00020060036B2FA20C00002
S1132AE0864209DA0D480078C0B280088007800F5A
S1132AF0022801D0761CF0E708480078C0B28008AC
S1132B008007800F022801D01A2006E02E4807789B
S1132B10202038432C4F38702000F0BD064006407A
S1132B200040064081F0FA0230750000419C00002C
S1132B30C0C62D0000B501007F480078C0B28008EF
S1132B408007800F002807D17B480078C00603D493
S1132B5079480078800601D5022021E07748007882
S1132B6080230343754803700020020012B2FA2048
S1132B70C000824209DA70480078C0B28008800739
S1132B80800F022801D0521CF0E76B480078C0B2D5
S1132B9080088007800F022801D01A2000E0080076
S1132BA000BD00000148E8010140064001127A001E
S1132BB0D1121300A1252600414B4C0081969800A8
S1132BC0012D3101102700000540064070B50200B8
S1132BD00C0059480078C0B280088007800F022892
S1132BE00BD155480078C00607D4534800788006B6
S1132BF003D453480078800701D504209BE0E4B255
S1132C00002C07D14F48824202DB4F48824209DB45
S1132C10312090E04D48824202DB4D48824201DB84
S1132C20322088E0E4B2002C06D045480078012325
S1132C3003434348037005E041480078FE23034002
S1132C403F48037043480078DF2303404148037042
S1132C503A4800780500AD06AD0E2800442505432A
S1132C6036480570E4B2002C12D10020060036B2BA
S1132C70FA20C000864205DA2F480078C00701D543
S1132C80761CF4E72C480078C00714D5132052E0D2
S1132C900020060036B2FA20C000864205DA264833
S1132CA00078C00701D4761CF4E723480078C007F5
S1132CB001D414203FE00020060036B2FA20C00000
S1132CC0864209DA1C480078C0B280088007800F69
S1132CD0012801D0761CF0E717480078C0B28008BC
S1132CE08007800F012801D0192024E0002006006D
S1132CF036B2FA20C000864205DA0F480078C006D2
S1132D0001D4761CF4E70C480078C00601D41220E4
S1132D1011E0E4B2002C0DD00120284B1B78DBB26B
S1132D205B085B075B0F984001001000C9B200F01C
S1132D30C3FF00E0100070BD06400640004006409E
S1132D4001400640127A000098980000C0C62D0089
S1132D50414B4C000540064010B502000C003148C0
S1132D600078C0B280088007800F01280BD12D485D
S1132D700078C00607D52B480078800603D42A487B
S1132D800078800701D5032017E027480078022344
S1132D90034325480370E4B2002C0DD00120074BF7
S1132DA01B78DBB25B085B075B0F984001001000E7
S1132DB0C9B200F081FF00E0100010BD08400640D9
S1132DC010B502000C0017480078C0B280088007D4
S1132DD0800F01280BD113480078C00607D511488D
S1132DE00078800603D410480078800701D40520B9
S1132DF017E00D480078FD2303400B480370E4B24C
S1132E00002C0DD00120094B1B78DBB25B085B075B
S1132E105B0F984001001000C9B200F04DFF00E0C4
S1132E20100010BD06400640014006400840064020
S1132E3030B502000C0088480078C0B280088007D2
S1132E40800F002807D184480078C00603D4824844
S1132E500078800601D5022097E0E4B2002C07D167
S1132E607E48824202DB7E48824209DB31208CE0CC
S1132E707C48824202DB7C48824201DB322084E0CF
S1132E80E4B2002C06D07948007801230343774844
S1132E90037005E075480078FE230340734803700F
S1132EA06C480078DF2303406A4803703748007891
S1132EB04423034335480370E4B2002C12D10020AC
S1132EC005002DB2FA20C000854205DA6248007878
S1132ED0C00701D56D1CF4E75F480078C00714D51E
S1132EE0132052E0002005002DB2FA20C0008542D4
S1132EF005DA59480078C00701D46D1CF4E7564838
S1132F000078C00701D414203FE0002005002DB252
S1132F10FA20C000854209DA4F480078C0B2800820
S1132F208007800F012801D06D1CF0E74A48007823
S1132F30C0B280088007800F012801D0192024E046
S1132F40002005002DB2FA20C000854205DA42486F
S1132F500078C00601D46D1CF4E73F480078C00631
S1132F6001D4122011E0E4B2002C0DD001208D4BCD
S1132F701B78DBB25B085B075B0F98400100100015
S1132F80C9B200F099FE00E0100030BD00400640D8
S1132F90F8B5070084480078C0B280088007800F25
S1132FA001280BD180480078C00607D57E480078F8
S1132FB0800603D42D480078800701D5032048E01B
S1132FC02648874202DB2648874201DB312040E065
S1132FD0380000F0EDF906003C2E01DA300038E04C
S1132FE0724800780400A406A40E200004240443BC
S1132FF06E480470002005002DB2FA20C0008542FE
S113300005DA69480078C00601D46D1CF4E7664807
S11330100078C00601D412201BE0002005002DB268
S1133020FA20C000854209DA5F480078C0B28008FF
S11330308007800F002801D06D1CF0E75A48007803
S1133040C0B280088007800F002801D0182000E05B
S11330503000F2BD0540064006400640127A0000EA
S113306098980000C0C62D00414B4C00014006401A
S113307070B502000C004C480078C0B2800880078C
S1133080800F002807D148480078C00603D5464879
S11330900078800601D5012082E0E4B2002C07D13B
S11330A04348824202DB4348824209DB312077E015
S11330B04148824202DB4148824201DB32206FE018
S11330C0E4B2002C06D03E480078012303433C4878
S11330D0037005E03A480078FE2303403848037043
S11330E0324800780500AD06AD0E280040250543A2
S11330F02E480570E4B2002C12D10020060036B22E
S1133100FA20C000864205DA27480078C00701D5B6
S1133110761CF4E724480078C00714D513203FE058
S11331200020060036B2FA20C000864205DA1E48A6
S11331300078C00701D4761CF4E71B480078C00768
S113314001D414202CE00020060036B2FA20C0007E
S1133150864209DA14480078C0B280088007800FDC
S1133160012801D0761CF0E70F480078C0B280082F
S11331708007800F012801D0192011E0E4B2002C4F
S11331800DD00120074B1B78DBB25B085B075B0F9C
S1133190984001001000C9B200F08EFD00E010005C
S11331A070BD00000840064006400640004006404E
S11331B0127A000098980000C0C62D00414B4C00C4
S11331C001400640F4B584B007000E00FFB2002FA2
S11331D001D00120070000F09DF969460871684696
S11331E00079082809D068460079072805D0684680
S11331F00079052801D00120C7E066480068050071
S11332000498654900F058FD039062480068040082
S11332102000624C044003980104E020C0020840EE
S1133220204304005B48046004985A490968090C67
S1133230491C00F044FD029002985949884203DB7E
S113324002985849884203DB5248056003209CE0F9
S1133250FFB2002F0DD14E48864203DA4D48056077
S1133260042092E05048864211DB4A48056005205C
S11332708BE04E48864203DA46480560062084E027
S11332809D48864203DB4348056007207DE0FFB28A
S1133290002F18D0029801F029FA0090300001F0B4
S11332A025FA0100009801F03AFA0100934801F070
S11332B08BFA01008620C00501F086FA01F0DEFADF
S11332C06946C88012E0029801F010FA00903000BC
S11332D001F00CFA0100009801F021FA010087487E
S11332E001F072FA01F0CAFA6946C8808448694656
S11332F0C98801706846C08880B2000A8149087094
S113330081480078C006C00E7F490870FFB2B8013A
S1133310802101430C007C480078210001437A4855
S11333200170794800780006FBD47748007880065D
S113333003D518480560082027E0FFB2002F0DD1FF
S113334072480078C0B2FF2804D070480078C0B238
S1133350002817D10F480560092016E06C48007852
S1133360C0B240080007000F0F2807D06848007853
S1133370C0B240080007000F002803D105480560CB
S11333800A2002E003480560002005B0F0BD0000FB
S1133390127A0000448004400024F400FFFFF8FF88
S11333A000127A000124F40097980000C0C62D0092
S11333B000B5010056480078C0B240098007800F6C
S11333C0022801D33B2095E051480078000647D5F8
S11333D04F480078C0B240098007800F002805D00C
S11333E0022821D011D303282CD082E0B7208000FA
S11333F0484302009948824201DA33207AE098482F
S1133400824201DB342075E073E0B720C0004843FA
S113341002009448824201DA35206BE092488242ED
S113342001DB362066E064E090484843020090489F
S1133430824201DA37205DE08E48824201DB382087
S113344058E056E08C48484302008C48824201DA36
S113345039204FE08A48824201DB3A204AE048E0C2
S11334602B480078C0B240098007800F002805D09F
S1133470022821D011D303282DD03AE0A0208000C7
S1133480484302007548824201DA332032E074482E
S1133490824201DB34202DE02BE0A020C000484311
S11334A002007048824201DA352023E06E488242ED
S11334B001DB36201EE01CE0F020C000484302007F
S11334C06B48824201DA372014E06A48824201DB09
S11334D038200FE00DE0A0200001484302006748B7
S11334E0824201DA392005E06548824201DB3A2054
S11334F000E0100000BD0000414B4C000000A8415A
S11335000B4006400A400640084006400240064080
S11335100340064000B55B480078C0B280088007CD
S1133520800F002809D157480078C00605D55548B2
S11335300078800601D403208EE052480078C0B29F
S113354080088007800F032809D14E480078C00600
S113355005D44C480078800601D508207CE0494811
S11335600078C0B280088007800F02280DD145483A
S11335700078C00609D443480078800605D542483F
S11335800078800701D4072066E03E480078C0B286
S113359080088007800F02280DD13A480078C006C1
S11335A009D438480078800605D437480078800765
S11335B001D4052050E033480078C0B28008800769
S11335C0800F022809D12F480078C00605D42E4860
S11335D00078800701D506203EE02A480078C0B272
S11335E080088007800F01280DD126480078C00686
S11335F009D524480078800605D42348007880073C
S113360001D5012028E01F480078C0B28008800757
S1133610800F01280DD11B480078C00609D5194830
S11336200078800605D418480078800701D4022069
S113363012E014480078C0B280088007800F002888
S113364009D110480078C00605D40E4800788006D9
S113365001D4042000E0002000BD0000002D310151
S113366041787D01005A620281F0FA029508000057
S113367000879303C1687804710B000000B4C4048C
S113368001E1F505064006400140064080B500F022
S113369075FB01BD10B582B0040091480021017092
S11336A091480078F82101408F4801708E488E4976
S11336B0097801708B4800788006800E894908706B
S11336C08848007820438749087087480078C0B24A
S11336D0009000F04BFB13BD00B5844A1278D2B2BF
S11336E05206520E042A01D1142210007C4A2023CF
S11336F013707D4A12789F2313407B4A13707B4AD0
S11337001278D2B25206520E012AF8D1764A1278B1
S113371040231343744A137000221100744A9142E7
S113372006DA744A1278D2B2520701D5491CF5E779
S1133730704A1278520701D5242210006B4A12787D
S1133740D2B25206520E042A03D1684A1278D2B277
S1133750100000BD00B565490978C9B24906490E93
S1133760042914D1604909789F220A405E490A70ED
S113377000210800FF280ADA5C490978C9B2490621
S1133780490E012901D15B490978401CF2E700BDCB
S113379080B553482021017053480078F821014036
S11337A05148017050480078022101434E4801708D
S11337B04D480078C0B2009000F0D8FA01BD80B541
S11337C047480821017048480078F82101404648DC
S11337D00170454800780321014343480170424881
S11337E00078C0B2009000F0C1FA01BD80B53C4839
S11337F0022101703C480078F82101403A480170E8
S113380039480078042101433748017035480321C1
S1133810017034480078C0B2009000F0A7FA01BDEE
S113382080B52F48022101702F480078F82101400B
S11338302D4801702C480078042101432A48017066
S113384028480121017027480078C0B2009000F098
S11338508DFA01BD38B504002148022101702348C6
S11338600078C0B24006400E042812D11E480078E9
S11338709F2101401C48017000200500FF2D08DA3B
S11338801A480078C0B24006400E012801D06D1CD1
S1133890F4E715480078F8210140134801701248F4
S11338A0007804210143104801700E480078F82183
S11338B001400C4801700B480078DF2101400948A1
S11338C0017008480078E4B26101014305480170C1
S11338D004480078C0B2009000F048FA31BD0000FE
S11338E000E0074002E0074001E0074003E0074032
S11338F01027000002D00740F8B504000E0017009E
S1133900734800780500E00702D57248FEF790FC82
S1133910A00702D57048FEF78BFC600702D56F48FC
S1133920FEF786FC200702D56D48FEF781FC684847
S113393005706C4800780500E00602D56A48FEF779
S113394077FCA0060DD52900B0000C2505400D43D9
S11339506648FEF76DFC6648007820210143644800
S1133960017060060DD529003001302505400D4356
S11339706048FEF75DFC5E480078402101435C48E6
S1133980017020060BD52800B50105435A48FEF7FF
S11339904FFC574800788021014355480170514835
S11339A00570564800780500E0050CD52800B507D9
S11339B0AD0F05435248FEF73BFC52480078012105
S11339C0014350480170A0050DD52900B0000C2515
S11339D005400D434C48FEF72BFC4A480078022171
S11339E001434848017060050DD529003001302598
S11339F005400D434548FEF71BFC4248007804216E
S1133A0001434048017020050BD52800B50105434A
S1133A108E48FEF70DFC3B480078082101433948E5
S1133A200170364805708A4800780500E0040CD51A
S1133A302800B507AD0F05438648FEF7F9FB31486A
S1133A400078102101432F480170A0040DD52900EE
S1133A50B0000C2505400D437F48FEF7E9FB2948DB
S1133A600078202101432748017060040DD5290006
S1133A703001302505400D437848FEF7D9FB214835
S1133A800078402101431F48017020040BD5280011
S1133A90B50105437248FEF7CBFB1A480078802134
S1133AA00143184801706A480570FFB2002F03D122
S1133AB06C48002101700AE06A480078384369497B
S1133AC0087068480178C9B26748FEF7B1FBF1BDD8
S1133AD000C00740486A00004C6F0000846F00007B
S1133AE0BC6F000001C00740486C0000306100005A
S1133AF005C00740E46400009466000002C007406B
S1133B002C65000006C0074074650000D8660000FC
S1133B1000B558480078800605D55648007820211D
S1133B2001435448017053480078400605D5514874
S1133B300078402101434F4801704E480078000648
S1133B4005D54C480078802101434A4801704A4811
S1133B500078C00705D5484800780121014346484C
S1133B60017045480078800705D543480078022154
S1133B7001434148017040480078400705D53E485C
S1133B800078042101433C4801703B480078000759
S1133B9005D5394800780821014337480170364873
S1133BA00078C00605D53448007810210143324816
S1133BB0017031480078800605D52F48007820210F
S1133BC001432D4801702C480078400605D52A4849
S1133BD000784021014328480170274800780006F6
S1133BE005D52548007880210143234801702348E6
S1133BF00078C0070ED522480068012101432048FF
S1133C00016020480068802101431E4801601D486E
S1133C10C121016015480078000605D513480078D5
S1133C20802101431148017011480078000605D530
S1133C300F480078802101430D4801701248006844
S1133C40802101431048016000BD00001C67000092
S1133C5003C00740B4630000606700000064000014
S1133C60D861000004C00740846C000008C007400D
S1133C7009C0074005C0074006C0074007C0074009
S1133C80388004400000044080E200E0F44600284C
S1133C9004D4494200F013F84042604740420029EE
S1133CA005D45FD000F00BF84042494260474942D6
S1133CB000F005F84942604703460B43E6D400226E
S1133CC0030A8B420BD203098B4219D243088B425D
S1133CD02ED2411A00D20146524110467047FF22AB
S1133CE009023FD012068B4205D3121209028B42FD
S1133CF001D31212090203098B4219D300E0090A05
S1133D00C3098B4201D3CB01C01A524183098B42B0
S1133D1001D38B01C01A524143098B4201D34B0199
S1133D20C01A524103098B4201D30B01C01A5241FC
S1133D30C3088B4201D3CB00C01A524183088B4283
S1133D4001D38B00C01A524143088B4201D34B006C
S1133D50C01A5241884200D3401A5241CFD2014680
S1133D601046704708B500F0BBFD08BD1848006850
S1133D70042101431648016030BF704714480068AD
S1133D80042188431249086030BF70471149086014
S1133D90704770B50400212C03DB0F48FEF748FA86
S1133DA015E00E480568012620002021FFF784FF56
S1133DB08E402E4309480660094805680126200004
S1133DC02021FFF779FF8E402E430548066070BD21
S1133DD010ED00E008ED00E0DC6E000080E200E0A1
S1133DE000E100E0F1B5009DEF6900202887002084
S1133DF068870020A8870020E88700200400BC42D0
S1133E001CD20121280000F004FE0600298F300096
S1133E1080B201F059F828870021C943280000F036
S1133E20F8FD0600298F300080B201F04DF8288794
S1133E30002C01D1288F6887641CE0E70020F2BDC4
S1133E40F0B5BA4CA5440020159000266846002120
S1133E5041810027FF43002568460021018118AAFB
S1133E6015A904A8423001F08BF8012000F0D8FF16
S1133E7069460882022000F0D3FF04A94880032089
S1133E8000F0CEFF04A98880042000F0C9FF0B9045
S1133E90052000F0C5FF0C900C98002801D10720E4
S1133EA00C90049800B2002812D1022004A9085EE4
S1133EB000280DD1042004A9085E002808D1684612
S1133EC00021018204A80021418004A86621818088
S1133ED0049800B2012812D1022004A9085E002827
S1133EE00DD1042004A9085E002808D16846C849F9
S1133EF0018204A8C649418004A86621818000206B
S1133F000400A4B2002C3BD1A4B24420604304A911
S1133F100818A4B2FA21C900614319AA5118816092
S1133F20A4B24420604304A90818FA21C90081619D
S1133F30A4B24420604304A9049A12B20A52A4B25F
S1133F404420604304A9081804A949884180A4B204
S1133F504420604304A9081804A989888180A4B274
S1133F604420604304A90818403000210180A4B211
S1133F704420604304A908180C990162641CC0E73A
S1133F8000200400A4B2032C0ADA0C98E040C00715
S1133F9004D5684669464989491C4181641CF1E796
S1133FA000200400A4B2002C11D1A4B24420604328
S1133FB004A90818806969464989FFF780FEA4B2FC
S1133FC04421614304AA51188861641CEAE7002073
S1133FD00400A4B2032C20DA0C99E140C9071AD5D5
S1133FE000210800002815D1A4B204216143442211
S1133FF0424304AB9A1853180A9AB6B272439446D1
S11340004422424304A98918896862468918D96000
S1134010401CE7E7761C641CDBE700200400A4B224
S1134020002C5ED1A4B24420604304A908182030B7
S11340300078C00713D5A4B24420604304A90A5EE3
S1134040A4B24420604304A90818C1680A9800F087
S11340508CFDA4B24421614304AA51184862A4B25D
S11340604420604304A908182030007880071FD535
S1134070A4B24420604304A90B182833A4B24420FA
S1134080604304A90A5E02218C46A4B24421614320
S113409004A840186146405E000410430200A4B224
S11340A04420604304A9081801690A9801F008F83B
S11340B0A4B24420604304A90818203000784007C3
S11340C00DD5A4B24420604304A908184269A4B2DF
S11340D04420604304A9095E0A9801F0E9F9641CCC
S11340E09DE70B98002837D116AA0020002103C2AF
S11340F0083A01200B9016A803C80022A54B01F032
S113410025FB15D20B980A2148430B9000F02AFF97
S113411004A8FFF767FE00F026FF00F025FF00F07B
S113412025FF16AA03C2083AE5E700BFCCF7FFFF54
S113413016A803C801F024FB01900198002801D1BE
S1134140012001900B9900910A200199FFF7B7FD16
S1134150401C009941430B9100F004FF04A8FFF7B1
S113416041FE00F000FF00F0FFFE03906846018965
S1134170049800B200F0D3FE6946088168460189BC
S1134180022004AA105E00F0CAFE6946088168464F
S11341900189042004AA105E00F0C1FE694608816A
S11341A0684601890A9800B200F0B9FE69460881A0
S11341B068460089C849884224D0C849884215D035
S11341C0C74988420CD0D149884203D0D04988429B
S11341D012D01FE000200700CE4800F0E1FE1CE0F2
S11341E001200700CC4800F0DBFE16E002200700A7
S11341F0CA4800F0D5FE10E003200700C84800F0CC
S1134200CFFE0AE004200700C64800F0C9FE04E01F
S1134210153400000020C04305003FB2002F00D534
S1134220BAE000200400A4B2D6480068844200D357
S1134230B2E0A4B24420604304A90818403000212D
S11342400180A4B24420604304A9081820300078F7
S1134250C0072BD5A4B24420604304A90818408F9A
S11342603FB202217943D04A515A88421ED03FB20C
S113427002207843CC490B5AA4B24420604304A9D9
S11342800818428FA4B22100C84800F089FEA4B2E5
S11342904420604304A9081840300088401CA4B29C
S11342A04421614304AA511840310880A4B2442037
S11342B0604304A908182030007880072BD5A4B2E5
S11342C04420604304A90818808F3FB20221794337
S11342D0B74A515A88421ED03FB202207843B449AB
S11342E00B5AA4B24420604304A90818828FA4B2D4
S11342F02100B04800F054FEA4B24420604304A955
S1134300081840300088401CA4B24421614304AA28
S1134310511840310880A4B24420604304A908180D
S11343202030007840072BD5A4B24420604304A970
S11343300818C08F3FB2022179439F4A515A8842DC
S11343401ED03FB2022078439B490B5AA4B24420AA
S1134350604304A90818C28FA4B22100974800F052
S11343601FFEA4B24420604304A90818403000880A
S1134370401CA4B24421614304AA5118403108806E
S1134380A4B24420604304A90818403000882D18C2
S1134390641C48E70000F03F00F0CBFD281805003E
S11343A00A99874800F0FCFD0399864800F0F8FD5F
S11343B0039800F0DBFD02000B00834800F0F0FDE1
S11343C0039800F0D3FD0022002301F0F0F914D289
S11343D0039800F0CBFD6A4603C2083A69480068B6
S11343E00B99484301F0FCF96A460CCA01F008FA3B
S11343F002000B00754800F0D3FD039800F0B6FDF1
S11344000022734B01F0A2F903D2724800F0C8FDF8
S11344106D1C5C4801680B9841436F4800F0C0FD77
S11344206E496F4800F0BCFD6E496F4800F0B8FD5E
S11344306E496F4800F0B4FD684601896D4800F08C
S1134440AFFD04A820300078C00713D50020040075
S1134450A4B24C48006884420CD2A4B24420604305
S113446004A90818428FA4B22100634800F098FD03
S1134470641CEDE704A820300078800713D50020E1
S11344800400A4B23F48006884420CD2A4B2442081
S1134490604304A90818828FA4B22100574800F091
S11344A07FFD641CEDE704A820300078400719D58F
S11344B000200400A4B233480068844212D2A4B29B
S11344C04420604304A90818C28FA4B221004C48B8
S11344D000F066FD641CEDE7F2180000AF4E00002A
S11344E0057B000000200400A4B226480068844232
S11344F01AD2A4B24420604304A90818028FA4B2BB
S11345002100404800F04CFD641CEDE7028A0000E5
S1134510F5E90000A8720000B8740000D47000002F
S1134520D8720000E47400002DB2002D25D1364865
S113453000F036FD3FB2032F1FD1039800F016FDA3
S113454016AA03C2083A27480190244800900D484F
S113455000680B99484301F043F916AA0CCA01F00C
S11345604FF902000B00294800F01AFD1F492848A2
S113457000F016FD27A000F013FD2DB2012D05DB80
S1134580254801E03CF4FF1F00F00AFD2DB2002D88
S113459002D5224800F004FD04A8423000F0F3FCE8
S11345A01F488544F0BD00BF10F4FF1F08730000CE
S11345B01CF4FF1F0871000028F4FF1F387300006B
S11345C0D07F0000E87F0000008000001880000019
S11345D000002440086A000030800000C08300000E
S11345E048800000A478000060800000EC84000093
S11345F078800000207D00003C7D0000587D000094
S1134600747D0000907D000068630000AC7D0000B4
S1134610F48400000A00000080810000746000003F
S11346203408000000B50F49096889070AD50D4907
S11346300968012291430B4A11600A4909688907F4
S1134640FBD40AE0002108000749884205DA07493B
S11346500968C90601D4401CF6E700BD04480549B1
S113466001607047403000F0FFFF010010F00FF8C8
S1134670109004401307000000B50F490968012297
S11346800A430D490A600D4900220A600C4908607A
S11346900C4905220A600949096801220A430749AD
S11346A00A60064909680906FBD50449096801221C
S11346B09143024A116000BD388004400000044068
S11346C0080004400400044000B501000A0000236F
S11346D0002A01D1002008E010000200521C0078DA
S11346E0002801D05B1CF7E7180000BD9D210200E3
S11346F008D5F446524200F005F80122D2071043CF
S1134700604700000AD002D4491E9218FCD5C9059E
S1134710100A1206524100D3012A4841704730B4AE
S113472005004D400122D20715404B180418240EF1
S113473028D01B0E2FD0FF2C34D0FF2B37D0E41AF7
S1134740000209021043114343084808D10D1B1A03
S113475002D2641EDB181B18DB18834200D31B1A19
S11347604941F9D37F3426DDFE2C08DAE4054808F4
S1134770C907194391416041284330BC7047FF2069
S1134780C005F9E728001B0E03D0FF2BF5D1490221
S1134790F3D0D043F1E7FF2C01D14002F9D1FF203F
S11347A0C005E9E74002F4D1FF2BF8D1F1E7280076
S11347B04902E2D0EDE70B0200202442DCD15B1277
S11347C09B1CD9D9D805D7E730B405004D40012248
S11347D0D20715404B180418240E30D01B0E34D0C9
S11347E0FF2C36D0FF2B3CD0E41800020902104302
S11347F01143000A090A9446C2B24A43000AC3B2EA
S11348004B43000A4843110A5B18190A12061B0C91
S11348101A43120A091801D44918641E080A7F3C75
S113482023DBFE2C08DAE4050906114363469941AB
S11348306041284330BC7047FF20C005F9E72800D9
S11348401B0EFF2BF6D1D043F4E72800FF2CF1D147
S1134850F9E74002F7D1FF2B01D14902F3D1E0057A
S1134860E7E7D8054902E4D0EDE743020020641CE1
S1134870DFD15B129B1CDCD9D805DAE70122D20711
S11348800118090E7F3910D449421F310FD4001882
S113489005D2C0011043C84000D5D0437047C001C1
S11348A01043C84005D4404270470020704700427E
S11348B0F3D51000704738B4012100220368001DAD
S11348C0002B0BD00468001D0C4202D04D466D1E17
S11348D064192260241D1B1FF0D0FAE732BC704714
S11348E070470000F1B584B00E0004980021475EC3
S11348F068463FB23900C9110A00D207D20F0272CA
S11349006846007A002803D07806400E00B249E0D9
S113491068467907490F4181380000B2C010050785
S11349202D0F28012843050002980014002802D006
S1134930012817D023E02DB2222D01DA2220050010
S1134940308F01902DB200950220335E0020325E3C
S11349507169B06900F026FD0400F08F002800D1D1
S1134960F4870DE0328F290009B23000283000F0BE
S11349701DFB0400B08F002800D1B48700E03C0088
S1134980318F200080B200F09FFA30876406640EF5
S1134990FF20C04338402043802101430498018014
S11349A0200000B205B0F0BDF8B507000C001600F9
S11349B031003800FFF796FF050031002000FFF7B3
S11349C091FF2DB200B2281AF2BD10B5002A15D1FC
S11349D00488FF23DB4323400024045F24B2241211
S11349E0E4B21C4304800C88FF23DB4323400024EF
S11349F00C5F24B22412E4B21C430C800223C05E78
S1134A000223C95E401A10BD0A8802804A88428087
S1134A107047F3B585B0002468460021418068469C
S1134A20002101800598466A684605998A880282B1
S1134A3001A8069909B2418000200700049800B239
S1134A403FB2874249DAF8B26946888001A930004A
S1134A5000F05BF90290300000F073F90600029850
S1134A6000280ED1684669460988491C01803068CF
S1134A7040680021405E00120100C907C90F641894
S1134A801FE0684669464988491C4180029840688D
S1134A900078C00708D5029840680021405E4012A3
S1134AA00100C907C90F641802980068002808D0DB
S1134AB0029800680500029829680160306828603F
S1134AC03560022001A9085E002804D401A84088AA
S1134AD0401C01A948807F1CB0E768464088042137
S1134AE04843201869460988441A069800B20128E8
S1134AF005DB059A6349300000F02FF906003068A1
S1134B0000F0EDF8039001A9300000F0FEF8050074
S1134B10002D01D130680500002D09D0210089B293
S1134B2070680022805E00F0FAF904002D68F3E753
S1134B303168039800F0E0F80390002252493000F5
S1134B4000F00BF9060030680500002D09D02100A3
S1134B5089B270680022805E00F0E1F904002D68DB
S1134B60F3E7200080B207B0F0BDF7B588B0142099
S1134B70079008980799FFF7A2F80500AD1E0820D2
S1134B806843099908180590059803900420684320
S1134B90039908180690099F0020386003987860EC
S1134BA07868002141807868384901800998083084
S1134BB009900398001D039004A835494180684674
S1134BC00021C9430182069801900598009003AB27
S1134BD009AA04A9380000F05DF800200400AC42E2
S1134BE024D268460A9909B222004A401107090FE3
S1134BF04181684669464989C90022005207520F1B
S1134C000A43028168460089000269460989014312
S1134C1068460182069801900598009003AB09AAA2
S1134C2004A9380000F036F8641CD8E73868060098
S1134C3001200400306800281AD028000521FFF75D
S1134C403EF8844204D2706821004180641C0DE067
S1134C5021000A9800B24840641C21004907490F0A
S1134C60090208438004800C716848803668E1E7D3
S1134C7000220549380000F070F8070038000BB036
S1134C80F0BD0000A9490000CB4900008080FFFF6F
S1134C90FF7F0000F2B5070016001C0030680830E2
S1134CA00699884201D3002018E02068001D079966
S1134CB0884201D3002011E03068050030680830D4
S1134CC03060386828603D60206868602068001D96
S1134CD0206000996868FFF797FE2800F2BD010084
S1134CE008684B681A0043684B6042600B681B6895
S1134CF00B6000230360704743681A004B684360ED
S1134D004A600B6803600860704700B502228A5E3F
S1134D10002A0BD4002808D0022243689A5E02239A
S1134D20CB5E9A4201D00068F4E709E0002807D07E
S1134D3042681278D2B20B889A4201D00068F5E733
S1134D4000BD00B501000020002905D00B681A0041
S1134D50086008001100F7E700BDF7B586B0012030
S1134D600190069807000020069000200290002081
S1134D700490002F45D00498401C04903D0000206E
S1134D8004000020039003980199884207DA641C08
S1134D902D68002D03D00398401C0390F3E701987D
S1134DA00600012C03DA012E29DB002D27D0002C6C
S1134DB003D100952D68761E15E0002E01D0002D3C
S1134DC003D100973F68641E0DE0089A696878680B
S1134DD0079B9847012803DA00973F68641E02E0A6
S1134DE000952D68761E0298002803D00298009939
S1134DF0016001E00098069000980290D1E72F002E
S1134E00B7E70298002101600498022801DA0698A5
S1134E1004E00198022148430190A2E709B0F0BDE3
S1134E2000B50100012907D01AD303290CD007D3F8
S1134E30052911D00CD313E0434A1268100011E085
S1134E40424A126810000DE0414A1268100009E05D
S1134E50404A1268100005E03F4A1268100001E061
S1134E600022100000BDF0B502000800002100235C
S1134E70002400252900C9B2082923DA1500ED070A
S1134E80ED0F06003700FF07FF0F6F403B00D2B263
S1134E905208DBB2012B05D10500304868400125DA
S1134EA02C0001E000252C0080B24008E4B2002C64
S1134EB004D0050080200002284301E04004400C97
S1134EC0491CD8E780B2F0BD38B505000C002100BC
S1134ED089B22800C0B2FFF7C6FF0400210089B2DE
S1134EE0280080B2000AC0B2FFF7BDFF0400200012
S1134EF080B232BD38B505000C00210089B228000B
S1134F0000B200F00CF80400210089B22800000C63
S1134F1000B200F004F80400200080B232BD38B5BD
S1134F2005000C00210089B2280080B2FFF7CCFFF5
S1134F3032BD10B50024E4B2002C02D0084800F0C1
S1134F402FF82000C0B210BD88F4FF1F8CF4FF1F9F
S1134F5034F4FF1F38F4FF1F90F4FF1F02400000D9
S1134F60146F0000704770470020704710B50400AC
S1134F70200000F035FC0022074B00F041FC10BD7E
S1134F8001230370704710B50400044800F008F8CA
S1134F900020207010BD00000000F03FC878000021
S1134FA00EB40100002003B070470000F2B584B0D5
S1134FB00500140028680390E86802906F68AE68E2
S1134FC06846049909B28180019800B200903300C8
S1134FD03A000299039800F00AF8210089B200B25D
S1134FE0FFF79DFF0400200080B205B0F0BDF8B5C6
S1134FF082B005000E00170000246846089909B223
S11350002E4A0A430280089A12B23900280000F09E
S11350100BF9089B1BB23A003100280000F0E6F8B7
S1135020009A12B23100280000F0B3F8210089B2CE
S113503000B2FFF774FF0400029B3A00310028001D
S113504000F00DF9009A12B23100280000F0A1F826
S1135050210089B200B2FFF762FF0400029B3A000C
S11350603100280000F020F9009A12B23100280023
S113507000F08FF8210089B200B2FFF750FF04005E
S1135080029B3A003100280000F04AF9009A12B25B
S11350903100280000F07DF8210089B200B2FFF74A
S11350A03EFF0400089800B2424212B239002800C0
S11350B000F0BAF8200000B2FEBD000000F0FFFFCF
S11350C0FBB583B0110000200090012400260027C6
S11350D0002901D1012001000398874206D2761CE1
S11350E030007043082250430700F5E7701E00901B
S11350F00498401E03229043001D02900098009AD9
S1135100504302225043029A1018019000200600D6
S11351100098864224D200200700009887421DD2BE
S11351206143080080214902FEF7C6FD0800220001
S11351308018050000987043C01902225043019A58
S1135140155220002D18EDB200987043C0190222A8
S11351505043029A1552641C7F1CDEE7761CD7E785
S11351600598029A42600598019A82600098009A14
S1135170504302225043019A1018401E03229043C8
S1135180001D059AD0600598009A0260009806B048
S1135190F0BDF7B5002500210022002000263300D1
S11351A0009EB34220D200263400009EB44219D29D
S11351B0009E5E43361904277E43019FBE59320088
S11351C0AD18029E36B2AE4203DA0A30002635002C
S11351D005E0914201DA012600E000268019110061
S11351E0641CE2E75B1CDBE700B2FEBDF0B5002601
S11351F03400844217D200263500854211D226009D
S11352004643771904267743BC462600464377195C
S113521002267743D65F1BB25E436746CE516D1CB0
S1135220EBE7641CE5E7F0BDF0B500252C008442F3
S113523014D200252B0083420ED225004543ED18DD
S11352400226754326004643F61802277E438E5BEA
S1135250B6184E535B1CEEE7641CE8E7F0BDF4B5EA
S113526002000020040094421DD204206043002662
S11352700E5000200500954213D2042060430858C4
S113528026005643761902277E43009FBE5F0227FD
S11352906F43DF5F7E4380190426664388516D1C8B
S11352A0E9E7641CDFE7F1BDFEB50200002003005E
S11352B0934234D20020040094422ED2180050436A
S11352C000190426704300260E5000200500954264
S11352D021D218005043001904267043009018008E
S11352E0504300190426704308588446180050435C
S11352F0401902267043019E365E2800504300196F
S113530002277843029F385E464360468619009818
S11353100E506D1CDBE7641CCEE75B1CC8E7F7BDD1
S1135320FCB502000020030093423AD2002004009E
S1135330944234D2180050430019042670430026C6
S11353400E5000200500954227D218005043401902
S113535002267043009E365E28005043001902273F
S11353607843019F385E46431800504300190427D0
S11353707843844618005043071904204743CF5903
S1135380300080100007000F76117606760E704309
S11353903E1860460E506D1CD5E7641CC8E75B1CC4
S11353A0C2E7F3BDFDB592B00E001A9F1B9C009698
S11353B000200500082D0AD200200421694301AA17
S11353C050500421694309AA50506D1CF2E700981B
S11353D0007800280FD001A9684600F0F0F8C0B2A8
S11353E00421414309AA5158491CC0B20422504324
S11353F009AA1150EBE70096009812997118884297
S11354000FD2009800782C2806D0009800781399C1
S113541009B24140009801703FB20098C019009051
S1135420EAE700960098007800280FD001A96846A2
S113543000F0C5F8C0B20421414309AA5158491CDF
S1135440C0B20422504309AA1150EBE70096009819
S11354501299711888420FD2009800782C2806D02F
S113546000980078149909B24140009801703FB245
S11354700098C0190090EAE700200500082D13D217
S1135480210089B20420684309AA1058FFF732FDAD
S11354900400210089B20420684301AA1058FFF7D0
S11354A029FD04006D1CE9E7200080B215B0F0BDB1
S11354B0F4B50200002600230024521E002003003D
S11354C0F018401C904258D2002B10D00020050048
S11354D09D4205D200988019675D47556D1CF7E71A
S11354E0009880192C2747551800401C3618491C71
S11354F009B24807400FC0B20028022808D9C01ECC
S1135500012812D9801E01281CD9801E27D033E01F
S113551009B20800C0108007800F042778431B4F8E
S11355203858040004200300CAE709B20800C01078
S11355308007800F04277843154F3858040008204B
S11355400300BDE709B20800C0108007800F0427DC
S11355507843104F3858040008200300B0E709B21C
S11355600800C0108007800F042778430A4F38587A
S1135570040008200300A3E7A2E7521C964204D2C9
S1135580009800278755761CF8E7F1BD40F4FF1F0B
S113559050F4FF1F60F4FF1F70F4FF1F00B50100FB
S11355A0C9B2302901DB012200E00022C9B23A2944
S11355B001DA012000E000201040C0B200BDF1B5C6
S11355C00C000098076800263878002800D1B8E05D
S11355D0F6B2012E00D1B4E038780500EDB22C2DDE
S11355E001D17F1CADE0F6B2300000280ED00228B5
S11355F02DD0032873D0042844D0052857D006287A
S113560000D17EE0072800D18DE098E02800C0B2E8
S1135610FFF7C4FF002802D00420060013E0EDB217
S11356202B2D02D0EDB22D2D02D1022006000AE06E
S1135630EDB22E2D02D10520060004E00120060063
S11356406068401C60602068401C206077E028008F
S1135650C0B2FFF7A3FF002805D004200600A0680D
S1135660401CA0600DE0EDB22E2D05D105200600F2
S1135670A068401CA06004E001200600A068401C53
S1135680A0605CE0EDB22E2D05D105200600206956
S1135690401C20610AE02800C0B2FFF77FFF002809
S11356A004D1012006002069401C206147E0EDB2CE
S11356B0452D02D0EDB2652D05D1032006006069A9
S11356C0401C60610AE02800C0B2FFF767FF0028B1
S11356D004D1012006006069401C60612FE0EDB236
S11356E02B2D02D0EDB22D2D05D106200600E06849
S11356F0401CE06004E001200600E068401CE0601B
S11357001DE02800C0B2FFF749FF002805D007209C
S11357100600A069401CA06104E001200600A06905
S1135720401CA0610BE02800C0B2FFF737FF00283F
S113573004D1012006006068401C6060FFE77F1C04
S113574042E7009807603000C0B2F2BD30B40124D3
S113575064054D00EC420BD85D00EC4208D80C0007
S11357601C4364000443144304D2994200D1904280
S113577030BC7047FCD08B42FAD18242F8E700007B
S11357804A1812D2400DC90208430121C90708432F
S1135790520D40210901521A521C06D452421F32A2
S11357A001D4D0407047C01770470020704730B410
S11357B0012464054D00EC420BD85D00EC4208D88E
S11357C00C001C4364000443144304D28B4200D1F4
S11357D0824230BC7047FCD09942FAD19042F8E73B
S11357E0010000BF42221201D21E004207D002D49F
S11357F0521E0018FCD5C10A4005120589187047CD
S1135800F0B40E005E400125ED072E40B446AE0A0A
S1135810DF184C18F4423BD2F74241D2640D43D016
S11358207F0D38D0E41BC902DB0229432B43CF0A86
S1135830DB0A0600B61A9F4104D2641EB6197F41E2
S1135840B6185F416812800D24180018844222DAC9
S1135850E80C0021B6197F41B61A9F4102D2B6184E
S11358605F413F1C40414941F4D3241C21DD240500
S1135870B6197F41B61A9F4105D33743C60737434C
S11358800026012F7041614166463143F0BC7047E8
S1135890FCD1F74205D20020C14349054908F3E78A
S11358A004D00020C143F1E77F0DFAD00020614607
S11358B0ECE72442FAD1401C61410F03F6D30020E7
S11358C0E2E7000080B57E480021016000F0C6F9DF
S11358D000F022FA7B48FCF7ABFC00F0B3FA00F0CE
S11358E003F8FAF7C1FDFEE710B577480068000F2A
S11358F04007400F002806D002280CD007D3042804
S113590011D00CD313E07148FCF792FC12E07048FC
S1135910FCF78EFC0EE06F48FCF78AFC0AE06E4848
S1135920FCF786FC06E06D48FCF782FC02E06C485C
S1135930FCF77EFC64480068000E4007400F042812
S113594002D0052804D007E066A0FCF771FC06E04D
S113595065A0FCF76DFC02E06448FCF769FC5A485A
S113596000680007000F00280CD001280ED0022880
S113597010D0042812D0052814D0062815D00828E1
S113598016D019E05A48FCF753FC18E05948FCF7C4
S11359904FFC14E08748FCF74BFC10E08648FCF70A
S11359A047FC0CE08548FCF743FC8548FCF740FCC9
S11359B08448FCF73DFC02E08348FCF739FC42488C
S11359C00068000D4007400F012803D17F48FCF711
S11359D02FFC02E07E48FCF72BFC3B480068000CDF
S11359E04007400F00280BD0022811D00CD3042804
S11359F016D011D306281BD016D307281CD01FE0BD
S1135A007448FCF715FC1EE07348FCF711FC1AE01F
S1135A107248FCF70DFC16E07148FCF709FC12E033
S1135A207048FCF705FC0EE06F48FCF701FC0AE047
S1135A306E48FCF7FDFB06E06D48FCF7F9FB02E05D
S1135A406C48FCF7F5FB0F200400A4B221006A485F
S1135A50FCF7EEFB00F050F868480068000E000701
S1135A60000F00280CD001280ED0032810D00528E0
S1135A7012D0072814D0092816D00F2818D01BE0FC
S1135A805F48FCF7D5FB1AE05E48FCF7D1FB16E053
S1135A905D48FCF7CDFB12E05C48FCF7C9FB0EE067
S1135AA05B48FCF7C5FB0AE05A48FCF7C1FB06E07B
S1135AB05748FCF7BDFB02E05748FCF7B9FB10BDA3
S1135AC00081044024850000248004402C850000CB
S1135AD0348500003C850000448500004C850000AE
S1135AE02C78000034000000350000001876000017
S1135AF090830000A083000080B548480321017012
S1135B0047480021017047480021017046480021A0
S1135B1001704648012101704548802101704448C4
S1135B2000780006FBD543480178C9B24248FCF727
S1135B307FFB42480178C9B24148FCF779FB4148F0
S1135B400178C9B23E48FCF773FB3F480178C9B2FB
S1135B503E48FCF76DFB31480321017030480021B9
S1135B6001703048002101702F48042101702F4832
S1135B70012101702E48802101702D480078000613
S1135B80FBD52C480178C9B23148FCF751FB2B48AE
S1135B900178C9B22FA0FCF74BFB2A480178C9B29F
S1135BA02748FCF745FB28480178C9B22A48FCF786
S1135BB03FFB01BDB0840000BC840000C884000029
S1135BC0D4840000B08300004476000054780000C0
S1135BD07076000098820000AC820000C082000051
S1135BE0D4820000E8820000FC82000010830000E0
S1135BF024830000507F0000388300004C80044060
S1135C00746D0000B06D0000EC6D0000286E0000A3
S1135C10646E0000A06E0000007D000007000240DA
S1135C200600024005000240040002400F0002404A
S1135C30000002400B0002406C7F00000A0002409A
S1135C405485000009000240080002405C85000001
S1135C50508100002025640064850000F0B583B005
S1135C602348244988420FD00020040082204000A9
S1135C70844209D2042060431D49042262431D4B1F
S1135C809A580A50641CF1E71948FEF77FF81A483D
S1135C9007001A4805001A4801900198401B0400A7
S1135CA02000441E002804D0287838706D1C7F1C06
S1135CB0F6E714480600144800900098801B04007E
S1135CC02000441E002803D000203070761CF7E723
S1135CD00E480F490F4A531A1C0023005C1E002B68
S1135CE004D00B780370491C401CF6E7F7BD00BFD5
S1135CF000F0FF1F0000000010F4FF1FFC5F000015
S1135D007460000088F4FF1FA8F4FF1FA8F4FF1FAD
S1135D10100400001004000000B583B03B48006884
S1135D20F8218901014339480160394800780007A6
S1135D3005D53748007808210143354801703548B6
S1135D408021490201600120019018200090042361
S1135D50012200213048FCF783FA304908602F48BB
S1135D600068FF2800DCFEE72D4800688021490216
S1135D7001432B480160294800680221FDF79CFF7C
S1135D80FA218900FDF798FF264908602348006836
S1135D90FA218900FDF790FF234908602248006832
S1135DA01C490968090F491CFDF789FF1F49086050
S1135DB01E48006817490968090C4907490F491C1E
S1135DC0FDF77DFF1A49086000F010F81948C0215A
S1135DD0890001601848C02189000160962252019F
S1135DE0134801681548FBF757FF07BD80B51448F1
S1135DF0FF21091D01601248006890210903014335
S1135E000F4801601E20FDF7C4FF01BD3880044027
S1135E1002D007404480044000127A0094F4FF1F2B
S1135E2004800440A4F4FF1F98F4FF1F9CF4FF1F98
S1135E30A0F4FF1F40D0044044D0044000C00640FA
S1135E401090044080B557480078800602D5564823
S1135E50FCF7EEF953480078000702D55348FCF7E5
S1135E60E7F950480078400702D55148FCF7E0F9BB
S1135E704C480078800702D54E48FCF7D9F94E48C3
S1135E800078000602D54D48FCF7D2F94A4800785C
S1135E90400602D54A48FCF7CBF94748007880060B
S1135EA002D54848FCF7C4F943480078400702D5B6
S1135EB04548FCF7BDF940480078000702D543483F
S1135EC0FCF7B6F93C480078800702D54048FCF757
S1135ED0AFF939480078C0074DD53E48FCF7A8F91A
S1135EE03D480078C0B24007400F032802D13B4828
S1135EF0FCF79EF938480078C0B24007400F0428E8
S1135F0006D137480078400702D13648FCF790F9AB
S1135F1031480078C0B24007400F042809D1304806
S1135F200078C0B24007400F012802D12E48FCF788
S1135F307FF929480078C0B24007400F042809D1EE
S1135F4027480078C0B24007400F022802D12748F2
S1135F50FCF76EF920480078C0B24007400F0428CF
S1135F6009D11F480078C0B24007400F032802D16E
S1135F701F48FCF75DF910480078C0B2002810D122
S1135F8008480078C0B200280BD10B480178C9B288
S1135F901848FCF74DF903480178C9B21648FCF7D4
S1135FA047F901BD01F007402C7B0000808300000D
S1135FB070820000FC7E000000F007408482000034
S1135FC02081000038810000E07C0000187F000080
S1135FD0347F00005874000001E00740748400001E
