S0160000706C6174696E756D5F746F7765722E7372656314
S1130000F85F002011040000AF140000A1140000E8
S1130010A1140000A1140000A1140000A114000008
S1130020A1140000A1140000A1140000A1140000F8
S1130030A1140000A1140000A1140000A1140000E8
S1130040A1140000A1140000A1140000A1140000D8
S1130050A1140000A1140000A1140000A1140000C8
S1130060A1140000A1140000A1140000A1140000B8
S1130070A1140000A1140000A1140000A1140000A8
S1130080A1140000A1140000A1140000A114000098
S1130090A1140000A1140000A1140000A114000088
S11300A0A1140000A1140000A1140000A114000078
S11300B0A1140000A1140000CB140000A11400003E
S11300C0FFFFFFFFFFFFFFFFFFFFFFFFFFFFFFFF3C
S11300D0FFFFFFFFFFFFFFFFFFFFFFFFFFFFFFFF2C
S11300E0FFFFFFFFFFFFFFFFFFFFFFFFFFFFFFFF1C
S11300F0FFFFFFFFFFFFFFFFFFFFFFFFFFFFFFFF0C
S1130400FFFFFFFFFFFFFFFFFFFFFFFFFEFFFFFFF9
S113041000200021002200230024002500260027BC
S113042062B600F0AFFAFEE710B50C0011680129BE
S113043002D0022904D009E0C0B25168884705E01F
S1130440916808709068401C9060FFE72068401C29
S1130450206010BDF0B51C000026050000202870A7
S11304606D1C002A1CD00F68002F09D13020287081
S1130470761C3000F0BD30320F002A706D1C761CE3
S1130480002FF6D03800210000F02CFA01000800FB
S113049060433A1A002AEED5D04302003132EBE72A
S11304A00F68002F08D130202870761CE1E737311F
S11304B0070029706D1C761C002FDAD0380021004B
S11304C000F024FA01006143791A0A29EFD230318D
S11304D0EEE7F8B50F0015001E00040005E0320039
S11304E029003020FFF7A0FF641CBC42F7DBF1BDFC
S11304F0F8B50F0015001E00040005E032002900C5
S11305002020FFF791FF641CBC42F7DBF1BDF1B57D
S113051090B01700002000900E0005E0109A694684
S11305201800FFF781FF761C3378002B00D1C4E15B
S1130530252B12D00A2B05D0109A69461800FFF714
S113054073FF09E0109A69460D20FFF76DFF109ABA
S113055069460A20FFF768FFE5E70025002102E06D
S113056028000125054300291FD1761C3078202856
S11305700CD0232812D02B2804D02D28F0D03028DA
S113058008D00FE0280002250543ECE728000425E5
S11305900543E8E7280008250543E4E7280010257B
S11305A00543E0E7761E0121DDE7002002900021EB
S11305B005E002980A225043C018303802900029FE
S11305C008D1761C3378180030380928F1D9761E02
S11305D00121F4E7761C30782E280BD10021FFE7A7
S11305E0002908D1761C307830380928F8D9761ECD
S11305F00121F5E7761E761C30784C2806D0682851
S113060002D06C2801D002E002E001E000E0761E96
S1130610761C33781800582871D0622800D1CAE0BB
S1130620632800D113E1642813D0692811D06E28FF
S113063000D13DE16F2800D1B2E0702800D1C5E0BF
S1130640732800D10BE1752800D1CAE0782856D070
S113065064E7386806903F1D0A23012206A907A80B
S1130660FFF7F8FE040007A8001905900698002873
S113067003D52D200190641C0DE0A80703D52B2081
S11306800190641C07E0680703D520200190641CD6
S113069001E00020019000200490280711D5019862
S11306A0002804D0109A69460198FFF7BDFE012086
S11306B00490109B6A4602992000FFF70AFF029CEF
S11306C011E0E8070FD4109B6A4602992000FFF757
S11306D00FFF0198002804D0109A69460198FFF78B
S11306E0A3FE012004900498002807D10198002853
S11306F004D0109A69460198FFF796FE9AE038688C
S113070003903F1D1023002203A907A8FFF7A2FEB0
S1130710040007A80019059000200490280715D5A7
S1130720E8060BD5109A69463020FFF77DFE109A33
S113073069467820FFF778FE01200490109B6A46F2
S113074002992000FFF7C5FE029C18E0E80716D4C2
S1130750E80600D5A41C109B6A4602992000FFF706
S1130760C7FEE8060BD5109A69463020FFF75CFEF9
S1130770109A69467820FFF757FE01200490E80696
S11307800DD5049800280AD1109A69463020FFF745
S11307904BFE109A69467820FFF746FEA41C49E0F8
S11307A0386803903F1D0823002203A907A8FFF718
S11307B051FE04001FE0386803903F1D022300220D
S11307C003A907A8FFF746FE040014E03868039065
S11307D03F1D1023002203A907A8FFF73BFE0400D6
S11307E009E0386803903F1D0A23002203A907A8E3
S11307F0FFF730FE040007A800190590280707D565
S1130800109B6A4602992000FFF763FE029C11E0E8
S1130810E8070FD4109B6A4602992000FFF768FE90
S113082008E0109A694605980078FFF7FDFD0598E1
S1130830401E0590059800780028F2D1E80705D5F8
S1130840109B6A4602992000FFF752FE6BE6386857
S1130850C0B23F1D109A6946FFF7E6FD63E63868AB
S113086001903F1D0198002821D0019800F065F8FF
S11308700400E8070FD4109B6A4602992000FFF792
S113088037FE08E0109A694601980078FFF7CCFD1E
S11308900198401C0190019800780028F2D1E807E3
S11308A005D5109B6A4602992000FFF721FE3AE61F
S11308B038683F1D0099016035E6009811B0F0BD1D
S11308C00EB400B584B0012100910549019105AA37
S11308D001006846FFF71BFE049908B008470000B2
S11308E08F140000CA0F00D0494203105A400DD0A3
S11308F004B500D3404200F009F8009AD20701D3AE
S11309004942124200D5404204BD0000094210D0C1
S113091088420BD30122002300185B418B4200D391
S11309205B1A5241F8D319001000704701000020EF
S1130930704708B500F010F808BD00B501000020AC
S1130940002902D1002006E0401C0A001100491CC5
S11309501278002AF8D100BD704738B40121002272
S11309600368001D002B0BD00468001D0C4202D04C
S11309704D466D1E64192260241D1B1FF0D0FAE73A
S113098032BC70477D480021016000F0C5F900F0D9
S113099015FA7B48FFF794FF00F0A6FA00F003F87D
S11309A000F07EFBFEE780B576480068000F400744
S11309B0400F002806D002280CD007D3042811D0F9
S11309C00CD313E07048FFF77BFF12E06F48FFF78A
S11309D077FF0EE06E48FFF773FF0AE06D48FFF7FC
S11309E06FFF06E06C48FFF76BFF02E06B48FFF710
S11309F067FF64480068000E4007400F042802D0D7
S1130A00052804D007E066A0FFF75AFF06E065A0BA
S1130A10FFF756FF02E06448FFF752FF59480068A9
S1130A200007000F00280CD001280ED0022810D097
S1130A30042812D0052814D0062815D0082816D06A
S1130A4019E05A48FFF73CFF18E05948FFF738FF10
S1130A5014E08748FFF734FF10E08648FFF730FFC3
S1130A600CE08548FFF72CFF8448FFF729FF8448F2
S1130A70FFF726FF02E08348FFF722FF41480068A2
S1130A80000D4007400F012803D17F48FFF718FFEE
S1130A9002E07E48FFF714FF3A480068000C400764
S1130AA0400F00280BD0022811D00CD3042816D0F4
S1130AB011D306281BD016D307281CD01FE0744876
S1130AC0FFF7FEFE1EE07348FFF7FAFE1AE07248D5
S1130AD0FFF7F6FE16E07148FFF7F2FE12E07048E9
S1130AE0FFF7EEFE0EE06F48FFF7EAFE0AE06E48FD
S1130AF0FFF7E6FE06E06D48FFF7E2FE02E06C4811
S1130B00FFF7DEFE0F2189B26A48FFF7D9FE00F035
S1130B1051F869480068000E0007000F00280CD047
S1130B2001280ED0032810D0052812D0072814D08D
S1130B30092816D00F2818D01BE06048FFF7C0FE24
S1130B401AE05F48FFF7BCFE16E05E48FFF7B8FE08
S1130B5012E05D48FFF7B4FE0EE05C48FFF7B0FE1C
S1130B600AE05B48FFF7ACFE06E05848FFF7A8FE32
S1130B7002E05848FFF7A4FE01BD000000810440D4
S1130B80AC1B000024800440B41B0000BC1B00000C
S1130B90C41B0000CC1B0000D41B0000CC170000B9
S1130BA03400000035000000F8160000041B0000AB
S1130BB0141B000080B548480321017047480021F8
S1130BC001704748002101704648002101704648E1
S1130BD001210170454880210170444800780006D5
S1130BE0FBD543480178C9B24248FFF769FE424841
S1130BF00178C9B24148FFF763FE41480178C9B2A0
S1130C003E48FFF75DFE3F480178C9B23E48FFF712
S1130C1057FE3148032101703048002101703048EB
S1130C20002101702F48042101702F480121017017
S1130C302E48802101702D4800780006FBD52C48F1
S1130C400178C9B23148FFF73BFE2B480178C9B29D
S1130C502FA0FFF735FE2A480178C9B22748FFF7CD
S1130C602FFE28480178C9B22A48FFF729FE01BDA2
S1130C70701B00007C1B0000881B0000941B0000FC
S1130C80241B000024170000F41700005017000074
S1130C90401A0000541A0000681A00007C1A000070
S1130CA0901A0000A41A0000B81A0000CC1A000020
S1130CB054190000E01A00004C800440F8140000AD
S1130CC03415000070150000AC150000E815000094
S1130CD024160000E018000007000240060002404D
S1130CE005000240040002400F00024000000240E0
S1130CF00B000240701900000A000240DC1B0000D7
S1130D000900024008000240E41B0000BC19000076
S1130D1020256400EC1B000010B51E481E498842C3
S1130D200ED0002008E0042141431A4A042343431F
S1130D30194CE3585350401C822149008842F2D395
S1130D40144800F0B9F91549154A1648801A03E009
S1130D5013780B70521C491C0300581E002BF7D14A
S1130D6011491248401A02E000220A70491C02008C
S1130D70501E002AF8D10E490E4A0F48801A03E08B
S1130D8013780B70521C491C0300581E002BF7D11A
S1130D9010BD00BF00E0FF1F0000000000000000C5
S1130DA0000000000000000010E4FF1F24E4FF1F07
S1130DB024E4FF1F000000000000000000B583B021
S1130DC03B480068F82189010143394801603948EA
S1130DD00078000705D537480078082101433548D5
S1130DE001703548802149020160012001901820DA
S1130DF00090042301220021304800F087F9304993
S1130E0008602F480068FF2800DCFEE72D480068D2
S1130E108021490201432B480160294800680221CE
S1130E20FFF760FDFA218900FFF75CFD26490860A1
S1130E3023480068FA218900FFF754FD234908601C
S1130E40224800681C490968090F491CFFF75EFD28
S1130E501F4908601E48006817490968090C4907BA
S1130E60490F491CFFF752FD1A49086000F010F8B9
S1130E701948C021890001601848C0218900016017
S1130E80E122520213480168154800F0B7FA07BD81
S1130E9080B51448FF21091D0160124800689021A3
S1130EA0090301430F4801601E2000F008F901BD49
S1130EB03880044002D007404480044000127A0085
S1130EC010E4FF1F0480044020E4FF1F14E4FF1F0C
S1130ED018E4FF1F1CE4FF1F40D0044044D004402A
S1130EE000C006401090044080B557480078800642
S1130EF002D55648FFF7E4FC53480078000702D5B2
S1130F005348FFF7DDFC50480078400702D55148AC
S1130F10FFF7D6FC4C480078800702D54E48FFF70F
S1130F20CFFC4E480078000602D54D48FFF7C8FCB8
S1130F304A480078400602D54A48FFF7C1FC4748B2
S1130F400078800602D54848FFF7BAFC4348007889
S1130F50400702D54548FFF7B3FC40480078000736
S1130F6002D54348FFF7ACFC3C480078800702D523
S1130F704048FFF7A5FC39480078C0074DD53E48E6
S1130F80FFF79EFC3D480078C0B24007400F03289D
S1130F9002D13B48FFF794FC38480078C0B24007C0
S1130FA0400F042806D137480078400702D136485C
S1130FB0FFF786FC31480078C0B24007400F042890
S1130FC009D130480078C0B24007400F012802D14F
S1130FD02E48FFF775FC29480078C0B24007400F3F
S1130FE0042809D127480078C0B24007400F0228DE
S1130FF002D12748FFF764FC20480078C0B24007BC
S1131000400F042809D11F480078C0B24007400FA0
S1131010032802D11F48FFF753FC10480078C0B2E0
S1131020002810D108480078C0B200280BD10B4822
S11310300178C9B21848FFF743FC03480178C9B2E4
S11310401648FFF73DFC01BD01F007406818000099
S1131050F41A0000181A00000019000000F00740FC
S11310602C1A00008C190000A4190000C0180000FC
S11310701C190000381900009816000001E0074010
S1131080341B000002E00740401B00004C1B000022
S1131090581B0000641B00007C170000A41700000C
S11310A00448FFF70DFC00F0EDF9C0B200F0EFF9D1
S11310B0F9E700BF4418000010490860704770B594
S11310C00400212C03DB0E48FFF7FAFB15E00D4862
S11310D00568012620002021FFF704FC8E402E43E2
S11310E00848066008480568012620002021FFF70B
S11310F0F9FB8E402E430448066070BD08ED00E005
S11311006016000080E200E000E100E0F4B50400B5
S11311100D001E00A6480078C0B280088007800F2A
S1131120002807D1A2480078C00603D5A04800785B
S1131130800601D5012039E19E48844201DB21204B
S113114034E168460078002806D09B48201A9B4961
S1131150884201D3222029E1EDB2012D00D30125DB
S11311603000401EC0B2192801D341201EE1694657
S113117018200F5638001838C0B21B2801D342205B
S113118014E1200076B23100FFF7ACFB8C49401A21
S11311908C49884201D3432008E1200076B2310013
S11311A0FFF7A0FB7FB278438749401A87498842FA
S11311B001D34520FAE0864800780100C3200840A6
S11311C084498C420ADA0100EDB2E8006A461278DA
S11311D09200024310201043084309E00100EDB2DD
S11311E0E8006A4612789200024320201043084324
S11311F0774908707848844201DA002114E077487E
S1131200844201DA01210FE07548844201DA0221A7
S11312100AE07448844201DA032105E072488442FA
S113122001DA042100E00521704800788007800F6E
S11312300200C800382101408020084310436B4954
S1131240087068460078002810D0002000E0401C98
S1131250674900B2884203DA554909788907F6D507
S113126053480078800701D423209FE0002000E049
S1131270401CFA21C90000B2884203DA4C490978BB
S1131280C906F5D44A480078C00601D511208DE07E
S1131290002000E0401CFA21C90000B2884207DAAD
S11312A043490978C9B289088907890F0229F1D10C
S11312B03F480078C0B280088007800F022801D020
S11312C01A2073E04B4800782021014349480170FB
S11312D0494800780100E02008400100701EC00663
S11312E0C00E084344490870424800780100E020D9
S11312F008400200183FF906C90E40200843104375
S11313003C490870002000E0401CFA21C90000B2EA
S1131310884203DA264909788906F5D524480078F5
S1131320800601D4162041E0002000E0401CFA2190
S1131330090100B2884203DA1D4909784906F5D546
S11313401B480078400601D444202FE02A48007846
S1131350C106C90E491C27480078C506ED0E18358C
S1131360224800788006800E204A1070002000E099
S1131370401CFA22D20000B2904207DA0C4A1278DA
S1131380D2B292089207920F032AF1D1084800784A
S1131390C0B280088007800F032801D01B2005E01D
S11313A02000C9B2FFF79EFAEDB26843F2BD000017
S11313B00640064081F0FA02C0C62D004181BA0100
S11313C080841E0081841E00006CDC0201751903F8
S11313D00140064001127A00D1121300A125260013
S11313E0414B4C0081969800012D3101004006408C
S11313F0204E0000054006400440064010B504009D
S1131400080011001D4A944207D11D4A1268802326
S11314101B0113431A4A136006E0194A1268802319
S11314205B011343164A1360E278F3231340E3701D
S11314300022A270FA229200504310225143FFF777
S113144051FA2278E0211140020092B2120AD20627
S1131450D20E0A4322706070E0780C210143E170DF
S113146010BD00B501798906FCD5C07900BD00B571
S113147002791206FCD5C17100BD000000B006401F
S11314803480044080B50548FFF7EBFF02BD80B50A
S11314900100C9B20148FFF7EAFF01BD00C00640E0
S11314A080B5104801681048FFF70AFA01BD0D48DD
S11314B000680E490968F82292010A430B490A6040
S11314C00B49FF22121D0A60704780B50848006866
S11314D0802149040143064801600648FFF7F0F9FA
S11314E001BD000004ED00E0C8160000388004408F
S11314F0109004408C180000466C61736820736976
S11315007A653A202038204B422070726F677261EE
S11315106D20666C6173682C20302E3235204B426E
S11315202070726F74656374696F6E207265676989
S11315306F6E0000466C6173682073697A653A20A7
S1131540203136204B422070726F6772616D2066C5
S11315506C6173682C20302E35204B422070726FE2
S113156074656374696F6E20726567696F6E0900D4
S1131570466C6173682073697A653A20203332209F
S11315804B422070726F6772616D20666C61736884
S11315902C2031204B422070726F74656374696F24
S11315A06E20726567696F6E09000000466C617396
S11315B0682073697A653A20203634204B422070C3
S11315C0726F6772616D20666C6173682C203220C3
S11315D04B422070726F74656374696F6E2072651C
S11315E067696F6E09000000466C61736820736957
S11315F07A653A2020313238204B422070726F676E
S113160072616D20666C6173682C2034204B42201B
S113161070726F74656374696F6E20726567696F49
S11316206E090000466C6173682073697A653A201C
S113163020323536204B422070726F6772616D2004
S1131640666C6173682C2034204B422070726F7476
S1131650656374696F6E20726567696F6E09000057
S11316600A4552522120496E76616C6964204952C0
S1131670512076616C7565207061737365642074A4
S11316806F20656E61626C65206972712066756E8B
S11316906374696F6E210A000A0D5B6F757453528F
S11316A0535D57616B65757020626974207365744E
S11316B02066726F6D206C6F7720706F7765722073
S11316C06D6F6465200000000A2A2A2A2A64656670
S11316D061756C745F69737220656E74657265649C
S11316E0206F6E20766563746F722025642A2A2A1F
S11316F02A2A0D0A0A0000000A0D556E7265636FEE
S1131700676E697A6564204B696E657469732073CA
S113171075622D66616D696C7920646576696365AF
S11317202E0A0D000A0D556E7265636F676E697A35
S11317306564204B696E65746973207061636B61C5
S1131740676520636F64652E202020202020000020
S11317500A0D556E7265636F676E697A6564204B16
S1131760696E657469732066616D696C7920617452
S1131770747269627574652E0A0D00005B6F75746E
S11317805352535D52434D5F53525330206973207B
S11317905A45524F2020203D202523303258200D19
S11317A00A0D00005B6F75745352535D52434D5FD5
S11317B053525331206973205A45524F2020203D03
S11317C0202523303258200D0A0D00000A0D556ED5
S11317D07265636F676E697A6564204B696E6574C0
S11317E069732066616D696C7920646576696365E7
S11317F02E0A0D000A0D4C6F7720506F776572200A
S11318004C696E65207769746820436F72746578DB
S1131810204D302B0A0D0A0D0000000010B50749B9
S113182079441831064C7C44163404E0081D0A68D7
S1131830891888470100A142F8D110BD7400000046
S1131840800000000A0D52756E6E696E6720746820
S11318506520706C6174696E756D2070726F6A6555
S113186063742E0A0D0000000A0D53746F70204D2E
S11318706F64652041636B6E6F776C656467652088
S11318804572726F72205265736574000A2A2A2A9F
S11318902A41626F727420627574746F6E20696E6F
S11318A0746572727570742A2A2A2A0A0A00000062
S11318B0ABF0FFFF1400000010E4FF1F0000000065
S11318C00A0D4C6F7373206F662045787465726ED1
S11318D0616C20436C6F636B205265736574000008
S11318E0455252212120556E646566696E656420F7
S11318F0666C6173682073697A650A0D00000000E4
S11319000A0D436F7265204C6F636B7570204576CA
S1131910656E742052657365740000000A0D4C6F87
S11319207373206F66204C6F636B20696E20504C7C
S11319304C205265736574000A0D4C6F772D766FD9
S11319406C746167652044657465637420526573C3
S1131950657400000A0D556E7265636F676E697A6F
S11319606564205352414D2053697A652E0A0D0057
S1131970466C61736820706172616D657465722074
S113198076657273696F6E20256420000A0D4578B0
S11319907465726E616C2050696E20526573657453
S11319A0000000000A0D5761746368646F67284380
S11319B04F5029205265736574000000466C6173B2
S11319C0682076657273696F6E204944202564200F
S11319D00000000000F009F8002801D0FFF71EFF06
S11319E00020FFF75DFB00F002F80120704780B58E
S11319F000F002F801BD00000746384600F002F886
S1131A00FBE70000C046C046024A11001820ABBEE6
S1131A10FBE700BF260002000A0D536F667477616E
S1131A207265205265736574000000000A0D506FE2
S1131A307765722D6F6E2052657365740000000027
S1131A405352414D2053697A653A20302E35204B4C
S1131A50420A0D005352414D2053697A653A2020C1
S1131A6031204B420A0D00005352414D2053697AF4
S1131A70653A202032204B420A0D00005352414D5A
S1131A802053697A653A202034204B420A0D000025
S1131A905352414D2053697A653A202038204B42F5
S1131AA00A0D00005352414D2053697A653A2020B3
S1131AB03136204B420A0D005352414D2053697A6E
S1131AC0653A20203332204B420A0D005352414DD7
S1131AD02053697A653A20203634204B420A0D009F
S1131AE053696C69636F6E207265762025640A0DF4
S1131AF0200000000A0D4D444D2D415020526573C5
S1131B0065740000313670696E202020202020206A
S1131B1000000000323470696E2020202020202034
S1131B200000000031303070696E20202020202019
S1131B30000000004C4C53206578697420000000BC
S1131B40564C4C533020657869742000564C4C53E5
S1131B503120657869742000564C4C5332206578E6
S1131B6069740000564C4C53332065786974200026
S1131B70333270696E2020202020200034387069B0
S1131B806E20202020202000363470696E20202012
S1131B9020202000383070696E2020202020200072
S1131BA0C046C046C046C046FFF714FF0A0D0A0DE2
S1131BB0000000000A0D4B4C300000000A0D4B4C95
S1131BC0310000000A0D4B4C320000000A0D4B4C52
S1131BD0330000000A0D4B4C340000002025642023
S1131BE0000000002025640A0D00000025640A0D91
S1071BF000000000ED
S9031BA140
