S01A00005457524B4C34365F44656D6F5F746F7765722E7372656398
S1130000F85F0020110400004F3A0000413A00005C
S1130010413A0000413A0000413A0000413A0000F0
S1130020413A0000413A0000413A0000413A0000E0
S1130030413A0000413A0000413A0000413A0000D0
S1130040413A0000413A0000413A0000413A0000C0
S1130050413A0000413A0000413A0000413A0000B0
S1130060413A0000413A0000413A0000413A0000A0
S1130070413A0000413A0000413A0000413A000090
S1130080413A0000413A0000413A0000413A000080
S1130090292300007B230000D7210000413A0000FF
S11300A0491E0000413A000065210000413A000069
S11300B0413A0000413A00006B3A0000413A000026
S11300C0FFFFFFFFFFFFFFFFFFFFFFFFFFFFFFFF3C
S11300D0FFFFFFFFFFFFFFFFFFFFFFFFFFFFFFFF2C
S11300E0FFFFFFFFFFFFFFFFFFFFFFFFFFFFFFFF1C
S11300F0FFFFFFFFFFFFFFFFFFFFFFFFFFFFFFFF0C
S1130400FFFFFFFFFFFFFFFFFFFFFFFFFEFFFFFFF9
S113041000200021002200230024002500260027BC
S113042062B602F04FFCFEE780B5394800688021CF
S113043009010143364801603648A021C900016022
S113044035480068E0218843334908603248006831
S1130450402101433048016030483149016031484E
S11304600078402101432F4801702F480078FD2176
S113047001402D4801702D480078FB2101402B4894
S113048001702A48007880210143284801702548DA
S11304900078BF2101402348017025480078BF211E
S11304A00140234801701F480078E02101401D48A5
S11304B001701F480078E02101401D48017019486F
S11304C00078182101431748017019480078032166
S11304D0014317480170164800784021014314482D
S11304E00170144800784006FBD50E48007840217E
S11304F001430C4801700D4800788006800E0B49BA
S11305000870E12252020C490C4800F0ADFB01BD19
S1130510388004400CB0044004800440448004400B
S1130520000001100540064001400640004006401E
S11305300440064006400640C05D000000C006407E
S113054030B585B0C6480068642100F0D5FBC549C4
S11305500860C5480088002800D0A3E0C1480068AE
S11305600821C943884203DABE480821C94301600F
S1130570BC4800680A2802DBBA4809210160BB486C
S11305800068B8490968884204DAB8480068401C21
S1130590B6490860B3480068B4490968884204DA77
S11305A0B2480068401EB1490860B048006801289C
S11305B011DBAF480068401CAD490860052802D330
S11305C0AB48002101600A20A8490968401A192192
S11305D04843A5490880A5480068002810D5A448C8
S11305E00068401EA2490860002802D5A0480521E1
S11305F001609E4800680A30192148439A490880DE
S11306009B4800689B49085CC00707D59A48006866
S11306108021890201439848016006E097480068F8
S113062080218902014395480160914800689149FD
S1130630085C800707D5924800688021490001437F
S11306408F48016006E08F4800688021490001431B
S11306508C480160864800688649085C400706D5D6
S113066085480068202101438348016005E08348F0
S1130670006820210143814801607D4800687D496C
S1130680085C000707D57C480068802149020143C3
S11306907948016006E079480068802149020143F5
S11306A07648016071480068002800D098E07648D8
S11306B00068C00707D5704800688021890201439B
S11306C06D48016006E06D4800688021890201439D
S11306D06A4801606D480068C00603D56C4800781C
S11306E0002806D064480068202101436248016064
S11306F005E06248006820210143604801606548C4
S11307000078002807D05C48006880214902014332
S11307105948016006E059480068802149020143B4
S1130720564801605C495948006810221040020094
S1130730120901205040C0B200F090FB002809D0FB
S1130740624801880800401C604A108089B26048F1
S113075000F0DEFD5F496048006808221040020096
S1130760D20801205040C0B200F078FB002809D024
S11307705A4801880800401C584A108089B25848D9
S113078000F0C6FD57480088022100F0B5FA36494A
S11307900988814207DA3A48006880214900014308
S11307A03748016006E0374800688021490001436A
S11307B0344801602C480088002811D16248008820
S11307C00A2100F099FA47490880464800882828F9
S11307D002D24448282101802348424909880180E3
S11307E05A490C005A480088022100F085FA080092
S11307F02100C0B200F032FB00282FD06748026805
S113080064A1654800F096FD634800F01FFE64484B
S113081040880390624800880290624800880190F2
S11308205E4800680090604800680A2100F064FA9D
S113083003001C000A4800680A2100F05DFA020067
S1130840230014001D00644800680A2100F054FAD3
S113085001002B002200614800F05AFD05B030BDB4
S1130860A8E7FF1F38E7FF1FF8EAFF1F3CE7FF1F59
S113087034E7FF1F3043000008F00F4004F00F403E
S113088048F00F4044F00F4000D0034010F00F40F8
S113089010EBFF1F11EBFF1F14EBFF1F80B5534834
S11308A000688021490401435048016050480068B1
S11308B08021090601434E48016000F02BFF4F4898
S11308C00078102101434D48017001BDE6EAFF1F85
S11308D0C440000015EBFF1F90F00F40E8EAFF1F33
S11308E0D8400000E4EAFF1F10B542480078000732
S11308F016D5032001F048F804003F486230202157
S113090001803D486030802101703A480078F72129
S113091001403848017001223949022000F0ADFF3E
S11309203848008800280ED13648962149000180B5
S1130930354802683549184800F0FCFC0F22164976
S1130940022000F09AFF10BDFAEAFF1F13EBFF1F0D
S1130950EAEAFF1F2E4800688021490401432C481D
S113096001602C4800682C4901432A4801602B4847
S1130970FA21890001602A48282101602948FA21C6
S1130980490001605448006808210143524801604D
S11309907047000025346900F4E6FF1FF0E6FF1FEE
S11309A0D0E6FF1FFCEAFF1FA4E7FF1F80B500F09D
S11309B0B5FD0B48008800280DD100F0E3FD474841
S11309C0007808210143454801700648012101606F
S11309D005484349016001BDACE7FF1F983A000098
S11309E0ECEAFF1F50E8FF1F4CE8FF1F04700440AF
S11309F00070044019EBFF1F00E6FF1F08210740A9
S1130A00D4E9FF1FF4EAFF1F00D003402C4200008A
S1130A103C8004400480044000000101088003403D
S1130A20248003402880034000B57748006864218F
S1130A3000F062F9754908607448006874490968EF
S1130A40884241D07348006815283DD37248008815
S1130A50002839D16D4800680821C943884203DA67
S1130A606A480821C9430160684800680A2802DB13
S1130A70664809210160664800686449096888423B
S1130A8004DA63480068401C614908605F480068F4
S1130A905F490968884204DA5D480068401E5C4981
S1130AA008605E48006840005C4908605B48006874
S1130AB0102803DA59480068002802D15748012158
S1130AC0016055484B21018000BD80B5544800F0B9
S1130AD00AF9C0B202BD000000800340383005406E
S1130AE0410500000024FFF79FFC4E4800F010FC75
S1130AF001F094FA00F040F901F04CFB00F02EFCF8
S1130B0001F0DEFBFFF7CAFE4748484901603D4853
S1130B104749018001F0C6FC01F06CFDFFF71AFFA4
S1130B2001F0C0FC434800F091FCFFF7CEFF002821
S1130B3031D001F0CFFD0500EDB229003E4800F0B0
S1130B40E7FBEDB2202D26D13C4801683C4800F07B
S1130B50DFFB3C4800680A2100F0CEF803001D00CA
S1130B60394800680A2100F0C7F802002B0015007C
S1130B701E00254800680A2100F0BEF80100330079
S1130B802A00324800F0C4FB3148428830480188CA
S1130B90304800F0BDFB244800688047FFF7A4FEFE
S1130BA02D480078012802D1002C00D101242B48C3
S1130BB00088002812D129481421018001F07FFC0B
S1130BC001F096FD01F05BFEFFF72EFF042001F01B
S1130BD063FD80B2800880B218490860204800880C
S1130BE00028A2D11E480A21018000F04FFC01F028
S1130BF007FA1C4800780028FBD001F07FFA00F0C7
S1130C006BFC92E7ECEAFF1FACE7FF1F40E7FF1F16
S1130C1044E7FF1F9CE7FF1FF2EAFF1F48E4FF1FA2
S1130C2000C00640A83D00004CE8FF1FAD090000CD
S1130C30B80B000028430000783F0000F0E6FF1FD7
S1130C40EC400000A4E7FF1FA8E7FF1F983E000048
S1130C50D0E6FF1FBC3E000021EBFF1FF0EAFF1FA0
S1130C60FEEAFF1F44E4FF1F10B504000800110052
S1130C701F4A944207D11F4A126880231B01134361
S1130C801C4A136006E01B4A126880235B0113436D
S1130C90184A1360E278F3231340E3700022A27031
S1130CA0FA22920050431022514300F025F8227892
S1130CB0E0211140020092B2120AD206D20E0A4377
S1130CC022706070E0780C210143E17010BD00B522
S1130CD001798906FCD5C07900BD00B502791206F8
S1130CE0FCD5C17100BD0079202108407047000087
S1130CF000B0064034800440CA0F00D049420310BB
S1130D005A400DD004B500D3404200F009F8009ACF
S1130D10D20701D34942124200D5404204BD00002B
S1130D20094210D088420BD30122002300185B41F2
S1130D308B4200D35B1A5241F8D31900100070475C
S1130D4001000020704708B501F0DAFD08BD38B491
S1130D50012100220368001D002B0BD00468001D34
S1130D600C4202D04D466D1E64192260241D1B1FC7
S1130D70F0D0FAE732BC70472D48A0214900016049
S1130D802C4800688021890201432A4801602A48CE
S1130D900068802189020143274801602748A02177
S1130DA04900016026480068802149000143244825
S1130DB00160244800688021490001432148016002
S1130DC02148A021490001601A48006820210143FC
S1130DD01848016018480068202101431648016042
S1130DE01A48A02149000160124800688021490284
S1130DF00143104801601048006880214902014302
S1130E000D4801601248FF21091D01600A4800686D
S1130E1010218843084908600E48FF21091D01601C
S1130E200D480068082188430B490860704700009A
S1130E304490044004F00F4014F00F4020A00440FC
S1130E4044F00F4054F00F4014900440409004408C
S1130E50109004400CB0044094F00F4000B5020020
S1130E600020D2B2002A03D00B78002B00D101203D
S1130E700A70C0B200BD000010B50C001168012951
S1130E8002D0022904D009E0C0B25168884705E0C5
S1130E90916808709068401C9060FFE72068401CCF
S1130EA0206010BDF0B51C0000260500002028704D
S1130EB06D1C002A1CD00F68002F09D13020287027
S1130EC0761C3000F0BD30320F002A706D1C761C89
S1130ED0002FF6D038002100FFF70EFF01000800B4
S1130EE060433A1A002AEED5D04302003132EBE7D0
S1130EF00F68002F08D130202870761CE1E73731C5
S1130F00070029706D1C761C002FDAD038002100F0
S1130F10FFF706FF01006143791A0A29EFD2303145
S1130F20EEE7F8B50F0015001E00040005E03200DE
S1130F3029003020FFF7A0FF641CBC42F7DBF1BDA1
S1130F40F8B50F0015001E00040005E0320029006A
S1130F502020FFF791FF641CBC42F7DBF1BDF1B523
S1130F6090B01700002000900E0005E0109A69462A
S1130F701800FFF781FF761C3378002B00D1C4E101
S1130F80252B12D00A2B05D0109A69461800FFF7BA
S1130F9073FF09E0109A69460D20FFF76DFF109A60
S1130FA069460A20FFF768FFE5E70025002102E013
S1130FB028000125054300291FD1761C30782028FC
S1130FC00CD0232812D02B2804D02D28F0D0302880
S1130FD008D00FE0280002250543ECE7280004258B
S1130FE00543E8E7280008250543E4E72800102521
S1130FF00543E0E7761E0121DDE700200290002191
S113100005E002980A225043C018303802900029A3
S113101008D1761C3378180030380928F1D9761EA7
S11310200121F4E7761C30782E280BD10021FFE74C
S1131030002908D1761C307830380928F8D9761E72
S11310400121F5E7761E761C30784C2806D06828F6
S113105002D06C2801D002E002E001E000E0761E3C
S1131060761C33781800582871D0622800D1CAE061
S1131070632800D113E1642813D0692811D06E28A5
S113108000D13DE16F2800D1B2E0702800D1C5E065
S1131090732800D10BE1752800D1CAE0782856D016
S11310A064E7386806903F1D0A23012206A907A8B1
S11310B0FFF7F8FE040007A8001905900698002819
S11310C003D52D200190641C0DE0A80703D52B2027
S11310D00190641C07E0680703D520200190641C7C
S11310E001E00020019000200490280711D5019808
S11310F0002804D0109A69460198FFF7BDFE01202C
S11311000490109B6A4602992000FFF70AFF029C94
S113111011E0E8070FD4109B6A4602992000FFF7FC
S11311200FFF0198002804D0109A69460198FFF730
S1131130A3FE012004900498002807D101980028F8
S113114004D0109A69460198FFF796FE9AE0386831
S113115003903F1D1023002203A907A8FFF7A2FE56
S1131160040007A80019059000200490280715D54D
S1131170E8060BD5109A69463020FFF77DFE109AD9
S113118069467820FFF778FE01200490109B6A4698
S113119002992000FFF7C5FE029C18E0E80716D468
S11311A0E80600D5A41C109B6A4602992000FFF7AC
S11311B0C7FEE8060BD5109A69463020FFF75CFE9F
S11311C0109A69467820FFF757FE01200490E8063C
S11311D00DD5049800280AD1109A69463020FFF7EB
S11311E04BFE109A69467820FFF746FEA41C49E09E
S11311F0386803903F1D0823002203A907A8FFF7BE
S113120051FE04001FE0386803903F1D02230022B2
S113121003A907A8FFF746FE040014E0386803900A
S11312203F1D1023002203A907A8FFF73BFE04007B
S113123009E0386803903F1D0A23002203A907A888
S1131240FFF730FE040007A800190590280707D50A
S1131250109B6A4602992000FFF763FE029C11E08E
S1131260E8070FD4109B6A4602992000FFF768FE36
S113127008E0109A694605980078FFF7FDFD059887
S1131280401E0590059800780028F2D1E80705D59E
S1131290109B6A4602992000FFF752FE6BE63868FD
S11312A0C0B23F1D109A6946FFF7E6FD63E6386851
S11312B001903F1D0198002821D0019801F021FBE5
S11312C00400E8070FD4109B6A4602992000FFF738
S11312D037FE08E0109A694601980078FFF7CCFDC4
S11312E00198401C0190019800780028F2D1E80789
S11312F005D5109B6A4602992000FFF721FE3AE6C5
S113130038683F1D0099016035E6009811B0F0BDC2
S11313100EB400B584B0012100910549019105AADC
S113132001006846FFF71BFE049908B00847000057
S1131330DF2600000CB4E0B502000020002A09D02A
S113134002200090029204AA6846FFF708FE029960
S113135000220A70039906B00847000080B55A4875
S113136002210170594800685949014357480160F6
S113137055480078032101435348017055485549A5
S1131380097801705D48002101605D480021016019
S11313905A485C4901605C480021017000F00DF876
S11313A05648006880210143544801605448032191
S11313B001608C4800F04AF801BD70B55348002123
S11313C001605348002101605248002101605248E5
S11313D0002101604D4C002534E0EDB26748405DCA
S11313E02021FFF789FC0600EDB26448405D20210E
S11313F0FFF782FCF6B204207043205801228A4091
S11314000243F6B2042070432250EDB2072D18D3E4
S1131410F6B2042070432018806801228A400243F7
S1131420F6B204204643A0198260EDB2042068435A
S1131430534908181C380068EDB25049495D6A4A9E
S113144050546D1CEDB20B2DC7D370BD38B50500DB
S1131450002466480021017004E0287800F0D0F8E8
S11314606D1C641CE4B2042C02D228780028F4D148
S1131470E4B2042C09D202E02E2000F0C1F82000CE
S11314800400641CC0B20428F6D331BD58481F4977
S11314900968016057481E490968016056481D499A
S11314A00968016055481C49096801601748002112
S11314B001601748002101601648002101601648A8
S11314C0002101607047000000400640388004405D
S11314D0003C0800014006400C4845490968016089
S11314E00B484449096801600A4843490968016096
S11314F0094842490968016070470000003005400E
S1131500043005406300B0080FEBFF1F10300540A6
S113151014300540183005401C30054080B5734830
S1131520FFF794FF72480078082101437048017066
S113153070480078082101436E4801706E480078B5
S1131540082101436C4801702748007801210143B8
S11315502548017024480078022101432248017083
S113156021480078042101431F4801701E48007877
S1131570082101431C48017001BD00008C42000099
S11315806039000080B55D48FFF760FF5848007877
S1131590F72101405648017056480078F721014070
S11315A05448017054480078F721014052480170B2
S11315B00D480078FE2101400B4801700A4800786C
S11315C0FD2101400848017007480078FB210140D3
S11315D00548017004480078F72101400248017071
S11315E001BD000010430000203005400EEBFF1F3A
S11315F080E6FF1F84E6FF1F88E6FF1F8CE6FF1FBF
S113160030B541490978002918D1C0B2312802D037
S1131610C0B26C280BD13748007808210143354803
S1131620017039480078401C3749087030BD314892
S11316300078F72101402F480170F2E70100613979
S1131640C9B21A2900D2203801002B39C9B2302975
S113165000D32E202B38C0B202214143002023E0C6
S1131660D2B2274B9B5C274CE35C0724274D2D7893
S1131670AC40A343D2B2224CA45C224D2B5589B278
S1131680C0B20B18224CE35CD2B21D4CA45C1D4DBD
S11316902C5DDBB21D4D2D78AB402343D2B2184CE8
S11316A0A25C184CA354401CC0B20228B9D2164AFA
S11316B01278042AB5D2144A1278521E02235A43CD
S11316C0C0B21218C0B20028CAD1D2B20C4B9B5C73
S11316D00C4CE35C0F240D4D2D78AC40A343D2B2E7
S11316E0074CA45C074D2B55C9E7000018430000C4
S11316F03830054021300540343005402043000097
S11317008C420000203005400EEBFF1F0FEBFF1F43
S1131710E039000080B528480021017000F06AF823
S11317209620800100F054F82449086023480021E1
S113173001712248002141712048082181718021D2
S11317401F4801F0EDF801BD10B500241E480068E3
S113175040780A2808D0202812D021280AD022282C
S113176013D0AA2816D022E001221849002000F044
S113177084F81CE007221149002000F07EF816E0EE
S11317800D4820210170012411E00B482221017031
S113179000240CE080210A4801F0C2F809480078CE
S11317A080210143074801700548FF210170200092
S11317B0C0B210BD0000000022EBFF1F5CEAFF1F57
S11317C064EAFF1F19EBFF1F58EAFF1F1FEBFF1FFF
S11317D00100090E0200120AFF231B021340C9185C
S11317E0FF2212020240120289180006091808009A
S11317F07047000080B586488649096801608648BC
S113180000210170002001F0A9F8182001F0EBF884
S11318108248007880210143804801707F48007825
S11318200006FBD47E48000A7E4908707C48000C00
S11318307D4908707A48000E7C4908705948007840
S1131840022101435748017079480078012101437E
S113185077480170774800788006800E75490870D3
S11318606E480078402101436C480170AF4800780D
S113187001210143AD48017001BD30B500250300CD
S1131880C0B2002800D08000801CC0B204244443AD
S1131890604D2C59684D2D78ED0718D5674D29609A
S11318A067490A705A490968C9790902584D2D686F
S11318B0AD794D19D2B2ADB292B2954207D2C0B24F
S11318C0022804D15249096889795D4A1170C0B26D
S11318D09749095C5A4A1278914211D2C0B294498C
S11318E0095C574A1278C0B2914D2D5C521B544D7D
S11318F02A70514A1278FE2515404F4A15700AE0A5
S11319004F4909784E4A002515704B4A1278012533
S11319101543494A1570C0B208224243404DAA18E3
S1131920C9B2518009E0454A126812782270434ACC
S11319301268521C414D2A60641C0A00511ED2B226
S1131940002AF0D19849097801229A4011420DD019
S1131950C0B208214843324988220A549248007888
S1131960012199408843904908700CE0C0B20821D5
S113197048432B49C8220A548B48007801219940D6
S113198001438948017030BDC0B28000082148433A
S113199023490818408880B2000AC0B280B2704758
S11319A00000000080200740A24805210170A248E1
S11319B005210170A14809210170A148012101708C
S11319C0A04801210170A048012101701448303061
S11319D00021017012480021418611489B4941634E
S11319E00F485030002101700D4852300021018011
S11319F00B48B04941650A486030802101700848AD
S1131A006230FF2101800648C049416670470000EA
S1131A1058EAFF1F50E4FF1F21EBFF1F0C21074072
S1131A2000E6FF1F9C200740B0200740B420074079
S1131A3084200740002107401AEBFF1F54EAFF1FD0
S1131A401BEBFF1F80B5A94800684078002860D0D0
S1131A50052806D006280DD0082854D0092835D0EA
S1131A6060E0002200210020FFF707FFAD480321BA
S1131A70017059E09D480068C078012804D022D341
S1131A8003280DD006D31EE01222B0490020FFF730
S1131A90F4FE1AE04322AE490020FFF7EEFE14E004
S1131AA092480068807804214843AA49085802787B
S1131AB08E480068807804214843A64909580020CC
S1131AC0FFF7DBFE01E000F013F92DE08748006822
S1131AD0C07886490968897840189F490870834806
S1131AE00068C0788149096889784018002809D0BD
S1131AF0FFF75AFF002200210020FFF7BEFE8948AD
S1131B000121017010E0012293490020FFF7B5FE86
S1131B100AE0C948002101800222C7490020FFF7DA
S1131B20ACFE01E000F0E4F801BD000094200740A1
S1131B307C42000080B51C480078FE2101401A4810
S1131B4001706A4800680078C006C00EC0B2002860
S1131B5003D0022819D00BD31DE064480068007834
S1131B60C00601D1FFF76EFFB4488821017014E06C
S1131B70FFF7EAFDC0B2002803D1B0488821017004
S1131B8002E0AE48C821017007E000F00FF8AB484E
S1131B908821017001E000F0ABF8A9480078DF214A
S1131BA00140A748017001BD1CEBFF1F80B54F48E1
S1131BB000684078002804D0012819D0032827D0D1
S1131BC036E0C14800780121484A126852799140B0
S1131BD0084204D0684680214900018002E068463A
S1131BE000210180022269460020FFF746FE1FE023
S1131BF0B548007801213D4A1268527991408843E2
S1131C00B1490870002200210020FFF736FE0FE0E2
S1131C10AD4800780121354A126852799140014358
S1131C20A9480170002200210020FFF726FEFFE7EB
S1131C3001BD0000C4200740C8200740CC20074055
S1131C40D0200740D4200740D820074014E9FF1FC4
S1131C5080B57C480178082001407A480078C0B2F9
S1131C600009C0B2002811D0C9B2002921D1C0B2E4
S1131C70810008225143714A00235354934909783F
S1131C80012282400A439148027012E0C9B200293D
S1131C9002D000F011F80CE068480078C0B2800867
S1131CA00007000F0D2802D1FFF744FF01E000F008
S1131CB02FF801BD94E9FF1F80B51A480078032866
S1131CC00DD10A48006880788149087015480421BC
S1131CD0017080480078012101437E480170002290
S1131CE000210020FFF7C9FD01BD000058EAFF1FD5
S1131CF07948007802210143774801704F488821D0
S1131D0001704E482021418070470000D4E9FF1F34
S1131D106E480078012101436C4801706F488821A6
S1131D200170704721EBFF1F00B56B4800788007F6
S1131D3005D569480078FD2101406748017068486D
S1131D400078802101436648017000BDDC41000039
S1131D50E03A000090E4FF1F1EEBFF1F5D48FF21E7
S1131D6001706048002101705F48002101705F48E4
S1131D70002101705E48002101705E48002101705D
S1131D805D48002101705D48002101705C4800211C
S1131D9001702A482021418028485A494160274837
S1131DA0C821017025482021418124485649C16039
S1131DB02248C82101722148202141821F485349E9
S1131DC041611E48882101741C48202141831B481D
S1131DD04F49C1611948882101763F480D2101709E
S1131DE04C48FF2101703E48FF2101703848002112
S1131DF0017049487E210170484800780821014358
S1131E004648017045480078042101434348017065
S1131E104248007802210143404801703F4800785D
S1131E20012101433D4801703C4800788021014371
S1131E303A480170704700000CEBFF1F00E6FF1FDB
S1131E40942007409020074080B525480078C007BB
S1131E5002D5FFF783FF35E021480078400702D51B
S1131E601F48042101701E480078000601D5FFF7C1
S1131E705BFF1B48007800070DD529480078022134
S1131E80014327480170FFF7E3FE15480078082155
S1131E9001431348017012480078C00605D5104864
S1131EA00078102101430E4801700D480078800726
S1131EB008D50B48007802210143094801701548F0
S1131EC0FF21017001BD000020EBFF1F19EBFF1F74
S1131ED0982007401AEBFF1FC020074000E6FF1FB1
S1131EE0802007401CEBFF1F1DEBFF1FC420074091
S1131EF0C8200740CC200740D0200740D42007400A
S1131F00D820074054E8FF1F74E8FF1F94E8FF1F20
S1131F10B4E8FF1F882007408C2007408420074036
S1131F209420074010B571480068042101436F48AC
S1131F3001606E480068802188436C4908606B48E2
S1131F400068C00601D5012000E000206749096847
S1131F5010229143654A1160644909684022914303
S1131F60624A11606149096880220A435F490A6034
S1131F7000211EE0C9B25E4A525C1207714B1A601E
S1131F80704A12688023DB0313436E4A1360574A76
S1131F9012685207FBD5554A126804231343534A67
S1131FA01360C9B202224A43524B664C24689C52C5
S1131FB0491C514A1278C9B29142DBD34B49096892
S1131FC080229143494A11604849096840220A43E2
S1131FD046490A60C0B2002806D04448006810216F
S1131FE001434248016005E04048006810218843ED
S1131FF03E4908603E48007800075249086010BD19
S11320003A48006880210143384801604D4800681F
S11320108021C90301434B480160704780B54A4899
S113202000682021014348480160484800210160BC
S11320304748002101601A2000F0D5FC2B480068B5
S1132040444901432948016028480068802101432C
S113205026480160FFF766FF01BD00B53E480078E1
S1132060022148433D49374A12680A523A480078E7
S1132070022148433949085A374909780222514311
S11320801C4A515A401A00B2002807D53248007839
S113209002214843324900220A5205E02E490978B8
S11320A0022251432E4A50521348007802281CD36E
S11320B02948007810490978491E884205DA2648DB
S11320C00078401C2449087002E023480021017074
S11320D0214800780649085C00071A49086003484B
S11320E00068802188430149086000BD0050044015
S11320F014E4FF1FB0E6FF1F10E4FF1F00B52048E3
S1132100007800281CD01E48002101701D4800885A
S113211013490988884203D21B480121017002E057
S1132120194800210170174840880D4949888842A0
S113213003D216480121017002E014480021017005
S113214000BD0000045004403880044044A0044012
S113215040A00440608B871012EBFF1F90E6FF1F26
S1132160D0E6FF1F80B506480121017008480068C9
S11321700421014306480160FFF76FFF01BD000021
S113218044E4FF1F24E4FF1F10EBFF1F11EBFF1FAC
S11321900050044080B53B48006880210904014395
S11321A038480160162000F01EFC37480021016009
S11321B0364800210160364836490160334802211F
S11321C00160354801210160304800680121014364
S11321D02E48016001BD00B52F48012101602F4840
S11321E00078002805D02D480078401E2B4908703F
S11321F007E02A487D21017029480088401C2849AD
S1132200088028480088002804D026480088401EFA
S11322102449088024480088002804D022480088E3
S1132220401E2149088021480088002804D01F4806
S11322300088401E1D4908801D480088002804D0DD
S11322401B480088401E1A4908801A480088002844
S113225004D018480088401E164908801648008893
S1132260002804D014480088401E134908801348ED
S11322700088002804D011480088401E0F490880B7
S113228000BD00003C80044000700340187103400E
S113229010710340C05D00001C7103404CE4FF1F3B
S11322A0EAEAFF1FF0EAFF1FECEAFF1FF2EAFF1F52
S11322B0F4EAFF1FF6EAFF1FF8EAFF1FFEEAFF1F1A
S11322C080B5314800688021890501432E480160AA
S11322D02E4800682E4901402C4801602B4880217B
S11322E0490001602B480068802109030143294803
S11322F00160142000F077FB152000F074FB2648E1
S11323000021016024480068401D244908602448D5
S1132310006814210143224801602248006810210A
S113232001432048016001BD00B51E480068410713
S113233009D51A490968491D184A11601A490968DA
S1132340491C194A1160810705D5164909680222FA
S11323500A4314490A60C0070ED5124800681021C8
S11323608843104908600C48002101600D4800684A
S1132370102101430B48016000BD0C480088401C3B
S11323800A490880704700003C80044004B00440BF
S1132390FFF8FFFF0070044000D0034008D0034062
S11323A01CD0034014D0034034E8FF1FFCEAFF1F95
S11323B080B5894800F083FB01BD000000B5002012
S11323C001E000BF401C2828FBDB00BD10B5040061
S11323D0814800F051FB3A217F4800F049FB7E48D8
S11323E000F05CFB7C4800F062FB2100C9B27A4833
S11323F000F03EFB784800F051FB774800F057FBB3
S1132400754800F030FB3B21734800F031FB724803
S113241000F044FB704800F04AFB6F4800F00FFBEB
S11324206D4800F01BFB6C4800F024FB04006A4874
S113243000F034FB684800F028FB674800F01AFB02
S11324400400FFF7BBFF2000C0B210BD38B5040084
S11324500D00614800F010FB3A215F4800F008FBD2
S11324605D4800F01BFB5C4800F021FB2100C9B271
S1132470594800F0FDFA584800F010FB564800F0A7
S113248016FB2900C9B2544800F0F2FA524800F091
S113249005FB514800F00BFB4F4800F0F6FAFFF73C
S11324A08DFF31BD80B5FFF783FF2A20FFF78EFF34
S11324B001210143C9B22A20FFF7C8FF01BD80B53D
S11324C00020FFF783FF000700D183E00120FFF71E
S11324D07DFF0002414908800220FFF777FF3F4952
S11324E00988C0B201433D4801803C480021405E58
S11324F000B28010394908800320FFF767FF00020B
S1132500374908800420FFF761FF35490988C0B2C4
S113251001433348018032480021405E00B28010FC
S11325202F4908800520FFF751FF00022D4908803C
S11325300620FFF74BFF2B490988C0B20143294805
S1132540018028480021405E00B28010254908809F
S11325500120FFF73BFF0002234908800220FFF718
S113256035FF21490988C0B201431F4801801E4834
S11325700021405E00B200121B4908800320FFF7CF
S113258025FF0002194908800420FFF71FFF17499F
S11325900988C0B201431548018014480021405EF7
S11325A000B20012114908800520FFF70FFF000256
S11325B00F4908800620FFF709FF0D490988C0B2BA
S11325C001430B4801800A480021405E00B200121A
S11325D00749088001BD00000070064000EBFF1FA2
S11325E002EBFF1F04EBFF1F06EBFF1F08EBFF1FAF
S11325F00AEBFF1F80B52F480068802109050143BD
S11326002C4801600F2000F0EEF92B487D21017069
S113261029480C21417028482849418026482849E6
S1132620818025481821817123480721C1712248DE
S11326301F21017220481F2141721F49214800F0C7
S1132640AFFA204800F05EFAC0B2002802D01E485B
S1132650FEF75EFE1D491A311A4800F0B2FA164818
S11326607521017014481C2141701348134941809D
S11326701148134981801048102181710E480421AA
S1132680C1710D481F2101720B481F2141720A4973
S11326900C4800F085FA01BD00B5C0B2C006C00EFA
S11326A008490860074800680006FBD40848006829
S11326B080B200BD3C80044048E7FF1F3412000094
S11326C07856000000B003402040000058E7FF1F88
S11326D010B0034080B50548FEF7F9FA02BD80B595
S11326E00100C9B20148FEF7F8FA01BD00C0064076
S11326F070B57148008840B2704900F085FA70499D
S113270008607048008840B26C49243100F07CFABB
S11327106D4908606D48008840B26849483100F04E
S113272073FA6B4908606648056865480068454364
S113273065480468644800684443281900F0A8FA0E
S11327406449086060480068002805D562485E490D
S113275009684A42026003E05F485B490968016016
S11327605D480068C0015B490968FEF7D9FA5B4916
S113277008605A480068802802D358487F210160C5
S1132780564800680421484355490858554908608B
S11327904D480068012804DB5248524909684A42FE
S11327A002604B4806684A4800684643A81900F08E
S11327B06FFA4D49086042480068002805D546482C
S11327C03F4909684A42026003E043483C490968BA
S11327D0016041480068C00143490968FEF7A0FA56
S11327E03E4908603D480068802802D33B487F2169
S11327F001603A48006804214843394908583B4974
S113280008602F480068012804DB38483749096804
S11328104A420260A01900F03BFA354908602A4890
S11328200068002805D52C48274909684A420260F7
S113283003E0294824490968016027480068C00169
S11328402B490968FEF76CFA24490860234800689C
S1132850802802D321487F21016020480068042198
S113286048431F490858234908601748006801284D
S113287004DB20481F4909684A42026070BD00B564
S1132880144800682D280FD2174800682D280BD251
S1132890174800682D2807D217480088002803D15C
S11328A016480121017005E0144800210170124806
S11328B00A21018000BD000006EBFF1FB0E7FF1FE7
S11328C08CE7FF1F08EBFF1F90E7FF1F0AEBFF1FBA
S11328D094E7FF1F98E7FF1F1CE8FF1F20E8FF1F76
S11328E0D0360000A4E7FF1F9CE7FF1FA8E7FF1FE7
S11328F0A0E7FF1FACE7FF1FEEEAFF1F16EBFF1F69
S1132900704700B501000020002902D1002006E034
S1132910401C0A001100491C1278002AF8D100BD9D
S1132920C9B24218521E074B1A60074A1060074A80
S113293011700749086007490860074800210170C1
S11329407047000028E8FF1F24E8FF1F17EBFF1F54
S11329502CE8FF1F30E8FF1F18EBFF1F80B5C0B243
S1132960002803D0022819D008D324E016480068B0
S1132970A021C9020143144801601CE000F02EF8B4
S113298011480068114901400F4801600E48006871
S11329908021C90201430C4801600CE00A48006828
S11329A00B490140084801600A48006880218900F9
S11329B0014308480160084800688021C9020143B6
S11329C00548016001BD000004800440FFFFFEFFD4
S11329D0FFFFFBFF38800440348004407047000050
S11329E010490860704770B50400212C03DB0E48C1
S11329F0FEF78EFC15E00D48056801262000202115
S1132A00FEF77AF98E402E430848066008480568A8
S1132A10012620002021FEF76FF98E402E43044842
S1132A20066070BD08ED00E08C3C000080E200E030
S1132A3000E100E0817810220A43827070478178B7
S1132A40EF220A40827070478178DF220A40827048
S1132A507047817820220A43827070478178082267
S1132A600A4382707047817804220A438270704757
S1132A70017170470079704710B504002000FFF71A
S1132A80E8FF2000FFF7D6FF10BD10B504002000BA
S1132A90FFF7DAFF2000FFF7D2FF10BD00B5C178C1
S1132AA08907FCD5C17802220A43C27000BD00B573
S1132AB0C078C00701D4012000E0002000BD0D490A
S1132AC0096880220A430B490A600B49096880227D
S1132AD012010A4308490A600849802292000A60E8
S1132AE00749802292000A6014214170802181707C
S1132AF070470000348004403880044028B004400B
S1132B002CB0044010B50400206A402188432062A0
S1132B10606A0B2188436062606A07210143616235
S1132B20606A80210143616220680006FCD5606A06
S1132B30400601D5012032E00020E16C0800A16CC0
S1132B404018616C4018216C4018E16B4018A16B6F
S1132B50401880B20221FEF7CFF801008020000265
S1132B60084380B2E0620020E16E0800A16E4018C4
S1132B70616E4018216E4018E16D4018A16D401837
S1132B8080B20221FEF7B8F8010080200002084359
S1132B9080B22063606A802188436062002010BD97
S1132BA00A7882604A78C2604A8882618A88C261EF
S1132BB08A790262CA7942620A7A0260497A416079
S1132BC07047826A0A80C26A4A80026B8A80426BBA
S1132BD08A71826BCA71C26B0A81026C4A81426C2F
S1132BE00A73826C4A73C26C8A73426D0A74826D72
S1132BF04A74C26D4A82026E8A82426E8A75826EFD
S1132C00CA75C06E0876704710B588B00A78521C31
S1132C100A700A785207520F0A700A7804235A433A
S1132C208A185060002208E00420504308184068C5
S1132C30042353436C46E050521C082AF4DB002062
S1132C4000221EE0042151436B46591849680423AD
S1132C5053436C46E358994212DA042050436946C0
S1132C600858042151436B465918496804235343B7
S1132C706C46E150042151436B46591848600120C9
S1132C80521C072ADEDB0028D9D1039808B010BDF6
S1132C90F0B504000027FA26B600FA25AD00350089
S1132CA020003100FEF73CF83018060076083800A2
S1132CB007007F1CC0B2072801D2B542EFD1300013
S1132CC0F0BD00007D480021016000F0C5F900F06E
S1132CD015FA7B48FEF71CFB00F0A6FA00F003F897
S1132CE0FDF700FFFEE780B576480068000F400757
S1132CF0400F002806D002280CD007D3042811D096
S1132D000CD313E07048FEF703FB12E06F48FEF7A4
S1132D10FFFA0EE06E48FEF7FBFA0AE06D48FEF794
S1132D20F7FA06E06C48FEF7F3FA02E06B48FEF7A8
S1132D30EFFA64480068000E4007400F042802D0F0
S1132D40052804D007E066A0FEF7E2FA06E065A0D5
S1132D50FEF7DEFA02E06448FEF7DAFA5948006842
S1132D600007000F00280CD001280ED0022810D034
S1132D70042812D0052814D0062815D0082816D007
S1132D8019E05A48FEF7C4FA18E05948FEF7C0FAA9
S1132D9014E08748FEF7BCFA10E08648FEF7B8FA5C
S1132DA00CE08548FEF7B4FA8448FEF7B1FA84488B
S1132DB0FEF7AEFA02E08348FEF7AAFA414800683B
S1132DC0000D4007400F012803D17F48FEF7A0FA09
S1132DD002E07E48FEF79CFA3A480068000C40077F
S1132DE0400F00280BD0022811D00CD3042816D091
S1132DF011D306281BD016D307281CD01FE0744813
S1132E00FEF786FA1EE07348FEF782FA1AE072486B
S1132E10FEF77EFA16E07148FEF77AFA12E070487F
S1132E20FEF776FA0EE06F48FEF772FA0AE06E4893
S1132E30FEF76EFA06E06D48FEF76AFA02E06C48A7
S1132E40FEF766FA0F2189B26A48FEF761FA00F0CC
S1132E5051F869480068000E0007000F00280CD0E4
S1132E6001280ED0032810D0052812D0072814D02A
S1132E70092816D00F2818D01BE06048FEF748FA3E
S1132E801AE05F48FEF744FA16E05E48FEF740FA9F
S1132E9012E05D48FEF73CFA0EE05C48FEF738FAB3
S1132EA00AE05B48FEF734FA06E05848FEF730FAC9
S1132EB002E05848FEF72CFA01BD000000810440EE
S1132EC0384300002480044040430000484300008D
S1132ED0504300005843000060430000203E0000BF
S1132EE03400000035000000243D00004C42000086
S1132EF05C42000080B54848032101704748002126
S1132F00017047480021017046480021017046487D
S1132F100121017045488021017044480078000671
S1132F20FBD543480178C9B24248FEF7F1F942485B
S1132F300178C9B24148FEF7EBF941480178C9B2BA
S1132F403E48FEF7E5F93F480178C9B23E48FEF72E
S1132F50DFF9314803210170304800210170304805
S1132F60002101702F48042101702F4801210170B4
S1132F702E48802101702D4800780006FBD52C488E
S1132F800178C9B23148FEF7C3F92B480178C9B2B8
S1132F902FA0FEF7BDF92A480178C9B22748FEF7E9
S1132FA0B7F928480178C9B22A48FEF7B1F901BD3A
S1132FB0D4420000E0420000EC420000F84200006D
S1132FC06C420000503D0000483E00007C3D000083
S1132FD0284100003C4100005041000064410000D1
S1132FE0784100008C410000A0410000B441000081
S1132FF0E83F0000C84100004C800440243B00002E
S1133000603B00009C3B0000D83B0000143C0000E7
S1133010503C0000583F00000700024006000240F8
S113302005000240040002400F000240000002407C
S11330300B000240044000000A0002406843000004
S1133040090002400800024070430000684000008C
S1133050202564007843000010B51E481E498842AC
S11330600ED0002008E0042141431A4A04234343BC
S1133070194CE3585350401C822149008842F2D332
S11330801448FFF7ADFC1549154A1648801A03E0A9
S113309013780B70521C491C0300581E002BF7D1E7
S11330A011491248401A02E000220A70491C020029
S11330B0501E002AF8D10E490E4A0F48801A03E028
S11330C013780B70521C491C0300581E002BF7D1B7
S11330D010BD00BF00E0FF1F0000000010E4FF1F50
S11330E0D03800006039000000E6FF1F23EBFF1F0B
S11330F023EBFF1F000000000000000000B583B0B8
S11331003B480068F8218901014339480160394886
S11331100078000705D53748007808210143354871
S11331200170354880214902016001200190182076
S11331300090042301220021304800F051F9304965
S113314008602F480068FF2800DCFEE72D4800686F
S11331508021490201432B4801602948006802216B
S1133160FDF7CAFDFA218900FDF7C6FD264908606E
S113317023480068FA218900FDF7BEFD2349086051
S1133180224800681C490968090F491CFDF7C8FD5D
S11331901F4908601E48006817490968090C490757
S11331A0490F491CFDF7BCFD1A49086000F010F8EE
S11331B01948C021890001601848C02189000160B4
S11331C0E1225202134801681548FDF74DFD07BD81
S11331D080B51448FF21091D016012480068902140
S11331E0090301430F4801601E20FFF7FCFB01BDEA
S11331F03880044002D007404480044000127A0022
S113320038E8FF1F0480044048E8FF1F3CE8FF1F24
S113321040E8FF1F44E8FF1F40D0044044D004406E
S113322000C006401090044080B5574800788006DE
S113323002D55648FEF76CF853480078000702D5CB
S11332405348FEF765F850480078400702D55148C6
S1133250FEF75EF84C480078800702D54E48FEF72A
S113326057F84E480078000602D54D48FEF750F84E
S11332704A480078400602D54A48FEF749F84748CC
S11332800078800602D54848FEF742F843480078A3
S1133290400702D54548FEF73BF840480078000750
S11332A002D54348FEF734F83C480078800702D53D
S11332B04048FEF72DF839480078C0074DD53E4800
S11332C0FEF726F83D480078C0B24007400F0328B7
S11332D002D13B48FEF71CF838480078C0B24007DA
S11332E0400F042806D137480078400702D13648F9
S11332F0FEF70EF831480078C0B24007400F0428AA
S113330009D130480078C0B24007400F012802D1EB
S11333102E48FDF7FDFF29480078C0B24007400F52
S1133320042809D127480078C0B24007400F02287A
S113333002D12748FDF7ECFF20480078C0B24007CF
S1133340400F042809D11F480078C0B24007400F3D
S1133350032802D11F48FDF7DBFF10480078C0B2F4
S1133360002810D108480078C0B200280BD10B48BF
S11333700178C9B21848FDF7CBFF03480178C9B2F8
S11333801648FDF7C5FF01BD01F00740E03E00000F
S11333903C42000000410000943F000000F0074060
S11333A0144100003840000050400000383F000045
S11333B0B03F0000CC3F0000C43C000001E00740E7
S11333C09842000002E00740A4420000B04200001E
S11333D0BC420000C8420000D03D0000F83D00009F
S11333E0F4B504000D001E00A6480078C0B28008A1
S11333F08007800F002807D1A2480078C00603D5B3
S1133400A0480078800601D5012039E19E48844215
S113341001DB212034E168460078002806D09B486F
S1133420201A9B49884201D3222029E1EDB2012DC3
S113343000D301253000401EC0B2192801D3412019
S11334401EE1694618200F5638001838C0B21B28F0
S113345001D3422014E1200076B23100FDF74CFC88
S11334608C49401A8C49884201D3432008E120004A
S113347076B23100FDF740FC7FB278438749401AA9
S11334808749884201D34520FAE086480078010044
S1133490C320084084498C420ADA0100EDB2E800F6
S11334A06A4612789200024310201043084309E050
S11334B00100EDB2E8006A4612789200024320202F
S11334C010430843774908707848844201DA0021A0
S11334D014E07748844201DA01210FE07548844200
S11334E001DA02210AE07448844201DA032105E08A
S11334F07248844201DA042100E005217048007812
S11335008007800F0200C800382101408020084352
S113351010436B49087068460078002810D00020DA
S113352000E0401C674900B2884203DA5549097833
S11335308907F6D553480078800701D423209FE0FB
S1133540002000E0401CFA21C90000B2884203DADE
S11335504C490978C906F5D44A480078C00601D513
S113356011208DE0002000E0401CFA21C90000B2C7
S1133570884207DA43490978C9B289088907890F5B
S11335800229F1D13F480078C0B280088007800F3B
S1133590022801D01A2073E04B480078202101430F
S11335A049480170494800780100E02008400100C2
S11335B0701EC006C00E0843444908704248007893
S11335C00100E02008400200183FF906C90E40201F
S11335D0084310433C490870002000E0401CFA21D5
S11335E0C90000B2884203DA264909788906F5D56C
S11335F024480078800601D4162041E0002000E031
S1133600401CFA21090100B2884203DA1D490978F5
S11336104906F5D51B480078400601D444202FE024
S11336202A480078C106C90E491C27480078C506F7
S1133630ED0E1835224800788006800E204A10705E
S1133640002000E0401CFA22D20000B2904207DAC7
S11336500C4A1278D2B292089207920F032AF1D13F
S113366008480078C0B280088007800F032801D082
S11336701B2005E02000C9B2FDF73EFBEDB2684314
S1133680F2BD00000640064081F0FA02C0C62D00DB
S11336904181BA0180841E0081841E00006CDC021A
S11336A0017519030140064001127A00D11213007A
S11336B0A1252600414B4C0081969800012D310133
S11336C000400640204E00000540064004400640ED
S11336D000000000070000000E00000015000000BC
S11336E01C000000230000002B000000320000003A
S11336F03900000040000000470000004E000000B8
S1133700550000005C000000630000006A00000037
S113371071000000780000008000000087000000B5
S11337208E000000950000009C000000A300000033
S1133730AA000000B1000000B8000000BF000000B3
S1133740C6000000CE000000D5000000DC00000030
S1133750E3000000EA000000F1000000F8000000AF
S1133760FF000000060100000D010000140100002C
S11337701B010000230100002A01000031010000A8
S1133780380100003F010000460100004D01000027
S1133790540100005B0100006201000069010000A7
S11337A071010000780100007F0100008601000023
S11337B08D010000940100009B010000A2010000A3
S11337C0A9010000B0010000B7010000BE01000023
S11337D0C6010000CD010000D4010000DB0100009F
S11337E0E2010000E9010000F0010000F70100001F
S11337F0FE010000050200000C020000130200009C
S11338001B02000022020000290200003002000016
S1133810370200003E020000450200004C02000096
S1133820530200005A020000610200006902000015
S113383070020000770200007E0200008502000092
S11338408C020000930200009A020000A102000012
S1133850A8020000AF020000B6020000BE02000091
S1133860C5020000CC020000D3020000DA0200000E
S1133870E1020000E8020000EF020000F60200008E
S1133880FD020000040300000C0300001303000009
S11338901A03000021030000280300002F03000086
S11338A0360300003D030000440300004B03000006
S11338B05203000059030000610300006803000084
S11338C06F030000760300007D0300008403000002
S11338D002000000090A0001020304050607080BA0
S11338E00C0D0E0FA000A000A000A000A000A000DE
S11338F0A000640064006400640064006400640068
S11339006400640001000000010000007D0000006C
S113391054E8FF1F74E8FF1F94E8FF1FB4E8FF1F7B
S1133920D4E8FF1FF4E8FF1F14E9FF1F34E9FF1F69
S113393054E9FF1F74E9FF1F94E9FF1FB4E9FF1F57
S1133940D4E9FF1FF4E9FF1F14EAFF1F34EAFF1F45
S113395080430000F04100000442000018420000CF
S11339600100000002000000040000000800000044
S11339701000000020000000400000008000000053
S11339800001000000020000000400000008000024
S11339900010000000200000004000000080000033
S11339A00000010000000200000004000000080004
S11339B00000100000002000000040000000800013
S11339C000000001000000020000000400000008E4
S11339D000000010000000200000004000000080F3
S11339E0000004000002000000000F0506000B06A2
S11339F00F0206030D030D0707000F070F03000056
S1133A0000000000000000000000000007070C0791
S1133A1009050E06090701070D07060706000E0033
S1133A2000070805000004060C0603070703000648
S1133A300D0308070C040C0400000E070E030B060C
S1133A4080B5104801681048FDF762FC01BD0D48BF
S1133A5000680E490968F82292010A430B490A607A
S1133A600B49FF22121D0A60704780B508480068A0
S1133A70802149040143064801600648FDF748FCDB
S1133A8001BD000004ED00E0F43C00003880044077
S1133A9010900440043F00000D20797A3D5B2530EE
S1133AA033695D2C2020787A5B253033695D202CC6
S1133AB078795B253033695D2C2020504F543D25A7
S1133AC0692C20727463203D2025692C2045313DEA
S1133AD0253033692C2045323D25303369200000E0
S1133AE009024300020100C032090400000102027D
S1133AF00101052400100105240100010424020031
S1133B0005240600010705810320000209040100C1
S1133B10020A0000010705820220000007050302D3
S1133B2020000000466C6173682073697A653A204E
S1133B302038204B422070726F6772616D20666C72
S1133B406173682C20302E3235204B422070726F06
S1133B5074656374696F6E20726567696F6E0000C7
S1133B60466C6173682073697A653A202031362087
S1133B704B422070726F6772616D20666C6173686E
S1133B802C20302E35204B422070726F7465637484
S1133B90696F6E20726567696F6E0900466C6173A8
S1133BA0682073697A653A20203332204B422070B2
S1133BB0726F6772616D20666C6173682C203120AE
S1133BC04B422070726F74656374696F6E20726506
S1133BD067696F6E09000000466C61736820736941
S1133BE07A653A20203634204B422070726F677217
S1133BF0616D20666C6173682C2032204B4220700A
S1133C00726F74656374696F6E20726567696F6E35
S1133C1009000000466C6173682073697A653A2074
S1133C2020313238204B422070726F6772616D20F0
S1133C30666C6173682C2034204B422070726F7460
S1133C40656374696F6E20726567696F6E09000041
S1133C50466C6173682073697A653A202032353680
S1133C60204B422070726F6772616D20666C6173C5
S1133C70682C2034204B422070726F746563746921
S1133C806F6E20726567696F6E0900000A455252B3
S1133C902120496E76616C69642049525120766115
S1133CA06C75652070617373656420746F20656E34
S1133CB061626C65206972712066756E6374696FE8
S1133CC06E210A000A0D5B6F75745352535D576180
S1133CD06B65757020626974207365742066726FF9
S1133CE06D206C6F7720706F776572206D6F6465DF
S1133CF0200000000A2A2A2A2A64656661756C7409
S1133D005F69737220656E7465726564206F6E20DE
S1133D10766563746F722025642A2A2A2A2A0D0A7A
S1133D200A0000000A0D556E7265636F676E697A4A
S1133D306564204B696E65746973207375622D66C2
S1133D40616D696C79206465766963652E0A0D007E
S1133D500A0D556E7265636F676E697A6564204BF0
S1133D60696E65746973207061636B616765206354
S1133D706F64652E20202020202000000A0D556E3F
S1133D807265636F676E697A6564204B696E6574EA
S1133D9069732066616D696C7920617474726962FB
S1133DA07574652E0A0D00000A0D52756E6E696EEB
S1133DB06720746865205457522D4B4C34365F4449
S1133DC0656D6F2070726F6A6563742E0A0D000052
S1133DD05B6F75745352535D52434D5F535253306E
S1133DE0206973205A45524F2020203D202523303E
S1133DF03258200D0A0D00005B6F75745352535DE9
S1133E0052434D5F53525331206973205A45524FE8
S1133E102020203D202523303258200D0A0D00009B
S1133E200A0D556E7265636F676E697A6564204B1F
S1133E30696E657469732066616D696C7920646567
S1133E40766963652E0A0D000A0D4C6F7720506F5A
S1133E50776572204C696E65207769746820436FBA
S1133E6072746578204D302B0A0D0A0D0000000095
S1133E7010B5074979441831064C7C44163404E0E3
S1133E80081D0A68891888470100A142F8D110BDAD
S1133E9098000000A40000000A0D20797A3D5B25FB
S1133EA03033695D2C2020787A5B253033695D20BE
S1133EB02C78795B253033695D2000000A0D2020C1
S1133EC0456C656374726F6465313D2025692C20EF
S1133ED0456C656374726F646532203D202569000A
S1133EE00A0D53746F70204D6F64652041636B6ECF
S1133EF06F776C65646765204572726F72205265D6
S1133F00736574000A2A2A2A2A41626F7274206235
S1133F107574746F6E20696E746572727570742A2C
S1133F202A2A2A0A0A00000027CEFFFF24050000DF
S1133F3000E6FF1F000000000A0D4C6F7373206F32
S1133F40662045787465726E616C20436C6F636B98
S1133F502052657365740000455252212120556E2C
S1133F60646566696E656420666C61736820736954
S1133F707A650A0D000000000A0D20526563656928
S1133F807665642063686172203D202563200A0DF4
S1133F90000000000A0D436F7265204C6F636B755F
S1133FA070204576656E7420526573657400000058
S1133FB00A0D4C6F7373206F66204C6F636B20691E
S1133FC06E20504C4C205265736574000A0D4C6F82
S1133FD0772D766F6C7461676520446574656374CE
S1133FE020526573657400000A0D556E7265636F27
S1133FF0676E697A6564205352414D2053697A652E
S11340002E0A0D00466C61736820706172616D65E3
S11340107465722076657273696F6E202564200062
S11340204144432063616C6962726174696F6E20FC
S11340306572726F720000000A0D45787465726EC5
S1134040616C2050696E2052657365740000000035
S11340500A0D5761746368646F6728434F502920C1
S11340605265736574000000466C61736820766560
S11340707273696F6E20494420256420000000009B
S113408000F009F8002801D0FFF7F2FE0020FCF749
S113409029FD00F002F80120704780B500F002F815
S11340A001BD00000746384600F002F8FBE70000B7
S11340B0C046C046024A11001820ABBEFBE700BF51
S11340C0260002000A0D2053573120636C69636B8C
S11340D0202569200A0D00000A0D20535732206361
S11340E06C69636B202569200A0D00000A0D2061AC
S11340F064633A20706F7420203D2025690000001D
S11341000A0D536F66747761726520526573657426
S1134110000000000A0D506F7765722D6F6E2052FB
S113412065736574000000005352414D2053697A51
S1134130653A20302E35204B420A0D005352414D32
S11341402053697A653A202031204B420A0D000041
S11341505352414D2053697A653A202032204B4214
S11341600A0D00005352414D2053697A653A2020CC
S113417034204B420A0D00005352414D2053697ABA
S1134180653A202038204B420A0D00005352414D1D
S11341902053697A653A20203136204B420A0D00BB
S11341A05352414D2053697A653A20203332204BD3
S11341B0420A0D005352414D2053697A653A20203A
S11341C03634204B420A0D0053696C69636F6E20CC
S11341D07265762025640A0D20000000120110018A
S11341E002000020A2150FA5000001020301000037
S11341F014034600720065006500730063006100EB
S11342006C00650012035500530042002D00550058
S113421041005200540000001203540045005300B2
S113422054005F0031002E00300000000D20525475
S113423043203D2025356920730000000A0D4D44BC
S11342404D2D4150205265736574000031367069FC
S11342506E202020202020200000000032347069CD
S11342606E202020202020200000000031303070FB
S1134270696E202020202020000000002020202023
S11342802020202020202020202020201618031465
S11342901701000C0D0E0F004C4C53206578697407
S11342A020000000564C4C5330206578697420007F
S11342B0564C4C533120657869742000564C4C534D
S11342C03220657869740000564C4C53332065786D
S11342D069742000333270696E2020202020200071
S11342E0343870696E202020202020003634706914
S11342F06E20202020202000383070696E2020207D
S113430020202000C046C046C046C046FFF7B8FE85
S113431031323335000000003138383800000000F5
S11343202020202000000000383838380000000029
S113433001020408000000000A0D0A0D000000003C
S11343400A0D4B4C300000000A0D4B4C31000000AC
S11343500A0D4B4C320000000A0D4B4C3300000098
S11343600A0D4B4C3400000020256420000000009E
S11343702025640A0D00000025640A0D00000000D9
S10743800403090421
S9034305B4
