S018000054575250495F734C43445F746F7765722E7372656341
S1130000F80B002011040000131A0000051A000068
S1130010051A0000051A0000051A0000051A000060
S1130020051A0000051A0000051A0000051A000050
S1130030051A0000051A0000051A0000051A000040
S1130040051A0000051A0000051A0000051A000030
S1130050051A0000051A0000051A0000051A000020
S1130060051A0000051A0000051A0000051A000010
S1130070051A0000051A0000051A0000051A000000
S1130080051A0000051A0000051A0000051A0000F0
S1130090051A0000051A0000051A0000051A0000E0
S11300A0051A0000051A0000051A0000051A0000D0
S11300B0051A0000051A00002F1A0000051A000096
S11300C0FFFFFFFFFFFFFFFFFFFFFFFFFFFFFFFF3C
S11300D0FFFFFFFFFFFFFFFFFFFFFFFFFFFFFFFF2C
S11300E0FFFFFFFFFFFFFFFFFFFFFFFFFFFFFFFF1C
S11300F0FFFFFFFFFFFFFFFFFFFFFFFFFFFFFFFF0C
S1130400FFFFFFFFFFFFFFFFFFFFFFFFFEFFFFFFF9
S113041000200021002200230024002500260027BC
S113042062B600F007FBFEE710B50C001168012965
S113043002D0022904D009E0C0B25168884705E01F
S1130440916808709068401C9060FFE72068401C29
S1130450206010BDF0B51C000026050000202870A7
S11304606D1C002A1CD00F68002F09D13020287081
S1130470761C3000F0BD30320F002A706D1C761CE3
S1130480002FF6D03800210000F055FA01000800D2
S113049060433A1A002AEED5D04302003132EBE72A
S11304A00F68002F08D130202870761CE1E737311F
S11304B0070029706D1C761C002FDAD0380021004B
S11304C000F03CFA01006143791A0A29EFD2303175
S11304D0EEE7F8B50F0015001E00040005E0320039
S11304E029003020FFF7A0FF641CBC42F7DBF1BDFC
S11304F0F8B50F0015001E00040005E032002900C5
S11305002020FFF791FF641CBC42F7DBF1BDF1B57D
S113051090B01700002000900E0005E0109A694684
S11305201800FFF781FF761C3378002B00D1C4E15B
S1130530252B12D00A2B05D0109A69461800FFF714
S113054073FF09E0109A69460D20FFF76DFF109ABA
S113055069460A20FFF768FFE5E70025002102E06D
S113056028000125054300291FD1761C3078202856
S11305700CD0232812D02B2804D02D28F0D03028DA
S113058008D00FE0280002250543ECE728000425E5
S11305900543E8E7280008250543E4E7280010257B
S11305A00543E0E7761E0121DDE7002002900021EB
S11305B005E002980A225043C018303802900029FE
S11305C008D1761C3378180030380928F1D9761E02
S11305D00121F4E7761C30782E280BD10021FFE7A7
S11305E0002908D1761C307830380928F8D9761ECD
S11305F00121F5E7761E761C30784C2806D0682851
S113060002D06C2801D002E002E001E000E0761E96
S1130610761C33781800582871D0622800D1CAE0BB
S1130620632800D113E1642813D0692811D06E28FF
S113063000D13DE16F2800D1B2E0702800D1C5E0BF
S1130640732800D10BE1752800D1CAE0782856D070
S113065064E7386806903F1D0A23012206A907A80B
S1130660FFF7F8FE040007A8001905900698002873
S113067003D52D200190641C0DE0A80703D52B2081
S11306800190641C07E0680703D520200190641CD6
S113069001E00020019000200490280711D5019862
S11306A0002804D0109A69460198FFF7BDFE012086
S11306B00490109B6A4602992000FFF70AFF029CEF
S11306C011E0E8070FD4109B6A4602992000FFF757
S11306D00FFF0198002804D0109A69460198FFF78B
S11306E0A3FE012004900498002807D10198002853
S11306F004D0109A69460198FFF796FE9AE038688C
S113070003903F1D1023002203A907A8FFF7A2FEB0
S1130710040007A80019059000200490280715D5A7
S1130720E8060BD5109A69463020FFF77DFE109A33
S113073069467820FFF778FE01200490109B6A46F2
S113074002992000FFF7C5FE029C18E0E80716D4C2
S1130750E80600D5A41C109B6A4602992000FFF706
S1130760C7FEE8060BD5109A69463020FFF75CFEF9
S1130770109A69467820FFF757FE01200490E80696
S11307800DD5049800280AD1109A69463020FFF745
S11307904BFE109A69467820FFF746FEA41C49E0F8
S11307A0386803903F1D0823002203A907A8FFF718
S11307B051FE04001FE0386803903F1D022300220D
S11307C003A907A8FFF746FE040014E03868039065
S11307D03F1D1023002203A907A8FFF73BFE0400D6
S11307E009E0386803903F1D0A23002203A907A8E3
S11307F0FFF730FE040007A800190590280707D565
S1130800109B6A4602992000FFF763FE029C11E0E8
S1130810E8070FD4109B6A4602992000FFF768FE90
S113082008E0109A694605980078FFF7FDFD0598E1
S1130830401E0590059800780028F2D1E80705D5F8
S1130840109B6A4602992000FFF752FE6BE6386857
S1130850C0B23F1D109A6946FFF7E6FD63E63868AB
S113086001903F1D0198002821D0019800F0BDF8A7
S11308700400E8070FD4109B6A4602992000FFF792
S113088037FE08E0109A694601980078FFF7CCFD1E
S11308900198401C0190019800780028F2D1E807E3
S11308A005D5109B6A4602992000FFF721FE3AE61F
S11308B038683F1D0099016035E6009811B0F0BD1D
S11308C00EB400B584B0012100910549019105AA37
S11308D001006846FFF71BFE049908B008470000B2
S11308E0131900000CB4E0B502000020002A09D05E
S11308F002200090029204AA6846FFF708FE0299BB
S113090000220A70039906B00847F446002804D46C
S1130910494200F013F8404260474042002905D4A0
S11309205FD000F00BF8404249426047494200F072
S113093005F84942604703460B43E6D40022030A04
S11309408B420BD203098B4219D243088B422ED21D
S1130950411A00D20146524110467047FF22090253
S11309603FD012068B4205D3121209028B4201D3E7
S11309701212090203098B4219D300E0090AC309C0
S11309808B4201D3CB01C01A524183098B4201D35C
S11309908B01C01A524143098B4201D34B01C01A47
S11309A0524103098B4201D30B01C01A5241C308BF
S11309B08B4201D3CB00C01A524183088B4201D32E
S11309C08B00C01A524143088B4201D34B00C01A1A
S11309D05241884200D3401A5241CFD201461046B8
S11309E0704708B500F010F808BD00B501000020FC
S11309F0002902D1002006E0401C0A001100491C15
S1130A001278002AF8D100BD704738B401210022C1
S1130A100368001D002B0BD00468001D0C4202D09B
S1130A204D466D1E64192260241D1B1FF0D0FAE789
S1130A3032BC704780B57D480021016000F0C4F9E4
S1130A4000F014FA7A48FFF73BFF00F0A5FA00F033
S1130A5003F800F07DFBFEE780B576480068000FE0
S1130A604007400F002806D002280CD007D30428E2
S1130A7011D00CD313E07048FFF722FF12E06F4847
S1130A80FFF71EFF0EE06E48FFF71AFF0AE06D48FD
S1130A90FFF716FF06E06C48FFF712FF02E06B4811
S1130AA0FFF70EFF63480068000E4007400F04285C
S1130AB002D0052804D007E065A0FFF701FF06E097
S1130AC064A0FFF7FDFE02E06348FFF7F9FE594812
S1130AD000680007000F00280CD001280ED002285F
S1130AE010D0042812D0052814D0062815D00828C0
S1130AF016D019E05948FFF7E3FE18E05848FFF70D
S1130B00DFFE14E08648FFF7DBFE10E08548FFF7C0
S1130B10D7FE0CE08448FFF7D3FE8448FFF7D0FEED
S1130B208348FFF7CDFE02E08248FFF7C9FE414843
S1130B300068000D4007400F012803D17E48FFF7ED
S1130B40BFFE02E07D48FFF7BBFE3A480068000C98
S1130B504007400F00280BD0022811D00CD30428E2
S1130B6016D011D306281BD016D307281CD01FE09B
S1130B707348FFF7A5FE1EE07248FFF7A1FE1AE0D6
S1130B807148FFF79DFE16E07048FFF799FE12E0EA
S1130B906F48FFF795FE0EE06E48FFF791FE0AE0FE
S1130BA06D48FFF78DFE06E06C48FFF789FE02E012
S1130BB06B48FFF785FE0F2189B26A48FFF780FE74
S1130BC000F050F868480068000E0007000F002885
S1130BD00CD001280ED0032810D0052812D00728E5
S1130BE014D0092816D00F2818D01BE05F48FFF74F
S1130BF067FE1AE05E48FFF763FE16E05D48FFF704
S1130C005FFE12E05C48FFF75BFE0EE05B48FFF717
S1130C1057FE0AE05A48FFF753FE06E05748FFF72D
S1130C204FFE02E05748FFF74BFE01BD0081044030
S1130C3038210000248004404021000048210000A5
S1130C40502100005821000060210000301D0000E8
S1130C5034000000350000005C1C00006C20000023
S1130C607C20000080B548480321017047480021DA
S1130C700170474800210170464800210170464830
S1130C800121017045488021017044480078000624
S1130C90FBD543480178C9B24248FFF711FE4248E8
S1130CA00178C9B24148FFF70BFE41480178C9B247
S1130CB03E48FFF705FE3F480178C9B23E48FFF7BA
S1130CC0FFFD314803210170304800210170304894
S1130CD0002101702F48042101702F480121017067
S1130CE02E48802101702D4800780006FBD52C4841
S1130CF00178C9B23148FFF7E3FD2B480178C9B246
S1130D002FA0FFF7DDFD2A480178C9B22748FFF775
S1130D10D7FD28480178C9B22A48FFF7D1FD01BDA3
S1130D20E4200000F0200000FC2000000821000066
S1130D308C200000881C0000581D0000B41C00001A
S1130D40A81F0000BC1F0000D01F0000E41F00000B
S1130D50F81F00000C2000002020000034200000B8
S1130D60B81E0000482000004C8004405C1A0000BB
S1130D70981A0000D41A0000101B00004C1B00003D
S1130D80881B0000441E00000700024006000240C9
S1130D9005000240040002400F000240000002402F
S1130DA00B000240D41E00000A000240682100002B
S1130DB0090002400800024070210000681F000082
S1130DC0202564007821000010B51E481E49884281
S1130DD00ED0002008E0042141431A4A042343436F
S1130DE0194CE3585350401C822149008842F2D3E5
S1130DF0144800F0E9F91549154A1648801A03E029
S1130E0013780B70521C491C0300581E002BF7D199
S1130E1011491248401A02E000220A70491C0200DB
S1130E20501E002AF8D10E490E4A0F48801A03E0DA
S1130E3013780B70521C491C0300581E002BF7D169
S1130E4010BD00BF00FCFF1F0000000000000000F8
S1130E50000000000000000010000020320000200C
S1130E6032000020100400001004000000B583B01C
S1130E703B480068F8218901014339480160394839
S1130E800078000705D53748007808210143354824
S1130E900170354880214902016001200190182029
S1130EA00090042301220021304800F0B7F93049B2
S1130EB008602F480068FF2800DCFEE72D48006822
S1130EC08021490201432B4801602948006802211E
S1130ED0FFF731FDFA218900FFF72DFD264908604F
S1130EE023480068FA218900FFF725FD234908609B
S1130EF0224800681C490968090F491CFFF71EFDB8
S1130F001F4908601E48006817490968090C490709
S1130F10490F491CFFF712FD1A49086000F010F848
S1130F201948C021890001601848C0218900016066
S1130F30E122520213480168154800F0E7FA07BDA0
S1130F4080B51448FF21091D0160124800689021F2
S1130F50090301430F4801601E2000F038F901BD68
S1130F603880044002D007404480044000127A00D4
S1130F701000002004800440200000201400002001
S1130F80180000201C00002040D0044044D004403D
S1130F9000C006401090044080B557480078800691
S1130FA002D55648FFF78CFC53480078000702D559
S1130FB05348FFF785FC50480078400702D5514854
S1130FC0FFF77EFC4C480078800702D54E48FFF7B7
S1130FD077FC4E480078000602D54D48FFF770FCB8
S1130FE04A480078400602D54A48FFF769FC47485A
S1130FF00078800602D54848FFF762FC4348007831
S1131000400702D54548FFF75BFC404800780007DD
S113101002D54348FFF754FC3C480078800702D5CA
S11310204048FFF74DFC39480078C0074DD53E488D
S1131030FFF746FC3D480078C0B24007400F032844
S113104002D13B48FFF73CFC38480078C0B2400767
S1131050400F042806D137480078400702D13648AB
S1131060FFF72EFC31480078C0B24007400F042837
S113107009D130480078C0B24007400F012802D19E
S11310802E48FFF71DFC29480078C0B24007400FE6
S1131090042809D127480078C0B24007400F02282D
S11310A002D12748FFF70CFC20480078C0B2400763
S11310B0400F042809D11F480078C0B24007400FF0
S11310C0032802D11F48FFF7FBFB10480078C0B289
S11310D0002810D108480078C0B200280BD10B4872
S11310E00178C9B21848FFF7EBFB03480178C9B28D
S11310F01648FFF7E5FB01BD01F00740A81D0000FD
S11311005C200000801F0000641E000000F0074007
S1131110941F0000381F0000501F0000241E000010
S1131120801E00009C1E0000FC1B000001E0074024
S1131130A820000002E00740B4200000C020000006
S1131140CC200000D8200000E01C0000081D000096
S113115010B5002400F01EFA00F0CAFA00F004FBF7
S11311601548007808210143134801701348FFF71C
S1131170A7FBA4B2220012491248FFF7B3FB0022D6
S11311800421104800F07EFA00F0BEFBC0B200F06B
S1131190C0FB641CA4B2FA20C000844200DB00241B
S11311A0A4B2220006490748FFF79CFB0022042151
S11311B0044800F067FAE7E738300540CC1D00002A
S11311C0802100002400002010490860704770B599
S11311D00400212C03DB0E48FFF772FB15E00D48D9
S11311E00568012620002021FFF7A5FB8E402E4331
S11311F00848066008480568012620002021FFF7FA
S11312009AFB8E402E430448066070BD08ED00E052
S1131210C41B000080E200E000E100E0F4B504003B
S11312200D001E00A6480078C0B280088007800F19
S1131230002807D1A2480078C00603D5A04800784A
S1131240800601D5012039E19E48844201DB21203A
S113125034E168460078002806D09B48201A9B4950
S1131260884201D3222029E1EDB2002D00D00125CE
S113127076B23000401E192801D341201EE1694690
S113128018200F567FB2380018381B2801D342208B
S113129014E1200076B23100FFF74DFB8C49401A6F
S11312A08C49884201D3432008E1200076B2310002
S11312B0FFF741FB7FB278438749401A8749884248
S11312C001D34520FAE0864800780100C320084095
S11312D084498C420ADA0100EDB2E8006A461278C9
S11312E09200024310201043084309E00100EDB2CC
S11312F0E8006A4612789200024320201043084313
S1131300774908707848844201DA002114E077486C
S1131310844201DA01210FE07548844201DA022196
S11313200AE07448844201DA032105E072488442E9
S113133001DA042100E00521704800788007800F5D
S11313400200C800382101408020084310436B4943
S1131350087068460078002810D0002000E0401C87
S113136000B26749884203DA554909788907F6D5F6
S113137053480078800701D423209FE0002000E038
S1131380401C00B2FA21C900884203DA4C490978AA
S1131390C906F5D44A480078C00601D511208DE06D
S11313A0002000E0401C00B2FA21C900884207DA9C
S11313B043490978C9B289088907890F0229F1D1FB
S11313C03F480078C0B280088007800F022801D00F
S11313D01A2073E04B4800782021014349480170EA
S11313E0494800780100E02008400100701EC00652
S11313F0C00E084344490870424800780100E020C8
S113140008400200183FF906C90E40200843104363
S11314103C490870002000E0401C00B2FA21C900D9
S1131420884203DA264909788906F5D524480078E4
S1131430800601D4162041E0002000E0401C00B2E8
S1131440FA210901884203DA1D4909784906F5D5CC
S11314501B480078400601D444202FE02A48007835
S1131460C106C90E491C27480078C506ED0E18357B
S1131470224800788006800E204A1070002000E088
S1131480401C00B2FA22D200904207DA0C4A1278C9
S1131490D2B292089207920F032AF1D10848007839
S11314A0C0B280088007800F032801D01B2005E00C
S11314B02000C9B2FFF73FFAEDB26843F2BD000065
S11314C00640064081F0FA02C0C62D004181BA01EF
S11314D080841E0081841E00006CDC0201751903E7
S11314E00140064001127A00D1121300A125260002
S11314F0414B4C0081969800012D3101004006407B
S1131500204E0000054006400440064010B504008B
S1131510080011001D4A944207D11D4A1268802315
S11315201B0113431A4A136006E0194A1268802308
S11315305B011343164A1360E278F3231340E3700C
S11315400022A270FA229200504310225143FFF766
S1131550F2F92278E0211140020092B2120AD20676
S1131560D20E0A4322706070E0780C210143E170CE
S113157010BD00B501798906FCD5C07900BD00B560
S113158002791206FCD5C17100BD000000B006400E
S11315903480044080B56E48022101706D480068B3
S11315A06D4901436B480160694800780321014398
S11315B067480170694869490978017068480021E1
S11315C001608148002101606548664901607F48E7
S11315D00021017000F00DF861480068802101438A
S11315E05F4801607848032101607D4800F060F89D
S11315F001BD70B576480021016076480021016084
S1131600754800210160754800210160704C002577
S113161034E0EDB27348405D2021FFF78CF90600F9
S1131620EDB27048405D2021FFF785F9F6B2042041
S11316307043205801228A400243F6B204207043CA
S11316402250EDB2072D18DBF6B2042070432018A7
S1131650806801228A400243F6B204204643A0195E
S11316608260EDB2042068435F4908181C380068A2
S1131670EDB25C49495D5D4A50546D1CEDB20B2DD1
S1131680C7DB70BD38B504000D0059480270EDB2D7
S1131690052D0CDA2078002804D108E0207800F029
S11316A0A9F8641C2800451EC0B20028F6D131BD3B
S11316B038B5050000244E480021017004E0287864
S11316C000F098F86D1C641CE4B2042C02DA28784B
S11316D00028F4D1E4B2042C09DA02E02E2000F050
S11316E089F820000400641CC0B20428F6DB31BD74
S11316F080B57B48FFF7DCFF7A4800780821014376
S113170078480170784800780821014376480170D0
S11317107648007808210143744801703348007802
S1131720012101433148017030480078022101430E
S11317302E4801702D480078042101432B48017084
S11317402A480078082101432848017001BD00009F
S11317500040064038800440003C08000140064038
S1131760003005406300B00880B56148FFF7A0FF72
S11317705C480078F72101405A4801705A480078C3
S1131780F72101405848017058480078F72101407A
S11317905648017015480078FE2101401348017035
S11317A012480078FD210140104801700F4800786C
S11317B0FB2101400D4801700C480078F7210140DD
S11317C00A48017001BD00000430054031000020CA
S11317D01030054014300540183005401C300540D9
S11317E0202100009C200000241900002030054026
S11317F03000002030B540490978002918D1C0B222
S1131800312802D0C0B26C280BD1374800780821A7
S113181001433548017038480078401C3649087047
S113182030BD31480078F72101402F480170F2E7BC
S1131830C0B2010061391A2900D22038C0B20100B7
S11318402B39302900D32E202B38C0B2022141433A
S1131850002023E0D2B2274B9B5C284CE35C072496
S1131860274D2D78AC40A343D2B2224CA45C234D27
S11318702B5589B2C0B20B18224CE35CD2B21D4C7A
S1131880A45C1E4D2C5DDBB21D4D2D78AB40234373
S1131890D2B2184CA25C194CA354401CC0B202280A
S11318A0B9DA154A1278042AB5DA134A1278521EA4
S11318B002235A43C0B21218C0B20028CAD1D2B20D
S11318C00C4B9B5C0D4CE35C0F240D4D2D78AC4010
S11318D0A343D2B2074CA45C084D2B55C9E70000C2
S11318E028210000383005402130054034300540BF
S11318F0302100009C2000003000002020300540F2
S113190031000020A419000080B50548FFF731FE1E
S113191002BD80B50100C9B20148FFF730FE01BD28
S113192000C00640010000000200000004000000A6
S1131930080000001000000020000000400000002B
S1131940800000000001000000020000000400000C
S1131950000800000010000000200000004000000B
S113196000800000000001000000020000000400EC
S113197000000800000010000000200000004000EB
S113198000008000000000010000000200000004CC
S113199000000008000000100000002000000040CB
S11319A000000080000004000002000000000F0599
S11319B006000B060F0206030D030D0707000F07B1
S11319C00F03000000000000000000000000000001
S11319D007070C0709050E06090701070D07060787
S11319E006000E0000070805000004060C060307A5
S11319F0070300060D0308070C040C0400000E077F
S1131A000E030B0680B5104801681048FEF758FF16
S1131A1001BD0D4800680E490968F82292010A4385
S1131A200B490A600B49FF22121D0A60704780B5FA
S1131A3008480068802149040143064801600648BB
S1131A40FEF73EFF01BD000004ED00E02C1C000089
S1131A503880044010900440F01D0000466C61730F
S1131A60682073697A653A202038204B42207072CE
S1131A706F6772616D20666C6173682C20302E3242
S1131A8035204B422070726F74656374696F6E20E9
S1131A90726567696F6E0000466C617368207369D4
S1131AA07A653A20203136204B422070726F67727B
S1131AB0616D20666C6173682C20302E35204B429A
S1131AC02070726F74656374696F6E2072656769E4
S1131AD06F6E0900466C6173682073697A653A20F9
S1131AE0203332204B422070726F6772616D206622
S1131AF06C6173682C2031204B422070726F7465C6
S1131B006374696F6E20726567696F6E0900000007
S1131B10466C6173682073697A653A2020363420F4
S1131B204B422070726F6772616D20666C617368DE
S1131B302C2032204B422070726F74656374696F7D
S1131B406E20726567696F6E09000000466C6173F0
S1131B50682073697A653A2020313238204B42205C
S1131B6070726F6772616D20666C6173682C2034CB
S1131B70204B422070726F74656374696F6E2072BB
S1131B806567696F6E090000466C6173682073694C
S1131B907A653A2020323536204B422070726F67C6
S1131BA072616D20666C6173682C2034204B422076
S1131BB070726F74656374696F6E20726567696FA4
S1131BC06E0900000A4552522120496E76616C6903
S1131BD064204952512076616C756520706173737D
S1131BE0656420746F20656E61626C652069727132
S1131BF02066756E6374696F6E210A000A0D5B6F4F
S1131C0075745352535D57616B65757020626974C6
S1131C10207365742066726F6D206C6F7720706F0F
S1131C20776572206D6F6465200000000A2A2A2AF5
S1131C302A64656661756C745F69737220656E747D
S1131C4065726564206F6E20766563746F722025FB
S1131C50642A2A2A2A2A0D0A0A0000000A0D556E4F
S1131C607265636F676E697A6564204B696E65742B
S1131C706973207375622D66616D696C7920646582
S1131C80766963652E0A0D000A0D556E7265636FE1
S1131C90676E697A6564204B696E65746973207038
S1131CA061636B61676520636F64652E202020206B
S1131CB0202000000A0D556E7265636F676E697AA5
S1131CC06564204B696E657469732066616D696C27
S1131CD079206174747269627574652E0A0D00004E
S1131CE05B6F75745352535D52434D5F535253307F
S1131CF0206973205A45524F2020203D202523304F
S1131D003258200D0A0D00005B6F75745352535DF9
S1131D1052434D5F53525331206973205A45524FF9
S1131D202020203D202523303258200D0A0D0000AC
S1131D300A0D556E7265636F676E697A6564204B30
S1131D40696E657469732066616D696C7920646578
S1131D50766963652E0A0D000A0D4C6F7720506F6B
S1131D60776572204C696E65207769746820436FCB
S1131D7072746578204D302B0A0D0A0D00000000A6
S1131D8010B5074979441831064C7C44163404E0F4
S1131D90081D0A68891888470100A142F8D110BDBE
S1131DA074000000800000000A0D53746F70204D11
S1131DB06F64652041636B6E6F776C656467652043
S1131DC04572726F72205265736574000A0D527504
S1131DD06E6E696E67207468652054575250495F6F
S1131DE0734C43442070726F6A6563742E0A0D004D
S1131DF00A2A2A2A2A41626F727420627574746FE7
S1131E006E20696E746572727570742A2A2A2A0AA1
S1131E100A000000F7EBFFFF240000001000002080
S1131E20000000000A0D4C6F7373206F6620457824
S1131E307465726E616C20436C6F636B20526573C2
S1131E4065740000455252212120556E646566690F
S1131E506E656420666C6173682073697A650A0D27
S1131E60000000000A0D436F7265204C6F636B75B0
S1131E7070204576656E74205265736574000000A9
S1131E800A0D4C6F7373206F66204C6F636B20696F
S1131E906E20504C4C205265736574000A0D4C6FD3
S1131EA0772D766F6C74616765204465746563741F
S1131EB020526573657400000A0D556E7265636F78
S1131EC0676E697A6564205352414D2053697A657F
S1131ED02E0A0D00466C61736820706172616D6535
S1131EE07465722076657273696F6E2025642000B4
S1131EF000F00BF8002801D0FFF742FF0020C04695
S1131F00C046FFF725F900F002F80120704780B5BC
S1131F1000F002F801BD00000746384600F002F860
S1131F20FBE7000080B5C046C046024A11001820F5
S1131F30ABBEFBE7260002000A0D45787465726E9D
S1131F40616C2050696E2052657365740000000056
S1131F500A0D5761746368646F6728434F502920E2
S1131F605265736574000000466C61736820766581
S1131F707273696F6E2049442025642000000000BC
S1131F800A0D536F667477617265205265736574C8
S1131F90000000000A0D506F7765722D6F6E20529D
S1131FA065736574000000005352414D2053697AF3
S1131FB0653A20302E35204B420A0D005352414DD4
S1131FC02053697A653A202031204B420A0D0000E3
S1131FD05352414D2053697A653A202032204B42B6
S1131FE00A0D00005352414D2053697A653A20206E
S1131FF034204B420A0D00005352414D2053697A5C
S1132000653A202038204B420A0D00005352414DBE
S11320102053697A653A20203136204B420A0D005C
S11320205352414D2053697A653A20203332204B74
S1132030420A0D005352414D2053697A653A2020DB
S11320403634204B420A0D0053696C69636F6E206D
S11320507265762025640A0D200000000A0D4D44A7
S11320604D2D4150205265736574000031367069FE
S11320706E202020202020200000000032347069CF
S11320806E202020202020200000000031303070FD
S1132090696E202020202020000000001618031460
S11320A01701000C0D0E0F004C4C53206578697419
S11320B020000000564C4C53302065786974200091
S11320C0564C4C533120657869742000564C4C535F
S11320D03220657869740000564C4C53332065787F
S11320E069742000333270696E2020202020200083
S11320F0343870696E202020202020003634706926
S11321006E20202020202000383070696E2020208E
S113211020202000C046C046C046C046FFF7E8FE67
S11321203132333500000000313838380000000007
S113213020202020000000000A0D0A0D00000000ED
S11321400A0D4B4C300000000A0D4B4C31000000CE
S11321500A0D4B4C320000000A0D4B4C33000000BA
S11321600A0D4B4C340000002025642000000000C0
S11321702025640A0D00000025640A0D00000000FB
S10B2180253034640000000066
S9032115C6
