S01800007573625F6465766963655F746F7765722E7372656363
S1130000F82F0020110400009B2100008D21000026
S11300108D2100008D2100008D2100008D21000024
S11300208D2100008D2100008D2100008D21000014
S11300308D2100008D2100008D2100008D21000004
S11300408D2100008D2100008D2100008D210000F4
S11300508D2100008D2100008D2100008D210000E4
S11300608D2100008D2100008D2100008D210000D4
S11300708D2100008D2100008D2100008D210000C4
S11300808D2100008D2100008D2100008D210000B4
S11300908D2100008D2100008D2100008D210000A4
S11300A08D2100008D2100008D2100008D21000094
S11300B08D2100008D210000B72100008D2100005A
S11300C0FFFFFFFFFFFFFFFFFFFFFFFFFFFFFFFF3C
S11300D0FFFFFFFFFFFFFFFFFFFFFFFFFFFFFFFF2C
S11300E0FFFFFFFFFFFFFFFFFFFFFFFFFFFFFFFF1C
S11300F0FFFFFFFFFFFFFFFFFFFFFFFFFFFFFFFF0C
S1130400FFFFFFFFFFFFFFFFFFFFFFFFFEFFFFFFF9
S113041000200021002200230024002500260027BC
S113042062B601F00DF8FEE780B57D487D490968A4
S113043001607D4800210170002000F0BDFB7B4875
S11304407B490160182000F016FC91480078802157
S113045001438F4801708E4800780006FBD48D4814
S1130460000A8D4908708B48000C8C490870894833
S1130470000E8B49087069480078022101436748DF
S1130480017088480078012101438648017086483C
S113049000788006800E844908707D4800784021E9
S11304A001437B48017081480078012101437F4862
S11304B00170BE48007810210143BC48017001BDA1
S11304C030B500250300C0B2002800D08000801C95
S11304D0C0B204244443534D2C59754D2D78ED0777
S11304E018D5744D296074490A704D490968C97951
S11304F009024B4D2D68AD794D19D2B2ADB292B20D
S1130500954207D2C0B2022804D1454909688979C5
S1130510694A1170C0B26949095C674A127891420C
S113052011D2C0B26549095C634A1278C0B2634D06
S11305302D5C521B604D2A705D4A1278FE251540D1
S11305405B4A15700AE05C4909785B4A002515701E
S1130550574A127801251543554A1570C0B208222E
S113056042434C4DAA18C9B2518009E0514A12685D
S1130570127822704F4A1268521C4E4D2A60641C35
S11305800A00511ED2B2002AF0D1A64909780122EC
S11305909A4011420DD0C0B2082148433D498822F7
S11305A00A54A04800780121994088439D49087065
S11305B00CE0C0B2082148433649C8220A5499487D
S11305C000780121994001439648017030BD10B56F
S11305D0401CC0B204224243124B9A58C0B20823B2
S11305E058432C4B18184388180003E014780C70F7
S11305F0521C491C1C00631EE4B2002CF6D1C0B28C
S113060010BDC0B280000821484322490818408820
S113061080B2000AC0B280B2704700008020074058
S1130620A8F8FF1F10F4FF1F40F9FF1FA0F0FF1FE1
S1130630DD0A00009E48052101709E4805210170D5
S11306409D48092101709D48012101709C480121A8
S113065001709C48012101709B48002101700D48E4
S1130660002141860B489949416399480021017052
S1130670984800210180074897494165B048802186
S11306800170B048FF2101800248C44941667047A7
S11306900C21074000F6FF1F9C200740B0200740B4
S11306A0B4200740842007400021074094200740DD
S11306B039F9FF1FA4F8FF1F3AF9FF1F002A0000B1
S11306C080B5AE4800684078002863D0052806D07D
S11306D006280DD0082857D0092838D063E0002216
S11306E000210020FFF7ECFEB248032101705CE01A
S11306F0A2480068C078012804D025D303280DD06F
S113070006D321E01222AC490020FFF7D9FE1DE0F8
S11307104322B3490020FFF7D3FE17E0974800684F
S1130720807804214843AF49085802789348006808
S1130730807804214843AB4909580020FFF7C0FEE4
S11307409C480121017001E000F01AF92DE08B486A
S11307500068C0788949096889784018A2490870F6
S113076086480068C0788549096889784018002857
S113077009D0FFF75FFF002200210020FFF7A0FE51
S11307808C480121017010E0012297490020FFF7F5
S113079097FE0AE0CC48002101800222CA490020C9
S11307A0FFF78EFE01E000F0EBF801BD08210740E1
S11307B080B51C480078FE2101401A4801706F483A
S11307C000680078C006C00EC0B2002803D002281A
S11307D019D00BD31DE0694800680078C00601D128
S11307E0FFF76EFFB9488821017014E000F0CCFADD
S11307F0C0B2002803D1B5488821017002E0B34893
S1130800C821017007E000F00FF8B048882101709A
S113081001E000F0B5F8AE480078DF210140AC48B3
S1130820017001BD3BF9FF1F80B554480068407852
S1130830002804D0012819D0032827D036E0A54881
S1130840007801214D4A126852799140084204D03F
S1130850684680214900018002E068460021018049
S1130860022269460020FFF72BFE1FE0994800781A
S11308700121424A1268527991408843954908708F
S1130880002200210020FFF71BFE0FE091480078B2
S113089001213A4A12685279914001438D4801700E
S11308A0002200210020FFF70BFEFFE701BD00003E
S11308B0C4200740C8200740CC200740D020074070
S11308C0D4200740D820074030F6FF1F64F7FF1FED
S11308D050F6FF1F52F6FF1FE4F7FF1F80B57E4856
S11308E00178082001407C480078C0B20009C0B2F9
S11308F0002811D0C9B2002921D1C0B28100082238
S11309005143724A00235354944909780122824086
S11309100A439248027012E0C9B2002902D000F0E2
S113092013F80CE069480078C0B280080007000F93
S11309300D2802D1FFF73CFF01E000F031F801BDC2
S113094060F6FF1F62F6FF1F80B51A48007803287F
S11309500DD10A480068807881490870154804213F
S1130960017080480078012101437E480170002213
S113097000210020FFF7A4FD01BD0000A8F8FF1F1F
S11309807948007802210143774801704F48882153
S113099001704E48202141807047000024F8FF1F59
S11309A06E480078012101436C4801706F4888212A
S11309B00170704740F9FF1F5C29000000B56A48C8
S11309C00078800705D568480078FD210140664815
S11309D0017067480078802101436548017000BDBB
S11309E03422000050F4FF1F3DF9FF1F5D48FF2132
S11309F001706048002101705F48002101705F4868
S1130A00002101705E48002101705E4800210170E0
S1130A105D48002101705D48002101705C4800219F
S1130A2001702A482021418028485A4941602748BA
S1130A30C821017025482021418124485649C160BC
S1130A402248C82101722148202141821F4853496C
S1130A5041611E48882101741C48202141831B48A0
S1130A604F49C1611948882101763F480D21017021
S1130A704C48FF2101703E48FF2101703848002195
S1130A8001704948FF21017048480078082101435A
S1130A9046480170454800780421014343480170E9
S1130AA04248007802210143404801703F480078E1
S1130AB0012101433D4801703C48007880210143F5
S1130AC03A4801707047000034F9FF1F00F6FF1F19
S1130AD0942007403FF9FF1F9020074080B5244829
S1130AE00078C00702D5FFF781FF36E02048007880
S1130AF0400702D51E48042101701D4800780006F5
S1130B0001D5FFF75BFF1A48007800070DD5284888
S1130B1000780221014326480170FFF7DFFE1448E4
S1130B200078082101431248017011480078C0067A
S1130B3005D50F480078102101430D4801700C4879
S1130B400078800709D50A480078C0B2022108401D
S1130B50184800F0C3FB00F0B5F801BD38F9FF1FD9
S1130B609820074039F9FF1FC020074000F6FF1FF7
S1130B70802007403BF9FF1F3CF9FF1FC4200740BA
S1130B80C8200740CC200740D0200740D42007408D
S1130B90D8200740A4F6FF1FC4F6FF1FE4F6FF1F8A
S1130BA004F7FF1F882007408C200740842007405B
S1130BB0942007407C2A000080B5C0B2002803D0EE
S1130BC0022819D008D328E018480068A021C902D7
S1130BD001431648016020E000F034F8134800682F
S1130BE01349014011480160104800688021C9027E
S1130BF001430E48016010E00C4800680D490140B3
S1130C000A4801600C4800688021890001430A48B1
S1130C1001600A4880218900016009480068802138
S1130C20C90201430648016001BD0000048004407C
S1130C30FFFFFEFFFFFFFBFF3880044014900440D9
S1130C4034800440704738B4012100220368001D39
S1130C50002B0BD00468001D0C4202D04D466D1EC3
S1130C6064192260241D1B1FF0D0FAE732BC7047C0
S1130C7010490860704770B50400212C03DB0E484E
S1130C8000F02CFB15E00D4805680126200020210A
S1130C9000F04CFB8E402E43084806600848056867
S1130CA001262000202100F041FB8E402E43044801
S1130CB0066070BD08ED00E0A824000080E200E0BA
S1130CC000E100E080B54C4800210170FFF7ACFB67
S1130CD09620800100F0A4F84849086047480021A4
S1130CE001714648002141714448082181718021E5
S1130CF0434800F075FB01BD10B53F48007800285B
S1130D0019D0202802D022281DD021E03D480078A7
S1130D10C0070FD53B480078FE21014039480170D7
S1130D2036490020FFF753FC040000220021002074
S1130D30FFF7C6FB0CE0344800780128FBD12E48AD
S1130D400021017004E0002200210020FFF7B8FB1D
S1130D502C480078000716D50320FFF752FC040046
S1130D602A48202101802A488021017025480078E2
S1130D70F721014023480170022226490220FFF78F
S1130D809FFB0020040010BD10B500242248006819
S1130D9040780A2808D0202812D021280AD02228F6
S1130DA013D0AA2816D022E001221C490020FFF704
S1130DB087FB1CE0072211490020FFF781FB16E0A6
S1130DC00D4820210170012411E00B4822210170FB
S1130DD000240CE080210A4800F002FB0948007856
S1130DE080210143074801700548FF21017020005C
S1130DF0C0B210BD0000000041F9FF1FACF8FF1F96
S1130E00B4F8FF1F38F9FF1F40F9FF1F62F6FF1FF8
S1130E1060F6FF1F24F8FF1FA8F8FF1F3EF9FF1F0D
S1130E200100090E0200120AFF231B021340C91815
S1130E30FF22120202401202891800060918080053
S1130E407047000010B50C001168012902D0022976
S1130E5004D009E0C0B25168884705E09168087081
S1130E609068401C9060FFE72068401C206010BD23
S1130E70F0B51C0000260500002028706D1C002A17
S1130E801CD00F68002F09D130202870761C300048
S1130E90F0BD30320F002A706D1C761C002FF6D086
S1130EA03800210000F042FA0100080060433A1AB9
S1130EB0002AEED5D04302003132EBE70F68002F51
S1130EC008D130202870761CE1E7373107002970FB
S1130ED06D1C761C002FDAD03800210000F029FAAE
S1130EE001006143791A0A29EFD23031EEE7F8B5EF
S1130EF00F0015001E00040005E032002900302018
S1130F00FFF7A0FF641CBC42F7DBF1BDF8B50F008E
S1130F1015001E00040005E0320029002020FFF720
S1130F2091FF641CBC42F7DBF1BDF1B590B0170032
S1130F30002000900E0005E0109A69461800FFF7A3
S1130F4081FF761C3378002B00D1C4E1252B12D00D
S1130F500A2B05D0109A69461800FFF773FF09E0C1
S1130F60109A69460D20FFF76DFF109A69460A2012
S1130F70FFF768FFE5E70025002102E028000125CE
S1130F80054300291FD1761C307820280CD0232853
S1130F9012D02B2804D02D28F0D0302808D00FE010
S1130FA0280002250543ECE7280004250543E8E76B
S1130FB0280008250543E4E7280010250543E0E759
S1130FC0761E0121DDE700200290002105E0029851
S1130FD00A225043C01830380290002908D1761CE8
S1130FE03378180030380928F1D9761E0121F4E746
S1130FF0761C30782E280BD10021FFE7002908D178
S1131000761C307830380928F8D9761E0121F5E7A6
S1131010761E761C30784C2806D0682802D06C28BE
S113102001D002E002E001E000E0761E761C337895
S11310301800582871D0622800D1CAE0632800D172
S113104013E1642813D0692811D06E2800D13DE142
S11310506F2800D1B2E0702800D1C5E0732800D118
S11310600BE1752800D1CAE0782856D064E73868C7
S113107006903F1D0A23012206A907A8FFF7F8FEE0
S1131080040007A8001905900698002803D52D2010
S11310900190641C0DE0A80703D52B200190641C6B
S11310A007E0680703D520200190641C01E00020BC
S11310B0019000200490280711D50198002804D03D
S11310C0109A69460198FFF7BDFE01200490109B19
S11310D06A4602992000FFF70AFF029C11E0E80724
S11310E00FD4109B6A4602992000FFF70FFF019866
S11310F0002804D0109A69460198FFF7A3FE012046
S113110004900498002807D10198002804D0109A6C
S113111069460198FFF796FE9AE0386803903F1DF0
S11311201023002203A907A8FFF7A2FE040007A8C2
S11311300019059000200490280715D5E8060BD562
S1131140109A69463020FFF77DFE109A6946782090
S1131150FFF778FE01200490109B6A460299200054
S1131160FFF7C5FE029C18E0E80716D4E80600D590
S1131170A41C109B6A4602992000FFF7C7FEE806EC
S11311800BD5109A69463020FFF75CFE109A694629
S11311907820FFF757FE01200490E8060DD5049847
S11311A000280AD1109A69463020FFF74BFE109AA6
S11311B069467820FFF746FEA41C49E0386803908E
S11311C03F1D0823002203A907A8FFF751FE0400CE
S11311D01FE0386803903F1D0223002203A907A8DB
S11311E0FFF746FE040014E0386803903F1D102307
S11311F0002203A907A8FFF73BFE040009E03868B2
S113120003903F1D0A23002203A907A8FFF730FE1D
S1131210040007A800190590280707D5109B6A4603
S113122002992000FFF763FE029C11E0E8070FD447
S1131230109B6A4602992000FFF768FE08E0109AA6
S1131240694605980078FFF7FDFD0598401E059056
S1131250059800780028F2D1E80705D5109B6A4666
S113126002992000FFF752FE6BE63868C0B23F1DBA
S1131270109A6946FFF7E6FD63E6386801903F1D62
S11312800198002821D0019800F0C8F80400E8076C
S11312900FD4109B6A4602992000FFF737FE08E03E
S11312A0109A694601980078FFF7CCFD0198401C1C
S11312B00190019800780028F2D1E80705D5109B29
S11312C06A4602992000FFF721FE3AE638683F1D7E
S11312D00099016035E6009811B0F0BD0EB400B578
S11312E084B0012100910549019105AA01006846D5
S11312F0FFF71BFE049908B008470000AD29000061
S1131300F446002804D4494200F013F840426047F0
S11313104042002905D45FD000F00BF84042494216
S11313206047494200F005F84942604703460B43D1
S1131330E6D40022030A8B420BD203098B4219D252
S113134043088B422ED2411A00D201465241104624
S11313507047FF2209023FD012068B4205D31212B6
S113136009028B4201D31212090203098B4219D3D9
S113137000E0090AC3098B4201D3CB01C01A5241D0
S113138083098B4201D38B01C01A524143098B421A
S113139001D34B01C01A524103098B4201D30B0103
S11313A0C01A5241C3088B4201D3CB00C01A524128
S11313B083088B4201D38B00C01A524143088B42ED
S11313C001D34B00C01A5241884200D3401A524103
S11313D0CFD201461046704708B500F02FF808BD7B
S11313E0C9B24218521E074B1A60074A1060074AD6
S11313F01170074908600749086007480021017017
S11314007047000084F6FF1F80F6FF1F36F9FF1FA8
S113141088F6FF1F8CF6FF1F37F9FF1F00B5010088
S11314200020002902D1002006E0401C0A0011001F
S1131430491C1278002AF8D100BD00007047000052
S113144080B57D480021016000F0C4F900F014FA71
S11314507A48FFF743FF00F0ADFA00F003F800F01C
S113146085FBFEE780B576480068000F4007400F13
S1131470002806D002280CD007D3042811D00CD39E
S113148013E07048FFF72AFF12E06F48FFF726FFCA
S11314900EE06E48FFF722FF0AE06D48FFF71EFFDB
S11314A006E06C48FFF71AFF02E06B48FFF716FFEF
S11314B063480068000E4007400F042802D0052846
S11314C004D007E065A0FFF709FF06E064A0FFF77A
S11314D005FF02E06348FFF701FF59480068000771
S11314E0000F00280CD001280ED0022810D00428A8
S11314F012D0052814D0062815D0082816D019E0D3
S11315005948FFF7EBFE18E05848FFF7E7FE14E0F0
S11315108648FFF7E3FE10E08548FFF7DFFE0CE0A6
S11315208448FFF7DBFE8448FFF7D8FE8348FFF7C3
S1131530D5FE02E08248FFF7D1FE41480068000D65
S11315404007400F012803D17E48FFF7C7FE02E0A1
S11315507D48FFF7C3FE3A480068000C4007400F7F
S113156000280BD0022811D00CD3042816D011D394
S113157006281BD016D307281CD01FE07348FFF79A
S1131580ADFE1EE07248FFF7A9FE1AE07148FFF7AE
S1131590A5FE16E07048FFF7A1FE12E06F48FFF7C2
S11315A09DFE0EE06E48FFF799FE0AE06D48FFF7D6
S11315B095FE06E06C48FFF791FE02E06B48FFF7EA
S11315C08DFE0F2189B26A48FFF788FE00F050F8BB
S11315D068480068000E0007000F00280CD001289E
S11315E00ED0032810D0052812D0072814D00928BB
S11315F016D00F2818D01BE05F48FFF76FFE1AE0E3
S11316005E48FFF76BFE16E05D48FFF767FE12E0E9
S11316105C48FFF763FE0EE05B48FFF75FFE0AE0FD
S11316205A48FFF75BFE06E05748FFF757FE02E013
S11316305748FFF753FE01BD00810440942A00007F
S1131640248004409C2A0000A42A0000AC2A000044
S1131650B42A0000BC2A0000142600003400000054
S11316603500000040250000D0290000E0290000DA
S113167080B548480321017047480021017047485C
S11316800021017046480021017046480121017083
S1131690454880210170444800780006FBD5434842
S11316A00178C9B24248FFF719FE42480178C9B22D
S11316B04148FFF713FE41480178C9B23E48FFF79D
S11316C00DFE3F480178C9B23E48FFF707FE314896
S11316D0032101703048002101703048002101705D
S11316E02F48042101702F48012101702E488021C8
S11316F001702D4800780006FBD52C480178C9B24A
S11317003148FFF7EBFD2B480178C9B22FA0FFF752
S1131710E5FD2A480178C9B22748FFF7DFFD2848CC
S11317200178C9B22A48FFF7D9FD01BD4C2A00004F
S1131730582A0000642A0000702A0000F0290000E2
S11317406C2500003C26000098250000A828000015
S1131750BC280000D0280000E4280000F82800007D
S11317600C29000020290000342900009C270000D7
S1131770482900004C800440402300007C230000E2
S1131780B8230000F4230000302400006C2400007F
S1131790282700000700024006000240050002401E
S11317A0040002400F000240000002400B0002400F
S11317B0B82700000A000240C42A000009000240C1
S11317C008000240CC2A000068280000202564009C
S11317D0D42A000010B51E481E4988420ED00020AD
S11317E008E0042141431A4A04234343194CE358B3
S11317F05350401C822149008842F2D31448FFF719
S113180037FA1549154A1648801A03E013780B7005
S1131810521C491C0300581E002BF7D111491248D1
S1131820401A02E000220A70491C0200501E002ADD
S1131830F8D10E490E4A0F48801A03E013780B7052
S1131840521C491C0300581E002BF7D110BD00BFC9
S113185000F0FF1F0000000010F4FF1FE42100004F
S11318603422000000F6FF1F42F9FF1F42F9FF1F58
S1131870100400001004000000B583B03F48006865
S1131880F821890101433D4801603D480078000783
S113189005D53B480078082101433948017039488F
S11318A08021490201600120019018200090042346
S11318B001220021344800F0FBF934490860334820
S11318C00068FF2800DCFEE73148006880214902F7
S11318D001432F4801602D4800680221FFF726FDCF
S11318E0FA218900FFF722FD2A4908602748006889
S11318F0FA218900FFF71AFD274908602648006885
S113190020490968090F491CFFF713FD23490860A2
S1131910224800681B490968090C4907490F491CFA
S1131920FFF707FD1E49086000F017F81D48C021A5
S1131930890001601C48C0218900016014480068C6
S11319408021C904014312480160E1225202114876
S11319500168164800F024FB07BD80B51448FF2138
S1131960091D0160124800689021090301431048D1
S113197001601E20FFF77FF901BD0000388004409C
S113198002D007404480044000127A0090F6FF1F02
S113199004800440A0F6FF1F94F6FF1F98F6FF1F73
S11319A09CF6FF1F389004403C90044000A0064081
S11319B01090044080B557480078800602D55648F8
S11319C0FFF78CFC53480078000702D55348FFF713
S11319D085FC50480078400702D55148FFF77EFC4B
S11319E04C480078800702D54E48FFF777FC4E48F4
S11319F00078000602D54D48FFF770FC4A4800788D
S1131A00400602D54A48FFF769FC4748007880063B
S1131A1002D54848FFF762FC43480078400702D5E6
S1131A204548FFF75BFC40480078000702D543486F
S1131A30FFF754FC3C480078800702D54048FFF784
S1131A404DFC39480078C0074DD53E48FFF746FCA9
S1131A503D480078C0B24007400F032802D13B48FC
S1131A60FFF73CFC38480078C0B24007400F042818
S1131A7006D137480078400702D13648FFF72EFCDC
S1131A8031480078C0B24007400F042809D13048DB
S1131A900078C0B24007400F012802D12E48FFF75A
S1131AA01DFC29480078C0B24007400F042809D122
S1131AB027480078C0B24007400F022802D12748C7
S1131AC0FFF70CFC20480078C0B24007400F042800
S1131AD009D11F480078C0B24007400F032802D143
S1131AE01F48FFF7FBFB10480078C0B2002810D154
S1131AF008480078C0B200280BD10B480178C9B25D
S1131B001848FFF7EBFB03480178C9B21648FFF702
S1131B10E5FB01BD01F007408C260000C029000050
S1131B20802800004827000000F0074094280000A7
S1131B30382800005028000008270000642700000F
S1131B4080270000E024000001E00740102A000084
S1131B5002E007401C2A0000282A0000342A000062
S1131B60402A0000C4250000EC25000080B500F0E8
S1131B700CF84048FFF7B2FB3F48FFF7AFFB3F4884
S1131B80FFF7ACFB00F0BAFAF3E780B53C48006815
S1131B908021090101433A4801603A48A021C90063
S1131BA0016039480068E0218843374908603648B5
S1131BB000684021014334480160344834490160DD
S1131BC0344800784021014332480170324800789B
S1131BD0FD2101403048017030480078FB2101406C
S1131BE02E4801702D480078802101432B48017054
S1131BF028480078BF210140264801702848007811
S1131C00BF2101402648017022480078E0210140AC
S1131C102048017022480078E021014020480170EA
S1131C201C480078182101431A4801701C480078A8
S1131C30032101431A4801701948007840210143E7
S1131C4017480170174800784006FBD51148007802
S1131C50402101430F480170104800788006800E2F
S1131C600E490870E12252020F49104800F098F919
S1131C7001BD0000782200002C2100000023000098
S1131C80388004400CB00440048004404480044084
S1131C900000011005400640014006400040064097
S1131CA0044006400640064080BB000000A00640F9
S1131CB0F4B504000D001E00A6480078C0B28008E8
S1131CC08007800F002807D1A2480078C00603D5FA
S1131CD0A0480078800601D5012039E19E4884425D
S1131CE001DB212034E168460078002806D09B48B7
S1131CF0201A9B49884201D3222029E1EDB2002D0C
S1131D0000D0012576B23000401E192801D34120AD
S1131D101EE1694618200F567FB2380018381B2878
S1131D2001D3422014E1200076B23100FFF7FEFA1D
S1131D308C49401A8C49884201D3432008E1200091
S1131D4076B23100FFF7F2FA7FB278438749401A3E
S1131D508749884201D34520FAE08648007801008B
S1131D60C320084084498C420ADA0100EDB2E8003D
S1131D706A4612789200024310201043084309E097
S1131D800100EDB2E8006A46127892000243202076
S1131D9010430843774908707848844201DA0021E7
S1131DA014E07748844201DA01210FE07548844247
S1131DB001DA02210AE07448844201DA032105E0D1
S1131DC07248844201DA042100E005217048007859
S1131DD08007800F0200C80038210140802008439A
S1131DE010436B49087068460078002810D0002022
S1131DF000E0401C00B26749884203DA554909787B
S1131E008907F6D553480078800701D423209FE042
S1131E10002000E0401C00B2FA21C900884203DA25
S1131E204C490978C906F5D44A480078C00601D55A
S1131E3011208DE0002000E0401C00B2FA21C9000E
S1131E40884207DA43490978C9B289088907890FA2
S1131E500229F1D13F480078C0B280088007800F82
S1131E60022801D01A2073E04B4800782021014356
S1131E7049480170494800780100E0200840010009
S1131E80701EC006C00E08434449087042480078DA
S1131E900100E02008400200183FF906C90E402066
S1131EA0084310433C490870002000E0401C00B285
S1131EB0FA21C900884203DA264909788906F5D54A
S1131EC024480078800601D4162041E0002000E078
S1131ED0401C00B2FA210901884203DA1D4909783D
S1131EE04906F5D51B480078400601D444202FE06C
S1131EF02A480078C106C90E491C27480078C5063F
S1131F00ED0E1835224800788006800E204A1070A5
S1131F10002000E0401C00B2FA22D200904207DA0E
S1131F200C4A1278D2B292089207920F032AF1D186
S1131F3008480078C0B280088007800F032801D0C9
S1131F401B2005E02000C9B2FFF7F0F9EDB26843A9
S1131F50F2BD00000640064081F0FA02C0C62D0022
S1131F604181BA0180841E0081841E00006CDC0261
S1131F70017519030140064001127A00D1121300C1
S1131F80A1252600414B4C0081969800012D31017A
S1131F9000400640204E0000054006400440064034
S1131FA0F6B500200026002700220023474C2568B0
S1131FB08024E4002C43454D2C60454C2578F324C3
S1131FC02C40434D2C700C00203C424DAC4208D3B5
S1131FD00021414802681000404A02403E48026025
S1131FE0FEE7019CFA2080004143009104250098FB
S1131FF02100EDB26943FFF79CF901000098EDB2AE
S11320006943FFF796F9844201D2061B00E0261AC1
S1132010EDB22F00052506E0231A9E4202D31E00CE
S1132020EDB22F006D1CEDB2212D0FDA00982100C6
S1132030EDB26943FFF77DF901000098EDB2694301
S1132040FFF777F98442E7D2031BE6E72000642117
S1132050FFF76FF903214843864235D23800001F49
S1132060052805D21E480078022101431C4801704E
S11320701C480278D2B21F2082431100781EC0B2DD
S1132080C206D20E0A43174811000170D206D20EBE
S1132090521C009854432100FFF74BF901001248E9
S11320A00278D2B21F2082430800000AC006C00E84
S11320B010430D4A10700D480170054800780C213A
S11320C0014303480170F3BDFEE70000348004407F
S11320D003A0064031C3000004800440FFFFFFF367
S11320E00BA006400AA0064000A0064001A006403E
S11320F000B502791206FCD5C17100BD80B508484F
S1132100FFF7ECF80748FFF7E9F8FEF7DBFDFEF709
S1132110F3FD0548FFF7E2F8FEF7EEFDFCE70000EB
S1132120D4260000D4270000BC2200000A0D20633E
S11321306F6E6E656374204B4C34362055534220C9
S1132140746F2050432C20207761697420666F726D
S113215020656E756D65726174696F6E2C205553C0
S11321604220697320636F6E6669677572656420C7
S11321706173204344432064657669636520284382
S11321804F4D20706F7274290000000080B5104814
S113219001681048FFF7A2F801BD0D4800680E4918
S11321A00968F82292010A430B490A600B49FF228D
S11321B0121D0A60704780B50848006880214904F0
S11321C00143064801600648FFF788F801BD000096
S11321D004ED00E010250000388004401090044015
S11321E0B0260000A4F6FF1FC4F6FF1FE4F6FF1F8D
S11321F004F7FF1F24F7FF1F44F7FF1F64F7FF1FB7
S113220084F7FF1FA4F7FF1FC4F7FF1FE4F7FF1FA6
S113221004F8FF1F24F8FF1F44F8FF1F64F8FF1F92
S113222084F8FF1FDC2A00007029000084290000C4
S11322309829000009024300020100C03209040089
S1132240000102020101052400100105240100011E
S1132250042402000524060001070581032000026E
S113226009040100020A000001070582022000009F
S113227007050302200000000A0D2A2A2A2A2A2A16
S11322802A2A2A2A2A2A2A2A2A2A2A2A2A2A2A2AAA
S11322902A20555342206465766963652064656D20
S11322A06F20636F646520202A2A2A2A2A2A2A2A70
S11322B02A2A2A2A2A2A2A0A00000000456E756D55
S11322C065726174656421212053656E6420616EBA
S11322D0792063686172616374657220746F20741D
S11322E0686520726563656E746C7920656E756DC2
S11322F0657261746564206465766963650A0000CB
S11323000A0D20777269746520616E7920636861B3
S113231072616374657220696E746F2074686520DD
S11323207465726D696E616C20616E6420697420DD
S113233077696C6C206265206563686F6564200052
S1132340466C6173682073697A653A202038204BA3
S1132350422070726F6772616D20666C6173682CC5
S113236020302E3235204B422070726F74656374B6
S1132370696F6E20726567696F6E0000466C6173E9
S1132380682073697A653A20203136204B422070E8
S1132390726F6772616D20666C6173682C20302ED9
S11323A035204B422070726F74656374696F6E20C0
S11323B0726567696F6E0900466C617368207369A2
S11323C07A653A20203332204B422070726F677254
S11323D0616D20666C6173682C2031204B42207043
S11323E0726F74656374696F6E20726567696F6E6E
S11323F009000000466C6173682073697A653A20AD
S1132400203634204B422070726F6772616D2066F3
S11324106C6173682C2032204B422070726F74659B
S11324206374696F6E20726567696F6E09000000DE
S1132430466C6173682073697A653A2020313238BA
S1132440204B422070726F6772616D20666C6173FD
S1132450682C2034204B422070726F746563746959
S11324606F6E20726567696F6E090000466C617358
S1132470682073697A653A2020323536204B422031
S113248070726F6772616D20666C6173682C2034A2
S1132490204B422070726F74656374696F6E207292
S11324A06567696F6E0900000A4552522120496E22
S11324B076616C6964204952512076616C7565209F
S11324C070617373656420746F20656E61626C65FE
S11324D0206972712066756E6374696F6E210A00DB
S11324E00A0D5B6F75745352535D57616B6575705C
S11324F020626974207365742066726F6D206C6F3E
S11325007720706F776572206D6F6465200000001E
S11325100A2A2A2A2A64656661756C745F69737273
S113252020656E7465726564206F6E2076656374D1
S11325306F722025642A2A2A2A2A0D0A0A0000001A
S11325400A0D556E7265636F676E697A6564204B18
S1132550696E65746973207375622D66616D696C4B
S113256079206465766963652E0A0D000A0D556E3F
S11325707265636F676E697A6564204B696E657412
S11325806973207061636B61676520636F64652E96
S113259020202020202000000A0D556E7265636FF4
S11325A0676E697A6564204B696E65746973206629
S11325B0616D696C79206174747269627574652ED9
S11325C00A0D00005B6F75745352535D52434D5FA7
S11325D053525330206973205A45524F2020203DD6
S11325E0202523303258200D0A0D00005B6F7574CE
S11325F05352535D52434D5F5352533120697320FC
S11326005A45524F2020203D202523303258200D9A
S11326100A0D00000A0D556E7265636F676E697A64
S11326206564204B696E657469732066616D696CBD
S113263079206465766963652E0A0D000A0D4C6F76
S11326407720506F776572204C696E6520776974C6
S11326506820436F72746578204D302B0A0D0A0D83
S11326600000000010B5074979441831064C7C4439
S1132670163404E0081D0A68891888470100A1423D
S1132680F8D110BD74000000800000000A0D5374DE
S11326906F70204D6F64652041636B6E6F776C655E
S11326A0646765204572726F7220526573657400A9
S11326B00A2A2A2A2A41626F727420627574746F1E
S11326C06E20696E746572727570742A2A2A2A0AD9
S11326D00A0000000A0A2A2A2A2A2A2A2A2A2A2A34
S11326E020584356522054657374202A2A2A2A2AD1
S11326F02A2A2A2A2A0A0A004FE5FFFF4403000077
S113270000F6FF1F000000000A0D4C6F7373206F6A
S1132710662045787465726E616C20436C6F636BE0
S11327202052657365740000455252212120556E74
S1132730646566696E656420666C6173682073699C
S11327407A650A0D000000000A0D436F7265204C83
S11327506F636B7570204576656E74205265736582
S1132760740000000A0D4C6F7373206F66204C6F69
S1132770636B20696E20504C4C2052657365740065
S11327800A0D4C6F772D766F6C7461676520446514
S11327907465637420526573657400000A0D556E88
S11327A07265636F676E697A6564205352414D2088
S11327B053697A652E0A0D00466C61736820706156
S11327C072616D657465722076657273696F6E20CF
S11327D02564200057616974696E6720666F7220F2
S11327E0656E756D65726174696F6E2E2E2E0A00AA
S11327F000F00BF8002801D0FFF734FF0020C0469A
S1132800C046FFF7B3F900F002F80120704780B525
S113281000F002F801BD00000746384600F002F857
S1132820FBE7000080B5C046C046024A11001820EC
S1132830ABBEFBE7260002000A0D45787465726E94
S1132840616C2050696E205265736574000000004D
S11328500A0D5761746368646F6728434F502920D9
S11328605265736574000000466C61736820766578
S11328707273696F6E2049442025642000000000B3
S11328800A0D536F667477617265205265736574BF
S1132890000000000A0D506F7765722D6F6E205294
S11328A065736574000000005352414D2053697AEA
S11328B0653A20302E35204B420A0D005352414DCB
S11328C02053697A653A202031204B420A0D0000DA
S11328D05352414D2053697A653A202032204B42AD
S11328E00A0D00005352414D2053697A653A202065
S11328F034204B420A0D00005352414D2053697A53
S1132900653A202038204B420A0D00005352414DB5
S11329102053697A653A20203136204B420A0D0053
S11329205352414D2053697A653A20203332204B6B
S1132930420A0D005352414D2053697A653A2020D2
S11329403634204B420A0D0053696C69636F6E2064
S11329507265762025640A0D200000001201100122
S113296002000020A2150FA50000010203010000CF
S11329701403460072006500650073006300610083
S11329806C00650012035500530042002D005500F1
S1132990410052005400000012035400450053004B
S11329A054005F0031002E003000000080B50100AB
S11329B0C9B20248FFF79CFB01BD000000A006401D
S11329C00A0D4D444D2D415020526573657400002D
S11329D0313670696E202020202020200000000065
S11329E0323470696E202020202020200000000056
S11329F031303070696E202020202020000000003B
S1132A0020202020202020202020202020202020C2
S1132A104C4C53206578697420000000564C4C538C
S1132A203020657869742000564C4C533120657809
S1132A3069742000564C4C53322065786974000048
S1132A40564C4C53332065786974200033327069D6
S1132A506E20202020202000343870696E20202031
S1132A6020202000363470696E2020202020200091
S1132A70383070696E202020202020000A555342EF
S1132A80204572726F720A00C046C046C046C046F6
S1132A90FFF7AEFE0A0D0A0D000000000A0D4B4CB4
S1132AA0300000000A0D4B4C310000000A0D4B4C65
S1132AB0320000000A0D4B4C330000000A0D4B4C51
S1132AC03400000020256420000000002025640A52
S1132AD00D00000025640A0D000000000403090431
S9032A8949
