S01600007573625F686F73745F746F7765722E7372656317
S1130000F85F0020110400001B4E00000D4E00009C
S11300100D4E00000D4E00000D4E00000D4E000070
S11300200D4E00000D4E00000D4E00000D4E000060
S11300300D4E00000D4E00000D4E00000D4E000050
S11300400D4E00000D4E00000D4E00000D4E000040
S11300500D4E00000D4E00000D4E00000D4E000030
S11300600D4E00000D4E00000D4E00000D4E000020
S11300700D4E00000D4E00000D4E00000D4E000010
S11300800D4E00000D4E00000D4E00000D4E000000
S11300900D4E00000D4E00000D4E00000D4E0000F0
S11300A02F0F00000D4E00000D4E00000D4E0000FD
S11300B0CD1000000D4E0000374E00000D4E000024
S11300C0FFFFFFFFFFFFFFFFFFFFFFFFFFFFFFFF3C
S11300D0FFFFFFFFFFFFFFFFFFFFFFFFFFFFFFFF2C
S11300E0FFFFFFFFFFFFFFFFFFFFFFFFFFFFFFFF1C
S11300F0FFFFFFFFFFFFFFFFFFFFFFFFFFFFFFFF0C
S1130400FFFFFFFFFFFFFFFFFFFFFFFFFEFFFFFFF9
S113041000200021002200230024002500260027BC
S113042062B603F009FDFEE700B51149002003E0C0
S113043000220A71401C10310A28F9D300BD10B5FE
S1130440010000240A480022140001E0641C10305A
S11304500A2C06D20279002AF8D10C22001D00F0E1
S113046006FE0A2C01D2200001E00020C04310BD8A
S113047040EBFF1FF9B589B015000A200190C3486D
S11304800022026010A800882A8910AB1B889A42B7
S113049001D2288901E010A8008810AA1080BC4865
S11304A000902020285C002803D1287F4006400EBD
S11304B002E02A7F80201043B64A1070012901D13E
S11304C0802000E000204D210143B3480170E87F03
S11304D0032801D1002700E0EF6800260024AF487C
S11304E0007880060ED5012000F0FAFD641C01237B
S11304F000220F21C54800F027FE022802D1052C56
S1130500EDD1C34E002E00D026E12020285C002827
S11305100AD0C0480068C049096810AA128851432B
S113052040180400240C09E0D1480068D149096846
S113053010AA1288514340180400240C72B600F02B
S1130540E3FD0490CC4880680499884204D204985E
S1130550C9498968401A03E0C74880680499401A69
S113056007900798C54900F017FE081900280DD018
S1130570C348007804210143C1480170C048007891
S11305804007FBD500F0C0FDBB498860BD48002191
S11305900170BB48007804210143B9480170BA488E
S11305A0FF2101700998002803D002287CD03DD394
S11305B0BDE0B648400A4002009949780A00D207D3
S11305C0D20FD1000143102008432863AF48400AEA
S11305D04002009949780A00D207D20FD1000143A2
S11305E0102008430A994160A848400A4002009933
S11305F049780A00D207D20FD100014310200843E2
S113060010A909888905890D090480220A4302601A
S1130610687F0007000FD0210143C3480170009890
S11306204078012141400098417080E09748400A99
S11306304002009909780A00D207D20FD100014381
S113064029639248400A4002009909780A00D207B7
S1130650D20FD10001430A9848608C48410A4902EC
S1130660009800780200D207D20FD000084310A9E6
S113067009888905890D09042C22AA5C1300DB076B
S1130680DB0F9A010A43802111430160687F000750
S1130690000F90210143A4480170009800780121C3
S11306A041400098017042E07848400A40020099B5
S11306B049780A00D207D20FD10001431020084321
S11306C028637248400A4002009949780A00D20718
S11306D0D20FD1000143102008430A9941606B48AE
S11306E0400A4002009949780A00D207D20FD1008B
S11306F001431020084310A909888905890D0904BC
S11307002C22AA5C1300DB07DB0F9A010A43802129
S113071011430160687F0007000F102101438248E4
S1130720017000984078012141400098417062B600
S11307300024642300220F21344800F005FD03281F
S11307400AD1012000F0CCFC641C642CF1D10F26EA
S1130750F6430E480560FFE72C480079800701D571
S11307602B4E81E029480079400778D50421274899
S113077000F0DEFC286B006843490978AD22114281
S11307800ED041480078C0B246426DE03CEBFF1FFA
S1130790FCEAFF1F98200740C02007409420074030
S11307A0010089080907090F002927D0891E01299A
S11307B008D9083914D0491E04D0C91E0DD0491EC9
S11307C045D04CE00027000C8605B60D2C20285C93
S11307D0012141402C20295441E09A4E00273EE05B
S11307E0FF26F643002F05D00198E968C91B48434A
S11307F000F076FC052000F073FC30E00024019B3F
S11308009BB200220F21014808E000BF1CEBFF1F30
S113081000F8FFFFE0EBFF1FE4EBFF1F00F094FC88
S1130820032811D1012000F05BFC641C322CE6D1BA
S11308300F26F64384480560002F05D00198E96827
S1130840C91B484300F04CFC322C85D107E07F4E95
S11308500198E968C91B484300F042FCFFE73800EF
S1130860471E002800D038E630000BB0F0BD00BFB2
S1130870E8EBFF1FECEBFF1FF0EBFF1FD430000091
S113088080200740AC2007408820074000E8FF1F75
S1130890F8B504000800150000940022002100248B
S11308A0069E684FBE4201D1862429E0FF27FF43FC
S11308B0BE4201D0002E20D40024002B03D1FF21FE
S11308C0C9438E4200D19724C17F00290CD1302125
S11308D0695C002905D0E9686A6830260027AF55AD
S11308E00EE02969AA680BE0817F002902D0E9683B
S11308F06A6805E02969AA6802E0002E00D59724F9
S11309000026EE6300262E60AE69514F3E60EE6B0A
S1130910002E07D16E69002E04D00094CB1AA96969
S11309206C69A047F1BD0000A820074010B5002164
S11309300023DB43474A0024210001E0491C103214
S11309400A290BDA93684468A342F7D1D368846810
S1130950A342F3D100201071002001E00020C04325
S113096010BD10B5002403210A2000F081FC0028EA
S113097001D08D2034E0384838490160384839497D
S1130980016039483949016039483A4901603A48B7
S113099000F0BCFB3948FF2101703948007802217E
S11309A001433748017020220021364800F07FFBC4
S11309B03548000A354908703348000C344908703A
S11309C03148000E334908703348FF210170334821
S11309D0402101702A4808210170FFF725FD2000FD
S11309E010BD0020704710B584B00024684602236F
S11309F0037001910292684600F04FFC200004B09D
S1130A0010BDE0B5684600F0ABFC0028FAD0002029
S1130A100EBD10B584B00024684603230370019111
S1130A200292684600F039FC200004B010BD00209A
S1130A3070471B480078C0B201021A480078C0B25F
S1130A400843704700FCFFFF3CEBFF1F00FEFFFF65
S1130A50FCEBFF1F40EBFF1FE0EBFF1F422575007F
S1130A60E4EBFF1F11BF0900E8EBFF1F06A91F04F9
S1130A70ECEBFF1FF6F14E001CEBFF1F802007403C
S1130A8094200740FCEAFF1F00E8FF1F9C2007405A
S1130A90B0200740B4200740AC2007408420074022
S1130AA0A4200740A020074080B5C8480068C0695A
S1130AB0002800D1B1E1C64800210170C44800F00B
S1130AC08CFA002806D1C3480068411EC14A11604F
S1130AD0002812D1BF480A210160BD4800F040FC43
S1130AE000280AD1BA484068C07F032805D1B84815
S1130AF040684168B648FFF7A2FCB5480078002872
S1130B0000D18AE1B2480078012807D000D240E140
S1130B10032800D1B7E000D2FBE03AE108200090BE
S1130B20AB4883683133AA484268A8480068416BDF
S1130B300020FFF79FFCA64880680069002843D086
S1130B40A34880688068A4490860A1488068006957
S1130B50A24908600DE0A24800689F490968081886
S1130B609D4908609D4800689D490968401A9B4951
S1130B7008609A480068002813D09848006880B23A
S1130B800090954803689248426890480068416B19
S1130B900120FFF76FFC9249086091480068002823
S1130BA0D9D58B4840682C30012101700020009079
S1130BB000238748426885480068416B0220FFF79C
S1130BC059FC874908605DE081488068C068002856
S1130BD043D07F48806840687F4908607C488068CB
S1130BE0C0687E4908600DE07D4800687A4909685C
S1130BF00818794908607948006879490968401AF1
S1130C007649086075480068002813D07348006866
S1130C1080B20090704803686D4842686B48006871
S1130C20416B0220FFF726FC6D4908606C480068A0
S1130C300028D9D5664840682C3001210170002075
S1130C40009000236248426860480068416B0120BC
S1130C50FFF710FC6249086014E05D4840682C30DE
S1130C600121017000200090002359484268574830
S1130C700068416B0120FFF7FDFB594908605748A4
S1130C800021016085E0524880688068524908600C
S1130C904F488068006951490860FFE74F48006881
S1130CA080B200904C48036849484268474800684D
S1130CB0416B0120FFF7DEFB494908600A2000F080
S1130CC00FFA43484068C07F032800D10A204448F3
S1130CD0006800281CD4424800683F490968081885
S1130CE03D4908603D4800683D490968401A3B4950
S1130CF008603A480068002806D03948006834493A
S1130D00496809898842C9DA354834490968016063
S1130D103FE02F48806840682F4908602C4880686D
S1130D20C0682E490860FFE72C48006880B2009034
S1130D30294803682648426824480068416B022019
S1130D40FFF798FB264908600A2000F0C9F92448F7
S1130D50006800281CD4224800681F490968081844
S1130D601D4908601D4800681D490968401A1B494F
S1130D7008601A480068002806D019480068144919
S1130D80496809898842CFDA15481449096801601D
S1130D90FFE713480068002824D50D484068C07F49
S1130DA003280CD00E48006800900C4803680848DB
S1130DB082680748416805480068FFF769FD0448F0
S1130DC04068C07F032828D10A2026E0F8EAFF1FE4
S1130DD000ECFF1F00EAFF1F14ECFF1F0CECFF1FC9
S1130DE010ECFF1F8E484068C07F032800D10A2002
S1130DF08C48006800908C48036889488268884859
S1130E0041688A480068FFF743FD85484068C07F11
S1130E10032802D18248FFF789FD8548007900073D
S1130E20000F002873D082480079C0074ED581484E
S1130E3000210170642000F053F97F48007880217C
S1130E400840C0B2C00901214140C9B277480068D6
S1130E50416376480068406B002805D175480078E6
S1130E6080210143734801707448FF210170744864
S1130E700921017073480078802101437148017091
S1130E806D480078102101436B4801700A2000F07E
S1130E9027F969480078EF210140674801706648E6
S1130EA000780121014364480170642000F018F9BE
S1130EB0002300225D480068416BC9B25B480068AA
S1130EC000F0ECFA01215A4800F032F95848007950
S1130ED080071CD5594800784021014357480170C8
S1130EE05648007840060ED4002200214F4800687E
S1130EF000F082FB51480078402101434F480170C3
S1130F004F48402101700621494800F011F901BD04
S1130F1010B584B000246846012303700191029245
S1130F20684600F0BAF90400200004B010BD10B502
S1130F3019E042480470600609D541480078BF2191
S1130F4001403F4801700121394800F0E5F82007CD
S1130F5003D50421364800F0DFF8E00703D5022169
S1130F60334800F0D9F83548007835490C78044006
S1130F70E4B2002CDDD110BD00B5487F04225043FB
S1130F80304A1018CA7F002A05D0022A0AD00ED38C
S1130F90032A08D00CE002780C231343037048633F
S1130FA0002000BDFCE7082202704863F8E7F7E779
S1130FB09020F6E700B5C87F03280CD1224A002010
S1130FC006E093688B4201D100231371401C103258
S1130FD080B20A28F5DB002000BD38B503000020EC
S1130FE0C043194C0021002205E02579002D00D0D2
S1130FF02100521C10340A2AF7D300290ED0134AB8
S113100012688C68A24203D1104900220A6005E0EC
S11310100C22091D180000F02AF8002032BD00003F
S113102000ECFF1F10ECFF1F0CECFF1FF8EAFF1F82
S11310301CEBFF1F982007409420074080200740A6
S113104084200740C020074040EBFF1F3CEBFF1FFC
S113105000B501000020002902D1002006E0401C58
S11310600A001100491C1278002AF8D100BD30B5DD
S113107003000C00002819D0002917D0002A15D02D
S11310809107890F521A920803E025681D60241DF8
S11310901B1D15006A1E002DF7D103E022781A707B
S11310A0641C5B1C0A00511E002AF7D130BD10B528
S11310B00300002809D0002A03D106E00C001C70AC
S11310C05B1C1400621E002CF8D110BD80B50B48C7
S11310D00068401E09490860094800F011FD01BD7F
S11310E000B5002100E0491C8142FCD3002000E04F
S11310F0401C04498842FBD300BD000018ECFF1FCC
S1131100D0580000FF7F0000642070470421017064
S1131110002141600020704700B50278042A05D1FF
S1131120426889B20A434260042000E0052000BD01
S113113000B50278042A05D1426889B28A43426024
S1131140042000E0052000BD00B50278042A08D17F
S1131150406889B20840002801D0022002E0032040
S113116000E0052000BDF446002804D4494200F004
S113117013F8404260474042002905D45FD000F094
S11311800BF8404249426047494200F005F84942A1
S1131190604703460B43E6D40022030A8B420BD27A
S11311A003098B4219D243088B422ED2411A00D232
S11311B00146524110467047FF2209023FD01206F1
S11311C08B4205D3121209028B4201D31212090277
S11311D003098B4219D300E0090AC3098B4201D3E6
S11311E0CB01C01A524183098B4201D38B01C01A2F
S11311F0524143098B4201D34B01C01A52410309A6
S11312008B4201D30B01C01A5241C3088B4201D354
S1131210CB00C01A524183088B4201D38B00C01A01
S1131220524143088B4201D34B00C01A52418842B9
S113123000D3401A5241CFD201461046704708B538
S113124000F070FC08BD38B4012100220368001DC1
S1131250002B0BD00468001D0C4202D04D466D1EBD
S113126064192260241D1B1FF0D0FAE732BC7047BA
S11312705A4A00231360594A00235360574A0223F1
S11312809360564AD1605549086154480021416130
S11312905348002101600020704710B55149096886
S11312A0491C504A11604D498968012901D1012026
S11312B055E04B490968491C494A11604849096885
S11312C00A2902D1464900220A60454909681422C4
S11312D05143454A51180A00404BDB685B1C03E04C
S11312E004681460001D121D5B1E002BF8D13B48DE
S11312F08068022808D10020C860002008613748AF
S113130001603648416009E00020C8603348406805
S1131310086132484068C160304841602F484069E4
S1131320401C2E4948612D484069022809D32D48A4
S11313300068401C2B4908602A480068401E29495F
S113134008602648406925490969884203D1234831
S11313500121816002E0214800218160002010BD4C
S113136010B522490968491C204A11601B49896843
S1131370022901D1022030E0184909680A00174BFC
S1131380DB685B1C03E014680460121D001D5B1E17
S1131390002BF8D111484069012806D10F480021DB
S11313A001600E480021416006E0C8680B490860EE
S11313B00A4800680021016108484069401E074945
S11313C0486106484069002803D10448022181602D
S11313D002E0024800218160002010BD24EBFF1FC1
S11313E004EDFF1F08EDFF1F3CECFF1F0CEDFF1F7A
S11313F038B50400200000F0B6FB00281BD10025FE
S113140008E0EDB2042068432018816C200000F04D
S113141061FE6D1C207DEDB28542F2D372B6606828
S1131420056801F05BF8280005680028F9D1002060
S1131430606062B6002032BDF8B504000D001700EC
S11314401E0072B6200000F08EFB62B6002824D184
S1131450FFB2002F02D0FFB2062F01DBC7201CE031
S113146029000F314648084001F06EF8002801D1E8
S1131470C62012E06168002901D1606006E061685D
S113148000E009680A68002AFBD1086000210160B5
S1131490FFB24760856030600020F2BDFEB58AB0BF
S11314A0070000263D00C82001F04EF80400002C7F
S11314B001D1C62062E0C82200212000FFF7F7FD19
S11314C0A7600AA8007820730BA8007860730CA8A2
S11314D00078A0730020608272B6E8692060EC6135
S11314E026000120F073346800E02468002C06D044
S11314F0F07BE17B8842F8D1F07B401CF073002C38
S113150002D0F07B8028EEDB3400E07B802807DB10
S11315102068E86162B6200000F0E0FF9A202DE028
S113152062B601A81749242201F062F8019401A8C7
S11315300021C17701A82030217B017022001C32D8
S113154001A9A06801F068F9002804D0200000F087
S1131550C5FF9B2012E00120A06120002C300090E8
S11315600823002280214900200001F0ADFB072858
S113157003D00020A061C82000E000200DB0F0BD21
S1131580FCFF0000B053000070B506000C00002CF6
S11315901AD072B6A56A002D0FD00BE00020686146
S11315A02A002100300001F05EF8002129600021AA
S11315B0E9632D6C28680028F0D1A56A2100300069
S11315C001F076FCA56262B670BDF8B5040020682F
S11315D0876860680679002508E0EDB20420684356
S11315E0201881683800FFF7CFFF6D1CEDB2F6B20A
S11315F0B542F2D3F1BD000070B5060034001C34CE
S113160072B6256800E02D68002D0AD0A87BD2B2FE
S11316109042F8D1687BC9B28842F4D1A868B0423C
S1131620F1D162B6002D1ED06868002803D00221D3
S1131630280000F079FA00202862E9693000FFF7F9
S1131640A3FF6868002802D02800FFF7D1FE72B615
S113165000E024682068A842FBD1286820602800A4
S113166000F03CFF62B670BD10B50C001168012992
S113167002D0022904D009E0C0B25168884705E0CD
S1131680916808709068401C9060FFE72068401CD7
S1131690206010BDF0B51C00002605000020287055
S11316A06D1C002A1CD00F68002F09D1302028702F
S11316B0761C3000F0BD30320F002A706D1C761C91
S11316C0002FF6D038002100FFF763FD0100080069
S11316D060433A1A002AEED5D04302003132EBE7D8
S11316E00F68002F08D130202870761CE1E73731CD
S11316F0070029706D1C761C002FDAD038002100F9
S1131700FFF74AFD01006143791A0A29EFD230310B
S1131710EEE7F8B50F0015001E00040005E03200E6
S113172029003020FFF7A0FF641CBC42F7DBF1BDA9
S1131730F8B50F0015001E00040005E03200290072
S11317402020FFF791FF641CBC42F7DBF1BDF1B52B
S113175090B01700002000900E0005E0109A694632
S11317601800FFF781FF761C3378002B00D1C4E109
S1131770252B12D00A2B05D0109A69461800FFF7C2
S113178073FF09E0109A69460D20FFF76DFF109A68
S113179069460A20FFF768FFE5E70025002102E01B
S11317A028000125054300291FD1761C3078202804
S11317B00CD0232812D02B2804D02D28F0D0302888
S11317C008D00FE0280002250543ECE72800042593
S11317D00543E8E7280008250543E4E72800102529
S11317E00543E0E7761E0121DDE700200290002199
S11317F005E002980A225043C018303802900029AC
S113180008D1761C3378180030380928F1D9761EAF
S11318100121F4E7761C30782E280BD10021FFE754
S1131820002908D1761C307830380928F8D9761E7A
S11318300121F5E7761E761C30784C2806D06828FE
S113184002D06C2801D002E002E001E000E0761E44
S1131850761C33781800582871D0622800D1CAE069
S1131860632800D113E1642813D0692811D06E28AD
S113187000D13DE16F2800D1B2E0702800D1C5E06D
S1131880732800D10BE1752800D1CAE0782856D01E
S113189064E7386806903F1D0A23012206A907A8B9
S11318A0FFF7F8FE040007A8001905900698002821
S11318B003D52D200190641C0DE0A80703D52B202F
S11318C00190641C07E0680703D520200190641C84
S11318D001E00020019000200490280711D5019810
S11318E0002804D0109A69460198FFF7BDFE012034
S11318F00490109B6A4602992000FFF70AFF029C9D
S113190011E0E8070FD4109B6A4602992000FFF704
S11319100FFF0198002804D0109A69460198FFF738
S1131920A3FE012004900498002807D10198002800
S113193004D0109A69460198FFF796FE9AE0386839
S113194003903F1D1023002203A907A8FFF7A2FE5E
S1131950040007A80019059000200490280715D555
S1131960E8060BD5109A69463020FFF77DFE109AE1
S113197069467820FFF778FE01200490109B6A46A0
S113198002992000FFF7C5FE029C18E0E80716D470
S1131990E80600D5A41C109B6A4602992000FFF7B4
S11319A0C7FEE8060BD5109A69463020FFF75CFEA7
S11319B0109A69467820FFF757FE01200490E80644
S11319C00DD5049800280AD1109A69463020FFF7F3
S11319D04BFE109A69467820FFF746FEA41C49E0A6
S11319E0386803903F1D0823002203A907A8FFF7C6
S11319F051FE04001FE0386803903F1D02230022BB
S1131A0003A907A8FFF746FE040014E03868039012
S1131A103F1D1023002203A907A8FFF73BFE040083
S1131A2009E0386803903F1D0A23002203A907A890
S1131A30FFF730FE040007A800190590280707D512
S1131A40109B6A4602992000FFF763FE029C11E096
S1131A50E8070FD4109B6A4602992000FFF768FE3E
S1131A6008E0109A694605980078FFF7FDFD05988F
S1131A70401E0590059800780028F2D1E80705D5A6
S1131A80109B6A4602992000FFF752FE6BE6386805
S1131A90C0B23F1D109A6946FFF7E6FD63E6386859
S1131AA001903F1D0198002821D00198FFF7D0FA3A
S1131AB00400E8070FD4109B6A4602992000FFF740
S1131AC037FE08E0109A694601980078FFF7CCFDCC
S1131AD00198401C0190019800780028F2D1E80791
S1131AE005D5109B6A4602992000FFF721FE3AE6CD
S1131AF038683F1D0099016035E6009811B0F0BDCB
S1131B000EB400B584B0012100910549019105AAE4
S1131B1001006846FFF71BFE049908B0084700005F
S1131B200957000070470000F8B506000F0072B6B0
S1131B3075680C35E8780002A978084380B22C183F
S1131B4028782D186878042804D13A002900300038
S1131B5000F036FA28782D182878002801D0A542FC
S1131B60F0D362B6F1BD00B58168C96900E00968C7
S1131B70814201D00029FAD1002901D1C02000E01E
S1131B80002000BD0000000070B582B005000E000A
S1131B90140072B62800FFF7E6FF002801D062B6F1
S1131BA00FE028006B460522B6B23100FFF744FC73
S1131BB0002802D00021216002E000990C3121604C
S1131BC062B676BD00B54179012907D18179022930
S1131BD002D08079032801D1012000E00020C0B2A6
S1131BE000BDF0B5069C002525608569062D01D24F
S1131BF0C1207FE0012A03D12C302060002079E04D
S1131C0040680C30022A73D0C5782D02867835439B
S1131C10ADB245191600F61E42D0761E05D0761ECA
S1131C2015D0761E022E3DD946E00179DBB29942E9
S1131C3061D2C8205EE04278042A5DD18278DBB2AA
S1131C409A4259D1C278C9B28A4255D150E00800AB
S1131C50002801D1C8204DE04178042902D101783F
S1131C60092901D0C82045E0DBB2002B03D001795B
S1131C70DBB2994201D2C8203CE001784018A84266
S1131C8001D3C82036E04178042903D0052903D1C3
S1131C905B1E01E0C8202DE0DBB2002BEDD127E074
S1131CA0C82027E001784018A84201D3C82021E0C9
S1131CB041789142F6D11BE0002900D008000028A9
S1131CC001D1C82016E006788019A84201D3C820A3
S1131CD010E04678042E03D1002901D0C82009E081
S1131CE046789642EFD11E00731EF6B2002EEAD15A
S1131CF020600020F0BD059902788018A8429AD38C
S1131D00C820F7E7F8B50C0011001A0072B6637822
S1131D10042B02D12378092B02D062B6002025E0DF
S1131D200300002503E03668002E0CD16D1C187DDD
S1131D30EDB2854218D2EDB2042068431818806CC5
S1131D408442F3D15E6870680328ECD130000C3013
S1131D5007689F42E8D14768A742E5D1D2B2C9B229
S1131D6000F005F862B601E062B60020F2BD70B57D
S1131D7004000D0016002068FFF7F5FE002801D0CE
S1131D80002033E0EDB22800002803D0401E0228D2
S1131D9003D909E02068C06928E0F6B230000028C1
S1131DA0012803D9002021E000201FE06068417869
S1131DB0042902D10178092901D0002016E0017913
S1131DC0002200E0521CD2B2C9B28A420DD2D2B271
S1131DD00420504320188068C37FEDB2AB42F1D198
S1131DE0837FF6B2B342EDD100E0002070BD000065
S1131DF0F8B505000C001700002672B62868FFF736
S1131E00B2FE002801D062B645E0286800906868F8
S1131E104178042902D10078092802D062B6CA2088
S1131E2039E00098406800E00068002802D162B6FA
S1131E30CA2030E041680529F6D101000C31A142E5
S1131E40F2D1002F02D162B6CC2024E082680021B6
S1131E502000FFF72CF93E0000E0366830680028C7
S1131E60FBD1346026000020306077602868B060C1
S1131E706868F0600098806830618C480068401C95
S1131E808A490860894800680028F6D087480068B5
S1131E90706162B60020F2BD00B5010008684A68AE
S1131EA0002A08D049684069814201D1012000E03C
S1131EB00020C0B201E04069486000BDF0B553782D
S1131EC01B0214782343D478240295782C439BB2C4
S1131ED0A4B225001D43002D15D03525455D2D02E6
S1131EE03426865D35433726865D36023627C75D40
S1131EF03E439BB2ADB2AB4205D1A4B2B6B2B4423A
S1131F0001D101205BE01379FF2B04D01379302435
S1131F10045DA34227D153793124045DA34206D141
S1131F2093793224045DA34201D1012047E053791F
S1131F303124045DA34204D19379FF2B01D1012004
S1131F403DE05379FF2B06D19379323000788342F8
S1131F5001D1012033E05079FF2804D19079FF2882
S1131F6001D101202BE01079FF2803D010794B799F
S1131F70984223D150798B79984205D19079CB79C5
S1131F80984201D101201AE050798B79984204D10A
S1131F909079FF2801D1012011E05079FF2805D163
S1131FA09079C979884201D1012008E05079FF284D
S1131FB004D19079FF2801D1012000E00020F0BD78
S1131FC0F2B582B0060017000025B068002829D0B9
S1131FD0B068046B006B3649086001960298009063
S1131FE0002C1FD00EE0220002993000FFF766FF9C
S1131FF0C0B2012805D101253A0000990198A368CF
S113200098470C34200000F00EF80128EBD0EDB214
S1132010002D07D1A068002804D03A000099019847
S1132020A3689847F7BD00B50179002901D00120C4
S11320301EE08179002901D0012019E041790029AD
S113204001D0012014E00178002901D001200FE023
S11320504178002901D001200AE08178002901D0CB
S1132060012005E0C078002801D0012000E0002014
S113207000BD70B546680F4C00E00C3420680028A1
S113208001D1002410E0210009313000401D00F08E
S11320908FF80500210009312000801D00F088F828
S11320A0002DEAD08542E8D1200070BDBCEAFF1FB4
S11320B0F4EAFF1F04EAFF1F00B572B6002801D03E
S11320C0002902D162B6C42002E0016362B6002096
S11320D000BD0000F2B5040000250AE009680A68A2
S11320E08242FBD100680860300000F0F7F9257DDA
S11320F06D1C207DEDB2854259D2EDB204206843B7
S11321002018876C002FF3D000988078B978884223
S1132110EED1666800E03668002E20D0706803288F
S1132120F9D130000C30009942689142F3D16168D2
S11321308E4203D13168616005E009680A68B242E1
S1132140FBD132680A60FFF740FA300000F0C6F9AC
S1132150EDB204204543601900218164257D3800D7
S1132160FFF730FD002822D1666800E03668002EB3
S1132170BED070680528F9D130000C300099C268CF
S11321809142F3D10021416161688E4203D13168EB
S1132190616005E009680A68B242FBD132680A60EE
S11321A041680A6882429AD1006808609CE7F1BDE0
S11321B010B40200137808781840491C521C00021D
S11321C004001378087818402043491C521C00026C
S11321D00300127808781040184310BC704730B5DB
S11321E08DB00400150002A8019000200090DBB21D
S11321F005222000FFF7F5FC002875D1039402980E
S11322008079049002984079000202990979084380
S11322104005400D03A908810F2006900020089076
S11322200790099503A8E17B01770298807800075D
S1132230000F03A948770298807880210840C0B233
S1132240C0090121414003A881770298C078800722
S1132250800FC0B2012804D00FD3032809D004D3BF
S11322600BE003A80121C1770AE003A80221C1778A
S113227006E003A80321C17702E003A80021C17787
S113228003A82030217B017003A8213001210170B3
S113229003A8C07F012803D003A8C07F03281ED150
S11322A002984079000280B2C0214901014089B2FC
S11322B08020000181420AD08020400181420ED159
S11322C003A821300078401C03A92131087003A819
S11322D021300078401C03A921310870FFE7109ACF
S11322E003A9A06800F098FA0DB030BD000000000A
S11322F0F7B58AB00020049072B60A98FFF733FC51
S11323000500002D0FD0002D00D1C325049800280E
S113231005D004980021016004980021416062B650
S113232028000DB0F0BD0A9803900B980290039812
S11323308068006B079002984078042803D10298C3
S11323400078092801D0CA25DDE702990398FFF730
S1132350C1FE002400E0641C0398007DE4B28442C2
S113236001D3CA25CFE7E4B20420604303990818D7
S1132370806C0028EFD103984768002F02D1CA254A
S1132380C1E73F6838680028FBD10298017904202E
S11323904143143105AB03220398FFF74DF80500C0
S11323A0002D01D0C625AEE708A801900298C07898
S11323B0009002988378042200210A98FFF711FC08
S11323C00500002D9FD105980C300190012607E0EF
S11323D0F6B2042070430199081806994160761CEE
S11323E002980079F6B2B04211D306A800903300E7
S11323F0DBB200220B990A98FFF7F1FE0500002DCD
S1132400E6D000203860059800F068F87BE7019872
S11324100A99016001980B994160E4B20420444395
S113242003980019029981640798FFF7FCFD0028BE
S113243024D0C3250C9804900498002800D162E7A6
S11324400198FFF716FE0400002C00D15BE7029808
S1132450FFF7B8FB002808D1049AA1880A98FFF76F
S113246093FB0500002D00D04DE7049901982268E4
S1132470904704984068002800D144E70398082155
S11324808161029882780298C178039800F0ACFCCC
S11324900500072D05D003980021816162B628004C
S11324A03FE762B600203CE770B504000D0016005B
S11324B072B609480068401C07490860064800686D
S11324C00028F6D020000449342200F091F8656118
S11324D0A66162B670BD0000C0EAFF1F00B51038E7
S11324E03549096800E00968814202D20A689042CD
S11324F007D30A689142F6D3814202D30A68904214
S1132500F1D2426810235A4382180B689A4208D1C8
S113251042680B685B68D21842600A6812680260FD
S113252001E00A6802604A6810235A438A1882420A
S113253006D14A684368D2184A600068086000E01F
S113254008601D48016000BD10B501001B481C4B0C
S11325500F310909491C184A1268002A0CD11A1AA9
S113256012094260174A0260164A10601548002298
S11325704260144A10480260106801E002000068DA
S113258043688B4211D343688B4202D101681160C6
S113259007E043685B1A4360436810246343C01830
S11325A0416005490A60103004E0034A1268904211
S11325B0E4D1002010BD000038EAFF1F10EDFF1F1A
S11325C010F5FF1F28EAFF1F124207D08B0706D021
S11325D00B78491C0370401C521EF7D870478307C0
S11325E006D00B78491C0370401C521EF9D1704769
S11325F070B4103A03D378C9103A78C0FBD25307A9
S113260001D318C918C001D508C908C0D20704D31A
S11326100B880380891C801C002A01D50B78037069
S113262070BC704780B5010000208A6A1368002BD3
S113263002D008001168884702BD38B503000020A5
S11326409C6AE568002D02D01800E368984732BD03
S113265038B5030000209C6A2569002D02D01800BB
S11326602369984732BD38B5030000209C6A656928
S1132670002D02D018006369984732BD10B50200DE
S11326800020936A1C6A002C02D010001A6A90473A
S113269010BD10B502000020936ADC6A002C02D041
S11326A01000DA6A904710BD10B502000020936A4A
S11326B01C6B002C02D010001A6B904710BD10B593
S11326C002000020936A5C6B002C02D010005A6B4D
S11326D0904710BD70B505000E0014003820FFF7B8
S11326E033FF40490860382200213E480068FEF765
S11326F0DEFC3C480068002802D10020C0436FE0A3
S1132700384800680021C161364800682C300570E3
S1132710344800684661A820C000FFF715FF31491E
S113272009684862A822D20000212E480068406A45
S1132730FEF7BDFC2B480068406A002805D12948F3
S11327400068FFF7CBFE81204AE0A822D2000021D6
S113275024480068406AFEF7AAFC72B62248EDB22B
S11327603821694340181F49096888621D48006878
S1132770806A00280BD11B480068406AFFF7AEFE50
S113278018480068FFF7AAFE62B6892028E0EDB277
S1132790280000F014FC00280BD012480068406A9E
S11327A0FFF79CFE0F480068FFF798FE62B6C4204E
S11327B016E00C480068FFF735FF62B600280BD01E
S11327C008480068406AFFF789FE06480068FFF77A
S11327D085FE0020C04303E002480068206000201A
S11327E070BD0000F8EAFF1F7450000010B50C0023
S11327F0D2B2002A09D02100FFF740FF05E0A06A09
S1132800A16A096CA162FFF769FEA06A0028F6D1EB
S113281024340020207010BDF8B50500280072B6DD
S11328200023002609E038247443476A3C19243401
S11328302478002C00D05B1C761C182EF3D30026C1
S113284000E0761C182E07D238237343446AE31839
S113285024331B78002BF4D162B6182E01D39020B8
S11328601DE038237343406AC418146020002422F6
S1132870FFF7BEFE2C200021215466842420012170
S1132880215421002800FFF704FF002806D000226D
S113289021002800FFF7AAFF902000E00020F2BDED
S11328A038B505004420FFF74FFE0400002C01D189
S11328B0002013E0442200212000FEF7F8FBA86A60
S11328C0002803D12464AC6207E0006C016CAA6A9E
S11328D09142FAD10464A86A2064200032BD000049
S11328E010B502000C00002C01D1002026E0906AF3
S11328F072B6002807D11000FFF7D2FF00281BD1C1
S113290062B600201AE0010000E0096C0B68002B9D
S113291001D1080010E00B68A34202D162B6002086
S11329200CE00B6C8342F0D11000FFF7B9FF0028D4
S113293002D162B6002001E0046062B610BD70B539
S11329400D0014002221415E192901DB8F2019E0BA
S11329502968FFF7C5FF0600002E01D1812011E090
S1132960300029003022FFF743FE286B002805D0F1
S113297030003130296B0822FFF726FE0720F06370
S11329802660072070BD000038B505000C0011005A
S113299072B66A462000FFF7D2FF072801D062B65C
S11329A018E021002C2000220A54009831300078CD
S11329B080221040C0B2C009012242400098303049
S11329C00270009A2800FFF738FE62B6002801D191
S11329D00720FFE732BD0000F0B583B004001E00FD
S11329E0256800200090B7480560AB680898AF6977
S11329F0002F14D0022F2AD012D3042F58D043D33F
S1132A00062F00D1CBE000D2B8E0082F00D103E1BB
S1132A1000D2F0E00A2F78D000D206E103E10CE105
S1132A203320285C208121001800FFF73DFE002898
S1132A3002D00020A86100E10220A861280000F073
S1132A4069F9072802D00020A861F6E0F5E0E87BE8
S1132A50207721001800FFF732FE002802D0002062
S1132A60A861EAE00320A86128002C30009012231A
S1132A70002280214900280000F026F9072802D00E
S1132A800020A861D9E0D8E028003E30019004205D
S1132A90A861019800900923002280218900280060
S1132AA000F012F9072802D00020A861C5E0C4E0B4
S1132AB00520A86128003E3001900198C0780402E6
S1132AC0019880780443A4B228003E30019001AB01
S1132AD0012221002800FEF7AFFC002800D0ACE062
S1132AE001980C3001900520A86101980090230002
S1132AF09BB2002280218900280000F0E5F8072815
S1132B0002D00020A86198E097E068680C3001903A
S1132B100198C0780402019880780443A4B2019813
S1132B200078241A0198019909784018019007E067
S1132B3001980078241A01980199097840180190A5
S1132B40002C03D0019840780928F1D10520A86110
S1132B50002C13D00198407809280FD1019880786F
S1132B6080070BD5042300220021280000F00EF971
S1132B70072802D00020A8615FE05EE068680C309E
S1132B8001900620A8610198417989B2280000F0DB
S1132B90DDF8072802D00020A8614EE04DE00720B0
S1132BA0A8610020287568680C3001900198C078ED
S1132BB00402019880780443A4B201980078241A8E
S1132BC00198019909784018019007E0019800786C
S1132BD0241A01980199097840180190002C0AD010
S1132BE001984078042802D1287D401C287501985A
S1132BF000780028EAD10820A861287C002806D0A3
S1132C000020287403212800FEF78EFF03E0012131
S1132C102800FEF789FF10E00920A861042128009C
S1132C20FEF782FF09E00923AB612B6A002B04D075
S1132C300090330020002C6AA047F7BDF0B58DB09A
S1132C4005000C0016002800FEF78DFF002801D0B7
S1132C50C02034E0EF696A6A296A6846FFF724FCF9
S1132C606078002812D0062810D0072806D008283B
S1132C700CD00A280AD00C2808D00EE00196E0797E
S1132C800002A179084380B2039006E00296E0793D
S1132C900002A179084380B204900C94A869092821
S1132CA002D30598002803D16148059000200690BE
S1132CB0604805606A463900A868FFF765FE0DB0F4
S1132CC0F0BD0000B4EAFF1F7CB5002472B66D4667
S1132CD080262E706D4606266E706D460E00B6B2C6
S1132CE0360AEE706D46A97069461500ADB22D0A1C
S1132CF04D7169460A7169461A0092B2120ACA7184
S1132D0069468B71069A6946FFF798FF040062B61C
S1132D10200076BD1CB56946474A0CCA0CC1083967
S1132D20002472B6694600220A70694605224A7078
S1132D3069460022CA706946C27B8A7000226946CD
S1132D40FFF77CFF040062B6200016BD1CB503002B
S1132D500A006C46384803C803C4083C002472B611
S1132D6068460021017068460921417068461100D7
S1132D7089B2090AC1706846827000226946180047
S1132D80FFF75CFF040062B6200016BD7CB50400AA
S1132D900D006E46284803C803C6083E002072B6DC
S1132DA0EDB2002D03D0022D14D013D318E06846E1
S1132DB005706846032141706846190089B2090A02
S1132DC0C17068468370002269462000FFF736FF11
S1132DD062B676BD68460021417168460271E6E735
S1132DE062B6C520F5E7000030B583B003000D00DE
S1132DF06C46114803C803C4083C002472B66846F4
S1132E000121017068460B21417068460021C170A0
S1132E106846857068460021417168460271002247
S1132E2069461800FFF70AFF040062B620003EBDA1
S1132E30D9290000B8EAFF1FC8580000F8B58EB0C1
S1132E4007000C001500002672B63800FEF78BFE52
S1132E500600002E02D062B6C02027E03E00B06912
S1132E60092802D262B6C02020E0F769149A0E99AC
S1132E706846FFF719FB2078000607D50295E0792C
S1132E800002A179084380B2049006E00195E0793C
S1132E900002A179084380B203900C946A46390079
S1132EA0B068FFF771FD060062B630000FB0F0BDE8
S1132EB010B50C002221615E192901DB8F200EE080
S1132EC072B62100FFF7DAFB002801D062B606E0F3
S1132ED0382200212000FEF7EAF862B6002010BD77
S1132EE080B52C4800688021C9000143294801604D
S1132EF0294880214900016028480068802109018F
S1132F0001432648016026480068802109010143E5
S1132F1023480160002000F004F822484021017099
S1132F2001BD80B5C0B2002803D0022819D008D34F
S1132F3028E01D480068A021C90201431A48016025
S1132F4020E000F03BF81848006818490140164892
S1132F500160154800688021C902014312480160DC
S1132F6010E011480068124901400F480160094807
S1132F700068802189000143064801600D488021D2
S1132F80890001600C4800688021C90201430A4895
S1132F90016001BD388004402CA0044054F00F406F
S1132FA044F00F400021074004800440FFFFFEFF6F
S1132FB0FFFFFBFF1490044034800440704700205E
S1132FC07047000070B584B006000D00012A07D0D8
S1132FD000D287E0032A03D040D3042A22D081E020
S1132FE02820FFF7B1FA0400002C7BD0282200210E
S1132FF02000FEF75CF83C480068002802D13A48FB
S1133000046007E03848006800E0806881680029AF
S1133010FBD1846026616561220029003000FFF73E
S113302067F95FE03048046800E0A468606900283C
S113303013D06069A842F8D10720FFF785FA20620F
S113304000280AD001202076009428480190029498
S11330500722216A684600F085FB43E000202249EC
S11330600C6801E02000A4686169002939D0616915
S1133070A942F7D1002803D1A0681B49086001E0E8
S1133080A1688160002512E0ADB206206843616A40
S113309008180079C00709D52A00521CD2B220684A
S11330A08068C17B20680069FEF7A6FA6D1C607E0B
S11330B0ADB280B28542E7D3206A002802D0206AEC
S11330C0FFF70CFAE069002802D0E069FFF706FA7E
S11330D0606A002802D0606AFFF700FA2000FFF758
S11330E0FDF9FFE77FBD000038ECFF1FF130000061
S11330F0F0B585B015000C0001940E4902910394BB
S1133100217E012918D000D223E2032900D181E0D5
S113311035D3052900D1A8E000D28DE0072900D1DC
S113312001E100D2A2E1092900D15CE100D207E16A
S11331300FE200BFF1300000A87860762800FFF7A6
S1133140CDF9607E0821FEF724F805000835ADB2FC
S11331502800FFF7F9F92062206A002800D1F8E17D
S1133160ADB22A000021206AFDF7A1FF02202076DB
S11331702A00D2B2216A01A800F0F4FAE9E1049528
S1133180607E06214843FFF7DFF96062606A002829
S113319000D1DEE1627E062042430021606AFDF731
S11331A086FF00262AE0B6B23000401C0821FDF755
S11331B0F0FF04990818C079B6B206217143626A17
S11331C05054B6B206207043616A085C009001272F
S11331D0B6B23000401C0821FDF7DBFF8F40009899
S11331E00740B6B206207043616A0F54B6B2062097
S11331F07043616A081800210171761C607EB6B2C2
S113320080B28642CFD32800FFF768F903202076E6
S113321000206083608B617E89B2884208D2618B12
S1133220491C61830822C9B201A800F0AFFA90E1F9
S11332300420207600206083608B617E89B28842FE
S113324008D2618B491C61831022C9B201A800F025
S1133250ADFA7EE10420FFF777F92062002800D15F
S113326077E10520207600206083608B00280AD057
S1133270608B06214143606A4018001F6978090287
S11332802A7811430180608B617E89B2884209D219
S1133290618B491C61830423226AC9B201A800F02E
S11332A095FA56E1607E0821FDF773FF05006D1C59
S11332B0ADB22800FFF748F9E061E069002800D1C9
S11332C047E1ADB22A000021E069FDF7F0FE0026D7
S11332D000E0761C607EB6B280B286421FD2B6B2DF
S11332E006207043616A08188078C007F1D56683A8
S11332F00A202076B6B206207043616A0818B6B276
S113330006217143626A5118097901220A43027144
S11333100422618B491CC9B201A800F037FA2000CD
S113332000F062F915E10A2020760422618B491C21
S1133330C9B201A800F02AFA200000F055F908E10A
S1133340618B06224A43616A89184988490501D577
S113335002260AE0618B06224A43616A8918498879
S1133360890501D5012600E00026638B5B1CDBB2D6
S1133370027F3100C9B220680069FEF78FF8002689
S113338000E0761C607EB6B280B2864227D2B6B226
S113339006207043616A08188078C007F1D5B6B278
S11333A006207043616A08180079C007E9D466836F
S11333B00A202076B6B206207043616A0818B6B2B5
S11333C006217143626A5118097901220A43027184
S11333D00422618B491CC9B201A800F0D7F920006E
S11333E000F002F9B5E0628B521CD2B2017F206872
S11333F00069FEF701F9608B06214143606A4018B9
S113340000210171002600E0761C607EB6B280B215
S1133410864227D2B6B206207043616A08188078C3
S1133420C007F1D5B6B206207043616A0818007966
S1133430C007E9D466830A202076B6B2062070431A
S1133440616A0818B6B206217143626A5118097993
S113345001220A4302710422618B491CC9B201A8EA
S113346000F094F9200000F0BFF872E0E87800065C
S1133470A97809040143687802020A4328781043B2
S1133480618B06224A43616A891802004A80C1039B
S11334901BD5608B06214143606A40180079C00740
S11334A009D5092020761022618B491CC9B201A8D4
S11334B000F07CF908E0072020761022618B491C7B
S11334C0C9B201A800F072F943E0C10217D508207F
S11334D02076608B06214143606A4018618B062286
S11334E04A43616A8918097901220A430271142244
S11334F0618B491CC9B201A800F058F929E0810385
S113350009D5092020761122618B491CC9B201A872
S113351000F04CF91DE001030CD50A20207613229B
S1133520618B491CC9B201A800F040F9200000F0E9
S11335305BF80EE0C0010CD50A2020761822618BBE
S1133540491CC9B201A800F031F9200000F04CF880
S1133550FFE705B0F0BD0000F8B584B00F0015001A
S113356072B63800FEF798FC002839D03E68B0687F
S1133570FEF7F9FA002801D062B632E021360020C5
S1133580307062B6002000E0401C80B2049988428A
S113359016D280B2295C0029F6D0082444430021C5
S11335A007E080B22A5CD2B2520880B22A54491C85
S11335B0641C89B2082903DA80B22A5CD207F0D5E8
S11335C0009721480190029706203876601E788380
S11335D004233A6A2100C9B2684600F0F7F800E013
S11335E062B605B0F0BD000070B58EB00500CA2605
S11335F072B62800FEF750FC002804D02C68A0689E
S1133600FEF7B1FA0600002E19D12120205C002813
S113361015D12120012121542A000C496846FEF7C6
S113362043FFE8690290687E0821FDF7B2FD401C63
S113363004906A46E169206900F0D6F8060062B693
S113364030000EB070BD0000F130000059350000AC
S1133650F8B507000D002E68404A31003800FEF727
S1133660C7FB0400002C11D1002068602800FEF77D
S113367013FC6860002200213800FEF778FBB0617B
S1133680002203213800FEF772FBF061002C05D103
S1133690F069002802D0B069002801D100206860D8
S11336A0F1BD38B50C00202100256554616A00295C
S11336B004D004990091A16A646AA04731BD000056
S11336C0F6B583B005001F00CA2672B62868FEF757
S11336D0E3FB002805D028680468A068FEF743FAD5
S11336E00600002E04D12020205C002800D085266E
S11336F0002E2FD168686062A868A0626846694697
S1133700097B017101A86946097C417001A839004F
S113371089B2090AC17001A887700A9801A9020038
S113372092B2120A4A7101A908710B9801A9020008
S113373092B2120ACA7101A988710094084B0C9ABA
S113374001A9A068FFF77AFB0600072E02D12034F6
S11337500120207062B6300005B0F0BD34ECFF1FCC
S1133760A336000010B584B0002472B60291D2B220
S113377092B201920021009100230622A021FFF7BA
S11337809FFF040062B6200004B010BDE0B5002322
S1133790029300230193C9B289B20091D2B21300FB
S11337A09BB203222321FFF78BFF0EBDE0B500235C
S11337B0029300230193C9B289B20091D2B21300DB
S11337C09BB201222321FFF77BFF0EBDE0B50292DD
S11337D0DBB29BB20193C9B289B2009100230022EB
S11337E0A321FFF76DFF0EBD38B505000C001100D5
S11337F072B66A462000FFF7A2F8072801D062B625
S113380009E02100009A2800FEF722FF62B6002892
S113381001D10720FFE732BD80B57E48FEF770F97D
S1133820182000F050FAFFF75BFB7B48006880210A
S11338300901014378480160784800210160784813
S1133840FEF75EF972B6774A8021C9000020FEF7C0
S113385041FF754908607548FEF752F9744971488B
S11338600068FEF729FC704908606F48006800286A
S113387002D0012000F04EFAA448FDF747FC62B6DE
S11338806C48FEF73DF96C496C4800F009F8FDF707
S11338900BF9B54855210160B348AA210160F2E74C
S11338A038B504000D000020AA49096800290ED08B
S11338B001290DD0032922D0042921D0062936D08C
S11338C0072900D195E0082900D19CE09CE0A0E004
S11338D08F48FEF715F99F48032101608D4A9D48E2
S11338E081689C484068FEF703FD002806D001006B
S11338F08948FEF705F9012000F00CFA89E088E018
S11339009548FEF7FDF89348052101608148286039
S1133910964868600020A8600221280000F06EFA32
S1133920072803D001009248FEF7EAF871E09148B5
S11339300068002829D18F48012101600023032257
S11339408448816883484068FEF7DCF98A49086046
S113395089480068002818D08848FEF7D1F82E4816
S113396000688021890001432B480160844880213C
S1133970490001608348006880214902014381486D
S11339800160814880214902016080480068012863
S113399010D100227E497F48FEF786FD7D48846071
S11339A07C48042101617B4A734801681D48006812
S11339B0FFF71AFF0023002203215448FDF7C4FB3C
S11339C0022807D171480121016003214F48FDF706
S11339D0AFFB02E06D48002101605E4800680628E4
S11339E006D16A480068012802D1200000F0D4F80A
S11339F00FE06048002101609348FEF781F85548C4
S1133A000021016005E004E0524801688F48FEF798
S1133A1077F831BDCC5700003880044044B00440EE
S1133A201C57000060EAFF1F74EAFF1F04560000E1
S1133A308C5300000450000068EAFF1F64EAFF1F73
S1133A4070B506000C002500012A06D050D3032AC5
S1133A5006D02FD3042A26D04AE07D48FEF750F83A
S1133A603C4801687B48FEF74BF869797A48FEF7D1
S1133A7047F8A9797948FEF743F8E9797848FEF7D9
S1133A803FF834480068002807D13248466031487E
S1133A90846030480121016004E02E4801687148C7
S1133AA0FEF72EF82CE07048FEF72AF82948042186
S1133AB0016025E06D48FEF723F826480168654853
S1133AC0FEF71EF869796448FEF71AF8A979634885
S1133AD0FEF716F8E9796248FEF712F81D4800214E
S1133AE041601C48002181601A480721016007E0F9
S1133AF0184801685E48FEF703F816480021016083
S1133B0001210248FDF708FB70BD00003CEAFF1FDD
S1133B108C55000050EAFF1F7051000080B50299D7
S1133B20862903D15348FDF7EBFF07E0002905D0B0
S1133B305148FDF7E5FF012000F0ECF80548006866
S1133B40052802D103480621016001214B48FDF7F5
S1133B50E3FA01BD44EAFF1F7852000080B5022158
S1133B604648FDF7D9FA01BD048104401D3B00001D
S1133B709C5100007CEAFF1F78EAFF1FC851000037
S1133B804090044014F00F4008F00F4000E6FF1F7F
S1133B905D3B000080EAFF1F10B504002078C007D9
S1133BA003D53748FDF7ACFF02E03648FDF7A8FF20
S1133BB02078800703D53448FDF7A2FF02E033489C
S1133BC0FDF79EFF2078400703D53148FDF798FFA5
S1133BD002E03048FDF794FF607800280AD060784E
S1133BE0802803DB2C48FDF78BFF06E02B48FDF70C
S1133BF087FF02E02A48FDF783FFA07800280AD057
S1133C00A078802803DB2748FDF77AFF06E02648E2
S1133C10FDF776FF02E02548FDF772FFE078002803
S1133C200AD0E078802803DB2148FDF769FF06E02D
S1133C302048FDF765FF02E01F48FDF761FF1FA064
S1133C40FDF75EFF10BD0000A4550000685300009E
S1133C508C540000D85700002C5700003C5700003B
S1133C6018560000E05000002C540000A854000036
S1133C70C4540000AC5000003C5000003CEAFF1F5C
S1133C80E4570000F05700004C5700005C57000058
S1133C906C5700007C57000098580000A0580000A2
S1133CA0A8580000B0580000B8580000C0580000E0
S1133CB0FC57000008580000145800000A000000D7
S1133CC010490860704770B50400212C03DB0E48CE
S1133CD0FDF716FF15E00D48056801262000202198
S1133CE0FDF757FA8E402E430848066008480568D9
S1133CF0012620002021FDF74CFA8E402E43044873
S1133D00066070BD08ED00E0CC4F000080E200E0EA
S1133D1000E100E080B500F07FF801BD10B50C00B3
S1133D20216872B6334AFEF763F8002805D10020F3
S1133D3060602000FEF7B0F8606062B610BD10B598
S1133D4082B00C0000212176E169002904D0049995
S1133D500091216AE469A04713BD0000F6B583B061
S1133D6005001F00CA2672B62868FEF795F80028D9
S1133D7005D028680468A068FDF7F5FE0600002E4B
S1133D8003D1207E002800D08526002E2DD168681E
S1133D90E061A868206268466946097B017101A850
S1133DA06946097C417001A8390089B2090AC170C9
S1133DB001A8877001A800214171E068807801A9F9
S1133DC008710A9801A9020092B2120ACA7101A9E3
S1133DD088710094084B0B9A01A9A068FFF72EF88C
S1133DE00600072E01D10120207662B6300005B00E
S1133DF0F0BD000030ECFF1F3F3D000000B583B074
S1133E000022019200220092C9B20B009BB20B2245
S1133E102121FFF7A3FF0EBD0746384600F002F844
S1133E20FBE7000080B5C046C046024A11001820D6
S1133E30ABBEFBE72600020080B57D48002101608F
S1133E4000F0C4F900F014FA7A48FDF759FE00F0C6
S1133E50A5FA00F003F800F07DFBFEE780B5764894
S1133E600068000F4007400F002806D002280CD03D
S1133E7007D3042811D00CD313E07048FDF740FE9B
S1133E8012E06F48FDF73CFE0EE06E48FDF738FE89
S1133E900AE06D48FDF734FE06E06C48FDF730FE9D
S1133EA002E06B48FDF72CFE63480068000E4007F3
S1133EB0400F042802D0052804D007E065A0FDF7D0
S1133EC01FFE06E064A0FDF71BFE02E06348FDF759
S1133ED017FE594800680007000F00280CD001287D
S1133EE00ED0022810D0042812D0052814D0062899
S1133EF015D0082816D019E05948FDF701FE18E03E
S1133F005848FDF7FDFD14E08648FDF7F9FD10E083
S1133F108548FDF7F5FD0CE08448FDF7F1FD844884
S1133F20FDF7EEFD8348FDF7EBFD02E08248FDF767
S1133F30E7FD41480068000D4007400F012803D108
S1133F407E48FDF7DDFD02E07D48FDF7D9FD3A48E6
S1133F500068000C4007400F00280BD0022811D045
S1133F600CD3042816D011D306281BD016D3072847
S1133F701CD01FE07348FDF7C3FD1EE07248FDF737
S1133F80BFFD1AE07148FDF7BBFD16E07048FDF770
S1133F90B7FD12E06F48FDF7B3FD0EE06E48FDF784
S1133FA0AFFD0AE06D48FDF7ABFD06E06C48FDF798
S1133FB0A7FD02E06B48FDF7A3FD0F2189B26A4813
S1133FC0FDF79EFD00F050F868480068000E0007F9
S1133FD0000F00280CD001280ED0032810D005288B
S1133FE012D0072814D0092816D00F2818D01BE0A7
S1133FF05F48FDF785FD1AE05E48FDF781FD16E098
S11340005D48FDF77DFD12E05C48FDF779FD0EE0AB
S11340105B48FDF775FD0AE05A48FDF771FD06E0BF
S11340205748FDF76DFD02E05748FDF769FD01BDF6
S113403000810440D858000024800440E058000067
S1134040E8580000F0580000F8580000005900003B
S1134050F05200003400000035000000F45100006C
S11340609C570000AC57000080B5484803210170FC
S1134070474800210170474800210170464800214B
S1134080017046480121017045488021017044486F
S113409000780006FBD543480178C9B24248FDF7D1
S11340A02FFD42480178C9B24148FDF729FD414836
S11340B00178C9B23E48FDF723FD3F480178C9B2F3
S11340C03E48FDF71DFD31480321017030480021B1
S11340D001703048002101702F48042101702F48DD
S11340E0012101702E48802101702D4800780006BE
S11340F0FBD52C480178C9B23148FDF701FD2B48A6
S11341000178C9B22FA0FDF7FBFC2A480178C9B297
S11341102748FDF7F5FC28480178C9B22A48FDF77D
S1134120EFFC01BD5C5800006858000074580000A2
S113413080580000BC5700002052000018530000B3
S11341404C52000054560000685600007C56000093
S113415090560000A4560000B8560000CC5600004B
S1134160E056000034550000F45600004C80044032
S1134170644E0000A04E0000DC4E0000184F00000A
S1134180544F0000904F00006C54000007000240A0
S11341900600024005000240040002400F000240F5
S11341A0000002400B000240505500000A0002408B
S11341B0085900000900024008000240105900009C
S11341C0EC550000202564001859000010B51E4865
S11341D01E4988420ED0002008E0042141431A4AB7
S11341E004234343194CE3585350401C8221490093
S11341F08842F2D31448FFF763FD1549154A16485F
S1134200801A03E013780B70521C491C0300581EDB
S1134210002BF7D111491248401A02E000220A701B
S1134220491C0200501E002AF8D10E490E4A0F48BC
S1134230801A03E013780B70521C491C0300581EAB
S1134240002BF7D110BD00BF00E0FF1F00000000ED
S113425000E6FF1FE44900000C4E000028EAFF1F9F
S113426010EDFF1F10EDFF1F1004000010040000EC
S113427000B583B03B480068F821890101433948FF
S1134280016039480078000705D5374800780821CF
S113429001433548017035488021490201600120FD
S11342A0019018200090042301220021304800F0DE
S11342B0E3F9304908602F480068FF2800DCFEE776
S11342C02D4800688021490201432B480160294898
S11342D000680221FCF75DFFFA218900FCF759FF11
S11342E02649086023480068FA218900FCF751FF39
S11342F023490860224800681C490968090F491CC1
S1134300FCF74AFF1F4908601E48006817490968FE
S1134310090C4907490F491CFCF73EFF1A4908607C
S113432000F010F81948C021890001601848C02124
S113433089000160E122520213480168154800F027
S113434013FB07BD80B51448FF21091D0160124805
S113435000689021090301430F4801601E20FFF704
S1134360B2FC01BD3880044002D0074044800440C0
S113437000127A001CECFF1F048004402CECFF1F89
S113438020ECFF1F24ECFF1F28ECFF1F40D004404B
S113439044D0044000C006401090044080B5574803
S11343A00078800602D55648FDF7AAFB53480078EA
S11343B0000702D55348FDF7A3FB50480078400797
S11343C002D55148FDF79CFB4C480078800702D584
S11343D04E48FDF795FB4E480078000602D54D483F
S11343E0FDF78EFB4A480078400602D54A48FDF79F
S11343F087FB47480078800602D54848FDF780FBD4
S113440043480078400702D54548FDF779FB40480A
S11344100078000702D54348FDF772FB3C4800785A
S1134420800702D54048FDF76BFB39480078C00788
S11344304DD53E48FDF764FB3D480078C0B24007C7
S1134440400F032802D13B48FDF75AFB3848007857
S1134450C0B24007400F042806D13748007840070F
S113446002D13648FDF74CFB31480078C0B2400712
S1134470400F042809D130480078C0B24007400FEB
S1134480012802D12E48FDF73BFB29480078C0B231
S11344904007400F042809D127480078C0B24007DC
S11344A0400F022802D12748FDF72AFB2048007854
S11344B0C0B24007400F042809D11F480078C0B299
S11344C04007400F032802D11F48FDF719FB10488D
S11344D00078C0B2002810D108480078C0B2002883
S11344E00BD10B480178C9B21848FDF709FB034802
S11344F00178C9B21648FDF703FB01BD01F007407E
S1134500D45300008C5700002C560000E0540000E7
S113451000F0074040560000BC550000D455000090
S11345204C540000FC5400001855000010510000C9
S113453001E007402058000002E007402C5800002A
S1134540385800004458000050580000A0520000A1
S1134550C852000080B500F003F8FFF75DF9FEE7EC
S113456080B539480068802109010143364801605B
S11345703648A021C900016035480068E02188431D
S113458033490860324800684021014330480160E3
S113459030483149016031480078402101432F48B7
S11345A001702F480078FD2101402D4801702D48ED
S11345B00078FB2101402B4801702A4800788021B3
S11345C001432848017025480078BF210140234851
S11345D0017025480078BF210140234801701F481D
S11345E00078E02101401D4801701F480078E02157
S11345F001401D48017019480078182101431748EB
S113460001701948007803210143174801701648C6
S11346100078402101431448017014480078400692
S1134620FBD50E480078402101430C4801700D4829
S113463000788006800E0B490870E12252020C4972
S11346400C4800F091F901BD388004400CB00440DE
S113465004800440448004400000011005400640EA
S11346600140064000400640044006400640064023
S1134670C05D000000C00640F4B504000D001E003B
S1134680A6480078C0B280088007800F002807D1B0
S1134690A2480078C00603D5A0480078800601D55A
S11346A0012039E19E48844201DB212034E168463F
S11346B00078002806D09B48201A9B49884201D3E1
S11346C0222029E1EDB2002D00D0012576B2300080
S11346D0401E192801D341201EE1694618200F56B7
S11346E07FB2380018381B2801D3422014E120007F
S11346F076B23100FCF74DFD8C49401A8C49884252
S113470001D3432008E1200076B23100FCF741FDDB
S11347107FB278438749401A8749884201D34520AC
S1134720FAE0864800780100C320084084498C429E
S11347300ADA0100EDB2E8006A46127892000243F8
S113474010201043084309E00100EDB2E8006A4676
S113475012789200024320201043084377490870DE
S11347607848844201DA002114E07748844201DA6F
S113477001210FE07548844201DA02210AE07448FD
S1134780844201DA032105E07248844201DA0421FB
S113479000E00521704800788007800F0200C800FF
S11347A0382101408020084310436B490870684653
S11347B00078002810D0002000E0401C00B26749B7
S11347C0884203DA554909788907F6D553480078B1
S11347D0800701D423209FE0002000E0401C00B2A9
S11347E0FA21C900884203DA4C490978C906F5D48C
S11347F04A480078C00601D511208DE0002000E071
S1134800401C00B2FA21C900884207DA43490978FA
S1134810C9B289088907890F0229F1D13F48007874
S1134820C0B280088007800F022801D01A2073E0EC
S11348304B480078202101434948017049480078D9
S11348400100E02008400100701EC006C00E0843AD
S113485044490870424800780100E0200840020002
S1134860183FF906C90E4020084310433C4908701C
S1134870002000E0401C00B2FA21C900884203DA9B
S1134880264909788906F5D524480078800601D49C
S1134890162041E0002000E0401C00B2FA2109018A
S11348A0884203DA1D4909784906F5D51B48007882
S11348B0400601D444202FE02A480078C106C90EDE
S11348C0491C27480078C506ED0E183522480078A3
S11348D08006800E204A1070002000E0401C00B2C8
S11348E0FA22D200904207DA0C4A1278D2B2920825
S11348F09207920F032AF1D108480078C0B28008C9
S11349008007800F032801D01B2005E02000C9B2D6
S1134910FCF73FFCEDB26843F2BD000006400640E0
S113492081F0FA02C0C62D004181BA0180841E00C4
S113493081841E00006CDC020175190301400640ED
S113494001127A00D1121300A1252600414B4C001C
S113495081969800012D310100400640204E000050
S1134960054006400440064010B50400080011004C
S11349701A4A944207D11A4A126880231B0113432E
S1134980174A136006E0164A126880235B0113433A
S1134990134A1360E278F3231340E3700022A270F9
S11349A0FA229200504310225143FCF7F2FB227882
S11349B0E0211140020092B2120AD206D20E0A433A
S11349C022706070E0780C210143E17010BD00B5E5
S11349D002791206FCD5C17100BD000000B006408A
S11349E034800440010000000000000000000000CA
S11349F000000000000000000000000000000000B3
S1134A0000000000000000000000000000000000A2
S1134A100000000000000000000000000000000092
S1134A200000000000000000000000000000000082
S1134A300000000000000000000000000000000072
S1134A400000000000000000000000000000000062
S1134A500000000000000000000000000000000052
S1134A600000000000000000000000000000000042
S1134A700000000000000000000000000000000032
S1134A800000000000000000000000000000000022
S1134A900000000000000000000000000000000012
S1134AA00000000000000000000000000000000002
S1134AB000000000000000000000000000000000F2
S1134AC000000000000000000000000000000000E2
S1134AD000000000000000000000000000000000D2
S1134AE000000000000000000000000000000000C2
S1134AF000000000000000000000000000000000B2
S1134B0000000000000000000000000000000000A1
S1134B100000000000000000000000000000000091
S1134B200000000000000000000000000000000081
S1134B300000000000000000000000000000000071
S1134B400000000000000000000000000000000061
S1134B500000000000000000000000000000000051
S1134B600000000000000000000000000000000041
S1134B700000000000000000000000000000000031
S1134B800000000000000000000000000000000021
S1134B900000000000000000000000000000000011
S1134BA00000000000000000000000000000000001
S1134BB000000000000000000000000000000000F1
S1134BC000000000000000000000000000000000E1
S1134BD000000000000000000000000000000000D1
S1134BE000000000010000000000000000000000C0
S1134BF000000000000000000000000000000000B1
S1134C0000000000000000000000000000000000A0
S1134C100000000000000000000000000000000090
S1134C200000000000000000000000000000000080
S1134C300000000000000000000000000000000070
S1134C400000000000000000000000000000000060
S1134C500000000000000000000000000000000050
S1134C600000000000000000000000000000000040
S1134C700000000000000000000000000000000030
S1134C800000000000000000000000000000000020
S1134C900000000000000000000000000000000010
S1134CA00000000000000000000000000000000000
S1134CB000000000000000000000000000000000F0
S1134CC000000000000000000000000000000000E0
S1134CD000000000000000000000000000000000D0
S1134CE000000000000000000000000000000000C0
S1134CF000000000000000000000000000000000B0
S1134D00000000000000000000000000000000009F
S1134D10000000000000000000000000000000008F
S1134D20000000000000000000000000000000007F
S1134D30000000000000000000000000000000006F
S1134D40000000000000000000000000000000005F
S1134D50000000000000000000000000000000004F
S1134D60000000000000000000000000000000003F
S1134D70000000000000000000000000000000002F
S1134D80000000000000000000000000000000001F
S1134D90000000000000000000000000000000000F
S1134DA000000000000000000000000000000000FF
S1134DB000000000000000000000000000000000EF
S1134DC000000000000000000000000000000000DF
S1134DD000000000000000000000000000000000CF
S1134DE0000000000A0000001D3D00002400030034
S1134DF000FF0000513600002C00090000FF0000F5
S1134E0000000000000000000000000080B5104811
S1134E1001681048FCF774FE01BD0D4800680E4996
S1134E200968F82292010A430B490A600B49FF22E0
S1134E30121D0A60704780B5084800688021490443
S1134E400143064801600648FCF75AFE01BD000014
S1134E5004ED00E04051000038800440109004400C
S1134E60F8530000466C6173682073697A653A20D0
S1134E702038204B422070726F6772616D20666C1F
S1134E806173682C20302E3235204B422070726FB3
S1134E9074656374696F6E20726567696F6E000074
S1134EA0466C6173682073697A653A202031362034
S1134EB04B422070726F6772616D20666C6173681B
S1134EC02C20302E35204B422070726F7465637431
S1134ED0696F6E20726567696F6E0900466C617355
S1134EE0682073697A653A20203332204B4220705F
S1134EF0726F6772616D20666C6173682C2031205B
S1134F004B422070726F74656374696F6E207265B2
S1134F1067696F6E09000000466C617368207369ED
S1134F207A653A20203634204B422070726F6772C3
S1134F30616D20666C6173682C2032204B422070B6
S1134F40726F74656374696F6E20726567696F6EE2
S1134F5009000000466C6173682073697A653A2021
S1134F6020313238204B422070726F6772616D209D
S1134F70666C6173682C2034204B422070726F740D
S1134F80656374696F6E20726567696F6E090000EE
S1134F90466C6173682073697A653A20203235362D
S1134FA0204B422070726F6772616D20666C617372
S1134FB0682C2034204B422070726F7465637469CE
S1134FC06F6E20726567696F6E0900000A45525260
S1134FD02120496E76616C696420495251207661C2
S1134FE06C75652070617373656420746F20656EE1
S1134FF061626C65206972712066756E6374696F95
S11350006E210A000A55534220484944204D6F75C9
S113501073650A57616974696E6720666F722055FB
S11350205342204D6F75736520746F206265206153
S1135030747461636865642E2E2E0A000A4849441C
S1135040205365745F50726F746F636F6C20526588
S1135050717565737420424F4F54206661696C65A5
S113506064213A2030782578202E2E2E20454E4477
S1135070210A000063090000E3090000E7090000B9
S1135080110F0000130A0000030A00002F0A000099
S113509000000000B50F0000330A0000000000000B
S11350A0790F000000000000000000000A48494495
S11350B0205365745F50726F746F636F6C20526518
S11350C0717565737420424F4F54206973206E6F5D
S11350D07420737570706F72746564210A00000027
S11350E04849442064657669636520616C72656132
S11350F06479206174746163686564202D2044457B
S1135100565F5354415445203D2025640A00000055
S11351100A0D5B6F75745352535D57616B657570FF
S113512020626974207365742066726F6D206C6FE1
S11351307720706F776572206D6F646520000000C2
S11351400A2A2A2A2A64656661756C745F69737217
S113515020656E7465726564206F6E207665637475
S11351606F722025642A2A2A2A2A0D0A0A000000BE
S11351700A4572726F7220696E205F7573625F6890
S11351806F73746465765F73656C6563745F696E71
S1135190746572666163653A202578000A45727207
S11351A06F7220696E207573625F636C6173735FE5
S11351B06869645F7365745F70726F746F636F6C3A
S11351C03A202578000000004D6F757365206465F2
S11351D0766963652072656164792C207472792024
S11351E0746F206D6F766520746865206D6F7573BC
S11351F0650A00000A0D556E7265636F676E697A01
S11352006564204B696E65746973207375622D66DD
S1135210616D696C79206465766963652E0A0D0099
S11352200A0D556E7265636F676E697A6564204B0B
S1135230696E65746973207061636B61676520636F
S11352406F64652E20202020202000000A0D556E5A
S11352507265636F676E697A6564204B696E657405
S113526069732066616D696C792061747472696216
S11352707574652E0A0D00004D6F75736520696E97
S113528074657266616365642C2073657474696EF9
S1135290672070726F746F636F6C2E2E2E0A00007D
S11352A05B6F75745352535D52434D5F5352533089
S11352B0206973205A45524F2020203D2025233059
S11352C03258200D0A0D00005B6F75745352535D04
S11352D052434D5F53525331206973205A45524F04
S11352E02020203D202523303258200D0A0D0000B7
S11352F00A0D556E7265636F676E697A6564204B3B
S1135300696E657469732066616D696C7920646582
S1135310766963652E0A0D000A0D4C6F7720506F75
S1135320776572204C696E65207769746820436FD5
S113533072746578204D302B0A0D0A0D00000000B0
S113534010B5074979441831064C7C44163404E0FE
S1135350081D0A68891888470100A142F8D110BDC8
S1135360BC000000C8000000556E6B6E6F776E20A5
S11353704D6F757365204465766963652053746168
S11353807465203D2025640A000000000000000030
S113539003010200413A000000000000090000007F
S11353A0C52F000000000000000000000000000005
S11353B00000000000000000400000000F0000009A
S11353C000000000000000000000000000000000D9
S11353D0000100000A0D53746F70204D6F64652046
S11353E041636B6E6F776C65646765204572726F9D
S11353F072205265736574000A2A2A2A2A41626F50
S1135400727420627574746F6E20696E7465727242
S11354107570742A2A2A2A0A0A0000002BBEFFFF8C
S1135420E802000028EAFF1F000000002D2D2D2DAA
S11354302D20496E746572666163656420457665E6
S11354406E74202D2D2D2D2D0A0000000A0D4C6F99
S11354507373206F662045787465726E616C2043A7
S11354606C6F636B20526573657400004552522162
S11354702120556E646566696E656420666C61738F
S1135480682073697A650A0D000000002D2D2D2D0A
S11354902D20417474616368204576656E74202DF7
S11354A02D2D2D2D0A0000002D2D2D2D2D20446590
S11354B074616368204576656E74202D2D2D2D2D25
S11354C00A000000484944204465766963652073F6
S11354D074617465203D2025643F3F0A000000008C
S11354E00A0D436F7265204C6F636B7570204576AF
S11354F0656E742052657365740000000A0D4C6F6C
S11355007373206F66204C6F636B20696E20504C60
S11355104C205265736574000A0D4C6F772D766FBD
S11355206C746167652044657465637420526573A7
S1135530657400000A0D556E7265636F676E697A53
S11355406564205352414D2053697A652E0A0D003B
S1135550466C61736820706172616D657465722058
S113556076657273696F6E202564200000F00BF875
S1135570002801D0FFF7E4FE0020C046C046FEF735
S1135580E9FFFEF7C7FB0120704700000A4D6F7565
S1135590736520646576696365206174746163680A
S11355A065640000476F696E6720746F2069646CDE
S11355B0652073746174650A000000000A0D457863
S11355C07465726E616C2050696E205265736574E7
S11355D0000000000A0D5761746368646F67284314
S11355E04F5029205265736574000000466C617346
S11355F0682076657273696F6E20494420256420A3
S11356000000000055534220484F535420496E690E
S113561074204F4B0A0D0000202050726F746F638A
S11356206F6C203D2025640A000000000A0D536FB2
S113563066747761726520526573657400000000BA
S11356400A0D506F7765722D6F6E20526573657405
S1135650000000005352414D2053697A653A2030CE
S11356602E35204B420A0D005352414D2053697A86
S1135670653A202031204B420A0D00005352414D1F
S11356802053697A653A202032204B420A0D0000EB
S11356905352414D2053697A653A202034204B42BD
S11356A00A0D00005352414D2053697A653A202077
S11356B038204B420A0D00005352414D2053697A61
S11356C0653A20203136204B420A0D005352414D99
S11356D02053697A653A20203332204B420A0D0068
S11356E05352414D2053697A653A20203634204B79
S11356F0420A0D0053696C69636F6E2072657620EF
S113570025640A0D2000000080B50100C9B20248DA
S1135710FFF75DF901BD000000C0064054696D65E6
S11357207220496E6974204F4B0A0D002020436C8F
S1135730617373203D202564000000002020537510
S113574062436C617373203D20256400526967686D
S11357507420436C69636B2000000000202020202B
S11357602020202020202020000000004D696464B7
S11357706C6520436C69636B2000000020202020AE
S11357802020202020202020200000000A0D4D444D
S11357904D2D415020526573657400003136706997
S11357A06E20202020202020000000003234706968
S11357B06E20202020202020000000003130307096
S11357C0696E202020202020000000004D61696EB9
S11357D0204F4B0A0D0000005374617465203D2076
S11357E0256400004C65667420436C69636B20007B
S11357F020202020202020202020200057686565BC
S11358006C20446F776E0000576865656C205550B6
S11358102020000020202020202020202020000004
S11358204C4C53206578697420000000564C4C534E
S11358303020657869742000564C4C5331206578CB
S113584069742000564C4C5332206578697400000A
S1135850564C4C5333206578697420003332706998
S11358606E20202020202000343870696E202020F3
S113587020202000363470696E2020202020200053
S1135880383070696E20202020202000C046C04699
S1135890C046C046FFF76AFE4C65667420200000CF
S11358A05269676874200000202020202020000016
S11358B05550202020000000446F776E2000000027
S11358C02020202020000000000000000000000034
S11358D04C50540D0A0000000A0D0A0D000000008F
S11358E00A0D4B4C300000000A0D4B4C31000000F7
S11358F00A0D4B4C320000000A0D4B4C33000000E3
S11359000A0D4B4C340000002025642000000000E8
S11359102025640A0D00000025640A0D0000000023
S903588D17
